:020000041100E9
:10B0000003B40148019001BD7511000003B401486B
:10B01000019001BD75A9000003B40148019001BD74
:10B02000C93E000003B40148019001BD9DA9000084
:10B0300003B40148019001BDB30E000003B4014800
:10B04000019001BDE147FF1F03B40148019001BD1C
:10B050006189000003B40148019001BD1907010096
:10B0600003B40148019001BDA9D8000003B4014810
:10B07000019001BDB352010003B40148019001BD2C
:10B080000D52010003B40148019001BD8B52010033
:10B0900003B40148019001BDC1A5000003B40148FB
:10B0A000019001BD9D6A000003B40148019001BDFB
:10B0B000116E000003B40148019001BDE94C01008C
:10B0C00003B40148019001BD8BB9000003B40148ED
:10B0D000019001BDD1D4000003B40148019001BD2D
:10B0E000CD4C010003B40148019001BD85C10000B1
:10B0F00003B40148019001BD09B8000003B4014840
:10B10000019001BD2DFC000003B40148019001BD78
:10B1100025E7000003B40148019001BDEDB800002F
:10B1200003B40148019001BD3148000003B4014857
:10B13000019001BDC53F000003B40148019001BD6D
:10B14000F5D5000003B40148019001BDF1FA0000FB
:10B1500003B40148019001BD053FFF1F03B401483E
:10B16000019001BD9946000003B40148019001BD62
:10B170001547000003B40148019001BDC5F000006F
:10B1800003B40148019001BD79F4000003B4014803
:10B19000019001BD63EC000003B40148019001BDC2
:10B1A00005FF000003B40148019001BD31610000BA
:10B1B00003B40148019001BD59E4000003B4014803
:10B1C000019001BDD5E4000003B40148019001BD28
:10B1D00001BF000003B40148019001BD21F100004E
:10B1E00003B40148019001BD39B8000003B401481F
:10B1F000019001BD77F1000003B40148019001BD49
:10B20000C1E2000003B40148019001BD154D0100E9
:10B2100003B40148019001BD8DE3000003B401486F
:10B22000019001BD5511010003B40148019001BD19
:10B23000A5FD000003B40148019001BDA93C000038
:10B2400003B40148019001BD1D2FFF1F03B4014845
:10B25000019001BD4136FF1F03B40148019001BDBB
:10B26000ADAE000003B40148019001BD456B010083
:10B2700003B40148019001BDF54E010003B401483B
:10B28000019001BD434D010003B40148019001BD8F
:10B290002526000003B40148019001BDC94A010000
:10B2A00003B40148019001BD691F000003B40148C7
:10B2B000019001BD5D17000003B40148019001BD7C
:10B2C0003D4B010003B40148019001BD59520100FA
:10B2D00003B40148019001BD5125000003B40148A9
:10B2E000019001BD014C010003B40148019001BD72
:10B2F000594F010003B40148019001BD1D4B0100ED
:10B3000003B40148019001BD8D12000003B401484F
:10B31000019001BD4D1F000003B40148019001BD23
:10B320005522000003B40148019001BDDD52010027
:10B3300003B40148019001BD1D4D010003B4014853
:10B34000019001BD090E000003B40148019001BD48
:10B35000810E000003B40148019001BD017F00008F
:10B3600003B40148019001BDE117000003B4014896
:10B37000019001BD7918000003B40148019001BD9E
:10B38000D949010003B40148019001BD192800000A
:10B3900003B40148019001BDB117000003B4014896
:10B3A000019001BDE928000003B40148019001BDEE
:10B3B0005549010003B40148019001BD4551010008
:10B3C00003B40148019001BD8528FF1F03B4014863
:10B3D000019001BD291C000003B40148019001BD8A
:10B3E000D123FF1F03B40148019001BD851F000058
:10B3F00003B40148019001BD1147010003B40148A5
:10B40000019001BD4B23FF1F03B40148019001BD12
:10B410002523FF1F03B40148019001BDA946010087
:10B4200003B40148019001BDE548000003B40148A0
:10B43000019001BD2951010008B5002802D000F09B
:10B4400013FA00E01220694608706A46012102489A
:10B45000FFF7D6FD002008BD0520000070B50C46A2
:10B460000546FFF7D3FD21462846FFF7D5FD0446E4
:10B47000FFF7D8FD204670BDFEB5089D099C174614
:10B48000002874D0002972D0002C02D0012C02D0E8
:10B4900003E02A2201E0FF220732921D0192354A81
:10B4A0000E461770344A10603448037034480570F3
:10B4B00034480470002446E0A1208000254645431E
:10B4C0002D48A121006889002818FFF7B1FD2A48FE
:10B4D0002D49006862002818FF308130C66201984B
:10B4E00036180020885451184870264909780029D8
:10B4F0003BD0FF211131009121461C2041432248BD
:10B50000002220300D182A764254E0B20099FFF74D
:10B5100095FD686000202872E0B201220099FFF7D3
:10B520008DFDE86000202874E0B202220099FFF748
:10B5300085FD68616968002919D0E968002916D07D
:10B54000002814D0641CBC42B6DB00200F4D104A0A
:10B55000014683009C186580401CD154C0B26170C4
:10B560001028F6D30020FEBD01E03421C3E71220ED
:10B57000F9E700001409FF1F3409FF1F1509FF1F19
:10B580001609FF1F1709FF1F1897FF1FFFFF000075
:10B59000F898FF1F10B5FF2815D0002913D0A1225D
:10B5A0009200094B50431A688218FF32C132948BC3
:10B5B0008C80128B0A801A688018FF30C130C28BD1
:10B5C000CA80408B488010BD3409FF1FF8B5714D0B
:10B5D0000028AA7916D0012A01D0032A12D16E4977
:10B5E0000B78FF2B0ED14B78FF2B0BD18B78FF2BD9
:10B5F00008D1CB78FF2B05D10B79FF2B02D14979EC
:10B60000FF2930D065490B78012B1DD00026644CF2
:10B610000E702178092931D00A292FD00B292DD07D
:10B620000C292BD00D2929D0052927D0062925D072
:10B63000A97B00290AD0012908D0032906D00229B4
:10B6400004D004290FD101E00C20F8BD002A05D058
:10B65000012A03D0022A01D0032A04D1514F002825
:10B6600075D0012801D01220F8BDA888012805D086
:10B67000FFF7CCFC2078002802D01AE02120F8BD8A
:10B68000A87B0300FFF7E0FC050408100C08240069
:10B69000012020701F200AE002202070202006E0F8
:10B6A00004202070222002E0032020702120FFF7D8
:10B6B000D1FC2078282101280DD002280BD00428A5
:10B6C00009D0032807D007280ED008280CD01BE08B
:10B6D00026701E20EBE7344806602975FFF7C0FC92
:10B6E000002820D0AE800FE03048C068808D8006F2
:10B6F0000AD52F480278002A06D1AA7B032A06D051
:10B70000022A04D0002A02D0FFF78CFCB6E70222FE
:10B7100002702975140321463878FFF7A7FC2146EB
:10B720003878FFF7A9FC0120A8802248007800287B
:10B7300009D02148012102887D20C0004243C9036D
:10B740003878FFF79FFCFFF76DFC20E0FFE7FFF77D
:10B750005DFCAE802078072808D0082806D0267027
:10B760001648FFF795FC1E20FFF774FC104801787F
:10B77000002905D00670012149033878FFF776FCCF
:10B78000FFF750FC0121C9033878FFF76FFC002058
:10B79000F8BD0000A60BFF1F6B09FF1F1A09FF1F52
:10B7A0001C09FF1F1B09FF1F4809FF1F6067FF1FC0
:10B7B0002309FF1F2109FF1F2C09FF1F0010004054
:10B7C000FFB585B016460D460446119FFFF71EFCD7
:10B7D00015482946007804902046202C00D22020CD
:10B7E000202900D220210EAA2CCA009201AAA8C2A8
:10B7F0003246089BFFF752FC05460C480A49448034
:10B8000004980870012E01D0042E08D10848802326
:10B810000078C101074882889A4311438180FFF76D
:10B8200001FC284609B0F0BD1C09FF1FA60BFF1F35
:10B830007809FF1F6C11FF1F10B5FB2908D8084BB2
:10B840009A4205D81B2903D3FF2349339A4201D2D8
:10B85000302010BD034B19825A82FFF725FC10BD22
:10B86000480800008410FF1FF8B532490978012903
:10B870002AD0022928D0032926D0042924D005293A
:10B8800022D0062920D02C49097802291CD004296D
:10B890001AD0012918D0032916D0062914D0072957
:10B8A00012D00178254C8C462170467866708378DA
:10B8B000A370C278E270017921714079204D6071E6
:10B8C000AF79012F02D008E00C20F8BD6746EF7178
:10B8D0002E726B72AA72E97228730622E91D19484A
:10B8E000FFF7E8FB0622E91D1748FFF7E3FB1748BF
:10B8F000017801290BD12178417061788170A1789C
:10B90000C170E178017121794171617981711048CB
:10B91000017801290BD12178417061788170A1787B
:10B92000C170E178017121794171617981710020E3
:10B93000F8BD00001C09FF1F2309FF1F6B09FF1F33
:10B94000A60BFF1F7211FF1F8A13FF1FBC0BFF1FE7
:10B95000D40BFF1FFFB50D46A121890048432349A1
:10B9600081B009681E464418002D09D0FF20D93047
:10B97000015B0398814203D3002E04D0012E02D034
:10B98000122005B0F0BDE07800280AD00520C001E3
:10B9900027181748F9780078801C814203D30720C4
:10B9A000EFE70220EDE7FFF731FBF878A91E401C16
:10B9B000F87003980870002E10D0012048702046BF
:10B9C0007C30091FFFF77CFBFFF72CFB0948007850
:10B9D000082805D0072803D00020D2E70220EDE791
:10B9E00000212046FFF772FBF6E700003409FF1F35
:10B9F0001509FF1F1C09FF1F70B50446FF30FF30FB
:10BA00000230406F0D46012812D1282D10D1A420FC
:10BA1000005BE188401A1D4980B2884208D3214664
:10BA20006A3105220E46481FFFF756FB002818D042
:10BA300017490020820052185278002A16D0401C64
:10BA4000C0B21028F6D31348012189020078FFF70D
:10BA500013FB2079010110480918897902290DD0BA
:10BA60000FE031462046FFF73DFB70BD8000237993
:10BA7000421853800D5401205070E4E74178491E6C
:10BA800041702046FFF734FB70BD0000FF7F0000CF
:10BA9000F898FF1F1B09FF1F300DFF1FF0B505466B
:10BAA00087B0E03004902846A030039040380590DD
:10BAB000092080012E462818FF36E13602903046D4
:10BAC0002030EF1DF9372C46803401909FE1E07A59
:10BAD000801E0300FFF7B8FA1A0E3822396BF638C9
:10BAE000C13892D1A9383838383838F5F4F3F238FB
:10BAF00038F1F038A07A012803D02846FFF7FEFA83
:10BB000012E0C5488078002801D0162130E1608A13
:10BB1000401E0004000C60826FD076E1A07A0128FC
:10BB200004D02846FFF7F0FAA0726EE1BA48C07858
:10BB30000028ECD02846FFF7EDFA2A462946287956
:10BB4000C832C031FFF7ECFA61E1A07A012813D0C6
:10BB50000498C07D012821D00498007E00287BD065
:10BB60002A4629462846D732B031E730FFF7DEFAB9
:10BB700004990120C8754AE1A748C078002805D07B
:10BB80000399012088710020E0673860B8790128A6
:10BB9000BDD106212846FFF7CFFA38E12846FFF746
:10BBA000D1FA0128B9D10020B8710120BCE7A07AF0
:10BBB000012803D02846FFF7CBFAB5E79648C078AE
:10BBC0000028A4D0E88C68842846FFF7A3FA0599DA
:10BBD0000120C876207138790128287909D00122FE
:10BBE0000021FFF7BBFA002038713872F871B87184
:10BBF0000DE10021FFF7B8FAF5E7B8E0A07A0128D7
:10BC000005D02846FFF7B6FA012807D0FDE0F879FD
:10BC10000128BDD12846FFF77DFAF8E00020F87131
:10BC2000039988710120A072F1E0A07A012804D064
:10BC300079792846FFF7A4FA76E77748C178002992
:10BC400006D0039A00219171059A0121D1762171C4
:10BC500080780028DED15AE78EE0A07A012803D050
:10BC60002846FFF793FA5FE76B48C0780028F2D0C8
:10BC700001203873E88C6884CCE7A07A012805D0CD
:10BC80000120F8752846FFF787FA4DE7787D0128EF
:10BC900006D0608A401E0004000C608213D0B4E01D
:10BCA000B87D0128B6D1B88B00907B8B3A7E29797C
:10BCB0000020FFF777FAADE78FE072E03BE02DE080
:10BCC0001BE009E09CE0B88B00907B8B3A7E2979E1
:10BCD0002220FFF767FA4AE0A07A012806D028461A
:10BCE000FFF766FAA072002070748EE04A48C078B0
:10BCF0000028B0D0012070748CE7A07A012803D00E
:10BD00002846FFF75BFA0FE74348C0780028A2D027
:10BD1000002030742879FFF757FA7BE7A07A0128D2
:10BD200003D02846FFF756FA36E03B48C078002893
:10BD300091D0012018E0A07A012807D0707FB17F50
:10BD400008401BD041071DD5042020E03248C078B0
:10BD500000288CD001990020C871019A012111722C
:10BD60002E490979012987D10199087252E72221C8
:10BD70002846FFF735FA012007B0F0BD707E7075D8
:10BD8000B07E05E0800701D5022000E0012070753B
:10BD9000B0752846FFF72AFAA072019900200872B0
:10BDA00033E0A07A012807D02846FFF725FAA072D1
:10BDB00002990120087628E01748C07800289BD116
:10BDC000608A401E0004000C60821ED114480422C8
:10BDD00000212818FFF716FAC9E7A07A012803D036
:10BDE0002846FFF715FA9FE60B48C07800280ED0CA
:10BDF0000299002008760299C875FFF70FFA09E743
:10BE00002846FFF711FA012887D00020B4E7E07B2D
:10BE1000002800D05BE6AFE7E010FF1F6067FF1F60
:10BE2000560200000E480D4901600E4981600C4920
:10BE30000D4A40314A610E4B0C4A5A610D4AC262AA
:10BE40000D4A82630D4A8A600D4A4263084A0D48D2
:10BE5000403A10620C48886170470000C1B7001179
:10BE60004000FF1FCDB50011354BFF1F414AFF1F9A
:10BE70004002FF1FD13EFF1F453DFF1FF9B90011D2
:10BE80009DBA00112540FF1F6529FF1F70B5FFF700
:10BE9000BDF8904C002025682060FFF7CBF90646DE
:10BEA0002560FFF7BFF8304670BD8B49C968FF3188
:10BEB000813188657047F8B5FFF7C2F9864D874A2A
:10BEC00068721178022903D9002801D1012010706D
:10BED000834900200446E9608300401CCC50FF28C1
:10BEE000FADDE8687F49882319507F49C1627F499C
:10BEF0000978002902D07C491131C1620A2101650B
:10BF0000117881637A49C161FFF7A0F9E96879483E
:10BF10004861192080018861084637228030C2605C
:10BF2000082336220B64CA631E224A64362242600A
:10BF3000322202603B220364C2632822426441220F
:10BF4000C2643922826432224365026528228265F6
:10BF5000022202664222C2651E22836642662822AF
:10BF6000C26620224267422202675A22436102616E
:10BF70003C228261192292010A605F4A0A63FF2211
:10BF80002D328A60CA60FF22F5320A615B4A8A64F8
:10BF90007D22D2005A4EC267CE644A62594A8A62F2
:10BFA0003222CA6506224A658A65CA1DF93202250F
:10BFB00013604D664B25ED008D660925CD66524D0B
:10BFC0000D678C674B67AB10CB67504FFF313E60FE
:10BFD0004A4E86627D26F6008667642646620526FE
:10BFE000C66202260663C826466384633820506012
:10BFF000474810644B2080019061B000D061581018
:10C0000010627D2000015062D4669565136653640A
:10C01000D565146753671E2090663E4890673E487A
:10C020005B008131D0670B608B604860FF20F5308A
:10C03000C86008614B20C00010630E65384837495E
:10C04000274A81603749803A11613549364A803143
:10C050008A62364ACA62364A8261364AC262364AC1
:10C0600002632F4A3548403A50633548D06335481B
:10C07000C861354890632A49344840318861354960
:10C080003348886026483449803841603349244A1F
:10C0900041633349C03AD1603349324B204CCB63C2
:10C0A000324B403C2363324B9362324AC263324A82
:10C0B000C260324A4A63324AE260324A8A63324A92
:10C0C0000A6332498163FFF7C7F80120FFF7CAF816
:10C0D000F8BD00009809FF1F6067FF1F4A0AFF1F95
:10C0E0000004FF1F88FFFF1F6E040000FC64FF1F99
:10C0F0003A07000080C3C9019A02000050C3000043
:10C10000280A00006A180000204E0000F009FF1FF6
:10C1100000400011DC05000040420F002944FF1FD1
:10C120000001FF1FC926FF1FDF58FF1FB55BFF1F60
:10C13000D523FF1F6925FF1FF123FF1F7135FF1F47
:10C140006133FF1FE961FF1FD55FFF1FA523FF1F9D
:10C1500039B800110002FF1FBD3DFF1FAD41FF1F99
:10C160001D29FF1F5DB400110000FF1FED4BFF1FD5
:10C17000453FFF1F0547FF1F7D3FFF1F0529FF1F8D
:10C18000113EFF1F55B90011B128FF1F054AFF1FBF
:10C190000A7802708A7842704A88120A8270097995
:10C1A000C170042070470A7802700988090A41703A
:10C1B0000220704710B500220EE093005B189C78B7
:10C1C00004705C88521C240A44701C7984709B881B
:10C1D000D2B21B0AC370001D0B789342EDD818062B
:10C1E000800D10BDF8B50D46064649780120317026
:10C1F0000024761C16E06978012917D012216143CA
:10C2000049198A7832704A88871C120A7270B61CE3
:10C2100010223046091DFEF74DFF1037B8B2103618
:10C22000641CE4B22978A142E5D8F8BDA1004919FF
:10C230008A7832704A88871C120A7270B61C0222F1
:10C240003046091DFEF736FFBF1CB8B2B61CE7E743
:10C2500010B50C46097801702188090A417062887E
:10C26000211D801CFEF726FF6088801C80B210BD57
:10C2700010B50C46097801702188090A4170A1782F
:10C2800081706188090AC170A288A11D001DFEF796
:10C2900011FFA088001D80B210BD10B50C460A88A1
:10C2A000891CFEF707FF208810BD10B50B788A782F
:10C2B00002705343DCB22246401C091DFEF7FAFE11
:10C2C000601C10BD10B50B788A7802705343DCB245
:10C2D0002246401C091DFEF7EDFE601C10BD10B586
:10C2E0000C460A88891CFEF7E5FE208810BD10B5B3
:10C2F0000C460A88891CFEF7DDFE208810BD7FB53C
:10C3000015460446022901D0102903D1022B04D07E
:10C31000102B02D0002004B070BD994202D10A4611
:10C32000294607E01029694607D000F00DF81022D1
:10C3300069462846FEF7D0FEEDE7104600F004F807
:10C34000102269462046F5E770B50C4605000CD072
:10C35000002C0AD0102206492046FEF7ABFE2878B2
:10C36000207368786073012070BD002070BD0000EC
:10C370009C0A011110B50B460122024901F008FD8B
:10C3800010BD000091C1001170B5064608880C462A
:10C39000172812D30B4603220949304601F0F8FC56
:10C3A000050008D1074920880988884200D2014643
:10C3B000304600F0D1F9284670BD022070BD000063
:10C3C000A7C10011D867FF1F10B500231922194615
:10C3D00001F0DEFC10BD000010B50A78002A05D07F
:10C3E0000B460722024901F0D3FC10BD022010BD0C
:10C3F000B5C1001110B54A78012A01D0022A08D12E
:10C400000A78002A05D00B460522034901F0C0FC3A
:10C4100010BD022010BD0000E5C10011024940001E
:10C420008968085A70470000CC67FF1F10B50B469B
:10C430001B22024901F0ACFC10BD000051C20011EA
:10C4400010B50649002089681723054A02E0440018
:10C450000B53401C1478A042F9DB10BDCC67FF1FC2
:10C46000A068FF1F002801D0102801D902207047C2
:10C470000148816000207047CC67FF1F0098022BA5
:10C4800001D0042070471178527812028918018077
:10C49000002070470098012B01D0042070471178CC
:10C4A00001700020704770B5049C1E461546062B8F
:10C4B0001BD369782878090240182080E978A87889
:10C4C00009024018608002222271291D601DFEF7BA
:10C4D000F1FDB61FB2B22281F02A06D82046A91D6E
:10C4E0000A30FEF7E7FD002070BD042070BD009803
:10C4F000042B01D004207047537811781B02C9180F
:10C5000001809178D278120289184180002070470A
:10C51000F8B584890D460646002C26D0B2681778F7
:10C52000380620D50C2C20D90C3CA4B21019009050
:10C5300001217088234601F0C4FB002811D002209D
:10C5400028707806C00F6870B806800EA870641E48
:10C550002004000CA88001D0B068401CA860002016
:10C56000F8BD0120ECE70020EAE70120F8BD10B596
:10C5700002981146042B14D34C780A78240212191D
:10C580000280CC788A782402121942801B1F9AB24A
:10C590008280F22A05D8801D091DFEF78BFD002040
:10C5A00010BD042010BD0098042B01D0042070475A
:10C5B000537811781B02C91801809178D278120241
:10C5C000891841800020704710B502981146062B4B
:10C5D00003D0142B03D0042010BD022200E010224F
:10C5E00002714B780A781B02D2180280CB788A78C5
:10C5F0001B02D21842800279401D091DFEF75AFD28
:10C60000002010BD30B5039CD80718D1D805010E05
:10C61000022914D30B488088814210D8F620015596
:10C62000002008E0557813782D025B194500401C66
:10C630006353C0B2921C8842F4D3002030BD042062
:10C6400030BD0000CC67FF1F0098022B01D00420F2
:10C6500070471178527812028918018000207047C3
:10C6600070B5144602460498022B18D366782578D4
:10C670003602AD1905800546E0352A766976002A2E
:10C680000BD0E8219B1E9AB242808A4207D8A11C97
:10C69000001DFEF70FFD002070BDF421F2E704201D
:10C6A00070BD000010B50B461722024901F070FB67
:10C6B00010BD000071C2001110B50B460D220249D9
:10C6C00001F066FB10BD00009BC2001110B50A7896
:10C6D000002A05D00B461122024901F059FB10BD7A
:10C6E000022010BDABC2001110B50A78002A05D097
:10C6F0000B460922024901F04BFB10BD022010BD80
:10C70000C5C2001110B50B460F22024901F040FBD3
:10C7100010BD0000DFC2001110B50B460B2202490C
:10C7200001F036FB10BD0000EFC20011F72800D960
:10C73000F720084A01461080401EC3179B0F1818A7
:10C740008003000C5080491EC80F4018C003000C25
:10C7500090807047CC67FF1F034A1388994202D824
:10C760009268400011527047CC67FF1F10B500233C
:10C770001322194601F00CFB10BD000070B50C46E9
:10C780000146032000020A1A002534481300FEF770
:10C790005BFC1D1012151C1F2326282C3032343848
:10C7A0003A3C3E40424446484A4E50525A545658EB
:10C7B0005A00C07911E01022294902E028491022CC
:10C7C00010312046FEF776FC45E0C06A206042E06A
:10C7D000224906223C31F4E7007820703BE0808952
:10C7E00036E01E4942784231EBE71D4982781F3915
:10C7F000E7E7007AF1E7407AEFE71849062230319F
:10C80000DFE7807AE9E7C07AE7E7C08920E0808A3D
:10C810001EE0C0781CE0C08A1AE0008B18E0408B54
:10C8200016E0808B14E00D4906223631C9E7C08B33
:10C830000EE0008C0CE0408C0AE08079CDE7008AA5
:10C8400006E0408A04E0272904D2084600F050FAA6
:10C85000208000E00225284670BD0000F865FF1F1B
:10C86000B590FF1F70B50E4C00256071A571691E53
:10C87000E18100F069FB0420E071102200210948E9
:10C88000FEF7C0FC0748102200211030FEF7BAFC6A
:10C89000E562257265720720A072E57270BD000026
:10C8A000F865FF1FB590FF1FFEB53B4D0C46080411
:10C8B0000CD56879FEF7DCFC050004D001F032FFEE
:10C8C0002846FEF7DBFC0120C00360E0600403D5CE
:10C8D000012080034840FEBD2F48E10701268079F2
:10C8E00000292AD02978002920D0052821D0297AAA
:10C8F00068460170697A4170274906223031801CF0
:10C90000FEF7D8FBA97A68460172E97A4172694656
:10C91000687900F005FA002808D00720A871696A34
:10C92000002903D00968002900D0884720467040BC
:10C93000FEBD032069460870E4E7A1070DD5052870
:10C9400009D1E889FEF7A0FCAA8A002A03D00221B7
:10C950006879FEF797FB022019E0600704D50020F4
:10C9600001F020FF042012E0200712D528790128C9
:10C9700002D002280AD107E00096AB8B6A8B298B84
:10C98000E88A00F00BF801E000F05AF90820604056
:10C99000FEBD0020FEBD0000F865FF1FF8B5134C7A
:10C9A000069EA579052D01D01420F8BD104F851FD6
:10C9B000BD4219D2062917D3BD1DA94214D2FF27A3
:10C9C000F537BA4210D20A2B0ED3AB420CD2E0821A
:10C9D00021836283A383304601F0E4FE0421607961
:10C9E000FEF744FB0020F8BD1820F8BDF865FF1FD6
:10C9F0007A0C0000F7B50D4680490098164642189B
:10CA00007F4F00247879B9791300FEF71DFB190ECA
:10CA1000141BE92040455970777E888FE996A2A9BA
:10CA2000B4BFC8E9E9E9E9D3E900102D76D11022B5
:10CA3000314674486FE0102D70D172481022314693
:10CA4000103068E0042D69D13068F862CEE0012D25
:10CA500064D13B7832783A70002B0AD0002A07D193
:10CA6000022903D0062901D0042901D100F016F9CA
:10CA7000BCE0002A0AD0012905D0032903D00529EA
:10CA800001D0042902D10121FEF7F6FAAEE0022D11
:10CA900044D13088B881A9E01F2D3FD858481F22C3
:10CAA00000214230FEF7AEFB55482A46314642305F
:10CAB000FEF700FB524B7D7042332A46012112E003
:10CAC0001F2D7CD84F481F2200211F38FEF79AFBEC
:10CAD0004C482A4631461F38FEF7ECFA494B2A46A5
:10CAE0001F3BBD700021787900F0A4FA83E0012D8E
:10CAF00065D13078042862D8387277E0012D5ED194
:10CB0000307803285BD8787270E0062D57D13C4806
:10CB1000062231463030FEF7CDFA67E04FE0012DB6
:10CB20004DD1307807284AD8B8725FE0012D46D140
:10CB30003078032843D8F87258E0022D3FD132886C
:10CB4000BA82002A52D0052950D10221FEF79AFA62
:10CB50004CE0012D33D13078012830D8F87045E011
:10CB60003088022D2BD1062829D31921C9018842EA
:10CB700025D8F8823AE03088022D20D106281ED32D
:10CB80001921C90188421AD838832FE03088022D34
:10CB900015D1FF21F531884211D2788326E0308803
:10CBA000022D0CD10A280AD31921C901884206D8BE
:10CBB000B8831BE03178012D01D1012901D018245F
:10CBC00014E00821FEF766FB002801D016240DE0D2
:10CBD000002001F0E7FD04217879FEF747FA05E02F
:10CBE0000098272801D2022D02D002242046FEBD43
:10CBF000318800F0CFF90446F8E70000FFFCFFFFA2
:10CC0000F865FF1FB590FF1F1CB50B4CA1790029DB
:10CC100001D011201CBD002800D0606206490748E1
:10CC20002C31034601910090103B0022E17960799C
:10CC300000F016F800201CBDF865FF1FC590FF1F0F
:10CC400010B506488179052901D0122010BDC1898F
:10CC50001322407900F0AEF910BD0000F865FF1F07
:10CC6000F8B51D460224069F079E0B00FEF7ECF95F
:10CC70000D130813130813131313131313081300BE
:10CC800000F0B2F8040006D132463946284600F0DA
:10CC900061F900F0C5F82046F8BD000070B5104CF1
:10CCA0002168002904D00978814203D0032070BD97
:10CCB000122070BD0B4D02212878FEF7D7F90A48E3
:10CCC0000026468004212878FEF7D0F90748068020
:10CCD0002168032048700020FEF7E2FA70BD0000D2
:10CCE000C468FF1F6568FF1F4868FF1FE067FF1FDC
:10CCF000272803D202494000085A7047014870476C
:10CD0000E867FF1FFFFF000010B5044C6070FEF7DE
:10CD1000CDFA0521607800F0D5FE10BD6468FF1FD4
:10CD200070B5284E054630680C46002801D0112009
:10CD300070BD254801780520014216D0234880683F
:10CD4000002805D00078002802D0C80706D101E0ED
:10CD5000102070BD00F044F8002808D02078032887
:10CD600005D0022803D0002801D0122070BD0C206D
:10CD7000FEF7A2FA3060002820D005700021417033
:10CD80000A222146801CFEF795F901F09FFD040060
:10CD900002D001F0CBF812E00D48007803280ED144
:10CDA0001D20FFF7A5FF0B490028088007D00B487E
:10CDB000094A04210078FEF785FA00E01324204692
:10CDC00070BD0000C468FF1FDD67FF1F4868FF1FBC
:10CDD000DE67FF1FE067FF1F60EA00006568FF1F56
:10CDE00010B503F089FC10BD70B50C4605461C2239
:10CDF00000210948FEF706FA084805704470FEF75E
:10CE000067FA0549002803D000200870122070BD81
:10CE100001220A7070BD00005899FF1FDC67FF1FD8
:10CE200070B50F4C0025A068002802D0FEF756FA16
:10CE3000A560E068002802D0FEF750FAE5600948D6
:10CE400005210078084206D00548103001F066FB45
:10CE500001F00EF870BD002001F060FB002070BDF5
:10CE60004868FF1FDD67FF1FFEB5344D0C46080400
:10CE700019D56878FEF7FCF90121C9034C40064634
:10CE800000280ED001F06AFA002807D12878FF2880
:10CE900004D03146FEF728FA002802D03046FEF7CB
:10CEA000EDF92046FEBDE007012700280AD0A8685A
:10CEB000002804D04168002901D00020884720467E
:10CEC0007840FEBDA00709D56868002804D04168F5
:10CED000002901D00120884702202AE060072AD5D6
:10CEE000174E308800281FD0401E0004000C3080F0
:10CEF0001ED101F07DF8002809D01248077068683B
:10CF0000002804D04168002901D00120884701F0A1
:10CF100049F8694600F066FE684601F009FA1D20EE
:10CF2000FFF7E6FE308003E004216878FEF79EF804
:10CF300004206040FEBD0020FEBD00006468FF1FAD
:10CF4000E067FF1FDF67FF1F01490870704700009F
:10CF50006468FF1F70B50E4C0B46261D07C60546BC
:10CF6000102200211846FEF7C5F9012803D110212F
:10CF7000A06803F07FFC102200212846FEF7BAF9D2
:10CF8000012803D11021606803F074FC70BD00001B
:10CF90005899FF1F272807D2044A914204D0044A17
:10CFA000400011520020704702207047FFFF000030
:10CFB000E867FF1FF8B50D4617461D4906461B4A90
:10CFC00012248868954208D100282DD00268002AD2
:10CFD0002AD029463046904723E0144A521C9542F5
:10CFE00013D1002807D00268002A04D02946304611
:10CFF0009047040005D03946304600F013FF040086
:10D0000012D10B48067047700EE0284603F004FB6F
:10D01000002809D00078B04205D139462846FEF7ED
:10D020006FF9044600E003242046F8BDFEFF00002F
:10D030003868FF1FF8B50E460146194815460078B6
:10D0400005221F46104028D0304326D01548012E17
:10D050001BD0C468002C20D01F2D18D8002D01D063
:10D06000002F14D001701F220021601CFEF7CAF8A7
:10D070002A463946601CFEF71DF828462570002E0A
:10D0800007D0611CFEF742F9F8BD8468E2E7022090
:10D09000F8BD611CFEF740F9F8BD1220F8BD000094
:10D0A000DD67FF1F4868FF1F014610B50020C90754
:10D0B00004D0034A0421034800F0A6F910BD000083
:10D0C0007C0A01113065FF1F70B50F4D0F4CA87021
:10D0D00029461831204600F01DF8002128460B464D
:10D0E0001030CA0084521218491C09065360090EF8
:10D0F000F7D0012002F002FBA87800F025FB0448DD
:10D1000003F010FB70BD00001065FF1FFFFF000063
:10D1100005EF001170B50A4C0025A04209D100208E
:10D1200082008C525218401CC0B295700228F7D36E
:10D1300070BD01F0B6FE0028FAD00480857070BD85
:10D14000FFFF0000F8B50E46074606990024079831
:10D15000002902D00B242046F8BD022B01D00D245B
:10D16000F9E711785278120289188DB22946814365
:10D1700001D08024EFE73846F16800F03DF9A8427D
:10D18000E9D02A463846F16800F0A8F90400E2D157
:10D1900071892A46384600F065F9DCE770B50C461F
:10D1A000080412D50A488078FEF762F8050008D016
:10D1B0002878B02802D1284601F090FF2846FEF7D3
:10D1C0005DF80120C003604070BD002070BD00000C
:10D1D0001065FF1FFFB587B0087A0025109E1C461A
:10D1E0000F46C0060DD5099801F054FE030006D085
:10D1F0000A22394607989847050035D101E00E25E7
:10D2000032E0387802281DD17868292201784078E8
:10D2100012020002081880B2811A90427ED009DC06
:10D220007249401A23D0012821D0022851D0032866
:10D2300008D125E0012972D0022971D003296DD0CF
:10D2400004296ED0099801F04DFE0028D7D005685A
:10D25000002DD4D0129911980191009033462246A6
:10D2600039460798A847054628460BB0F0BD1198E7
:10D27000002873D1F868017831800278416897E01E
:10D28000119800286AD101203080F86800210078C8
:10D2900020707889401C80B200F04EF900280FD031
:10D2A000318802788918891C3180817A61704189BE
:10D2B000090AA17002784168E01CFDF7FBFED3E784
:10D2C00030880422001D30800021601CFDF79AFF89
:10D2D000CAE71198002872D1F86804A90088009064
:10D2E00004203080009820700098000A6070009838
:10D2F00000F022F9070028D0F86805906846028AF5
:10D3000003AB3B49384600F06FF900280FD13B785A
:10D31000022138487A68FEF7F2FF03E027E031E0A7
:10D320001DE049E0002802D1401E69468881059829
:10D33000007802280CD1059802224168201DFDF7D3
:10D34000B9FE3088801C308002E0694600988881F0
:10D3500068468089A070000AE07085E72FE0119888
:10D3600000282CD1F968079800F046F804E01198DD
:10D37000002824D1F8680088022131802070000A3A
:10D38000607071E7F868FDF7CDFF1199C0B2814276
:10D3900010D8814201D1002206E0129A89188142F8
:10D3A00002D31199401AC2B23280F9681198091853
:10D3B000204682E7072557E71198002801D00B2562
:10D3C00052E70721F8683180017821704178617057
:10D3D0008178A1704188090AE17001792171817910
:10D3E0006171C088000AA0713EE7000000280000BB
:10D3F000FFFF0000120B011110B501F052FD0028D3
:10D4000000D0807810BD00007CB51446050019D00E
:10D4100068460195018000F09DF903001DD1002CA4
:10D420001BD06D89002D0DD00C20FDF745FF002885
:10D430000AD0002303608580094A8460916800292E
:10D4400004D006E0022308E0132306E0906004E025
:10D4500011460A68002AFBD1086018467CBD00000E
:10D460001065FF1FF8B50C4C0746207815460E4690
:10D47000FF280FD00A20FDF75BFF01000AD0B12082
:10D4800008700020487008714F80CE800D81207890
:10D49000FDF72AFFF8BD00001065FF1FFFB583B040
:10D4A00008461F4601A90C9E00F046F8050012D060
:10D4B0006846808801F016FD00280AD04468002CD8
:10D4C00007D000963B462946059A0398A04707B027
:10D4D000F0BD0E20FBE70120F9E7000070B514460F
:10D4E0000E46054601F0DDFC002806D13146054810
:10D4F00001F0D7FC002803D005808470002070BDA7
:10D50000112070BDFFFF000010B50178B0290BD1CC
:10D510004178002908D10179122906D01B2903D1AD
:10D520004088012100F04AFA10BDFF210231095C58
:10D530000129F5D010BD0000F0B58C4610494B68AC
:10D5400019E09F687C89A04214D39E8831198142DA
:10D5500010D900220CE011017D186989814205D1A2
:10D560006046002800D004802846F0BD521C92B2CC
:10D570009642F0D81B68002BE3D10020F0BD0000DC
:10D580007868FF1FFFB5174881B00A9F446824E000
:10D5900000251EE0A068290146187089019988427B
:10D5A00015D30299884212D80498002807D0317800
:10D5B0007068049B039AFEF7A2FE002807D0002F94
:10D5C00002D0A06840893880304605B0F0BD6D1C9F
:10D5D000ADB2A088A842DDD82468002CD8D10020A4
:10D5E000F3E700007868FF1FFEB5174600256A467E
:10D5F0009580044640891D4A1E46904208D001AAE3
:10D600000092401C237880B26268FFF7BBFF05469A
:10D610002378022116486268FEF771FE002807D1C0
:10D620002378022113486268FEF769FE002801D0C2
:10D6300060890EE0237802210F486268FEF75FFEE2
:10D6400000280DD0002D03D068468088B84203D052
:10D65000384602F05DF904E06889401E80B200E0BF
:10D660006089002E00D030802846FEBDFFFF0000FC
:10D67000100B0111120B0111160B011110B5054908
:10D680000870042100F01EFA00F006F8FEF7D8FE3C
:10D6900010BD00008468FF1FF8B50F4D0D4B002032
:10D6A0006E1C1C78FF2209E09F688100C9190028C0
:10D6B0000ED00E80CA70401C8A70C0B2A042F3D354
:10D6C000064801F0D9FB064803F02CF80020F8BD0D
:10D6D0000D80EFE77868FF1FFEFF000029F80011BA
:10D6E000A9F70011F8B50D4614460646694601F043
:10D6F0001FFA17280CD0002C06D00122102130462A
:10D7000002F064FF002803D129463046FEF78EFE62
:10D71000F8BD000070B50C46080411D50948007822
:10D72000FDF7A6FD050007D00178A02901D101F081
:10D7300047FB2846FDF7A2FD0120C003604070BDF5
:10D74000002070BD8468FF1F0149487070470000C9
:10D750007868FF1F70B50546008800281DD06868EE
:10D760000221037842682248FEF7C9FD002808D14B
:10D7700068680221037842681E48FEF7C0FD002851
:10D780000BD01D4C6088002805D001222988120486
:10D79000101A814203D9012070BD022070BD0C20F7
:10D7A000FDF78AFD060001D000200BE0132070BDBC
:10D7B00001016B6862880A315A526188491C401C19
:10D7C000618080B229888142F2D80020306008222E
:10D7D0002946301DFDF76EFC6068002802D16660A6
:10D7E00004E0084601680029FBD10660002070BDF6
:10D7F000100B0111120B01117868FF1F06494968CF
:10D8000006E08A685289824201D188887047096897
:10D810000029F6D1002070477868FF1F10B50C462C
:10D820000321FDF78BFD214600F0B0F910BD10B5C6
:10D830001422114201D0012202E04A0604D500223E
:10D84000102102F0C3FE10BDC80701D0002010BD9A
:10D85000022010BD10B514468A0604D501221021FD
:10D8600002F0B4FE10BD882211420ED008220A40F8
:10D87000102102F0ABFE00280BD0E034617E0029BD
:10D88000F0D0217E0129EDD103E0880701D40320E7
:10D8900010BD002010BD0000014610B50020C907D2
:10D8A00004D0034A07210348FFF7AEFD10BD000076
:10D8B000900A01118465FF1F70B50D4616460024BD
:10D8C0001D490300FDF7C0FB08051234341934224A
:10D8D0002934152D23D8162200211848FDF792FC73
:10D8E0002A4631461548FDF7E5FB22E0022D16D108
:10D8F00011491088103908801BE0082D0FD10E48FF
:10D90000082231460838FDF71FFD12E0012D06D12F
:10D91000CA6909493078283107E0012D01D018245F
:10D9200007E0CA6B04493078483102F0B8F800E0EB
:10D930000224204670BD00008465FF1F8090FF1FF9
:10D940000B7803700B8802221B0A43700B88801C23
:10D95000012B02D0022B07D011E08A78027049888F
:10D96000090A417004220AE08A7802704A88120A81
:10D9700042700A7982708988090AC17006221046AD
:10D980007047000008B5044B009313460A46012176
:10D9900002F05AFD08BD000041D900111CB5032357
:10D9A000019200930A46024B122102F07DFD1CBD3C
:10D9B00021FD001110B5FDF7CDFC10BD13B50448D5
:10D9C0000078012803D101AA6946FDF7C9FC1CBDF6
:10D9D0009068FF1F70B51049104A087000210B466F
:10D9E0008C00491CC9B213530429F9D30B4C0021F4
:10D9F0001034FF260A460A256A4315196B80491C14
:10DA0000A354C9B26E720329F4D3FDF7AFFC02F040
:10DA1000D1FC02F037FE70BD9168FF1F7499FF1FA3
:10DA2000082A01D0012070474B780A781B02D218CF
:10DA30000280CB788A781B02D21842804B790A790F
:10DA40001B02D21882808A79C97909025118C180D3
:10DA50000020704770B50C46080411D509480078BD
:10DA6000FDF706FC050007D00178902901D102F0EE
:10DA700003FC2846FDF702FC0120C003604070BD96
:10DA8000002070BD9168FF1F70B50C49097888426D
:10DA900013D20B4C06016068002585533018858130
:10DAA000606830188580606830188068002804D06D
:10DAB000FDF762FC60683018856070BDA068FF1FCC
:10DAC0009468FF1F072907D0052905D0042903D032
:10DAD000062901D002207047044A8B009A18134689
:10DAE000403B1986203A9074002070477499FF1FBC
:10DAF00070B517490978884228D25C21154C4843F3
:10DB0000A16805464018002640300674A068281811
:10DB100040304674A068281840300676A06828185F
:10DB2000406D002804D0FDF727FCA0682818466542
:10DB30000026A068F100281840184068002801D08D
:10DB4000FDF71AFC761CF6B20A2EF2D370BD000067
:10DB5000A068FF1F9468FF1F70B50A880C46054631
:10DB6000072A07D0052A05D0042A03D0062A01D0A7
:10DB7000022070BD012102F007FE002804D02146DA
:10DB8000284602F0E3F870BD142070BD1CB50446B1
:10DB90000D480129017003D00020FDF7F3FB1CBDE7
:10DBA00069460020FDF7F6FC684681882046FDF7AF
:10DBB000C5FB04460120FDF7E5FB0023224619467C
:10DBC0001846FDF7E5FB1CBD9068FF1F10B5001D52
:10DBD00080B2FDF7E3FB002803D00321C943FDF722
:10DBE000E3FB10BD38B50C46050014D0002C12D054
:10DBF0000321684602F03EFE69468878402180068F
:10DC0000800E0843694688702246284602F004FFC9
:10DC1000050002D006E0022038BD03226946E01C60
:10DC2000FDF748FA284638BDF7B58EB00E98154670
:10DC30000E4600282DD0002D2BD0301DC0B20190F3
:10DC4000FDF73AFB040039D000F0B8F90746324638
:10DC5000201D0E99FDF7AEFBF8B20890E070380475
:10DC6000000E0B90A0703802000E0A9060703F0EFC
:10DC7000277000F09DF90146102202A8FDF79AFBDB
:10DC800006AB214602A8019A02F01CFE060003D052
:10DC900010E0022011B0F0BD089828700B98687051
:10DCA0000A98A870EF70082206A9281DFDF782FBCC
:10DCB00000F08AF92046FDF711FB00E013263046FC
:10DCC000E8E7FFB58DB00F98169C0E46002815D0DA
:10DCD000002C13D00D9802F09FFC050011D0617844
:10DCE000207809024018A178E27809041206891800
:10DCF0004718286AB84206D3401C04D0022011B04D
:10DD0000F0BD1420FBE7002E04D02879800701D451
:10DD10000120F4E70822002106A8FDF773FA109805
:10DD2000001DC0B20190FDF7C7FA060017D0301DE4
:10DD3000109A0F99FDF73EFB042221463046FDF76D
:10DD400039FB1022A91802A8FDF734FB06AB3146B7
:10DD500002A8019A02F0B6FD050002D013E01320DC
:10DD6000CDE7082206A908A8FDF724FB0822211DFB
:10DD700008A8FDF7B1F9012801D0012503E03946D3
:10DD80000D9800F0FDFD3046FDF7A8FA2846B6E7ED
:10DD9000FFB583B016460F461B2A01D0522E04D180
:10DDA0000398FDF70DFB00281BD01D4903988968D7
:10DDB0004000085AFFF70AFF04002DD00125601C1F
:10DDC0002670002F03D00699B847401C85B2300654
:10DDD00013D51021039802F0D7FC002804D019268F
:10DDE00016E0132007B0F0BD6219E9B22046FFF734
:10DDF0001BFF06000CD10C35ADB204216846018032
:10DE00000194058169460398FFF7A6FE060004D039
:10DE10002046FDF7B1FA00E013263046E2E70000A5
:10DE2000CC67FF1F10B50C4602F00EFC002804D092
:10DE300040882146FDF764FA10BD122010BD002273
:10DE4000002913D0002811D0012806D04A79920663
:10DE5000920E4A71032805D007E04879C02210438A
:10DE6000487102E0402002434A7101221046704787
:10DE700070B5124800250078052108421BD02020EB
:10DE8000FDF71AFA0E4C0028A06013D020220021C2
:10DE9000FDF7B8F92020FDF70FFAE060002804D064
:10DEA00020220021FDF7AEF905E0A068FDF716FA83
:10DEB0000020A0601325284670BD0000DD67FF1F0D
:10DEC0004868FF1F002909D0012807D1497989092D
:10DED0008901C02902D0402901D0022070470320C7
:10DEE0007047FFB500200E4608701AE01C5C401C0D
:10DEF000C5B2002C17D02819904214D85F5D6D1C54
:10DF0000EDB2384600F065FD002806D0641EE0B290
:10DF1000307000998F4202D1581904B0F0BD4019F9
:10DF2000C0B29042E2D30020F7E7000010B5044CE5
:10DF30002068002803D0FDF7D1F90020206010BD33
:10DF4000C468FF1F70B5104D8400E86800590028B0
:10DF500019D0006A002801D0FDF7C0F9E86800591F
:10DF6000406A002801D0FDF7B9F9E8680059806AD5
:10DF7000002801D0FDF7B2F9E8680059FDF7AEF9C5
:10DF8000E9680020085170BD3868FF1F10B5044CC7
:10DF90006068002803D0FDF7A1F90020606010BD83
:10DFA0003868FF1F01484068704700005899FF1FFC
:10DFB00001488068704700005899FF1F0148C068F9
:10DFC000006870475899FF1F10B50748C06801687E
:10DFD000491C016005480078FF2803D0012189030E
:10DFE000FDF74AF810BD00005899FF1FDC67FF1FBE
:10DFF00002484068002800D001207047C068FF1F19
:10E0000010B581881F4B0124CA1A994237D011DC00
:10E010001D4BCA1A994219D007DC1C4A8A1810D025
:10E02000022A1ED0032A29D11BE0472A27D0482ADA
:10E0300024D124E01300FDF707F806212222222232
:10E0400022218068007800F085FC08E080688278F2
:10E0500041781202891889B2007800F0DBFC04468E
:10E060000DE0094A921E914201D1012200E00022F6
:10E0700080680178104600F0B5FC00E000242046DE
:10E0800010BD0000532000000A200000FADFFFFF4F
:10E0900070B51A4D1A4A0146002628781268194CA4
:10E0A00001290CD0002A09D017490978490705D55C
:10E0B0000221FCF7DBFF6680FFF738FF70BD618847
:10E0C000002903D0114B1B78002B05D0002AF5D076
:10E0D0001078FEF7E3FD70BD3C2902D33C39618026
:10E0E00070BD0221FCF7C2FF62887D20C000424360
:10E0F00002212878FCF7C6FF668070BD6568FF1FA7
:10E10000C468FF1F4868FF1FDD67FF1FDF67FF1F31
:10E1100008B5418900910389C2888188C07800F0E0
:10E1200093FB08BDF0B504468088A12189004843CF
:10E13000304987B009684018FF30FF300230A179BC
:10E140004167002C54D02C4D6868002823D00678F5
:10E150002A480068002804D04168002901D0002026
:10E1600088472146E07908310591FFF7ABFEE07161
:10E170000246277D638A218AE089019002A88AC02D
:10E18000A0880090E0783146059B02F025FBE078FE
:10E19000002802D00DE01A48D9E7E079E2896B4601
:10E1A000059907C3A379A1880122304602F0E2F95C
:10E1B000E0706868002811D0FFF7E8FE2878002892
:10E1C0000CD06978FFF72EFE002807D0E078A288EF
:10E1D0000346297802F02DFB00202870A088172123
:10E1E000FEF7BAFAA088FFF74FFCA088FFF780FC83
:10E1F00007B0F0BD3409FF1F3868FF1F6868FF1FB4
:10E20000DC67FF1F70B504460025808802F004FA21
:10E21000002803D00578A08802F09AFA134E3078CF
:10E22000002808D0854206D17178FFF7FBFD002851
:10E2300009D000203070002D05D0A379A288A078E5
:10E24000294602F0F6FAA088F268810051580029A8
:10E2500001D0FFF777FEA0881721FEF77DFAA0888E
:10E26000FFF712FCA088FFF743FC70BD3868FF1F62
:10E2700070B58288294D0124531B2949AA4242D0F6
:10E2800019DC284D531BAA4218D00BDC264BD218A0
:10E2900026D0254B1033D2181ED0032A17D0042ABB
:10E2A00039D10BE0012B09D0022B07D0032B21D051
:10E2B000042B30D11AE0433B072B2CD849680029A6
:10E2C0002AD00968002927D08847044624E08068BE
:10E2D000007800F0ADF81FE0806800F001F9F4E785
:10E2E0008068411C007800F0D9F8EEE783681B785D
:10E2F000002B11D0896800290ED00B6808E0014678
:10E3000010469847E1E709490968002904D04B689D
:10E31000002BF4D100E00024204670BD0E20000048
:10E320006468FF1F08200000F7EFFFFF4068FF1F31
:10E3300010B5094CA17800290CD001460622A01D79
:10E34000FCF7B8FEA11DA078FFF779FDA01DFDF731
:10E3500073F810BD002010BDDC67FF1F1CB52F49EE
:10E36000037801240A68912B02D0A22B2ED13EE023
:10E370004178052909D00E2904D00F2908D03E295B
:10E3800024D115E0FFF774FF10E0FFF73BFF3AE000
:10E3900001468088224B0124C31801D0062B15D1D9
:10E3A000002A30D05268002A2DD0904704462AE037
:10E3B00081780124032917D004DC012911D0022916
:10E3C00004D105E015291ED016291CD000241AE01E
:10E3D00014498968002916D04968002913D0884754
:10E3E00011E0FFF79FFE0EE0FFF792FE0BE00E49F3
:10E3F0000978042909D0002A05D05268002A02D0E1
:10E4000001460A48904720461CBD00216A461180FB
:10E4100001794088FFF7B6FAF5E700004068FF1F72
:10E42000F3DFFFFF6468FF1FDD67FF1FFFFF0000D2
:10E43000F8B5164F0646BD1F2878FF2814D00A20CD
:10E44000FCF776FF04000FD0D02020706670082003
:10E45000A070A878E07006223946201DFCF72AFE3D
:10E4600021462878FCF740FFE87801280DD10848BC
:10E470000068002803D08068002800D08047064844
:10E48000044A04210078FCF71DFFF8BDE267FF1F76
:10E490006868FF1F60EA00006568FF1F70B5002410
:10E4A0000546002805D1002903D006220B48FCF7B9
:10E4B00001FE0A4810380178012907D10124002DF6
:10E4C00006D000210170284600F09AF9204670BD60
:10E4D00002210170FCF77AFFF8E700006899FF1F3E
:10E4E00010B50024002813D002780B49002A03D16C
:10E4F0004288CA8202790A760A78022A08D102780A
:10E500000124002A06D000220A70007800F078F971
:10E51000204610BD0322F7E75899FF1F01494860C4
:10E52000704700006468FF1FF8B57C4C877801468F
:10E53000002507266079A2793B00FCF785FD0805D8
:10E54000381C3939619CD238487800285ED173482C
:10E5500006223C30C91CFCF7ADFD0120A071627899
:10E56000002A07D06D4B012142336079FEF762FD2E
:10E5700000284BD1ABE00F464978002946D1F97805
:10E58000002906D0664BA2780021FEF753FD787073
:10E590000AE0022A0BD00121FCF77CFE002803D1FF
:10E5A00001216079FCF768FD787800282ED1F8BD4C
:10E5B000497800292AD1032F09D0A289002A0CD03A
:10E5C000217800290AD00121FCF75CFD06E0052A2C
:10E5D00001D0022012E0062010E02570A079062864
:10E5E00002D0042802D008E0052007E001202070B6
:10E5F00001466079FCF740FD69E00320A07166E008
:10E6000048780F46002803D0312832D0A6715EE04A
:10E6100042480622391D3630FCF74CFD7889E081EE
:10E62000B8892082F88960820520A071A28A002A18
:10E6300003D002216079FCF725FDB889E083F889D1
:10E640002084388A6084E07801280AD11F20FEF7F0
:10E650004FFB7D21C9004843024604216079FCF745
:10E6600011FD7A89F8780423391DFCF7B5FE257071
:10E670002DE02570C1E729480E46062200213630DC
:10E68000FCF7C0FDE5832584658404216079FCF7EF
:10E69000EDFC08216079FCF7E9FCB07908280BD083
:10E6A0000320A071607800280ED02078002805D0C3
:10E6B0006079FEF7F3FA07E00420F2E7012020700A
:10E6C00001466079FCF7D8FC0020C043E081606A15
:10E6D000002800D16BE701680029FBD0A0798847AA
:10E6E000F8BD0D460821FCF7C1FC687829460028D2
:10E6F000F6D1E888E0832889208448896084042151
:10E700006079FCF7C7FD0028EAD1A06A0028E7D0AD
:10E710000368628C218CE08B9847F8BDF865FF1F79
:10E720009690FF1F10B501781C4C912906D0A229A4
:10E730001BD0D02901D1FFF7F7FE10BD41780E297B
:10E74000FBD18188164A9142F7D18168032008568F
:10E75000A1790529F1D17F28EFD0616A0029ECD099
:10E7600049680029E9D0884710BD41791329FBD1B8
:10E770000089012802D12079022808D00520FEF75F
:10E78000B7FA024608216079FCF77CFC10BD08212D
:10E790006079FCF76BFCFEF753FA10BDF865FF1FBC
:10E7A000051400007CB5154C0546E08BE18A8842D3
:10E7B0000AD3218B884207D8208C618B884203D1F1
:10E7C000608CA18B884217D00520FEF791FA06468F
:10E7D000E18A68460180218B4180618B8180A18B19
:10E7E000C18062796946E089FFF7D8F82571324621
:10E7F00008216079FCF746FC7CBD0000F865FF1F2E
:10E8000070B50F4D06462878FF2818D00E20FCF76B
:10E810008FFD040013D0D020207066700020A070FF
:10E8200006220849E01CFCF745FC06481038C18A5E
:10E830006181007E207321462878FCF755FD70BD6C
:10E84000DC67FF1F6899FF1FFFB581B01E461746A2
:10E850000D460C20FCF76CFD040013D0284601F097
:10E86000DBFE002810D00078D02121700199617062
:10E870000721A170A580E78026810A996181214640
:10E88000FCF732FD05B0F0BD0048ECE7DC67FF1F88
:10E8900070B50D4D044628680E46002812D006209B
:10E8A000FCF746FD010009D0D02008704C70032011
:10E8B00088708E8028680078FCF716FD002C01D047
:10E8C000FFF734FB70BD0000C468FF1FF0B51F4D9B
:10E8D00085B02868002837D08778FEF781FA0028AD
:10E8E00005D00A20FEF704FA04900B200EE001F098
:10E8F000E5F9002805D00620FEF7FAF90490072074
:10E9000004E00820FEF7F4F904900920FEF7F0F97E
:10E9100004460F480078002814D001262968C878DA
:10E92000091DFFF78CFA29686D46CA7A8B7A091D92
:10E930000BC5039233463A4621460498FCF752FD34
:10E9400005B0F0BD0026E9E70120F9E7C468FF1F24
:10E95000DE67FF1F10B50949096800290CD000289F
:10E9600005D101204870FCF79BFC002802D0002153
:10E97000FFF78EFF012010BD002010BDC468FF1FEF
:10E98000F8B50C4601F048FE020021D026201462A2
:10E99000FEF7AEF905062D0E00D115789679D01D3B
:10E9A00000901020176AFCF7C3FC040010D0D020A0
:10E9B0002070002060700920A070E6700622201DE3
:10E9C0000099FCF777FB21462846E760FCF78CFCB2
:10E9D000F8BD411E152903D9FF2801D0002070473A
:10E9E0000120704770B50A4E054630780C46FF2866
:10E9F0000DD00420FCF79CFC010008D0D02008704A
:10EA00004C7002208870CD703078FCF76DFC70BDC2
:10EA10004868FF1FF3B5284D81B0286800284AD008
:10EA20004078264E012803D03078002831D041E0CC
:10EA300001F044F9224F002813D00120FEF758F9C5
:10EA40000446412808D91F4A02213878FCF73AFCCD
:10EA50001D483C3C44800EE07D20C00022464243DD
:10EA600003E00020FEF744F90246002A03D0022109
:10EA70003878FCF707FB29680220487030780028B6
:10EA800002D00020307015E002990198FFF700FFD6
:10EA900010E00320019CFCF74BFC010008D0D020C3
:10EAA00008704C700420887028680078FCF71CFC03
:10EAB000FFF73CFA0120FEBDC468FF1FDF67FF1FA0
:10EAC0006568FF1F60EA00004868FF1F002903D047
:10EAD000054AD160002103E002207047491CC9B2F9
:10EAE0008142FBD3002070473868FF1F002904D003
:10EAF000034A1070002051607047022070470000E8
:10EB00007068FF1F30B5094A0021137809E0956845
:10EB10008C002C5B844202D18800401930BD491C16
:10EB2000C9B29942F3D3002030BD00007868FF1FBE
:10EB300010B50C46FFF7E6FF00280DD0002C00D0E2
:10EB400020608078FE2803D0FF2803D0162010BD57
:10EB5000172010BD002010BD022010BDFFB581B0F0
:10EB6000FF201E46174605300A9DFCF7E1FB040016
:10EB70001BD0B02020706770029860802671002D35
:10EB800006D02046FC2229460830FCF793FA05E01F
:10EB90002046FC2200210830FCF734FB2146019876
:10EBA000FCF7A2FB002005B0F0BD1320FBE700003E
:10EBB0000548172202800988172901D204207047CE
:10EBC0000180002070470000D867FF1F00207047B9
:10EBD00008B50A460888498888420BD8002809D019
:10EBE000002300931379521DFEF7CCFC002803D0BC
:10EBF000002008BD012008BD0A2008BDF3B50D4660
:10EC000008884988002687B0814215D3002813D090
:10EC1000002769460F710097002369881A46FEF79E
:10EC2000B1FC04004FD068460079002807D069463F
:10EC30004979012925D008E0012009B0F0BD2178EB
:10EC400002291BD002216A4651711222504301AAA7
:10EC500061898018418068460079122358438018E2
:10EC60001022001D6168FCF725FA68460079401CF7
:10EC70000106090E684601711FD11AE001216A469A
:10EC80005171217802291ED1820001A861891218D0
:10EC900051806A4612796168920010180222001DA4
:10ECA000FCF708FA6A461079401CC0B210710528BA
:10ECB00003D261890A48814200D101266089401C43
:10ECC00080B2002EA7D068460079002805D001A99F
:10ECD0000798FDF78FFB0020AFE70A20ADE70000A3
:10ECE000FFFF000038B50C4608884988884215D8CF
:10ECF000002813D02379621D02210B48FDF7FFFA8B
:10ED000000280DD000200090237961882088621DA2
:10ED1000FEF738FC002805D0002038BD012038BDA2
:10ED2000102038BD0A2038BD100B011108B50A4665
:10ED30000888498888420BD8002809D0002300930E
:10ED40001379521DFEF71EFC002803D0002008BDD9
:10ED5000012008BD0A2008BDF8B500250F4606466B
:10ED60000C46E03717E06800205A0021FEF7E4FB6C
:10ED7000002809D0017A3046FEF759FD002808D056
:10ED80006900615A2180F8BD6800205A2080012066
:10ED9000F8BD6D1CEDB2B87DA842E4D80020F8BDE6
:10EDA00010B5044608880021FEF7C6FB002804D0F1
:10EDB000017A2046FEF73BFD10BD012010BD00008A
:10EDC00030B585B005466946FDF7A2FB040026D1A3
:10EDD00068468078C1071E4809D08268002A04D09E
:10EDE000688869469047044619E0062417E042689F
:10EDF000002A05D0688869469047040001D10EE0DA
:10EE0000062468464078002809D168468178017355
:10EE10000021C1810474688803A9FDF7ABFAA868D2
:10EE2000002801D0FCF7A8FA002C05D168468078AC
:10EE3000122807D01B2803D068880121FEF7BEFDE9
:10EE400005B030BD684640780128F5D1F8E70000EC
:10EE50008468FF1F70B505460C4608880021FEF740
:10EE60006BFB002805D0017A22462846FEF7F2FC0B
:10EE700070BD012070BD000001494860704700006E
:10EE80008468FF1F10B50446801C00F04DFDFF2074
:10EE9000E07010BD10B500F025F8002800D08068A3
:10EEA00010BD00229300CB5A834202D1900040183B
:10EEB0007047521CD2B2022AF4D3002070470000DF
:10EEC000074A0021CB00D35A834202D1C8008018E0
:10EED0007047491C0906090EF4D000207047000055
:10EEE0002065FF1F0649896805E08A88824201D1B2
:10EEF0008868704709680029F7D100207047000032
:10EF00001065FF1FF8B50746012906D0022924D154
:10EF1000012101F039FC00281FD13846FFF7D0FF4E
:10EF2000050015D000240D4E0CE0F8206968604300
:10EF300008180188002908D0F8220021FCF762F99E
:10EF4000641CE4B270788442EFD30020C043288070
:10EF5000024938461831FEF7DDF8F8BD1065FF1F8D
:10EF6000F3B5064683B00830019000200090708809
:10EF7000FFF7A6FF07002FD0002523E0F8207968CF
:10EF800068430C182188002920D0019800780128B6
:10EF90000FD160880090A3887088A21DFEF77EFACA
:10EFA0000090002805D0019900200870049821885D
:10EFB0000180F82200212046FCF724F900206D1C76
:10EFC0002080EDB2074840788542D7D30020C04367
:10EFD00038800098002802D17088FDF7F5F9009874
:10EFE00005B0F0BD1065FF1FF3B50546374C06466A
:10EFF00085B00835F62200212046FCF703F903A866
:10F0000000902B79698828886A1DFEF7BBFA0746AD
:10F0100046E02F4A708812684100515C0022C91FE7
:10F02000CBB22C49029300910192284B69468A8900
:10F03000F63B3946FEF7CEF8002812D1254829893B
:10F04000001F828891420CD120492846F6390A30A7
:10F05000FCF742F8002804D0217878898900091942
:10F06000488068468289698804AB3846FEF7BCFA56
:10F0700007462078810009194A88002A10D0002FFD
:10F0800005D06A46128A401C20708A800AE0010678
:10F090000022890DD2430919401C20708A8006E0A5
:10F0A000002F04D00C48217800888142B1D3207809
:10F0B000002806D070882146FDF78EF9002007B0A1
:10F0C000F0BD0698298801800A20F8E7868FFF1F87
:10F0D000D467FF1F1465FF1FCE67FF1FF0B585B013
:10F0E000044600206946888120790E286BD00FDC09
:10F0F000082823D004DC022813D0062818D118E0F1
:10F1000025460835494F0A281DD00C2810D139E072
:10F1100010285DD0122860D0162863D0182879D125
:10F1200065E044484249008808806088FDF72CF972
:10F1300070E003A92046FFF757FF5CE003A92046D3
:10F1400000F080F957E0288804A9FEF7F5F90100DE
:10F1500016D060883B6842009A5C354E521ED2B28F
:10F1600000230193029200966A46B31C128AFEF7AE
:10F1700031F800281ED160883146FDF7CDFA49E00C
:10F18000012017E0288804A9FEF7D6F90100F7D07E
:10F1900060883B6842009A5C6B88521E244ED2B253
:10F1A0000193029200966A46B31C128AFEF712F887
:10F1B000002803D029886A4691811CE06088314686
:10F1C000FDF77AFA26E003A9204600F0DDF912E007
:10F1D00003A9204600F082F80DE003A9204600F0C4
:10F1E00049FA08E003A9204600F028F803E003A943
:10F1F0002046FFF7B5FE00280CD06178142909D00D
:10F200000B4922790A706A4692894A80087160889F
:10F21000FDF7B0F82046FEF777F90748C1680029E6
:10F2200001D02046884705B0F0BD0000D467FF1F1D
:10F23000868FFF1FCC67FF1F1065FF1FF8B50446C0
:10F240000F460546083400896946FEF775F9060041
:10F250003AD0307A80060ED568460088FFF71AFE4D
:10F26000030006D06888122231469847060002D073
:10F270002BE00E2629E06E883046FFF721FE0100C4
:10F2800005D11448FFF71CFE01000ED00E80124A73
:10F290000020527807E0F8264B6846439B5B002B22
:10F2A00005D0401CC0B29042F5D309260DE0496854
:10F2B000F822504308182146FBF7FCFE0026688818
:10F2C0002146FDF7EFF902E001262088388030461C
:10F2D000F8BD0000FFFF00001065FF1FF3B58BB005
:10F2E00000200B9E0746039004A800903246337B13
:10F2F00071893089504C0D320836FEF743F90546C6
:10F300007EE00B98297A4088FEF791FA070003D037
:10F310000C986989018076E00B9848494088096813
:10F320004200895C464B891FC9B2009300220291BA
:10F330000192414B69460A8AF63B2946FDF74AFF8E
:10F34000070003D00C99688908805CE003980028C6
:10F3500034D03B486188001F8088021D914255D1FE
:10F36000039909180B984088420034480068805A75
:10F37000801F81424ADC0399A87A611808710398BA
:10F380006989401C80B22218090A401C117180B2A0
:10F3900003906846028A718807AB2846FEF724F975
:10F3A000050011D003986946898B201801710398D4
:10F3B0006946401C898B80B2090A0CE02048001F76
:10F3C0008088001D6080D6E70398FF212018017116
:10F3D0000398401C80B222181171401C80B2184959
:10F3E0000390091F8A8814492018F639001DFBF77D
:10F3F00061FE13490398091F8988401880B2039061
:10F40000002D00D07DE7039800280CD06188039878
:10F41000FBF794FF20700B9821464088FDF756F9C2
:10F4200000200DB0F0BD002F00D10A270C993088C4
:10F4300008803846F5E70000868FFF1FD467FF1F5E
:10F440001465FF1FF3B50746044608378BB04A48DA
:10F450000490388800252E4605906CE007A800909F
:10F460003B7979887A1D0598FEF78CF8089000287A
:10F4700054D0408905900898017A6088FEF7D7F942
:10F48000060060D13D49608809684200895C3C4BB8
:10F49000091FC9B20093002202910192364B6946BE
:10F4A0008A8BF63B0899FDF795FE06004BD1002D9F
:10F4B00037D0049841883248001F8088801C8142E0
:10F4C00043D12F4B2D491B1F988809682A18608843
:10F4D0004000085A001F824220DC08980499807A74
:10F4E0004919087108996D1C4989E8B20A0A0499FA
:10F4F00009180A71401CC5B2194604988A881E4929
:10F500004019F639001DFBF7D5FD1D481D49001FA8
:10F5100000792818C5B20598884209D1002D14D168
:10F5200023E017480499001F8088801C4880C8E7A2
:10F53000401C80B205906088410010480068405A25
:10F54000001FA8428ADA002D0DD004984188284671
:10F55000FBF7F4FE0499087060880499FDF7C4F87D
:10F5600000200DB0F0BD002E00D10A260C980599A0
:10F5700001803046F5E70000868FFF1FD467FF1F2C
:10F580001465FF1FFFFF0000F3B506460446002088
:10F5900085B0354D00900836288007463046E0306B
:10F5A00004904EE07800305A03A9FDF7C5FF010032
:10F5B0001BD060882E4B844642002C480068805C3B
:10F5C0000093401EC0B2002202900192264B684672
:10F5D0008289F63B6046FDF7FDFD009000280BD0C8
:10F5E0007800315A069801803BE0012000907800B5
:10F5F0000699305A088034E01D482988001F808809
:10F600000A186088430019480068C05A431E9A428D
:10F6100004DD401A1649091F401E88802988A81C4D
:10F6200008181349091F8A880F49F639FBF742FD6C
:10F630000F482988001F8088081828807F1C04989C
:10F64000FFB2807DB84208D9608829884200074807
:10F650000068805A401E8142A4DB60882946FDF77D
:10F6600051F8009807B0F0BD868FFF1FD467FF1FC9
:10F670001465FF1FF3B5054683B0044608350089BD
:10F6800001A9FDF759FF2746E8370646002822D092
:10F69000307A80060ED568468088FFF7FBFB0300B2
:10F6A00006D06088122231469847060002D013E047
:10F6B0000E2611E0002000906B88298860882A1DA2
:10F6C000FDF7ECFE060007D1787E002807D16088A0
:10F6D000FDF74CF803E00126049829880180787E24
:10F6E000002802D0002005B0F0BD3046FBE7000046
:10F6F0000149C860002070471065FF1FF8B5044637
:10F700000246F82042431948002507464570103745
:10F710007868002807D00020C100C919401C0006E5
:10F720004D60000EF8D0124E00213046FBF76AFD06
:10F73000002001466143C9B2F82251438B190B499D
:10F74000C200103152180021536005E0F8274F43E2
:10F750005368491CDD53C9B2A142F7D3401C0006CF
:10F76000000EE6D0014844700020F8BD1065FF1F70
:10F77000988DFF1F7CB50C78069D022C0FD14C682C
:10F780002678647824023419064EA4B2F44206D1D5
:10F790000224DBB200950194FDF7D4FC7CBD01206E
:10F7A0007CBD0000FED6FFFFF8B505461D4885422A
:10F7B00023D0461C002921D001292BD002291CD19D
:10F7C0000121284600F0E0FF002816D12846FFF767
:10F7D00099F9040011D0A078FF280ED0FE2807D098
:10F7E00000200090E0781E2314222946FFF7B6F986
:10F7F0002046FFF747FBFF20A070F8BD2846FFF723
:10F8000081F90028F9D13046FFF77CF90028F4D0BF
:10F810000580F8BD2846FFF775F90400F9D0268069
:10F82000D9E70000FEFF0000F3B50C468978C1B0AF
:10F830001E2914D02E4D6878FF2829D0182927D8E2
:10F840004808C2002B481218803A976F002F1FD02B
:10F85000D06F00281CD02078002817D113E04198E1
:10F86000FFF750F905000BD000200090A378E8784E
:10F8700000224199FFF772F906462846FFF702FB7E
:10F88000304643B0F0BD6278012A03D1122901D07D
:10F890000620F6E702AE0096A3886178A268B84712
:10F8A0000028EED1A0784008C1001248081880381E
:10F8B000C26F02A94198904700280FD061780029B3
:10F8C000DFD1A27869460A700871684601894180D3
:10F8D00069464198FCF74EFD0020D2E7A378042B3F
:10F8E000CFD00096002268784199FFF737F9C8E732
:10F8F0007868FF1FAC0A0111002904D0034A107078
:10F900000020916070470220704700007868FF1F58
:10F9100000B50346FDF772FF002803D0C018401E53
:10F9200080B200BD184600BD10B5040008D0207894
:10F93000FF2805D0FE2803D0FBF75AFDFF202070DA
:10F9400010BD0000F7B506460F461020FBF7B4FCCB
:10F9500005461020FBF7B0FC0446002D3AD0002CE1
:10F960002DD010220021FBF74DFC2A4621463046BF
:10F9700000F07CFF060023D12878000604D4394625
:10F98000284600F0E9FD08E02146284600F0E4FDA5
:10F990003A461149204601F061F83878000604D44F
:10F9A0003846029900F0D8FD0AE02146384600F0BA
:10F9B000D3FD09492046029A01F050F800E01326D1
:10F9C0002846FBF78BFC002C02D02046FBF786FC78
:10F9D0003046FEBD1326F6E7360B0111F8B5069842
:10F9E00000271D4614460E46002801D00B20F8BD06
:10F9F00030780021022801D019804DE0706802782B
:10FA0000407800021018152280B25202801A0300BA
:10FA1000FBF71AFB0504121F1A254100F068FBF7DB
:10FA200081FCC2B20798824200D902462A80F1685E
:10FA30002046FBF73FFB30E0F06802210088298078
:10FA40002070000A607028E0062028800246F168D5
:10FA5000EEE701202880F068007820701DE0F06853
:10FA6000002816D008212980017821700188090A10
:10FA700061708178A1704188090AE1700179217172
:10FA80008188090A61718179A171C088000AE071D9
:10FA900003E0298001E0298001273846F8BD10B530
:10FAA0000B78840702D50224234301E0FD24234080
:10FAB0000B7003070B7802D50824234301E0F724D9
:10FAC00023400B7083060B7802D52024234301E0EA
:10FAD000DF2423400B700A21084201D1810603D59F
:10FAE00010780C21084304E0002803D11078F3219A
:10FAF0000840107010BD0000FFB581B008780024E8
:10FB00000A9E1F460D4602280FD16868017840788A
:10FB100000020818152180B24902401A09D00128B4
:10FB200029D0022848D003283CD00124204605B023
:10FB3000F0BDE868FBF7F6FBC0B2864205D8F019C5
:10FB40000090152803D90D24F0E70724EEE7E868B4
:10FB50003A4680190399FBF7ADFA0098EA6880B23B
:10FB6000002111541C4840680028DFD0016800299A
:10FB7000DCD0002012E0002E12D1022BE3D1039939
:10FB8000E8680A78497809025118018012484068EB
:10FB90000028CBD001680029C8D001208847C5E7DC
:10FBA0000B24C3E7002EFBD1062BCCD10622E8683C
:10FBB0000399FBF77FFAB9E7002EF1D1012BC2D1EF
:10FBC00003980078002803D0012801D08024ADE7F5
:10FBD000E9680870AAE700007465FF1F10B50448C3
:10FBE000C16B034A40321068D06000F023F810BDAA
:10FBF0000080004010B5162801D9052010BD0C4B1F
:10FC00009C6B01228240104620439863586B9043BE
:10FC10005863DC6B012907D020469043D863186BEA
:10FC200002431A63002010BD10462043F6E700008F
:10FC300000800040F3B5204D81B00746002401202C
:10FC4000A040384233D00299084201D0012600E09A
:10FC50000026E0B2162810D80C22424351194A68F7
:10FC6000002A03D0002E01D0012105E08A68002A75
:10FC700003D0002E01D1002190470C206043401991
:10FC80004168806800290DD0002806D0002E02D0DF
:10FC90000021E0B203E00121FBE7E0B20121FFF720
:10FCA000A9FF04E0002802D0E0B20021F7E7641CBD
:10FCB000172CC4DBFEBD0000B894FF1F08B509482F
:10FCC0008368002B0CD01A78694601205B1CFEF774
:10FCD00008F9002804D00078C00701D0012008BD31
:10FCE000002008BD4868FF1F10B503460B4A0020DE
:10FCF0000A21414389184988002905D0401CC0B217
:10FD00000328F5D3002010BD0A2100244143545498
:10FD10000446403488184480037210BD8499FF1F44
:10FD20000A7802700A88120A42708A7882704A88B9
:10FD3000120AC2700A7902718A88120A42718A799B
:10FD40008271C988090AC17108207047F8B5044654
:10FD50000D4648680421FBF727FB297A01702989A1
:10FD60000346401C090A0170297841702988090A54
:10FD70008170287A001DC2B2FB2A38D81D488442FF
:10FD800015D115461E460C20FBF7D2FA01000CD007
:10FD900090200870022008714C808E601648CD803B
:10FDA0000078FBF7A1FA00271FE013271DE05C2075
:10FDB0002546124E4543B06829185820405C00285B
:10FDC0000BD00F480727416A491C4162B0682918C7
:10FDD0005820405C002805D007E0204600F096F946
:10FDE0000746F3E72046FBF709FB3846F8BD02203B
:10FDF000F8BD0000FEFF00009168FF1F9468FF1F20
:10FE0000A499FF1F10B50A4A00210A234B439B18EF
:10FE10005C88002C06D01B79834203D10A20414321
:10FE2000881810BD491CC9B20329EED3002010BDAB
:10FE30008499FF1F002141800170704770477CB595
:10FE400004000FD0608800280CD000250095019593
:10FE50001323E188207A172200F028F8FF2060722F
:10FE6000658025707CBDF8B5074615460E46102006
:10FE7000FBF75EFA040017D0A0202070002060700D
:10FE80006680002D05D00C222946201DFBF712F9B3
:10FE900004E00C220021201DFBF7B4F9214638466E
:10FEA000FBF722FA0020F8BD0120F8BDFFB581B0B4
:10FEB0001E46174614200B9DFBF73AFA04001AD091
:10FEC000A22020706770029860800A982071667185
:10FED000002D06D020460C2229460830FBF7EAF810
:10FEE00005E020460C2200210830FBF78BF9214663
:10FEF0000198FBF7F9F905B0F0BD022A1CD34B7845
:10FF00000A781B02D21892B20280012A02D0022A79
:10FF100006D00FE08A78C97809025118418009E0BB
:10FF2000CB788A781B02D21842800A794979090273
:10FF3000511881800020704701207047F8B50646AF
:10FF40004F88002070600D46097963488C464068F0
:10FF500002290FD03C01025B002A06D021188B68D1
:10FF6000002B02D06346012B7ED05C484169491CBE
:10FF70004161ACE0EA88042A40D3A9684C780B7848
:10FF800024021B199BB20093CC788B7824021B1996
:10FF90009CB20B7AC979090259184F4B5980009BC2
:10FFA0001B1D9A421ED1072C11D0052C0FD0042CFA
:10FFB00002D0062C22D10AE03901405A002806D08E
:10FFC0003846FDF761FD45480169491C016100980B
:10FFD000308134800321C943A868FBF7E5F97060DC
:10FFE0000020F8BD072C0AD0052C08D0042C06D020
:10FFF000062C04D03948C168491CC1606AE09A42A5
:020000041101E8
:10000000F8D8042C0AD13901405A002806D03846C5
:10001000FDF73AFD31480169491C01613E012E4F4F
:1000200000207968885371180098888178683018A2
:1000300084800098FDF7CAFD7968711888600028EF
:1000400019D00321C943A868FBF7AEF901467868C7
:10005000EA8830188068121FFBF72CF87868EA8865
:10006000815B8918091F00E00AE081531B48016881
:10007000491C01602EE019488169491C816129E011
:10008000EB88D21892B20253888982421BD88868C2
:10009000114F8018EA88A968801AFBF70BF8786876
:1000A000025B21188889824214D13081888830808F
:1000B00078682118896871600021015307484168F8
:1000C000491C416006E005488168491C816038464A
:1000D000FDF7DAFC0120F8BD9468FF1FA499FF1F0B
:1000E000022A01D0012070470A7849780902511884
:1000F0000180002070470A7802704A7842708A783E
:10010000C97809025118418070470000FFB50C46BC
:1001100007463D49A1208000096878434018FF3018
:10012000C130067E89B015463846FCF777F9001DC8
:10013000B04204D23846FCF771F9001DC6B2B54290
:1001400007D82A46002138460C9BFBF75DF90DB015
:10015000F0BD31462846FBF7F1F8274640373874A2
:100160000C99616501467143691AC9B202910C99F3
:1001700004910299002901D0401C3874002523E025
:100180000299002904D0401EA84201D1084600E08F
:100190003046E900059103916054FDF70BFC03998B
:1001A0000919486000281BD00599625C0499FAF788
:1001B00081FF0598215C0498081804901348C169D0
:1001C000491C6D1CEDB2C161387CA842D8D8606D65
:1001D000002803D0FBF7D0F8002060650020B6E7C8
:1001E000002038740646606506E0F000001940689B
:1001F000FBF7C2F8761CF6B2AE42F6D30348C16AEA
:10020000491CC1621320A2E73409FF1FA499FF1FF4
:10021000F7B586B016460D464878FFF7F3FD0400A3
:1002200010D0002727712878012802D0132809D17F
:1002300005E06A88314602A8FFF75FFE0AE02078F1
:10024000032802D0002009B0F0BD6A88314602A818
:10025000FFF746FF0646204600F064F902A8019029
:1002600000972B78207A32460699FFF71FFE20462A
:10027000FFF7E0FD3046E6E7FEB504464688014656
:100280006846FFF75BFE0546019800282FD06846B8
:100290000088052806D0042809D0062807D007289A
:1002A00005D026E06946304600F030F821E08100B4
:1002B0001548081801464039098E002919D0203800
:1002C000807C6A463146FFF7CEFD002811D1684692
:1002D0000088042803D001213046FDF76FFB012D73
:1002E00004D1A068002801D0FBF746F8FEBD012D1F
:1002F00004D1A068002801D0FBF73EF80121304668
:10030000FDF75CFBFEBD00007499FF1F30B505468C
:10031000088987B00C46042817D302A86168FFF744
:10032000EAFE68464089172837D82189001D814296
:100330001ED16846007AC10709D0626802A9284622
:10034000121DFFF765FF002812D107B030BD6168AC
:10035000091D122805D0002069460880497A6A469E
:1003600022E06846428903A8FDF75AFB002803D023
:100370002846FFF763FDE8E70D4881880029E4D0AF
:100380006946497A03AA0192009169460B7A8079FD
:1003900000222946FFF78AFDD7E701216846018040
:1003A00017214180417A6A462846FDF7EBFACCE7EF
:1003B0007499FF1FF8B50025214C3BE060680026CA
:1003C0002F01C653381886816068381886806068A7
:1003D00038188068002804D0FAF7CEFF6068381813
:1003E0008660374630465C212E464E43A168711820
:1003F00040310874A168711840314874A1687118BF
:1004000040310876A0683018406D002804D0FAF713
:10041000B3FFA16871184F650027A068F900301874
:1004200040184068002801D0FAF7A6FF7F1C0A2F69
:10043000F3DB6D1C034800788542BFDBF8BD00008C
:100440009468FF1FA068FF1FFFB589B015460E46D0
:100450001720129FFDF7BAFB040021D068460670F2
:100460004570002F03D0201D0C99B84700E00020F4
:1004700069464880267065704888A070010AE1705E
:10048000052269468A82001D0694888305A9099879
:10049000FFF75CFC050004D02046FAF76DFF00E092
:1004A000132528460DB0F0BDFFB581B01E460546A8
:1004B00001210A9F0B9C00F067F9002811D020460B
:1004C000FFF712FC00280AD0C580044607701248C6
:1004D0004178491C0A06120E427004D005E0152529
:1004E0000FE014250DE0012242702271009628468B
:1004F000039B0299FFF7A8FF050005D02046FFF7F0
:1005000099FC284605B0F0BD23462146034A09332D
:100510000348FAF77FFFF4E79468FF1F3075000087
:100520003FFE001110B50446407AFAF761FFFF2044
:10053000607210BD00280AD0102808D8002906D003
:10054000002A04D0034882604160002070470220E6
:10055000704700009468FF1F10B500240F22835CD1
:100560005B0023438B54835C521EDC0952B2002A89
:10057000F5DA10BDFFB581B01E4617460D46084698
:1005800000F04AF8002802D0112005B0F0BD0E4856
:1005900000F042F8040015D00A98A0710622E01D70
:1005A0000B99FAF787FD65802771667101982070B5
:1005B000002060620C98E0810021284600F0F6F8E7
:1005C0000020E2E71520E0E7FFFF000070B51446C9
:1005D0000D46064600F020F800280BD0416A00794D
:1005E00000290CD0C20611D580070AD4002C08D0EF
:1005F000052070BD074886420AD0142070BDC00691
:10060000F6D5887EA84203D20C2070BD0F2070BDA5
:10061000002070BDFEFF000030B50A4A00211378AB
:100620000CE0282455684C4364196488844203D143
:1006300028204143481930BD491CC9B29942F0D322
:10064000002030BDA068FF1FF0B50C4B00210C4E00
:100650001D780FE028225C684A4317197F88B7424B
:1006600006D0A25C824203D1282041430819F0BD84
:10067000491CC9B2A942EDD30020F0BDA068FF1FFC
:10068000FFFF000070B5104900200C7802460F4EA5
:100690000CE028234D6843435D196E804D685D1959
:1006A0002A714D685B19401CC0B25A62A042F0D357
:1006B0008B680020497803E08400401C1A51C0B2C6
:1006C0008842F9D370BD0000A068FF1FFFFF000043
:1006D00000280DD010280BD8002909D0002A07D0F7
:1006E000044B1870801D58709A6000205960704744
:1006F00018207047A068FF1F10B5094A00205368F2
:100700000146127809E028244C43E4182479002C8F
:1007100001D0401CC0B2491CC9B29142F3D310BDF4
:10072000A068FF1F30B5094A0021537806E095689C
:100730008C002C59002C05D0491CC9B29942F6D323
:10074000132030BD89006850002030BDA068FF1F15
:1007500010B5FFF761FF040013D06088012100F09D
:1007600025F8606A002801D0FAF7B8FD2822002198
:100770002046FAF747FD0020C0436080002020712A
:1007800010BD022010BD000010B50C46064988427D
:1007900006D0FFF741FF002804D00079204201D0A5
:1007A000012010BD002010BDFEFF0000F8B50E4670
:1007B00007460024074D09E0A968A0000A58002A4E
:1007C00002D0314638469047641CE4B268788442CF
:1007D000F2D3F8BDA068FF1FFFB581B01D461746D4
:1007E00014200E9EFAF7A4FD040020D0D020207023
:1007F000019860700520A070E770002D05D00622DA
:100800002946201DFAF756FC04E006220021201D8F
:10081000FAF7F8FC0A9860810B98A0810C98E081A7
:100820000D982082A67421460298FAF75DFD05B066
:10083000F0BDF8B506461C4615460F460820FAF7E7
:1008400077FD010009D0D02008704E700620887016
:100850008D808C713846FAF747FDF8BD10B5024619
:10086000014620321031FAF7DBFD10BD10B5FAF762
:10087000D7FD10BD70B50D46064600240AE0FAF714
:10088000D5FD010A3155641CE4B2AC4202D23055A8
:10089000641CE4B2AC42F2D370BD0000002903D066
:1008A000002801D0102801D902207047044A916025
:1008B000002101E0491CC9B28142FBD300207047EE
:1008C000AC68FF1FFFB587B017461020FAF7F4FC9D
:1008D00001901020FAF7F0FC0090019800287DD0DC
:1008E000009800287BD0024601990798FFF72AF864
:1008F00004007ED11020FAF7DFFC02901020FAF7F6
:10090000DBFC0646029800286BD0002E7CD03846CF
:100910000F30050902D038070CD000E00125002077
:100920002901103900280898C9B205D0401832466C
:1009300001991AE00120F3E7401884463A07120FA4
:10094000002003A98023904202D267463F5C04E066
:10095000904201D10B5401E000270F54401CC0B25B
:100960001028F0D3324603A8009900F077F810223F
:1009700000210298FAF746FC00276D1E0FE03807A9
:100980000899000E091803AA029800F067F803A955
:10099000029A0798FFF76AFF7F1C04463FB2AF42F6
:1009A00002DA002CEBD011E0002C0FD103AA314663
:1009B000029800F053F803A9029A0798FFF756FF30
:1009C0000446082202990A98FAF774FB0298002854
:1009D00001D0FAF783FC002E08D004E01AE017E0FB
:1009E00007E013E010E03046FAF778FC01980028A1
:1009F00002D00198FAF772FC0098002801D0FAF7AB
:100A00006DFC20460BB0F0BD1324E2E71324E2E7AF
:100A10001324EEE71324EFE770B58CB015460E46AD
:100A20000446302200216846FAF7ECFB10222146EA
:100A30006846FAF7BFFC07A8032231460130FAF7EF
:100A4000B9FC6846FFF70AFF04460BA903222846B3
:100A50000131FAF7AFFC20460CB070BD30B5002371
:100A6000C45CCD5C6C40D4545B1CDBB2102BF7D360
:100A700030BD0000020000000E0B0111000000005C
:100A800075F7001100000000020000000C0B0111BE
:100A9000DDF90011F9FA001100000000FB349B5F42
:100AA0008000008000100000000000007DC40011E4
:100AB000B1EB0011EFC40011FDEB0011A7C4001150
:100AC000D1EB0011C9C500112DED001149C600116F
