:020000041102E7
:1000000003B40148019001BDFD11000003B4014893
:10001000019001BD7511000003B40148019001BDBC
:100020001130000003B40148019001BD090E000029
:1000300003B40148019001BD53B9000003B4014865
:10004000019001BD29B6000003B40148019001BD33
:100050007582000003B40148019001BDFD5C010000
:1000600003B40148019001BD85C1000003B40148FB
:10007000019001BD61D5000003B40148019001BDAC
:100080001BBA000003B40148019001BD3DBA000055
:1000900003B40148019001BD5944000003B4014874
:1000A000019001BDB95E000003B40148019001BD9B
:1000B000810E000003B40148019001BD0D52010002
:1000C00003B40148019001BDC1EC000003B4014834
:1000D000019001BD75A9000003B40148019001BD64
:1000E000C93E000003B40148019001BD9DA9000074
:1000F00003B40148019001BDB30E000003B40148F0
:10010000019001BDC563FF1F03B40148019001BD0B
:100110006189000003B40148019001BD1907010085
:1001200003B40148019001BDA9D8000003B40148FF
:10013000019001BDB352010003B40148019001BD1B
:100140008B52010003B40148019001BDC1A500001C
:1001500003B40148019001BD9D6A000003B4014849
:10016000019001BD116E000003B40148019001BD72
:10017000E94C010003B40148019001BDF97F000082
:1001800003B40148019001BD7912010003B4014894
:10019000019001BD757A000003B40148019001BDD2
:1001A000F143000003B40148019001BDC1430000C8
:1001B00003B40148019001BD6944000003B4014843
:1001C000019001BD8BB9000003B40148019001BD4D
:1001D000D1D4000003B40148019001BD01890000A1
:1001E00003B40148019001BDC53F000003B40148BC
:1001F000019001BDC95C010003B40148019001BD3B
:10020000CD4C010003B40148019001BD09B80000C4
:1002100003B40148019001BD2DFC000003B4014866
:10022000019001BDEDB8000003B40148019001BD8B
:1002300039B8000003B40148019001BD6DFE000013
:1002400003B40148019001BDF9FD000003B4014869
:10025000019001BDA1E6000003B40148019001BD79
:100260009946000003B40148019001BD1547000004
:1002700003B40148019001BDB158FF1F03B4014808
:10028000019001BD75F0000003B40148019001BD6B
:10029000F5D5000003B40148019001BDC5F0000090
:1002A00003B40148019001BD01EC000003B4014812
:1002B000019001BD6160000003B40148019001BDDF
:1002C00063EC000003B40148019001BD05FF00008C
:1002D00003B40148019001BD3161000003B401483D
:1002E000019001BD59E4000003B40148019001BD33
:1002F000D5E4000003B40148019001BD01BF000036
:1003000003B40148019001BD21F1000003B401488C
:10031000019001BDCDF1000003B40148019001BD81
:10032000B9C0000003B40148019001BD4DF40000C4
:1003300003B40148019001BDC1E2000003B40148CB
:10034000019001BD154D010003B40148019001BDAC
:100350008DE3000003B40148019001BDA5FD00003C
:1003600003B40148019001BD25E7000003B4014832
:10037000019001BD3148000003B40148019001BD66
:10038000F1FA000003B40148019001BD79F40000C6
:1003900003B40148019001BD77F1000003B40148A6
:1003A000019001BD5511010003B40148019001BD48
:1003B000598EFF1F03B40148019001BDE9F600000A
:1003C00003B40148019001BD75F8000003B4014871
:1003D000019001BD19FA000003B40148019001BD6C
:1003E000A565FF1F03B40148019001BDED64FF1F27
:1003F00003B40148019001BDA93C000003B40148C9
:10040000019001BD893FFF1F03B40148019001BD68
:100410006147FF1F03B40148019001BDADAE00006C
:1004200003B40148019001BD456B010003B40148CC
:10043000019001BD1D4B010003B40148019001BDB5
:100440004551010003B40148019001BD595201001A
:1004500003B40148019001BDF54E010003B4014809
:10046000019001BD434D010003B40148019001BD5D
:100470003D4B010003B40148019001BD014C010056
:1004800003B40148019001BDF94C010003B40148D7
:10049000019001BD3522000003B40148019001BD67
:1004A000691F000003B40148019001BD4D1A00000E
:1004B00003B40148019001BD5D17000003B4014879
:1004C000019001BD5125000003B40148019001BD18
:1004D000594F010003B40148019001BD8D12000085
:1004E00003B40148019001BD4D1F000003B4014851
:1004F000019001BD5522000003B40148019001BDE7
:10050000DD52010003B40148019001BD1D4D010001
:1005100003B40148019001BD017F000003B401480C
:10052000019001BDE117000003B40148019001BD35
:100530007918000003B40148019001BDD9490100B8
:1005400003B40148019001BDE928000003B401484B
:10055000019001BD5549010003B40148019001BD5E
:10056000F530FF1F03B40148019001BD352AFF1F7C
:1005700003B40148019001BDAD46FF1F03B401481B
:10058000019001BD8143FF1F03B40148019001BDEB
:100590003931FF1F03B40148019001BDF730FF1F3F
:1005A00003B40148019001BD952AFF1F03B401481F
:1005B000019001BDC94A010003B40148019001BD89
:1005C000B11F000003B40148019001BDC92600001D
:1005D00003B40148019001BDE122000003B40148C9
:1005E000019001BDED4A010003B40148019001BD35
:1005F000A54F010003B40148019001BD85520100DF
:1006000003B40148019001BD3D36FF1F03B401480A
:10061000019001BDA939FF1F03B40148019001BD3C
:10062000A548FF1F03B40148019001BD350E00002D
:1006300003B40148019001BD5149FF1F03B40148B3
:10064000019001BD014AFF1F03B40148019001BDA3
:100650003519000003B40148019001BDBD18000028
:1006600003B40148019001BD311A000003B40148F0
:10067000019001BD9928000003B40148019001BD1B
:10068000291C000003B40148019001BD192200009B
:1006900003B40148019001BD851F000003B4014867
:1006A000019001BD5147010003B40148019001BD13
:1006B000A946010003B40148019001BD11470100A2
:1006C00003B40148019001BD7926FF1F03B401481E
:1006D000019001BDC726FF1F03B40148019001BD71
:1006E000D144FF1F03B40148019001BDB94EFF1F63
:1006F00003B40148019001BD7148FF1F03B40148D4
:10070000019001BD3D48FF1F03B40148019001BDA8
:10071000AF29FF1F03B40148019001BD8929FF1FC4
:1007200003B40148019001BD951BFF1F03B40148AC
:10073000019001BDC51AFF1F03B40148019001BD1E
:10074000A91AFF1F03B40148019001BDB11BFF1F8F
:1007500003B40148019001BD810E000003B40148BB
:10076000019001BDB12BFF1F03B40148019001BDF1
:10077000FD50FF1F03B40148019001BD1DBC0000E6
:1007800003B40148019001BD6DBC000003B40148F1
:10079000019001BDE186FF1F03B40148019001BD36
:1007A000F938FF1F03B40148019001BD156B01002A
:1007B00003B40148019001BDE548000003B40148BD
:1007C000019001BD2951010003B40148019001BD10
:1007D000D91B0000FEB508AF70CF6F4670C700F0A0
:1007E00041F80249FFF70CFC0020FEBD1320000079
:1007F00038B5044600F098FA014668460170447026
:10080000210A81706A4603210248FFF7FFFB00209E
:1008100038BD00001B20000038B5044600F0AAFADD
:100820000146684601704470210A81706A460321BE
:100830000248FFF7EBFB002038BD00001A20000043
:1008400008B5002802D000F09DFC00E012206946A7
:1008500008706A4601210248FFF7D8FB002008BD56
:1008600005200000FFB50446354F0001C01980790E
:1008700081B01546022802D00C2005B0F0BD314AE7
:10088000881F90422ED2062D2CD3501D854229D888
:100890008D4227D3FF220499F432914222D80A993B
:1008A0000A291FD381421DD82046FFF7B5FB002837
:1008B000E3D1A12080004443234800682618344631
:1008C0008034E07B002802D0E07A00280CD0207D24
:1008D000012809D00A98C1000498401C68434000D0
:1008E000814203D81220C8E73A20C6E77878174F2C
:1008F00001280AD96804B988000C884203D3FFF79D
:1009000091FB002909D03B20B7E7BD80F08E10494C
:1009100040000978FFF786FBF8600220207600206F
:100920006083308F0021C01DE082A5830498E0839E
:100930000A9820843046FFF77BFB00209DE70000EB
:10094000300DFF1F7B0C00003409FF1F300EFF1F0E
:100950001409FF1FFFB583B0DB480090DB48129EEF
:1009600002780C9D0E9B1399012A20D00027077056
:10097000D7480478092C78D00A2C76D00B2C74D068
:100980000C2C72D00D2C70D0039AD248121F8242C8
:1009900046D2049A121F824242D2049A039882429B
:1009A0003ED80598002805D0012839D102E00C2056
:1009B00007B0F0BD284333D00698002805D00128A1
:1009C00003D0032801D002282AD10D98002805D091
:1009D000012803D0032801D0022821D1B1421FD31E
:1009E000BD49981F88421BD20F98062818D301468C
:1009F0001920C001814213D8994211D3FF221099C6
:100A0000F43291420CD811990A2909D3814207D8AE
:100A1000CA0010980F99401C48434000824201D8F8
:100A20001220C5E7AD48AE49027809788A4201D361
:100A30000720BDE7A948AB4E407800280CD00F989E
:100A4000B1884004000C884203D3FFF7EBFA002979
:100A500002D03B20ACE708E00621082C01D0072C8F
:100A600006D1A1480278002A01D02120A0E7017018
:100A7000FFF7E4FA040058D098484178491C4170C7
:100A80002046FFF7E1FA20460021FF3081308B003D
:100A90001B19FF330133C26A491CDA660829F6DBE9
:100AA00000218B001B19FF338133C26A491CDA60B5
:100AB0000829F6DB2079FFF7CDFA0020810009191B
:100AC000FF310131401CCF660828F7DB0020810090
:100AD0000919FF318131401CCF600828F7DB8348BA
:100AE0002179017403994181049981810599C17328
:100AF0007F49002023180A5C6033401CC0B25A7141
:100B00000528F7D32146653120460191FFF7A8FA61
:100B100027462037F87F02280BD22046FFF7A6FA97
:100B20006E484178491E41707AE76F480770092086
:100B30003EE77048002D0BD02978417069788170AC
:100B4000A978C170E9780171297941716979817158
:100B5000664A0D9911700D9900297DD0664A634946
:100B600013784B7053788B709378CB70D3780B716C
:100B700013794B7152798A71069901700D98009919
:100B8000C007400E08430699C907090E01430291A8
:100B9000FFF772FAE062FFF775FAA0624F484078FB
:100BA00001287AD0B088E08630896087F088208775
:100BB0004E4E707C38745148C0688030818DB97455
:100BC000008EA086FFF764FA0C21FFF72BFA20466F
:100BD0006030491D009081762520B073012030726D
:100BE000474802998180801DFFF758FA002D0DD0EB
:100BF00043492A78881D0A736978C171A9780172FE
:100C0000E9784172297981726979C1723C4821463B
:100C1000123004222831FFF747FA394821461630AE
:100C200003222C31FFF740FA3549B87C4876084654
:100C3000397D8176797DC176014620462230027D5C
:100C40000A77427D4A773A7E8A777A7ECA771A3166
:100C5000027E8A71407E00E01DE0C87108460830BF
:100C600005220199FFF720FA0098397C807E49011E
:100C7000C006C00E0843224921318871144800780B
:100C800000281DD01F48012189030078FFF712FAC0
:100C900000208DE601E01C4A61E70F98E08611997B
:100CA000618710992187B080208FF080608F30811C
:100CB000E08E0B4940000978FFF7B4F9F06077E760
:100CC0002079FFF7FDF9E3E7052200001909FF1F6E
:100CD0001C09FF1FFD3F00007B0C0000300DFF1FB3
:100CE0001409FF1F300EFF1F2309FF1FD40BFF1F26
:100CF0006009FF1F7809FF1F6B09FF1FC099FF1FC5
:100D00006C11FF1F1B09FF1F6509FF1F70B50C4603
:100D10000546FFF7DBF921462846FFF7DDF90446D3
:100D2000FFF7E0F9204670BD10B5114AA1218900F6
:100D3000126841438C189D2189000959012901D06D
:100D40000C2010BDFFF768F90028FAD1E01DF9303A
:100D500002790621012A06D041710D212046FFF7B4
:100D600067F9002010BDFF20213001550221F5E771
:100D70003409FF1F70B50D46134AA121890012687E
:100D800041438C189D2189000959012901D00C206B
:100D900070BD002D16D0FFF73FF90028F8D11021C3
:100DA0000B1A2A5C1B19E033401CC0B29A71102840
:100DB000F6D30121F820015505212046FFF738F927
:100DC000002070BD122070BD3409FF1FFEB5089DC4
:100DD000099C1746002874D0002972D0002C02D03C
:100DE000012C02D003E02A2201E0FF220732921DEB
:100DF0000192354A0E461770344A10603448037029
:100E00003448057034480470002446E0A120800076
:100E1000254645432D48A121006889002818FFF781
:100E200067F92A482D49006862002818FF30813090
:100E3000C662019836180020885451184870264917
:100E4000097800293BD0FF211131009121461C2057
:100E500041432248002220300D182A764254E0B245
:100E60000099FFF74BF9686000202872E0B2012278
:100E70000099FFF743F9E86000202874E0B20222ED
:100E80000099FFF73BF968616968002919D0E968A2
:100E9000002916D0002814D0641CBC42B6DB002008
:100EA0000F4D104A014683009C186580401CD154A8
:100EB000C0B261701028F6D30020FEBD01E03421DD
:100EC000C3E71220F9E700001409FF1F3409FF1FD0
:100ED0001509FF1F1609FF1F1709FF1F3CE7FF1F1A
:100EE000FFFF00001CE9FF1FF8B5714D0028AA792B
:100EF00016D0012A01D0032A12D16E490B78FF2B9C
:100F00000ED14B78FF2B0BD18B78FF2B08D1CB78F0
:100F1000FF2B05D10B79FF2B02D14979FF2930D066
:100F200065490B78012B1DD00026644C0E7021788A
:100F3000092931D00A292FD00B292DD00C292BD0EB
:100F40000D2929D0052927D0062925D0A97B0029DC
:100F50000AD0012908D0032906D0022904D0042987
:100F60000FD101E00C20F8BD002A05D0012A03D0E2
:100F7000022A01D0032A04D1514F002875D001283C
:100F800001D01220F8BDA888012805D0FFF79EF8EF
:100F90002078002802D01AE02120F8BDA87B0300A9
:100FA000FFF7B2F8050408100C0824000120207097
:100FB0001F200AE002202070202006E0042020707C
:100FC000222002E0032020702120FFF7A3F82078E0
:100FD000282101280DD002280BD0042809D003288D
:100FE00007D007280ED008280CD01BE026701E2042
:100FF000EBE7344806602975FFF792F8002820D007
:10100000AE800FE03048C068808D80060AD52F483A
:101010000278002A06D1AA7B032A06D0022A04D02D
:10102000002A02D0FFF75EF8B6E7022202702975A7
:10103000140321463878FFF779F821463878FFF70E
:1010400039F80120A88022480078002809D02148DA
:10105000012102887D20C0004243C9033878FFF790
:101060006BF8FFF73FF820E0FFE7FFF72FF8AE80BF
:101070002078072808D0082806D026701648FFF7E1
:1010800061F81E20FFF746F810480178002905D0C6
:101090000670012149033878FFF748F8FFF722F876
:1010A0000121C9033878FFF741F80020F8BD00009E
:1010B000A60BFF1F6B09FF1F1A09FF1F1C09FF1F4B
:1010C0001B09FF1F4809FF1FC099FF1F2309FF1FAE
:1010D0002109FF1F2C09FF1F00100040FFB585B03C
:1010E00016460D460446119FFEF7F0FF15482946A7
:1010F000007804902046202C00D22020202900D205
:1011000020210EAA2CCA009201AAA8C23246089B2E
:10111000FFF71EF805460C480A49448004980870F9
:10112000012E01D0042E08D1084880230078C10187
:10113000074882889A4311438180FEF7D3FF2846EF
:1011400009B0F0BD1C09FF1FA60BFF1F7809FF1F88
:101150006C11FF1F10B5FB2908D8084B9A4205D81F
:101160001B2903D3FF2349339A4201D2302010BDFB
:10117000034B19825A82FEF7F1FF10BD48080000A8
:101180008410FF1FF8B53249097801292AD00229B5
:1011900028D0032926D0042924D0052922D00629C5
:1011A00020D02C49097802291CD004291AD0012901
:1011B00018D0032916D0062914D0072912D0017897
:1011C000254C8C462170467866708378A370C2786F
:1011D000E270017921714079204D6071AF79012F62
:1011E00002D008E00C20F8BD6746EF712E726B72DA
:1011F000AA72E97228730622E91D1948FEF7B4FFA6
:101200000622E91D1748FEF7AFFF174801780129AC
:101210000BD12178417061788170A178C170E1783B
:101220000171217941716179817110480178012939
:101230000BD12178417061788170A178C170E1781B
:10124000017121794171617981710020F8BD00003F
:101250001C09FF1F2309FF1F6B09FF1FA60BFF1FA0
:101260007211FF1F8A13FF1FBC0BFF1FD40BFF1F40
:10127000F8B5844657480F460178012914D0002656
:10128000554D06702878092838D00A2836D00B2802
:1012900034D00C2832D00D2830D0504C607A002841
:1012A00004D001284BD101E00C20F8BD20780028A3
:1012B00005D0012803D0022801D003283FD162893C
:1012C0004748111F81423AD2A1890B1F834236D26F
:1012D000914234D8002F01D0012F30D16046002830
:1012E0004FD001282BD1207A012807D0FEF7EEFE3F
:1012F0002078012804D0032802D014E02120F8BD72
:1013000038480178FF290ED14178FF290BD1817827
:10131000FF2908D1C178FF2905D10179FF2902D120
:101320004079FF2809D0287825210126002808D0F7
:1013300007280ED008280CD014E0FEF7D3FE1220A8
:10134000F8BDE671E773A17405202870FEF712FF5F
:1013500013E02548C068808D400603D523480278F5
:10136000002A02D0FEF7BEFEC8E7A174067020482E
:10137000012109030078FEF79DFE2672FEF7B2FEFA
:1013800025E0FEF7A3FE2878052804D007280AD018
:10139000082808D00FE02E701648FEF7D3FE1E2056
:1013A000FEF7B8FE07E01148012106701048090356
:1013B0000078FEF7BBFE26725820FEF7E1FE0A48D1
:1013C0000670FEF78FFE0C4801680129FCD0002052
:1013D000F8BD00001909FF1F1C09FF1FBC0BFF1FF0
:1013E000FD3F00006B09FF1FC099FF1F2309FF1F6E
:1013F0001B09FF1F001000409809FF1F38B51C464D
:10140000049B00932346FEF7C1FE002812D10B492E
:10141000002C0C700FD0022C0DD0094A13784B70A1
:1014200053788B709378CB70D3780B7113794B71A1
:1014300052798A7138BD034AF0E70000BC0BFF1FE8
:101440006B09FF1F6509FF1FFFB581B004460298B5
:101450001F461646002814D0002E12D0002F10D0A0
:101460002046FEF7D9FD00280CD1A120800044437E
:101470002C4800682418E51DF935287B002803D086
:101480000EE0122005B0F0BD2749002023180A18ED
:10149000FF330133401C5278C0B25A730828F5D389
:1014A000687BC00738D0002002992218095CC0323E
:1014B000401CC0B211700828F6D320463178C030E5
:1014C000017271784172002010210B1A3A5C1B19CD
:1014D000E033401CC0B29A711028F6D32046B830D1
:1014E000FEF75AFE2046AC30FEF75CFE0C210F489A
:1014F000FEF75EFE00207B2108552146E031C875CD
:101500000876A621095D012908D02871032120460B
:10151000FEF78EFD0020B5E71120B3E7012028710A
:101520000A21F4E73409FF1F480EFF1F3811FF1F7F
:10153000FFB50D46A12189004843234981B00968C0
:101540001E464418002D09D0FF20D930015B0398B6
:10155000814203D3002E04D0012E02D0122005B008
:10156000F0BDE07800280AD00520C00127181748F0
:10157000F9780078801C814203D30720EFE702202E
:10158000EDE7FEF7A3FDF878A91E401CF87003985C
:101590000870002E10D00120487020467C30091FB2
:1015A000FEF70CFEFEF79EFD09480078082805D0DE
:1015B000072803D00020D2E70220EDE700212046D3
:1015C000FEF702FEF6E700003409FF1F1509FF1FB2
:1015D0001C09FF1FF8B50F4E307A002818D10E4CA9
:1015E000E0690E4FC005C50F02D1E0693843E061E4
:1015F00004210B4800F016F809480421103000F0CF
:1016000011F8002D02D1E069B843E0610120307289
:10161000F8BD0000C099FF1F00F00040000100006D
:101620005CE9FF1FF3B50746104881B0C169104A55
:101630001140FF310931C161002613E000252C461D
:101640001120FEF7C7FD0948406A8007800F61003E
:1016500088402843641CE4B20546102CF0D301C72F
:10166000761CF6B202988642E8D3FEBD40F00040F8
:1016700000FEFEFFF0B500248BB00D460646102993
:1016800002D901200BB0F0BDFFF7A4FF1F490020D5
:101690000A5C401C1419C0B21028F9D3002C03D0E6
:1016A000102D03D90B20EDE70E20EBE71848174C5F
:1016B0000023006802A91034E25CC75C7A40CA5477
:1016C0005B1CDBB2102BF7D306AA1048FEF788FD8F
:1016D000102D00D910252A4606A93046FEF744FDF4
:1016E000FEF784FD216840182060FEF77FFD6168E9
:1016F00040186060FEF77AFDA1684018A060FEF710
:1017000075FDE1684018E0600020BBE75CE9FF1F61
:101710002C9AFF1F70B50446FF30FF300230406F37
:101720000D46012812D1282D10D1A420005BE1889C
:10173000401A1D4980B2884208D321466A310522E9
:101740000E46481FFEF758FD002818D01749002004
:10175000820052185278002A16D0401CC0B21028BD
:10176000F6D31348012189020078FEF7A3FC207903
:10177000010110480918897902290DD00FE031467E
:101780002046FEF76DFC70BD80002379421853801F
:101790000D5401205070E4E74178491E4170204605
:1017A000FEF730FD70BD0000FF7F00001CE9FF1F49
:1017B0001B09FF1F300DFF1FF0B505468DB0A0308F
:1017C0000B902846FF300E300390092080012F181F
:1017D000E81DFF30FA300890E0380790C030EE1D69
:1017E000F9362C4680340990F0E0E07A0B2870D06E
:1017F00009DC0300FEF788FC0B37551C6EEAEABFD4
:10180000F0EFEED6EA0016286FD008DC0C286DD079
:1018100011286CD014286BD01528E5D166E1182862
:1018200067D01A287CD01B287BD0FE28DCD119E297
:10183000A07A012803D02846FEF7EAFC19E0FA480E
:101840008078002804D02846FEF7E8FC162106E040
:10185000608A401E0004000C60827CD00CE22846A6
:10186000FEF7E2FCF6E1A07A012804D02846FEF754
:10187000E1FCA07200E2EC48807800280ED0207EC7
:1018800040002076608B40006083A08B4000A083E6
:10189000208C000120840120207510E02889E18A35
:1018A00013E0A07A012803D02846FEF7C9FCE0E740
:1018B000DD488078002806D00B99012088702846E2
:1018C000FEF7ACFC82E02889A18C8842C6D1282191
:1018D000C5E784E0A07A01280CD02846FEF7B6FCC4
:1018E000A07200207072B072C6E111E1C3E055E150
:1018F000E9E027E1CC48C078002801D00020207121
:10190000707A01280ED0B07A012813D0F07F012818
:10191000D5D0608A401E0004000C60826CD0ABE120
:1019200067E189E10020E06730600B990120887150
:10193000062148E02846FEF771FC0B9900208871CB
:1019400001207B214855207170790628287906D01E
:1019500000221A2100E03BE1FEF77EFC36E0002287
:101960000621F7E72221FEF77DFC31E1002222214A
:10197000FEF772FC2CE1A07A012806D02846FEF77B
:1019800077FCA0720020B07176E1B0790128C0D157
:101990002846FEF743FC00203072F0717072B0717F
:1019A000B07213E0A07A012806D02846FEF766FC44
:1019B000A0720020F0715FE1F0790128A9D10B99A4
:1019C000002088710B212846FEF75EFCE07B002892
:1019D00003D00AE740E014E03EE10DB0F0BDA07A8C
:1019E000012803D02846FEF755FC42E78E48C07810
:1019F00000288ED00321E6E7307901282879B5D177
:101A0000B0E7A07A012811D0884900202B180A18C5
:101A1000FF3301335278401C5A730828F6DB2846FE
:101A2000FEF73EFCA0720020307325E1307B0128D8
:101A300006D0608A401E0004000C608206D01BE1C4
:101A400029790020039AFEF731FC38E72979222012
:101A5000039AFEF72BFCBBE0A07A012803D02846AE
:101A6000FEF72AFC05E77048C078002800D1EFE6B1
:101A70000120307323E7A07A012805D00120F075FA
:101A80002846FEF71FFCF4E6707D012806D0608A28
:101A9000401E0004000C60820CD0EDE0B07D0128F7
:101AA000D3D1B08B0090738B327E29790020FEF762
:101AB0000FFC04E7B08B0090738B327E29792220D3
:101AC000FEF706FC84E0A07A012807D02846FEF73E
:101AD00005FCA072099900204874CDE05248C078F6
:101AE0000028C4D0099901204874E8E6A07A0128AA
:101AF00003D02846FEF7F8FBBBE64B48C078002829
:101B0000B5D00999002008742879FEF7F3FBD6E6D2
:101B1000A07A012807D02846FEF7F2FBA0720899A8
:101B200000200872A8E04048C07800289FD008999B
:101B3000012008723E484079012886D1089900208A
:101B40000872BCE6A07A012803D02846FEF7DEFB27
:101B50008FE63548807800281DD00798007B002844
:101B600003D10798407B002808D00799012008740A
:101B70000899002008720899C871A0E60998417E6A
:101B8000079801730998817E0798417300212846C0
:101B9000FEF7C2FBECE72889718E96E6A07A012851
:101BA0000ED00898007A012814D00B98807801286C
:101BB00012D0207D01280FD0387E012811D05BE0A3
:101BC0001948C07800288CD007990120887276E6E1
:101BD000222144E6232100E02A212846FEF7A2FB29
:101BE00047E6797E2846FEF79DFBA07200207876B6
:101BF00042E0A07A012806D02846FEF799FBA072A1
:101C00000120387638E00848C078002899D1608AE9
:101C1000401E0004000C60822ED1064804220021E0
:101C20002818FEF78BFBD3E7E010FF1F480EFF1FBD
:101C3000C099FF1F56020000A07A012803D0284651
:101C4000FEF782FB15E60F48C078002802D000207E
:101C5000F87534E60120C0E62846FEF77BFB012834
:101C60008BD009E007990120C875FF2149314853FD
:101C700004488078012801D00020AEE6079801785A
:101C8000EDE50000E010FF1FF0B5054687B0E0303D
:101C900004902846A0300390403805900920800128
:101CA0002E462818FF36E136029030462030EF1DD0
:101CB000F9372C46803401909FE1E07A801E0300C2
:101CC000FEF722FA1A0E3822396BF638C13892D153
:101CD000A9383838383838F5F4F3F23838F1F038B4
:101CE000A07A012803D02846FEF792FA12E0C548F0
:101CF0008078002801D0162130E1608A401E00045F
:101D0000000C60826FD076E1A07A012804D02846CA
:101D1000FEF726FBA0726EE1BA48C0780028ECD02E
:101D20002846FEF77BFA2A4629462879C832C03170
:101D3000FEF71CFB61E1A07A012813D00498C07D56
:101D4000012821D00498007E00287BD02A4629460D
:101D50002846D732B031E730FEF742FA0499012025
:101D6000C8754AE1A748C078002805D0039901202A
:101D700088710020E0673860B8790128BDD106215C
:101D80002846FEF781FA38E12846FEF7F5FA0128E1
:101D9000B9D10020B8710120BCE7A07A012803D096
:101DA0002846FEF765FAB5E79648C0780028A4D023
:101DB000E88C68842846FEF731FA05990120C87638
:101DC000207138790128287909D001220021FEF7F5
:101DD00043FA002038713872F871B8710DE10021B2
:101DE000FEF740FAF5E7B8E0A07A012805D02846CA
:101DF000FEF750FA012807D0FDE0F8790128BDD19F
:101E00002846FEF70BFAF8E00020F8710399887174
:101E10000120A072F1E0A07A012804D07979284647
:101E2000FEF7B0FA76E77748C178002906D0039A22
:101E300000219171059A0121D176217180780028C5
:101E4000DED15AE78EE0A07A012803D02846FEF7BB
:101E500033FA5FE76B48C0780028F2D0012038736E
:101E6000E88C6884CCE7A07A012805D00120F875B9
:101E70002846FEF727FA4DE7787D012806D0608ACC
:101E8000401E0004000C608213D0B4E0B87D01282D
:101E9000B6D1B88B00907B8B3A7E29790020FEF773
:101EA00017FAADE78FE072E03BE02DE01BE009E0C0
:101EB0009CE0B88B00907B8B3A7E29792220FEF73C
:101EC00007FA4AE0A07A012806D02846FEF706FA6B
:101ED000A072002070748EE04A48C0780028B0D00C
:101EE000012070748CE7A07A012803D02846FEF701
:101EF000FBF90FE74348C0780028A2D000203074D7
:101F00002879FEF7F7F97BE7A07A012803D0284665
:101F1000FEF7F6F936E03B48C078002891D0012062
:101F200018E0A07A012807D0707FB17F08401BD04D
:101F300041071DD5042020E03248C07800288CD00D
:101F400001990020C871019A012111722E49097965
:101F5000012987D10199087252E722212846FEF70C
:101F600063F9012007B0F0BD707E7075B07E05E0AA
:101F7000800701D5022000E001207075B075284669
:101F8000FEF706FAA07201990020087233E0A07AE9
:101F9000012807D02846FEF7CBF9A072029901204C
:101FA000087628E01748C07800289BD1608A401E38
:101FB0000004000C60821ED114480422002128185D
:101FC000FEF7BCF9C9E7A07A012803D02846FEF73E
:101FD000BBF99FE60B48C07800280ED0029900207C
:101FE00008760299C875FEF7D9F909E72846FEF781
:101FF000B1F9012887D00020B4E7E07B002800D0A9
:102000005BE6AFE7E010FF1FC099FF1F560200001C
:1020100070B51F48012201781E4D002915D01E48B9
:10202000A1218078890048431C491D4C0968227011
:1020300046182078FEF7B8F9A87B00281AD00328A4
:102040001BD002281CD0002070BDA97B002904D021
:10205000032904D0022904D005E0027003E0042122
:1020600000E003210170FEF75BF80E4900200870C4
:10207000012070BDFEF79EF904E0FEF7A1F901E032
:10208000FEF7A4F9FF36FF360236317B217070BDB2
:102090001C09FF1FA60BFF1F300DFF1F3409FF1F78
:1020A000490AFF1F2309FF1F144913488863134877
:1020B0001349403041611349016113490F4A0162DC
:1020C0001249803A1163124901601349114A0A60AA
:1020D000124A8A601249104A41621249403A5161DB
:1020E000114981601149816111494160124A1149C8
:1020F00091601249C1617047B953FF1F8001FF1FF2
:10210000FD1302117112021149140211A931FF1FAE
:10211000B9170211D166FF1F8002FF1FF96FFF1F61
:10212000B557FF1F7583FF1FC584FF1F5509021197
:102130001955FF1F151702118000FF1FCD21021135
:1021400010B5FEF749F9FEF74DF910BD03480249F5
:10215000C1600349816170473D7CFF1F8002FF1F02
:10216000B171FF1F0E480D4901600E4981600C4995
:102170000D4A40314A610E4B0C4A5A610D4AC26207
:102180000D4A82630D4A8A600D4A4263084A0D482F
:10219000403A10620C48886170470000DD1002115F
:1021A0004000FF1FE90E02110D85FF1F7583FF1F01
:1021B0004002FF1F8157FF1F9555FF1F1517021182
:1021C000891C0211115BFF1F1D37FF1F70B5FDF742
:1021D0007DFF904C002025682060FEF709F9064637
:1021E0002560FDF77FFF304670BD8B49C968FF3120
:1021F000813188657047F8B5FEF700F9864D874A4A
:1022000068721178022903D9002801D101201070C9
:10221000834900200446E9608300401CCC50FF281D
:10222000FADDE8687F49882319507F49C1627F49F8
:102230000978002902D07C491131C1620A21016567
:10224000117881637A49C161FEF7DEF8E96879485F
:102250004861192080018861084637228030C260B9
:10226000082336220B64CA631E224A643622426067
:10227000322202603B220364C2632822426441226C
:10228000C264392282643222436502652822826553
:10229000022202664222C2651E228366426628220C
:1022A000C26620224267422202675A2243610261CB
:1022B0003C228261192292010A605F4A0A63FF226E
:1022C0002D328A60CA60FF22F5320A615B4A8A6455
:1022D0007D22D2005A4EC267CE644A62594A8A624F
:1022E0003222CA6506224A658A65CA1DF93202256C
:1022F00013604D664B25ED008D660925CD66524D68
:102300000D678C674B67AB10CB67504FFF313E605A
:102310004A4E86627D26F60086676426466205265A
:10232000C66202260663C82646638463382050606E
:10233000474810644B2080019061B000D061581074
:1023400010627D2000015062D46695651366536467
:10235000D565146753671E2090663E4890673E48D7
:102360005B008131D0670B608B604860FF20F530E7
:10237000C86008614B20C00010630E6538483749BB
:10238000274A81603749803A11613549364A8031A0
:102390008A62364ACA62364A8261364AC262364A1E
:1023A00002632F4A3548403A50633548D063354878
:1023B000C861354890632A493448403188613549BD
:1023C0003348886026483449803841603349244A7C
:1023D00041633349C03AD1603349324B204CCB631F
:1023E000324B403C2363324B9362324AC263324ADF
:1023F000C260324A4A63324AE260324A8A63324AEF
:102400000A6332498163FEF705F80120FEF708F8F8
:10241000F8BD00009809FF1FC099FF1F4A0AFF1F5F
:102420000004FF1F30F2FF1F6E040000A495FF1F81
:102430003A07000080C3C9019A02000050C300009F
:10244000280A00006A180000204E0000F009FF1F53
:1024500000400011DC05000040420F00995FFF1FA3
:102460000001FF1F8134FF1F858BFF1F598EFF1F47
:102470008D31FF1F2133FF1FA931FF1F6946FF1F49
:102480001D44FF1F7D93FF1F6991FF1F092AFF1F36
:10249000551102110002FF1F0D56FF1F1D5DFF1F8A
:1024A000D536FF1F0D0D02110000FF1F1186FF1F03
:1024B000F158FF1FE962FF1F2959FF1FBD36FF1F9B
:1024C0006156FF1F311502116936FF1F157FFF1F6F
:1024D0000A7802708A7842704A88120A82700979F2
:1024E000C170042070470A7802700988090A417097
:1024F000022070470A7802700988090A4170022098
:102500007047097801700120704770B50C46097852
:1025100001702188C51C090A4170A178817060880A
:10252000611D000A28706D1C22792846FDF71CFEEB
:1025300020792146401922890A31FDF715FE2079BC
:1025400021894018001D80B270BD10B500220EE038
:1025500093005B189C7804705C88521C240A4470B9
:102560001C7984709B88D2B21B0AC370001D0B7843
:102570009342EDD81806800D10BD0A7802700A88C3
:10258000120A42708A7882704988090AC170042050
:102590007047F8B50D460646497801203170002491
:1025A000761C16E06978012917D012216143491978
:1025B0008A7832704A88871C120A7270B61C102200
:1025C0003046091DFDF7D0FD1037B8B21036641C37
:1025D000E4B22978A142E5D8F8BDA10049198A786A
:1025E00032704A88871C120A7270B61C022230466A
:1025F000091DFDF7B9FDBF1CB8B2B61CE7E710B561
:102600000C46097801702188090A41706288211DF1
:10261000801CFDF7A9FD6088801C80B210BD10B53C
:102620000C46097801702188090A4170A1788170EF
:102630006188090AC170A288A11D001DFDF794FDE3
:10264000A088001D80B210BD10B50C46097801703D
:102650002188090A4170A17881706188090AC170D6
:10266000A288A11D001DFDF77FFDA088001D80B27E
:1026700010BD0A7802700A88120A42708A78827045
:102680004988090AC1700420704710B50C460A88B1
:10269000891CFDF769FD208810BD10B50B788A787C
:1026A00002705343DCB22246401C091DFDF75CFD5D
:1026B000601C10BD10B50C46097801702188090A0C
:1026C0004170A17881706188090AC1702279611D09
:1026D000001DFDF749FD2079001D10BD10B50B78D8
:1026E0008A7802705343DCB22246401C091DFDF774
:1026F0003BFD601C10BD10B50C460A88891CFDF717
:1027000033FD208810BD10B50C460A88891CFDF7E2
:102710002BFD208810BD10B50C460978017021886A
:10272000090A41706288211D801CFDF71DFD60882B
:10273000801C80B210BD7FB515460446022901D029
:10274000102903D1022B04D0102B02D0002004B09A
:1027500070BD994202D10A46294607E01029694610
:1027600007D000F00DF8102269462846FDF744FD19
:10277000EDE7104600F004F8102269462046F5E720
:1027800070B50C4605000CD0002C0AD0102206496A
:102790002046FDF7E9FC28782073687860730120F3
:1027A00070BD002070BD000065E6021110B50B463B
:1027B0000122024903F056FB10BD0000D124021192
:1027C00010B50A88173AE02A05D80B4602220349B9
:1027D00003F048FB10BD022010BD0000E7240211E9
:1027E00070B5064608880C46172812D30B460322FC
:1027F0000949304603F036FB050008D10749208817
:102800000988884200D20146304600F0A3FA2846E3
:1028100070BD022070BD0000F5240211409AFF1F18
:1028200010B50B461822024903F01CFB10BD000036
:102830000325021110B500231922194603F012FBDB
:1028400010BD000010B50A79022A01D0022010BD87
:102850000B460622014903F005FB10BD0B250211B2
:1028600010B50A78002A05D00B460722024903F06A
:10287000F9FA10BD022010BD4B25021110B50B4610
:102880000422024903F0EEFA10BD00007B2502117C
:1028900010B54A78012A01D0022A08D10A78002A04
:1028A00005D00B460522034903F0DCFA10BD0220D7
:1028B00010BD000093250211024940008968085AA2
:1028C00070470000349AFF1F10B500231E221946DE
:1028D00003F0C8FA10BD000010B50B461D220249D6
:1028E00003F0C0FA10BD0000FF25021110B50B4621
:1028F0001B22024903F0B6FA10BD0000FF250211A9
:1029000010B50649002089681723054A02E04400F3
:102910000B53401C1478A042F9DB10BD349AFF1F02
:10292000149BFF1F042901D0042070470178117007
:10293000837841781B02C9185180C078107100203B
:1029400070470098022B01D004207047117852780C
:1029500012028918018000207047022901D004204A
:1029600070470178407800020818108000207047F6
:102970000098012B01D004207047117801700020CD
:102980007047002901D0042070470020704770B5BF
:10299000049C1E461546062B1BD36978287809022D
:1029A00040182080E978A878090240186080022247
:1029B0002271291D601DFDF7D7FBB61FB2B222811F
:1029C000F02A06D82046A91D0A30FDF7CDFB0020CD
:1029D00070BD042070BD0098042B01D00420704706
:1029E000537811781B02C91801809178D2781202AD
:1029F000891841800020704710B502981146022BBB
:102A00000FD34C780A782402121902809B1E9AB2C6
:102A10004280F42A05D8001D891CFDF7A5FB002083
:102A200010BD042010BDF8B584890D460646002C63
:102A300026D0B2681778380620D50C2C20D90C3C4B
:102A4000A4B21019009001217088234603F04EF9BA
:102A5000002811D0022028707806C00F6870B806D0
:102A6000800EA870641E2004000CA88001D0B068FD
:102A7000401CA8600020F8BD0120ECE70020EAE738
:102A80000120F8BD10B502981146042B14D34C78E0
:102A90000A78240212190280CC788A78240212194A
:102AA00042801B1F9AB28280F22A05D8801D091D20
:102AB000FDF75AFB002010BD042010BD0098042B28
:102AC00001D004207047537811781B02C918018087
:102AD0009178D2781202891841800020704770B531
:102AE0000546144603290CD3491ECEB229786180CD
:102AF000F52E06D8002904D03046FDF793FA0029B8
:102B000001D0042070BD20703246691C201DFDF7E5
:102B10002BFB002070BD10B502981146062B03D088
:102B2000142B03D0042010BD022200E010220271F9
:102B30004B780A781B02D2180280CB788A781B0265
:102B4000D21842800279401D091DFDF70DFB0020BF
:102B500010BD70B50546144603290CD3491ECEB2EC
:102B600029786180F52E06D8002904D03046FDF77B
:102B700059FA002901D0042070BD20703246691C2A
:102B8000201DFDF7F1FA002070BD000030B5039C58
:102B9000D80718D1D805010E022914D30B48808814
:102BA000814210D8F6200155002008E055781378AE
:102BB0002D025B194500401C6353C0B2921C884231
:102BC000F4D3002030BD042030BD0000349AFF1F34
:102BD0000098022B01D0042070471178527812021D
:102BE000891801800020704770B514460246049889
:102BF000022B18D3667825783602AD190580054674
:102C0000E0352A766976002A0BD0E8219B1E9AB21D
:102C100042808A4207D8A11C001DFDF7A5FA0020BA
:102C200070BDF421F2E7042070BD002901D004201A
:102C3000704700207047000010B50B46162202496D
:102C400003F010F910BD00001F26021110B50B464D
:102C50001722024903F006F910BD000049260211AF
:102C600010B50B460C22024903F0FCF810BD000021
:102C70007326021110B50B460D22024903F0F2F83B
:102C800010BD00008B26021110B50A79102A03D05E
:102C9000022A01D0022010BD0B461022014903F088
:102CA000E1F810BDB526021110B50A78002A05D04A
:102CB0000B461122024903F0D5F810BD022010BDC9
:102CC0009B26021110B50A79102A03D0022A01D0DE
:102CD000022010BD0B460822014903F0C3F810BDC5
:102CE000B526021110B50A78002A05D00B46092234
:102CF000024903F0B7F810BD022010BDDD26021115
:102D000010B50B460F22024903F0ACF810BD0000CD
:102D1000F726021110B50B460B22024903F0A2F868
:102D200010BD000007270211F72800D9F720084A34
:102D300001461080401EC3179B0F18188003000C1B
:102D40005080491EC80F4018C003000C9080704787
:102D5000349AFF1F034A1388994202D892684000B0
:102D600011527047349AFF1F70B50B46E0331C7E3A
:102D70001222012C0AD10A4D42002D684C88AA5A11
:102D80000F3A944201DD022070BD92225B7E012B3E
:102D900001D140231A430B46024903F063F870BD8A
:102DA0003C9AFF1F1727021110B500231322194662
:102DB00003F058F810BD0000FFB593B005460020A1
:102DC000109011901E4610AA284600F0B9F904464A
:102DD0000A2855D203F0FFFC0546082E19D0002022
:102DE000009033462A462146159803F005FC14222C
:102DF00000210BA8FDF7A2FA20460621484307460A
:102E00002430C0B20BAA102109F076FA002802D0B3
:102E100014E00120E4E71022FF210BA8FDF706FBD8
:102E200000280BD12537F8B20FAA042109F064FA63
:102E3000E907C90F0BAA159801F03AF87034E0B20F
:102E400001AA282109F058FA002811D101A803F09D
:102E5000D4FC002401AFA000C0190188002903D0D0
:102E60008278159801F03CFB641CE4B20A2CF2D382
:102E7000A80707D516480178159801F01FFB01E057
:102E8000082E02D0042E17D01FE0114815991630D5
:102E9000405C022819D100222946159803F022FB34
:102EA0000B48006A002810D04368002B0DD0002288
:102EB00011461598984708E0054815991630405C6A
:102EC000022802D1084603F0D5FC002017B0F0BD5F
:102ED000D895FF1FF0B504468078964F801F3D4679
:102EE00085B0163D00260300FDF70EF90AFC11110E
:102EF000881B06CC115D9911286A002808D0066845
:102F0000002E05D0637B227B6189E01CB0470EE177
:102F10006189E86900F0B6FE0028F8D060890121D7
:102F2000D7E0607800282CD1A079C00729D0A088EC
:102F3000814980000858002823D10E2200216846CC
:102F4000FDF7FCF96169002903D0062268461031BB
:102F500007E0A08807F04EFC0028D8D0C11D06224B
:102F60006846FDF701F969468889A1794907C90FC3
:102F70000843694688812146684603F0F5F9002830
:102F800009D0286A0028C2D04368002BBFD06278DD
:102F9000A08801216FE0A0882246694603F03AFD2F
:102FA000002005B0F0BD6078062817D1A08807F092
:102FB00021FC060012D0687B012804D0022808D02A
:102FC00003280BD114E0B179A088002203F08AFA1B
:102FD00004E0A1883078052200F0A0FF286A0028CC
:102FE0001CD04368002B19D06278A088022142E0EF
:102FF00000221146514800F0FDF8EAE7E07800228F
:10300000211D00F09DF80A2808D2062148432530EA
:103010002246C0B20C32042109F079F987E0287AFF
:103020000028A08801D0697A53E0395C002924D0B7
:1030300007F0E0FB0646A07AC0070DD0002E76D040
:10304000B079002808D0A189890505D46A46F11D08
:1030500000F076F8002812D02246B179A088083214
:1030600003F040FA286A002861D04368002B5ED044
:103070000022A0881146984759E0052129E0A08840
:10308000032126E0A58801962846029607F0B2FBA8
:1030900004004CD0785D022849D0A07901AAE11D36
:1030A00000F04EF806460A280AD203F094FB0246C6
:1030B0000120009008233146284603F09DFA36E0AF
:1030C000785D002803D0012806D030E00AE0052111
:1030D000284600F013FF2AE0A1790022284603F0D9
:1030E00001FA24E000F0AEFD002820D1E87B0128A1
:1030F00006D0114D00240C3D285D01280AD00DE0BA
:1031000003F0BAFA0C48EE730A2200210C38FDF7DE
:1031100015F907E0204603F0BBFA2E55641CE4B213
:103120000A2CE9D3502009F0E5F803F075FB0120E3
:1031300037E70000EE95FF1F34DAFF1F0904000097
:10314000F0B50A2485B015460F46002806D00128A0
:1031500004D0022810D0032846D11FE0084603F00F
:10316000F9FA04460A283FD2002D3DD006223946FE
:103170002846FCF7F9FF37E01D4E00240E2060437F
:10318000801906223946801DFDF736F8002823D124
:10319000641CE4B20A2CF1D30A241DE0002420466A
:1031A000062148432330C0B26A46102109F0A4F832
:1031B00000280CD11022FF216846FDF737F90028BE
:1031C00005D13946684600F015FE002804D0641C7D
:1031D000E4B20A2CE3D3DFE70A2C05D2002D03D09A
:1031E0002946204603F0DCFA204605B0F0BD000079
:1031F0009CD9FF1FFEB5154601229202821A0024B7
:103200000127584E1300FCF77FFF110A151A2128D9
:103210002F373E434B767E858DA29956A200012919
:1032200070D1297802296DD84E4804221630FDF756
:1032300085F894E0022965D1288870828FE0012901
:1032400060D1287801285DD8707088E001297CD190
:103250002878042879D8B07081E0012975D12878C0
:10326000012872D8F0707AE010296ED11022294618
:103270003D48FCF779FF72E0012966D128780128E2
:1032800063D830716BE001295FD12878B07266E0B5
:1032900004295AD135492868884256D8F0615EE041
:1032A000002952D100F0CEFC002801D0F77356E07F
:1032B00003F0E2F919E0072947D10622691C6846A4
:1032C000FDF7BAF8287800226946FFF739FF05466E
:1032D0000A280ED200F0B6FC002803D022489C3009
:1032E00047553CE0284603F0D3F9502009F002F896
:1032F00021E0022433E0012927D12878012824D8AD
:1033000030722CE021E001291FD1287809281CD82F
:10331000707224E0012918D12878C11F092914D816
:10332000F0721CE0012910D1B17B2878B07300291C
:1033300015D1012813D103F06FFA10E0012904D14F
:103340002878032801D8707309E0182407E027289B
:10335000CFD20229CDD1298800F09AFD044620461B
:10336000FEBD0000D895FF1F8CD9FF1F3F420F0004
:10337000F8B50F4613491525164688420DD100248D
:1033800032463946204603F095FA002800D0002541
:10339000641CE4B20A2CF3D312E007F02BFA0028E5
:1033A0000DD08379C11D00221846FFF7C9FE0A28F7
:1033B00006D23246394603F07DFA002500E0142596
:1033C0002846F8BDFFFF000010B50248807800F0E5
:1033D00085FA10BD4097FF1F3EB5084C6D46A47896
:1033E0002C706870A970EA700622194601A8FCF7D3
:1033F000BBFE684600F02CFB3EBD00004097FF1F5F
:1034000070B52D4E0C462B4B024631460025C01A96
:1034100020319A4244D00CDC2848101A0300FCF7F3
:1034200073FE0D1D1F232A2D161616163A16163D6D
:10343000160006282BD006DC032833D0042822D01F
:10344000052804D121E0072823D0F7282CD0272AEB
:103450002CD2104600F07EFB208028E030781BE064
:103460001022711C204603E013491022113120461E
:10347000FCF77AFE1BE0706A206018E00E49062215
:1034800028312046F4E7F08DE6E7308EE4E7708ED1
:10349000E2E7B08EE0E7087E207008E0487EFBE7B8
:1034A000887EF9E7C87EF7E7087FF5E7022528461A
:1034B00070BD00000D030000F8E0FF1F00030000D6
:1034C00010B50A4CA07008F089FD4422002108487C
:1034D000FCF734FF01F092F9A07801F019FAFF220D
:1034E0002D320421A078FCF7ADFF10BD4097FF1FDF
:1034F000F8E0FF1F70B50C46080417D51C4880780B
:10350000FCF7A6FF05000ED00178A22908D0B0294B
:1035100004D0D02904D102F037F801E008F06EF9A8
:103520002846FCF79BFF0120C0031CE0E00703D006
:1035300008F0E8FC012016E0A00702D50220484070
:1035400070BD200704D50B4800F0EEF808200AE013
:1035500060070AD5FF202D3008F0AAFE08F002FE11
:1035600008F01CFE0420604070BD002070BD00000B
:103570004097FF1FFEFF0000F8B5554E1546534B10
:10358000024637460024C01A20379A424AD00EDC41
:103590005048101A0300FCF7B7FD12272C323B20CD
:1035A000202020205420205B622020694020F42825
:1035B0006BD008DC01283AD002283DD0F2285AD03E
:1035C000F3280AD15CE0F52864D0414B4033F6285B
:1035D00065D0F72868D0F8286BD0272A01D20229B5
:1035E0006ED002242046F8BD012964D128783070BD
:1035F000F8E710295FD110222946701C05E0102938
:1036000059D13348102229461130FCF7ADFDE9E7C6
:10361000042950D128687062E4E702294BD1288838
:10362000F085DFE7022946D128883086DAE70229CB
:1036300041D128887086D5E702293CD12888B086F8
:10364000D0E7012937D12878042834D83876C9E75B
:10365000012930D1287807282DD87876C2E70129AA
:1036600029D12878032826D8B876BBE7012922D1AA
:103670002878F876B6E701291DD128783877B1E7A0
:10368000012918D128787877ACE7012913D1287857
:10369000B877A7E701290ED12878F877A2E70129A2
:1036A00009D1287818709DE7012904D1287858702D
:1036B00098E7022901D0182494E72888588091E7D8
:1036C0002988104600F0E4FB04468BE71203000053
:1036D000F8E0FF1F000300001CB50A4C002800D0D2
:1036E0006060207808700848027F011D0F3803468B
:1036F00001910090113B1978A0785B1C00F058F9FB
:1037000000201CBD4097FF1F18E1FF1F38B5054B77
:103710006C469B7823706070A170E270684600F080
:10372000F9F838BD4097FF1F014610B50248132233
:10373000807800F0F3FB10BD4097FF1FF8B50446FA
:103740002F480F460078022805D0012803D008280A
:1037500003D1002F01D01220F8BD002C08D0294D34
:103760002088EA6881005158002903D01120F8BD53
:103770000220F8BD07F03EF806003BD02C20FCF7F5
:1037800073FE2188EA6889005050002834D02C222A
:103790000021FCF7D3FD2088EA68810051581C22E3
:1037A00048802088E96880000858211D001DFCF72A
:1037B000DBFC2188EA6889005158022008702288C1
:1037C000E96890000B5870791B1D002816D0002066
:1037D0000D49097802F02EFA0546002F03D039462C
:1037E000304609F0E7F9002D02D0208803F0C2F935
:1037F0002846F8BD1420F8BD1320F8BD0120E7E7E6
:10380000559AFF1FB89AFF1FE59AFF1FFFB5204D7D
:1038100081B028781E461746022823D0012821D0DF
:10382000002F22D0019806F0E5FF04001FD0606A47
:10383000002801D0FCF71EFE1C213846FCF720FEB4
:103840006062011E15D02878000714D5002E12D012
:10385000887E00900B4612330A8A019809F08EFC8C
:10386000014609E0122005B0F0BD0220FBE714205C
:10387000F9E71320F7E70021207904221043207193
:10388000029A002A02D00222104320710846EAE779
:10389000559AFF1F10B505480078000701D5044868
:1038A00000E0002003F0E6FD10BD0000559AFF1F68
:1038B0004C9AFF1F10B5FEF798FC06480A210078C5
:1038C000084204D0044803F0CFFD002010BD0120C1
:1038D00010BD0000559AFF1F449AFF1F10B50B49F9
:1038E0000968002904D00978814203D0032010BD63
:1038F000122010BD064801210078FCF717FC30208B
:1039000003F0E6FD002003F0DFFE10BDB09AFF1FBC
:10391000E59AFF1F38B5234D04462868002801D0DA
:10392000112038BD20480A210078084201D1122018
:1039300038BD0420FCF798FD286000282FD0042211
:103940002146FCF711FC00F07DF9002805D00C2081
:1039500000F000F905460D2007E06078022812D03B
:10396000102000F0F7F80546112000F0F3F80246A9
:10397000E078002800D0012000900C480078002852
:1039800007D0012306E0122000F0E4F805461320DA
:10399000EBE70023A0782946FCF778FD38BD13201B
:1039A00038BD0000B09AFF1F559AFF1F569AFF1F9F
:1039B000F8B51D4616460224079F0B00FCF7A4FB32
:1039C0000D1C080808081C081C08081C1C081C0002
:1039D00000F03CF904000FD13A462846069900F061
:1039E0000DFA3046FFF766FFFFF754FF02F044F888
:1039F00000F06CF902F0E2F82046F8BD70B5104C0A
:103A00002168002904D00978814203D0032070BDC9
:103A1000122070BD0B4D02212878FCF787FB0A4865
:103A20000026468004212878FCF780FB07480680A2
:103A30002168032048700020FCF72EFD70BD0000B7
:103A4000B49AFF1FE59AFF1FC89AFF1F589AFF1FDD
:103A5000F0B505463B4889B00078000702D4122033
:103A600009B0F0BD03F0F8F8002801D01020F7E706
:103A700000F0E8F834490978884201D31520EFE7CF
:103A8000324C2068002801D01120E9E70A20FCF719
:103A9000EBFC2060002851D00A222946FCF764FB89
:103AA00020684078002805D00E2000F053F80890D8
:103AB0000F2004E00C2000F04DF808900D2000F0DD
:103AC00049F8054622480078002835D001261C20F8
:103AD00000F040F804901B2000F03CF803901920FF
:103AE00000F038F802901A2000F034F8074616204B
:103AF00000F030F80190152000F02CF800902168BB
:103B0000C878091D02F0EDFB034602A807C8049718
:103B100005AF07C72268019900980391141D029010
:103B200001960094927829460898FCF7BBFC0400A3
:103B300005D003F043F802E00026C8E7132420462E
:103B40008EE70000559AFF1F149BFF1FBC9AFF1FB2
:103B5000569AFF1F272803D202494000085A70478F
:103B600001487047609AFF1FFFFF000010B5044C2A
:103B70006070FCF79DFC0521607801F011F910BD23
:103B8000E49AFF1F70B5284E054630680C460028A1
:103B900001D0112070BD254801780520014216D0C2
:103BA00023488068002805D00078002802D0C80784
:103BB00006D101E0102070BD00F044F8002808D0C4
:103BC0002078032805D0022803D0002801D0122035
:103BD00070BD0C20FCF748FC3060002820D0057038
:103BE000002141700A222146801CFCF7BDFA03F037
:103BF00097FD040002D002F0B1FF12E00D480078FA
:103C000003280ED11D20FFF7A5FF0B4900280880CF
:103C100007D00B48094A04210078FCF713FC00E0A8
:103C20001324204670BD0000B49AFF1F559AFF1F51
:103C3000C89AFF1F569AFF1F589AFF1F60EA00009C
:103C4000E59AFF1F10B506F031FE10BD70B50C46A9
:103C500005461C2200210948FCF770FB0848057046
:103C60004470FCF72BFC0549002803D000200870A5
:103C7000122070BD01220A7070BD00008CE9FF1F88
:103C8000549AFF1F7FB504460D46084606F0B2FD64
:103C9000002805D00C48844204D9022004B070BD2D
:103CA0001220FBE7102200216846FCF747FB68461C
:103CB0000470210A4170210C8170210EC1702946C7
:103CC00001F0EAFEEAE700003F420F0070B50F4C3A
:103CD0000025A068002802D0FCF7CCFBA560E068B6
:103CE000002802D0FCF7C6FBE560094805210078F2
:103CF000084206D00548103003F0C2FB02F00AFB70
:103D000070BD002003F0BCFB002070BDC89AFF1FEF
:103D1000559AFF1FFEB5344D0C46080419D5687836
:103D2000FCF796FB0121C9034C40064600280ED043
:103D300003F090FA002807D12878FF2804D03146F4
:103D4000FCF7C2FB002802D03046FCF787FB204678
:103D5000FEBDE007012700280AD0A868002804D08B
:103D60004168002901D00020884720467840FEBDE8
:103D7000A00709D56868002804D04168002901D04F
:103D80000120884702202AE060072AD5174E308894
:103D900000281FD0401E0004000C30801ED102F00D
:103DA00053FF002809D0124807706868002804D023
:103DB0004168002901D00120884702F01FFF6946B1
:103DC00001F0D8FD684603F02FFA1D20FFF7C2FE70
:103DD000308003E004216878FCF7A8F904206040F3
:103DE000FEBD0020FEBD0000E49AFF1F589AFF1F91
:103DF000579AFF1F10B501F0BBFE10BD70B50E4CF9
:103E00000B46261D07C60546102200211846FCF762
:103E10000DFB012803D11021A06808F051FC1022ED
:103E200000212846FCF702FB012803D1102160681D
:103E300008F046FC70BD00008CE9FF1F38B5054650
:103E400010480C460078400701D4122038BD28469F
:103E500006F0D0FC002812D00B48A900006840589A
:103E6000002801D0817D00E02146684609F0E0F994
:103E7000064B6A460221284609F03CF938BD142059
:103E800038BD0000559AFF1FC49AFF1F41D7021189
:103E9000272807D2044A914204D0044A4000115214
:103EA0000020704702207047FFFF0000609AFF1F4C
:103EB00070B50E46104915460978022916D0012919
:103EC00014D0002D14D006F095FC040012D0002E62
:103ED00003D0207902210843207110222946A0181E
:103EE000FCF742F928692062002070BD122070BDE5
:103EF000022070BD142070BD559AFF1F38B50C46C6
:103F0000054606F077FC002806D06846047069462E
:103F1000284609F0DDF838BD142038BDF8B50D4647
:103F200017461D4906461B4A12248868954208D147
:103F300000282DD00268002A2AD029463046904712
:103F400023E0144A521C954213D1002807D002687E
:103F5000002A04D0294630469047040005D039464F
:103F6000304601F0D9FF040012D10B4806704770AB
:103F70000EE0284606F03EFC002809D00078B0424A
:103F800005D139462846FCF7A5FA044600E003248B
:103F90002046F8BDFEFF0000B89AFF1FF8B50E4698
:103FA000014619481546007805221F46104028D0C2
:103FB000304326D01548012E1BD0C468002C20D0D9
:103FC0001F2D18D8002D01D0002F14D001701F22F2
:103FD0000021601CFCF7B2F92A463946601CFCF748
:103FE000C3F828462570002E07D0611CFCF778FA2C
:103FF000F8BD8468E2E70220F8BD611CFCF776FAA0
:10400000F8BD1220F8BD0000559AFF1FC89AFF1F87
:10401000014610B50020C90704D0034A0421034813
:1040200000F002FA10BD00007CE202119496FF1F1E
:1040300010B5002309E01C012418E468944202D161
:104040001901081810BD5B1C9BB28B42F3D30020F2
:1040500010BD000070B50E4D0F4CA8700D492046E4
:1040600000F020F800210D480B46CA0084521218B7
:10407000491CC9B253600429F7D3012004F02AFE79
:10408000A87800F04BFC064806F026FC70BD000046
:104090008496FF1F4CE0FF1FFFFF00005CDAFF1F4C
:1040A0001985021170B50A4C0025A04209D10020E3
:1040B00082008C525218401CC0B295700528F7D36C
:1040C00070BD04F0F8F90028FAD00480857070BD46
:1040D000FFFF0000F8B50E46074606990024079832
:1040E000002902D00B242046F8BD022B01D00D245C
:1040F000F9E711785278120289188DB22946814366
:1041000001D08024EFE73846F16800F085F9A84235
:10411000E9D02A463846F16800F010FA0400E2D1EE
:1041200071892A46384600F0ADF9DCE7FFB51F4635
:104130000446C1B022881E4B00254A989A4233D0CB
:10414000A278002A30D00A4601463846FFF770FFB1
:10415000060029D0174A208812684100515C0023CC
:10416000C91EC9B203AA02320193029100927A8950
:1041700004AB314600F03CF8002815D1708969463F
:104180008881A078C00705D0208803A9439A00F051
:104190008DFB0546A078800706D5208803A94B9B98
:1041A000439A00F0F3FA0543284645B0F0BD0000FD
:1041B000FFFF00003C9AFF1F70B50C46080412D5A3
:1041C0000A488078FCF744F9050008D02878B02820
:1041D00002D1284604F08EFA2846FCF73FF9012068
:1041E000C003604070BD002070BD00008496FF1FBA
:1041F000FFB583B0087A00250C9E1C460F46C0060A
:104200000DD5059804F050F9030006D00A2239466E
:1042100003989847050035D101E00E2532E0387843
:1042200002281DD178682922017840781202000204
:10423000081881B2881A91427ED009DC7348081AA6
:1042400023D0012821D002284FD0032808D125E00F
:10425000012872D0022871D003286DD004286ED0B6
:10426000059804F049F900286AD00568002DD4D0DB
:104270000E990D98019100903346224639460398D5
:10428000A8470546284607B0F0BD0D98002872D112
:10429000F868017831800278416896E00D9800282E
:1042A00069D101203080F868002100782070788979
:1042B000401C80B200F0C8F900280DD03188027887
:1042C0008918891C3180817A61704189090AA1703D
:1042D00002784168E01C79E030880422001D3080BB
:1042E0000021601CFCF72AF8CCE70D98002875D156
:1042F000F86802A90088009004203080009820709F
:104300000098000A6070009800F09EF9070029D01C
:10431000F86800906846028901AB3D49384600F0D4
:10432000EBF9002810D13B7802213A487A68FEF771
:1043300002FA002808D104E026E030E01CE04AE060
:1043400062E0401E694688800098007802280CD1FF
:10435000009802224168201DFBF706FF3088801C70
:10436000308002E069460098888068468088A070A6
:10437000000AE07086E731E00D9800282ED1F96838
:10438000039800F049F804E00D98002826D1F86859
:104390000088022131802070000A607072E7F8689E
:1043A000FCF7AAF80D99C0B2814212D8814201D11E
:1043B000002206E00E9A8918814202D30D99401A14
:1043C000C2B23280F9680D9809182046FBF7CCFE7E
:1043D00058E7072556E70D98002801D00B2551E72F
:1043E0000721F86831800178217041786170817807
:1043F000A1704188090AE1700179217181796171A7
:10440000C088000AA0713DE700252FE700280000C2
:10441000FFFF0000DEE6021110B504F04CF80028A2
:1044200000D0807810BD00007CB51546040019D07E
:1044300068460194018000F077FA03001DD1002D39
:104440001BD06489002C0DD00C20FCF70DF800283F
:104450000AD0002303608480094A8560916800299E
:1044600004D006E0022308E0132306E0906004E095
:1044700011460A68002AFBD1086018467CBD00007E
:104480008496FF1FF8B50C4C0746207815460E465B
:10449000FF280FD00A20FCF735F801000AD0B12020
:1044A00008700020487008714F80CE800D81207800
:1044B000FCF70AF8F8BD00008496FF1F70B50C46A3
:1044C00005460649FFF7A8FF800704D52146284680
:1044D00000F07EFA70BD012070BD00004CE0FF1FAF
:1044E0001CB56B461A71120A5A71002200920223FF
:1044F00001AA00F001F81CBDFFB583B008461F46B5
:1045000001A90C9E00F0A0F8050014D06846808830
:1045100003F0F2FF00280AD04468002C09D000966E
:104520003B462946059A0398A04707B0F0BD0024F2
:10453000F3E70E20F9E70120F7E7000070B5144615
:104540000E46054603F0B7FF002806D13146054860
:1045500003F0B1FF002803D005808470002070BDF7
:10456000112070BDFFFF000010B50178B0290BD1FC
:104570004178002908D10179122906D01B2903D1DD
:104580004088012100F088FB10BDFF210231095C49
:104590000129F5D010BD10B586B06C46218062802F
:1045A00002212171032161712821A1710022694634
:1045B00003F010FF06B010BDF0B58BB001236A46C2
:1045C00093819B1ED38102231374002353742823E9
:1045D0000D469374064603AF02A903F0D7FA040010
:1045E0000CD139463046FEF74FFB040006D1054B8F
:1045F000112239460095029804F0A0FC20460BB029
:10460000F0BD0000DF2A0211FEB50E461546074632
:1046100001A903F0BBFA04000FD131463846FEF77A
:10462000CFF8040009D1064930880880054B0322E1
:1046300031460095019804F081FC2046FEBD000043
:10464000409AFF1F5B290211F0B58C4610494B6858
:1046500019E09F687C89A04214D39E883119814259
:1046600010D900220CE011017D186989814205D121
:104670006046002800D004802846F0BD521C92B24B
:104680009642F0D81B68002BE3D10020F0BD00005B
:10469000F89AFF1FFFB5174881B00A9F446824E0CD
:1046A00000251EE0A06829014618708901998842FA
:1046B00015D30299884212D80498002807D031787F
:1046C0007068049B039AFEF736F8002807D0002F85
:1046D00002D0A06840893880304605B0F0BD6D1C1E
:1046E000ADB2A088A842DDD82468002CD8D1002023
:1046F000F3E70000F89AFF1FFEB5174600256A464B
:104700009580044640891D4A1E46904208D001AA61
:104710000092401C237880B26268FFF7BBFF054619
:104720002378022116486268FEF705F8002807D1B1
:104730002378022113486268FDF7FDFF002801D0AD
:1047400060890EE0237802210F486268FDF7F3FFCD
:1047500000280DD0002D03D068468088B84203D0D1
:10476000384604F0CBFB04E06889401E80B200E0CC
:104770006089002E00D030802846FEBDFFFF00007B
:10478000DCE60211DEE60211E2E60211FFB581B0BD
:104790000F461E4614466946019803F00DFA0500BF
:1047A00018D1002C06D001221021019805F0FCFF41
:1047B00005000FD139460198FEF78EF8050009D1A2
:1047C000009CFF2E06D021461E22A31C034804F0A5
:1047D000A1FBE670284605B0F0BD0000018E021175
:1047E00010B505490870042100F0DAFA00F038F835
:1047F000FEF786F810BD0000049BFF1FF8B50024EB
:10480000134D2646FF2715E0FF200D3069686043F1
:104810004018002C19D00F49018086704772FF2183
:10482000077209310E54FC2200210C30FBF786FD83
:10483000641CE4B228788442E6D3074803F0FEFD06
:10484000064806F049F80020F8BD0249491EE3E792
:10485000F09AFF1FFFFF0000317A021179790211EF
:10486000F8B50F4D0D4B00206E1C1C78FF2209E09F
:104870009F688100C91900280ED00E80CA70401CA4
:104880008A70C0B2A042F3D3064803F0DDFD0648AB
:1048900006F022F80020F8BD0D80EFE7F89AFF1F20
:1048A000FEFF00002D8E0211818D0211F8B50D461C
:1048B00014460646694603F07FF917280CD0002CF1
:1048C00006D001221021304605F06EFF002803D1EA
:1048D00029463046FEF70AF8F8BD000070B50C46D0
:1048E000080411D509480078FBF7B2FD050007D090
:1048F0000178A02901D103F0BBFC2846FBF7AEFDEF
:104900000120C003604070BD002070BD049BFF1FEC
:104910000149487070470000F09AFF1F0149487034
:1049200070470000F89AFF1F70B505460088002800
:104930001DD068680221037842682248FDF7FBFE1B
:10494000002808D168680221037842681E48FDF7F4
:10495000F2FE00280BD01D4C6088002805D00122F3
:1049600029881204101A814203D9012070BD022047
:1049700070BD0C20FBF778FD060001D000200BE095
:10498000132070BD01016B6862880A315A52618838
:10499000491C401C618080B229888142F2D80020E5
:1049A000306008222946301DFBF7DEFB60680028D6
:1049B00002D1666004E0084601680029FBD1066068
:1049C000002070BDDCE60211DEE60211F89AFF1F3E
:1049D00070B5BEB00D460646002402230E4A0F49AC
:1049E00001200094FFF756FE002812D040896A4645
:1049F000108004205080012010715471FF209071AC
:104A0000D0712B46002269463046FFF7BFFE3EB00C
:104A100070BD0120FBE70000FAE60211FFFF000075
:104A20000649496806E08A685289824201D188882D
:104A3000704709680029F6D100207047F89AFF1FD7
:104A400010B51422114201D0012202E04A0604D519
:104A50000022102105F0A8FE10BDC80701D00020DB
:104A600010BD022010BD10B514468A0604D50122DF
:104A7000102105F099FE10BD882211420ED00822A7
:104A80000A40102105F090FE00280BD0E034617E32
:104A90000029F0D0217E0129EDD103E0880701D45F
:104AA000032010BD002010BD10B504F067FA10BD42
:104AB000014610B50020C90704D0034A0721034866
:104AC000FFF7B2FC10BD000068E202111096FF1F54
:104AD00070B50D46164600241D490300FBF714FB74
:104AE00008051234341934222934152D23D81622FE
:104AF00000211848FBF722FC2A4631461548FBF7EF
:104B000033FB22E0022D16D111491088103908809C
:104B10001BE0082D0FD10E48082231460838FBF75C
:104B2000C3FA12E0012D06D1CA690949307828314B
:104B300007E0012D01D0182407E0CA6B0449307842
:104B4000483104F0EEFA00E00224204670BD000077
:104B50001096FF1F44DAFF1FF0B5069F099E00283C
:104B600033D0102831D800292FD0002A2DD0002B87
:104B70002BD0002F29D0079C002C26D0089C002C7D
:104B800023D0002E21D00A9C002C1ED0104C851D55
:104B900020706570A26061600E490F4A0B60059934
:104BA00011600E490E4A0F60079911600D4A08996D
:104BB00011600D49401C08700C490E600C490870CA
:104BC0000C490A9808600020F0BD1820F0BD0000D4
:104BD000149BFF1F5C9BFF1F3C9AFF1FC49AFF1F83
:104BE000489BFF1F4C9BFF1FF09AFF1FF49AFF1F6B
:104BF000F89AFF1F009BFF1F0B7803700B8802229F
:104C00001B0A43700B88801C012B02D0022B07D09B
:104C100011E08A7802704988090A417004220AE08A
:104C20008A7802704A88120A42700A7982708988EA
:104C3000090AC1700622104670470A780270098876
:104C4000090A41700220704708B5044B00931346CF
:104C50000A46012105F0F8FC08BD0000F94B0211DD
:104C60001CB50323019200930A46024B122105F062
:104C70001BFD1CBD219F021108B5044B0093134678
:104C80000A46132105F0E0FC08BD00003B4C021170
:104C900010B5FBF73DFC10BD13B5044800780128A2
:104CA00003D101AA6946FBF739FC1CBD109BFF1F0D
:104CB00070B51049104A087000210B468C00491C41
:104CC000C9B213530429F9D30B4C00211034FF2629
:104CD0000A460A256A4315196B80491CA354C9B2B8
:104CE0006E720329F4D3FBF71FFC05F063FC05F09B
:104CF000B7FD70BD119BFF1FA8E9FF1F082A01D057
:104D0000012070474B780A781B02D2180280CB78BA
:104D10008A781B02D21842804B790A791B02D2187A
:104D200082808A79C97909025118C18000207047B0
:104D300070B50C46080411D509480078FBF788FBCC
:104D4000050007D00178902901D105F095FB284690
:104D5000FBF784FB0120C003604070BD002070BDE4
:104D6000119BFF1F70B50C490978884213D20B4C78
:104D70000601606800258553301885816068301809
:104D80008580606830188068002804D0FBF7D2FB6B
:104D900060683018856070BD149BFF1F449BFF1F27
:104DA000072907D0052905D0042903D0062901D0F9
:104DB00002207047044A8B009A181346403B19861C
:104DC000203A907400207047A8E9FF1F70B517497A
:104DD0000978884228D25C21154C4843A1680546D1
:104DE0004018002640300674A068281840304674E9
:104DF000A068281840300676A0682818406D002862
:104E000004D0FBF797FBA068281846650026A06829
:104E1000F100281840184068002801D0FBF78AFBF1
:104E2000761CF6B20A2EF2D370BD0000149BFF1F51
:104E3000449BFF1F70B50A880C460546072A07D019
:104E4000052A05D0042A03D0062A01D0022070BD0D
:104E5000012105F073FD002804D02146284605F005
:104E600075F870BD142070BD10B5001D80B2FBF741
:104E700067FB002803D00321C943FBF767FB10BD84
:104E8000FEB50D460804D9490CD5C878FBF7E0FA01
:104E9000040004D0FBF760FB2046FBF7DFFA01209B
:104EA000C0039FE1D24EE807324634465232FF3605
:104EB0004034022741360292002835D0CC4ACD49F1
:104EC0002F321046FBF74EFBC94802993330FBF7EF
:104ED0004FFB0146BB206A46812310702029577082
:104EE000114693700ED20020C8700321501CFBF7AE
:104EF00045FB69460871012007F0E2F9B07E00F039
:104F00001BFD0AE00420C8700321501CFBF736FB90
:104F100069460871022007F0D3F920880522694606
:104F200000F078F901205DE1A8077CD5B04C802124
:104F30002278AA20CC2A01D02070E2E0AA2020709A
:104F4000A078AD4A801E00920300FBF7DDF8090649
:104F500017284E737F929AB1DA0007206070822082
:104F6000A349A07006224431E01CFBF7FDF808219C
:104F7000601CFBF703FB60720A22B9E00920607035
:104F800083209B49A07008224A31E01CFBF7ECF813
:104F90000A21601CFBF7F2FAE0720C22A8E004225E
:104FA000E11C9648FBF728F9002806D10422E11CF1
:104FB0000098FBF721F9002815D0E21D8D49E01D6E
:104FC000FBF7D0FA20460B300299FBF7D1FA2028E4
:104FD00004D2207E00F0B0FC002000E00320E0704E
:104FE0006770842024E00120F9E70422E11C834853
:104FF000FBF702F9002806D10422E11C0098FBF718
:10500000FBF8002810D00422E11D0098FBF7ACF853
:1050100055206071AA20A071621D0621A02007F012
:1050200076F9002001E073E00320E07067708520CE
:10503000A07057E0E078C11E1C2901D3032001E0D5
:10504000B0760020E07067708620F1E70320607082
:105050008720A070092004F0B3FDE0700C2004F05C
:10506000AFFD20710421601CFBF788FA60710622F5
:105070003EE0E07807F024F90020E07067708820B7
:10508000D6E7E078F8280ED2C1085948C9000818B8
:105090000822211D5230FBF767F8E078022100F06A
:1050A0008DFE002000E00120E07067708920BFE7DE
:1050B000E078F82811D22179CA00C1084C48C9000B
:1050C0000818FF215230FBF739F920794006010E0C
:1050D000E07800F073FE002000E00120E0706770CF
:1050E0008A20A5E70321601CFBF748FA20710522FE
:1050F0003F482346008D022100F0D2F82846784030
:10510000FEBD6770A0780843A0700120E070E9E759
:10511000680721D53648E1782030C07AC14209D0ED
:105120000121022004F062FD0121032004F05EFD54
:10513000002108E00021022004F058FD0121032095
:1051400004F054FD0121042004F050FD002108204A
:1051500004F04CFD042045E028070ED5B07D022860
:1051600002D0012805D006E000207076F075B075F9
:1051700001E0FBF709FA082034E0E80627D504200F
:10518000009048780C461A4A09781218890053187A
:105190000818C2B21A48502100685233FBF7FAF9D6
:1051A00010214D4000280CD12078401CC0B2207046
:1051B000A178884205D1002020706070A070284638
:1051C000FEBD32221021E078FAF7B6FFF7E7A80615
:1051D0000AD5092004F0F4FC002802D1B07E00F0CA
:1051E000ABFB20206840FEBD0020FEBD9899FF1F4C
:1051F0003C98FF1F9E99FF1F8E99FF1F62E30211CB
:105200003898FF1F10B50249C870FBF7C9F910BDE7
:105210009899FF1F30B5BFB0002338AD2B760446F8
:105220006B760F206D4628806A8001A8FAF79CFFF4
:105230000348694602782046FFF736FC3FB030BD90
:105240000C98FF1F10B506490648FEF72BFF0648CD
:1052500005F042FB054A08210548FFF7E5F810BDB7
:1052600064E1FF1FFFFF000091B2021108E3021189
:105270007097FF1F10B500241046012904D00229A1
:1052800005D00224204610BD1422044902E003493F
:1052900014221431FAF768FFF4E700003CE1FF1F25
:1052A000FFB5174602460020184D83B0022902D0F0
:1052B000022007B0F0BD164E0024A100715A9142A1
:1052C00006D1A00081191046FFF7A6F8254603E095
:1052D000641CE4B2042CF0D3C00715D00C483A4645
:1052E00014380699FAF740FF0A48FF210770082092
:1052F00001910090074B0649A8008019083300224D
:105300001439FEF713FFD4E71020D2E7FFFF0000A7
:1053100064E1FF1F6897FF1F002803D0024948601F
:1053200000207047112070476897FF1F10B5034990
:105330004978012901D100F0F5FA10BD4097FF1F0F
:10534000F0B5064687B00520FEF704FC074606A91F
:105350001D48FEF755F81C4804A9401CFEF750F8FC
:10536000194805A9801CFEF74BF8C52003A9800049
:10537000FEF746F86946088B8880088AC880888AC4
:10538000088188894881304605F0CEFD04460F48E3
:1053900001A982783046FFF763FC1820FBF764F818
:1053A0000A4DA4002435285100280BD000233A468A
:1053B0000749009606F0C2FE295900204861285985
:1053C00006F038FF07B0F0BD110300004097FF1F43
:1053D0002D53021170B505464078002813D11348AB
:1053E00004681FE0002C04D1284605F071FD002858
:1053F00003D0A078032807D013E00D4800680028E8
:1054000001D006F03DFF70BD2088A9880005000D81
:10541000884206D18AB2E0780823211DFDF7CCFC32
:1054200070BD2469002CDDD170BD00003098FF1FD5
:105430006497FF1FF0B50446821C8BB051490520CC
:1054400005F0D8FE06003FD0214620790C310A91A4
:10545000491C0991491C0891491C4A4D4F1C1C3D8F
:105460000791092837D011282ED1207A00282DD075
:10547000002526E060890A996843425C0999405CEE
:105480006946000210180880608908996843425CE8
:105490000799405C6946000210184880A07A001FF6
:1054A000C2B20A7160896843C11901A80130FAF7D4
:1054B0005BFE31466A460831062005F033FE6D1C5E
:1054C000EDB2207AA842D5D80BB0F0BD60781A288A
:1054D000FAD1B06843E0207A002836D0002530E0C9
:1054E00060890A996843425C0999405C69460002F8
:1054F00010180880608908996843405C6946887084
:10550000608907996843415CC05D000208186946DC
:105510008880A07A401FC2B28A71608921466843A0
:105520001131411801A80330FAF71EFE31466A46D0
:105530000C31072005F0F6FD694688886D1C7080E7
:10554000EDB2207AA842CBD8BEE760781A28BBD14A
:10555000B21C911D062005F04DFE002806D04288A1
:1055600001886088AB78FFF716F8ADE76868002817
:1055700004D08168002901D030468847608806F051
:10558000BBFDA1E75C97FF1FF0B5857891B09F4EFA
:105590002B00FAF7B9FD0E0DFE080E0E11CDFD0D14
:1055A0000D0D0DFCFB0DC2784178284605F0BAFBC5
:1055B00029E141780022F8E74178044600297DD1AD
:1055C0002146284605F00CFB04906846058A28060B
:1055D0000390000F35D1002768460771312001A9DB
:1055E0000001FDF70DFF68460079002829D0002052
:1055F0006946088102A91F20FDF702FF1820FAF76B
:1056000033FF6946098A814F0905090F8900203750
:105610007850002815D02A07120F00926A46128986
:105620007D23DB005A430D460023794906F086FDB1
:10563000795900204861795901200860785906F0AD
:10564000F9FD0398000F03285CD16189714A01209C
:1056500050540821B078FAF769FD05F0F9FB6E485F
:105660004588002D4ED00C22002101A8FAF766FED5
:105670006946088A00270007000F00908880CD80C7
:105680000F72624901AA14310320039705F04AFD05
:10569000002837D01822002105A8FAF74FFE6846E7
:1056A0000A97008A59490007000F069005AA183189
:1056B000042005F037FD002824D000E022E0534903
:1056C0000420183105F0EAFC07001BD0FF2201235B
:1056D000F5325249384606F031FD68070FD51422DD
:1056E00000210BA8FAF72AFE6946088A0BAA0007D0
:1056F000000F8885454905201C3105F013FD38460B
:1057000006F086FD70680569002D7CD0201D009094
:105710006846008A01050B0F0106090F032905D011
:1057200000220107090F6078A8476CE00322F8E720
:1057300041780446002920D12146284605F050FA38
:105740000090684605882F06380F032802D1A088EC
:1057500006F0D2FC380F10D12805000F85002B4829
:1057600020304059002801D006F08AFD2748243017
:105770004059002801D006F083FD70684569002D6E
:1057800041D068460088A379010503E00FE038E0C6
:105790000AE018E00A0F0106090F032900D00021D2
:1057A0000007000FA8472EE0FFF714FE2BE0044689
:1057B00006F01AFC7168002925D00968002922D05A
:1057C000204688471FE07068002804D041680029FF
:1057D00001D0B0688847B468002C0FD0A069B060D1
:1057E000E068002801D0FAF745FE6069002801D082
:1057F000FAF740FE2046FAF73DFEECE705F0FAFA2C
:1058000001E0FDF767FB012011B0F0BD4097FF1FDD
:1058100025590211EE95FF1F38E1FF1F755802113F
:1058200038B5054605F04EFB04460221684605F0F2
:1058300033FB002C15D06846417822780078631C31
:10584000FDF7CAFD0A4C00280CD001212078FAF798
:10585000ADFE002805D1FF22F53201212078FAF7AC
:105860006BFC38BD01206870A8700821AA68F5E7B4
:105870004297FF1FF1B582B002AA2849042005F023
:10588000B9FC2649054602AA091F032005F0B2FC0F
:105890000446002D2AD0002C28D02079002825D1BC
:1058A00060881E4FC107183F0126002910D017201D
:1058B000FDF73AFA6B4617201880BA78194618890E
:1058C000FEF7A2FE002811D126716088B0430CE0DB
:1058D00081070CD56846124AFB210089FAF76CFE55
:1058E000002803D16088022188436080FEBD400704
:1058F000FCD50A4902AA091D052005F07BFC05001C
:10590000F4D028790028F1D16846B9780089FEF7EB
:1059100053FE0028EAD126712E71FEBD5897FF1F55
:105920004808000010B50349C0B24978FFF708FDE8
:1059300010BD00004097FF1F10B504460121022052
:1059400004F054F90021032004F050F9012104204F
:1059500004F04CF90121082004F048F97D20C00032
:105960002246424302480421C078FAF7E5FB10BD05
:105970009899FF1F38B50C46050014D0002C12D0A2
:105980000321684606F09CFE69468878402180061F
:10599000800E0843694688702246284607F008FDB5
:1059A000050002D006E0022038BD03226946E01C53
:1059B000FAF7DAFB284638BDF7B58EB00E981546D3
:1059C0000E4600282DD0002D2BD0301DC0B20190E6
:1059D000FAF74AFD040039D001F01CF907463246B7
:1059E000201D0E99FAF728FDF8B20890E0703804EF
:1059F000000E0B90A0703802000E0A9060703F0EEF
:105A0000277001F001F90146102202A8FAF714FDEF
:105A100006AB214602A8019A07F020FC060003D03D
:105A200010E0022011B0F0BD089828700B98687043
:105A30000A98A870EF70082206A9281DFAF7FCFC46
:105A400001F0EEF82046FAF715FD00E01326304687
:105A5000E8E7000010B5064C2070FAF7B3FD062108
:105A60002078FFF79DF9034804F036FF10BD0000D1
:105A7000389BFF1FD5C8021110B5054800780007F4
:105A800001D5044800E0002007F0FEF8002010BD1A
:105A9000559AFF1F209BFF1FF8B50E46214C01466B
:105AA000A068B50040590027002807D02422125CC6
:105AB000022A05D0032A03D0042A01D01220F8BDFF
:105AC000C288B24201D00220F8BD10220C30FAF791
:105AD0004BFBA06810214059353006F0F1FDA0685D
