:020000041102E7
:1000000003B40148019001BDFD11000003B4014893
:10001000019001BD7511000003B40148019001BDBC
:100020001130000003B40148019001BD090E000029
:1000300003B40148019001BD53B9000003B4014865
:10004000019001BD29B6000003B40148019001BD33
:100050007582000003B40148019001BDFD5C010000
:1000600003B40148019001BD85C1000003B40148FB
:10007000019001BD61D5000003B40148019001BDAC
:100080001BBA000003B40148019001BD3DBA000055
:1000900003B40148019001BD5944000003B4014874
:1000A000019001BDB95E000003B40148019001BD9B
:1000B000810E000003B40148019001BD0D52010002
:1000C00003B40148019001BDC1EC000003B4014834
:1000D000019001BD75A9000003B40148019001BD64
:1000E000C93E000003B40148019001BD9DA9000074
:1000F00003B40148019001BDB30E000003B40148F0
:10010000019001BDF157FF1F03B40148019001BDEB
:100110006189000003B40148019001BD1907010085
:1001200003B40148019001BDA9D8000003B40148FF
:10013000019001BDB352010003B40148019001BD1B
:100140008B52010003B40148019001BDC1A500001C
:1001500003B40148019001BD9D6A000003B4014849
:10016000019001BD116E000003B40148019001BD72
:10017000E94C010003B40148019001BDF97F000082
:1001800003B40148019001BD7912010003B4014894
:10019000019001BD757A000003B40148019001BDD2
:1001A000F143000003B40148019001BDC1430000C8
:1001B00003B40148019001BD6944000003B4014843
:1001C000019001BD8BB9000003B40148019001BD4D
:1001D000D1D4000003B40148019001BD01890000A1
:1001E00003B40148019001BDCD4C010003B40148A6
:1001F000019001BD09B8000003B40148019001BDA0
:100200002DFC000003B40148019001BDEDB80000D1
:1002100003B40148019001BD39B8000003B401489E
:10022000019001BD6DFE000003B40148019001BDC5
:10023000F9FD000003B40148019001BDA1E60000F2
:1002400003B40148019001BD9946000003B4014880
:10025000019001BD1547000003B40148019001BDA4
:10026000DD4CFF1F03B40148019001BD75F0000093
:1002700003B40148019001BDF5D5000003B4014865
:10028000019001BDC5F0000003B40148019001BD1B
:1002900001EC000003B40148019001BD6160000061
:1002A00003B40148019001BD63EC000003B40148B0
:1002B000019001BD05FF000003B40148019001BD9C
:1002C0003161000003B40148019001BD59E4000010
:1002D00003B40148019001BDD5E4000003B4014816
:1002E000019001BD01BF000003B40148019001BDB0
:1002F00021F1000003B40148019001BDCDF10000DF
:1003000003B40148019001BDB9C0000003B4014825
:10031000019001BD4DF4000003B40148019001BDFE
:10032000C1E2000003B40148019001BD154D010078
:1003300003B40148019001BD8DE3000003B40148FE
:10034000019001BDA5FD000003B40148019001BD6D
:1003500025E7000003B40148019001BD31480000C9
:1003600003B40148019001BDC53F000003B401483A
:10037000019001BDF1FA000003B40148019001BDF4
:1003800079F4000003B40148019001BD77F1000049
:1003900003B40148019001BD5511010003B40148A7
:1003A000019001BDE17FFF1F03B40148019001BD31
:1003B000E9F6000003B40148019001BD75F80000A2
:1003C00003B40148019001BD19FA000003B40148CB
:1003D000019001BDD159FF1F03B40148019001BD37
:1003E0001959FF1F03B40148019001BDA93C000049
:1003F00003B40148019001BD3536FF1F03B4014825
:10040000019001BD853DFF1F03B40148019001BD6E
:10041000ADAE000003B40148019001BD456B010081
:1004200003B40148019001BD5952010003B40148D1
:10043000019001BDF54E010003B40148019001BDDA
:10044000434D010003B40148019001BD691F000044
:1004500003B40148019001BD5D17000003B40148D9
:10046000019001BD3D4B010003B40148019001BD65
:100470005125000003B40148019001BD014C010069
:1004800003B40148019001BD594F010003B4014874
:10049000019001BD1D4B010003B40148019001BD55
:1004A0004D1F000003B40148019001BD552200001A
:1004B00003B40148019001BDDD52010003B40148BD
:1004C000019001BD1D4D010003B40148019001BD23
:1004D000017F000003B40148019001BDE117000055
:1004E00003B40148019001BD7918000003B401482C
:1004F000019001BDD949010003B40148019001BD3B
:10050000E928000003B40148019001BD55490100EC
:1005100003B40148019001BD1129FF1F03B4014834
:10052000019001BD1943FF1F03B40148019001BDB3
:100530006542FF1F03B40148019001BD4551010010
:1005400003B40148019001BDC926000003B401486D
:10055000019001BDE122000003B40148019001BDFA
:10056000ED4A010003B40148019001BDA54F01000F
:1005700003B40148019001BD8552010003B4014854
:10058000019001BD0D2FFF1F03B40148019001BD73
:10059000810E000003B40148019001BD8D120000DE
:1005A00003B40148019001BD9932FF1F03B4014813
:1005B000019001BD453FFF1F03B40148019001BDFB
:1005C000350E000003B40148019001BDF13FFF1F4B
:1005D00003B40148019001BDA140FF1F03B40148CD
:1005E000019001BD311A000003B40148019001BD22
:1005F000F94C010003B40148019001BD99280000A5
:1006000003B40148019001BD291C000003B4014856
:10061000019001BD1922000003B40148019001BD01
:10062000851F000003B40148019001BDA9460100E7
:1006300003B40148019001BD1147010003B4014812
:10064000019001BDF525FF1F03B40148019001BDD4
:100650004326FF1F03B40148019001BD8B28FF1FF3
:1006600003B40148019001BD6528FF1F03B4014890
:10067000019001BDC94A010003B40148019001BDC8
:10068000951BFF1F03B40148019001BDC51AFF1F50
:1006900003B40148019001BDA91AFF1F03B401482A
:1006A000019001BDB11BFF1F03B40148019001BDC2
:1006B0005D45FF1F03B40148019001BD5145FF1F77
:1006C00003B40148019001BD6DBC000003B40148B2
:1006D000019001BD055E000003B40148019001BD19
:1006E0002D45FF1F03B40148019001BD2946FF1F9E
:1006F00003B40148019001BDE548000003B401487E
:10070000019001BD2951010003B40148019001BDD0
:10071000D91B000003B40148019001BD51470100FD
:1007200003B40148019001BDC93EFF1F03B4014855
:10073000019001BD613EFF1F03B40148019001BD5E
:10074000D1A5000003B40148019001BD953EFF1FF3
:10075000FEB508AF70CF6F4670C700F041F8024990
:10076000FFF74EFC0020FEBD1320000038B5044604
:1007700000F098FA0146684601704470210A8170C1
:100780006A4603210248FFF741FC002038BD000003
:100790001B20000038B5044600F0AAFA014668465E
:1007A00001704470210A81706A4603210248FFF7F4
:1007B0002DFC002038BD00001A20000008B50028DC
:1007C00002D000F09DFC00E01220694608706A46E5
:1007D00001210248FFF71AFC002008BD0520000097
:1007E000FFB50446354F0001C019807981B0154628
:1007F000022802D00C2005B0F0BD314A881F90427B
:100800002ED2062D2CD3501D854229D88D4227D3B8
:10081000FF220499F432914222D80A990A291FD35F
:1008200081421DD82046FFF7F7FB0028E3D1A12025
:100830008000444323480068261834468034E07B17
:10084000002802D0E07A00280CD0207D012809D0B1
:100850000A98C1000498401C68434000814203D8B4
:100860001220C8E73A20C6E77878174F01280AD93E
:100870006804B988000C884203D3FFF7D3FB002932
:1008800009D03B20B7E7BD80F08E104940000978C1
:10089000FFF7C8FBF8600220207600206083308FCD
:1008A0000021C01DE082A5830498E0830A9820847B
:1008B0003046FFF7BDFB00209DE70000300DFF1F15
:1008C0007B0C00003409FF1F300EFF1F1409FF1FAF
:1008D000FFB583B0DB480090DB48129E02780C9D88
:1008E0000E9B1399012A20D000270770D74804785F
:1008F000092C78D00A2C76D00B2C74D00C2C72D00A
:100900000D2C70D0039AD248121F824246D2049A0C
:10091000121F824242D2049A039882423ED805981E
:10092000002805D0012839D102E00C2007B0F0BD25
:10093000284333D00698002805D0012803D0032887
:1009400001D002282AD10D98002805D0012803D013
:10095000032801D0022821D1B1421FD3BD49981FDD
:1009600088421BD20F98062818D301461920C001CF
:10097000814213D8994211D3FF221099F432914247
:100980000CD811990A2909D3814207D8CA001098B6
:100990000F99401C48434000824201D81220C5E70D
:1009A000AD48AE49027809788A4201D30720BDE7F5
:1009B000A948AB4E407800280CD00F98B18840046D
:1009C000000C884203D3FFF72DFB002902D03B2007
:1009D000ACE708E00621082C01D0072C06D1A1487D
:1009E0000278002A01D02120A0E70170FFF726FB42
:1009F000040058D098484178491C41702046FFF7C0
:100A000023FB20460021FF3081308B001B19FF3370
:100A10000133C26A491CDA660829F6DB00218B0023
:100A20001B19FF338133C26A491CDA600829F6DBDF
:100A30002079FFF70FFB002081000919FF310131F8
:100A4000401CCF660828F7DB002081000919FF3120
:100A50008131401CCF600828F7DB8348217901747D
:100A600003994181049981810599C1737F490020CF
:100A700023180A5C6033401CC0B25A710528F7D3B2
:100A80002146653120460191FFF7EAFA27462037D3
:100A9000F87F02280BD22046FFF7E8FA6E4841782B
:100AA000491E41707AE76F48077009203EE7704899
:100AB000002D0BD02978417069788170A978C170B8
:100AC000E97801712979417169798171664A0D99D5
:100AD00011700D9900297DD0664A634913784B70D7
:100AE00053788B709378CB70D3780B7113794B71EB
:100AF00052798A71069901700D980099C007400ECD
:100B000008430699C907090E01430291FFF7B4FA99
:100B1000E062FFF7B7FAA0624F48407801287AD028
:100B2000B088E08630896087F08820874E4E707CE0
:100B300038745148C0688030818DB974008EA086A9
:100B4000FFF7A6FA0C21FFF76DFA20466030491D29
:100B5000009081762520B0730120307247480299B9
:100B60008180801DFFF79AFA002D0DD043492A7825
:100B7000881D0A736978C171A9780172E978417298
:100B8000297981726979C1723C4821461230042268
:100B90002831FFF789FA39482146163003222C31D3
:100BA000FFF782FA3549B87C48760846397D817668
:100BB000797DC176014620462230027D0A77427D4A
:100BC0004A773A7E8A777A7ECA771A31027E8A71AC
:100BD000407E00E01DE0C8710846083005220199FA
:100BE000FFF762FA0098397C807E4901C006C00E8A
:100BF00008432249213188711448007800281DD00B
:100C00001F48012189030078FFF754FA00208DE680
:100C100001E01C4A61E70F98E086119961871099FD
:100C20002187B080208FF080608F3081E08E0B496B
:100C300040000978FFF7F6F9F06077E72079FFF7D1
:100C40003FFAE3E7052200001909FF1F1C09FF1FF7
:100C5000FD3F00007B0C0000300DFF1F1409FF1F3B
:100C6000300EFF1F2309FF1FD40BFF1F6009FF1F5A
:100C70007809FF1F6B09FF1F988AFF1F6C11FF1F68
:100C80001B09FF1F6509FF1F70B50C460546FFF7DE
:100C90001DFA21462846FFF71FFA0446FFF722FAFD
:100CA000204670BD10B5114AA12189001268414348
:100CB0008C189D2189000959012901D00C2010BDF3
:100CC000FFF7AAF90028FAD1E01DF93002790621D0
:100CD000012A06D041710D212046FFF7A9F9002015
:100CE00010BDFF20213001550221F5E73409FF1F17
:100CF00070B50D46134AA1218900126841438C1832
:100D00009D2189000959012901D00C2070BD002DB9
:100D100016D0FFF781F90028F8D110210B1A2A5CB0
:100D20001B19E033401CC0B29A711028F6D3012180
:100D3000F820015505212046FFF77AF9002070BD03
:100D4000122070BD3409FF1FFEB5089D099C17468F
:100D5000002874D0002972D0002C02D0012C02D0BF
:100D600003E02A2201E0FF220732921D0192354A58
:100D70000E461770344A10603448037034480570CA
:100D800034480470002446E0A120800025464543F5
:100D90002D48A121006889002818FFF7A9F92A48E1
:100DA0002D49006862002818FF308130C662019822
:100DB00036180020885451184870264909780029AF
:100DC0003BD0FF211131009121461C204143224894
:100DD000002220300D182A764254E0B20099FFF725
:100DE0008DF9686000202872E0B201220099FFF7B7
:100DF00085F9E86000202874E0B202220099FFF72C
:100E00007DF968616968002919D0E968002916D060
:100E1000002814D0641CBC42B6DB00200F4D104AE1
:100E2000014683009C186580401CD154C0B261709B
:100E30001028F6D30020FEBD01E03421C3E71220C4
:100E4000F9E700001409FF1F3409FF1F1509FF1FF0
:100E50001609FF1F1709FF1FCCE1FF1FFFFF00004E
:100E6000ACE3FF1FF8B5714D0028AA7916D0012A0E
:100E700001D0032A12D16E490B78FF2B0ED14B788B
:100E8000FF2B0BD18B78FF2B08D1CB78FF2B05D113
:100E90000B79FF2B02D14979FF2930D065490B78B6
:100EA000012B1DD00026644C0E702178092931D009
:100EB0000A292FD00B292DD00C292BD00D2929D070
:100EC000052927D0062925D0A97B00290AD0012988
:100ED00008D0032906D0022904D004290FD101E04B
:100EE0000C20F8BD002A05D0012A03D0022A01D027
:100EF000032A04D1514F002875D0012801D01220B7
:100F0000F8BDA888012805D0FFF7E0F82078002870
:100F100002D01AE02120F8BDA87B0300FFF7F4F807
:100F2000050408100C082400012020701F200AE08E
:100F300002202070202006E004202070222002E001
:100F4000032020702120FFF7E5F8207828210128D0
:100F50000DD002280BD0042809D0032807D0072879
:100F60000ED008280CD01BE026701E20EBE734487A
:100F700006602975FFF7D4F8002820D0AE800FE076
:100F80003048C068808D80060AD52F480278002A34
:100F900006D1AA7B032A06D0022A04D0002A02D056
:100FA000FFF7A0F8B6E70222027029751403214664
:100FB0003878FFF7BBF821463878FFF77BF8012037
:100FC000A88022480078002809D021480121028801
:100FD0007D20C0004243C9033878FFF7ADF8FFF722
:100FE00081F820E0FFE7FFF771F8AE80207807284E
:100FF00008D0082806D026701648FFF7A3F81E2050
:10100000FFF788F810480178002905D00670012103
:1010100049033878FFF78AF8FFF764F80121C9031C
:101020003878FFF783F80020F8BD0000A60BFF1FFB
:101030006B09FF1F1A09FF1F1C09FF1F1B09FF1F58
:101040004809FF1F988AFF1F2309FF1F2109FF1F5F
:101050002C09FF1F00100040FFB585B016460D4655
:101060000446119FFFF732F815482946007804908E
:101070002046202C00D22020202900D220210EAA98
:101080002CCA009201AAA8C23246089BFFF760F85A
:1010900005460C480A49448004980870012E01D086
:1010A000042E08D1084880230078C10107488288AF
:1010B0009A4311438180FFF715F8284609B0F0BD27
:1010C0001C09FF1FA60BFF1F7809FF1F6C11FF1FD4
:1010D00010B5FB2908D8084B9A4205D81B2903D321
:1010E000FF2349339A4201D2302010BD034B1982AD
:1010F0005A82FFF733F810BD480800008410FF1F24
:10110000F8B53249097801292AD0022928D00329C3
:1011100026D0042924D0052922D0062920D02C4904
:10112000097802291CD004291AD0012918D00329D2
:1011300016D0062914D0072912D00178254C8C46E8
:101140002170467866708378A370C278E270017966
:1011500021714079204D6071AF79012F02D008E0F4
:101160000C20F8BD6746EF712E726B72AA72E9729D
:1011700028730622E91D1948FEF7F6FF0622E91D2D
:101180001748FEF7F1FF1748017801290BD12178A4
:10119000417061788170A178C170E1780171217925
:1011A0004171617981711048017801290BD1217851
:1011B000417061788170A178C170E1780171217905
:1011C0004171617981710020F8BD00001C09FF1F89
:1011D0002309FF1F6B09FF1FA60BFF1F7211FF1FC3
:1011E0008A13FF1FBC0BFF1FD40BFF1FF8B58446EB
:1011F00057480F460178012914D00026554D067036
:101200002878092838D00A2836D00B2834D00C2862
:1012100032D00D2830D0504C607A002804D00128FC
:101220004BD101E00C20F8BD2078002805D0012822
:1012300003D0022801D003283FD162894748111FFB
:1012400081423AD2A1890B1F834236D2914234D8CF
:10125000002F01D0012F30D1604600284FD0012847
:101260002BD1207A012807D0FEF730FF2078012803
:1012700004D0032802D014E02120F8BD38480178BA
:10128000FF290ED14178FF290BD18178FF2908D1A0
:10129000C178FF2905D10179FF2902D14079FF28C2
:1012A00009D0287825210126002808D007280ED04B
:1012B00008280CD014E0FEF715FF1220F8BDE671E7
:1012C000E773A17405202870FEF754FF13E025484A
:1012D000C068808D400603D523480278002A02D0DA
:1012E000FEF700FFC8E7A17406702048012109033A
:1012F0000078FEF7DFFE2672FEF7F4FE25E0FEF72B
:10130000E5FE2878052804D007280AD0082808D048
:101310000FE02E701648FEF715FF1E20FEF7FAFEAE
:1013200007E0114801210670104809030078FEF714
:10133000FDFE26725820FEF723FF0A480670FEF7CE
:10134000D1FE0C4801680129FCD00020F8BD000046
:101350001909FF1F1C09FF1FBC0BFF1FFD3F0000E9
:101360006B09FF1F988AFF1F2309FF1F1B09FF1F1F
:10137000001000409809FF1F38B51C46049B0093DD
:101380002346FEF703FF002812D10B49002C0C70F6
:101390000FD0022C0DD0094A13784B7053788B7004
:1013A0009378CB70D3780B7113794B7152798A7122
:1013B00038BD034AF0E70000BC0BFF1F6B09FF1F9D
:1013C0006509FF1FFFB581B0044602981F46164607
:1013D000002814D0002E12D0002F10D02046FEF787
:1013E0001BFE00280CD1A120800044432C4800683B
:1013F0002418E51DF935287B002803D00EE01220C3
:1014000005B0F0BD2749002023180A18FF33013327
:10141000401C5278C0B25A730828F5D3687BC007C5
:1014200038D0002002992218095CC032401CC0B29A
:1014300011700828F6D320463178C03001727178D7
:101440004172002010210B1A3A5C1B19E033401C3A
:10145000C0B29A711028F6D32046B830FEF79CFE31
:101460002046AC30FEF79EFE0C210F48FEF7A0FE92
:1014700000207B2108552146E031C8750876A62159
:10148000095D012908D0287103212046FEF7D0FD0F
:101490000020B5E71120B3E7012028710A21F4E705
:1014A0003409FF1F480EFF1F3811FF1FFFB50D46FF
:1014B000A12189004843234981B009681E46441888
:1014C000002D09D0FF20D930015B0398814203D35E
:1014D000002E04D0012E02D0122005B0F0BDE0781D
:1014E00000280AD00520C00127181748F97800788D
:1014F000801C814203D30720EFE70220EDE7FEF7CF
:10150000E5FDF878A91E401CF87003980870002EBD
:1015100010D00120487020467C30091FFEF74EFE97
:10152000FEF7E0FD09480078082805D0072803D019
:101530000020D2E70220EDE700212046FEF744FE1E
:10154000F6E700003409FF1F1509FF1F1C09FF1FE4
:10155000F8B50F4E307A002818D10E4CE0690E4FC6
:10156000C005C50F02D1E0693843E06104210B4892
:1015700000F016F809480421103000F011F8002D91
:1015800002D1E069B843E06101203072F8BD00008B
:10159000988AFF1F00F0004000010000ECE3FF1FED
:1015A000F3B50746104881B0C169104A1140FF31B8
:1015B0000931C161002613E000252C461120FEF7F9
:1015C00009FE0948406A8007800F6100884028436F
:1015D000641CE4B20546102CF0D301C7761CF6B2A9
:1015E00002988642E8D3FEBD40F0004000FEFEFFB8
:1015F00070B50446FF30FF300230406F0D460128C1
:1016000012D1282D10D1A420005BE188401A1D4979
:1016100080B2884208D321466A3105220E46481F0F
:10162000FEF7DEFD002818D017490020820052186E
:101630005278002A16D0401CC0B21028F6D31348A6
:10164000012189020078FEF735FD2079010110485B
:101650000918897902290DD00FE031462046FEF79E
:10166000FFFC70BD80002379421853800D54012087
:101670005070E4E74178491E41702046FEF7B6FD00
:1016800070BD0000FF7F0000ACE3FF1F1B09FF1FC0
:10169000300DFF1FF0B505468DB0A0300B902846E9
:1016A000FF300E300390092080012F18E81DFF3015
:1016B000FA300890E0380790C030EE1DF9362C461D
:1016C00080340990F0E0E07A0B2870D009DC030048
:1016D000FEF71AFD0B37551C6EEAEABFF0EFEED6A7
:1016E000EA0016286FD008DC0C286DD011286CD0C9
:1016F00014286BD01528E5D166E1182867D01A2880
:101700007CD01B287BD0FE28DCD119E2A07A0128EE
:1017100003D02846FEF770FD19E0FA4880780028CB
:1017200004D02846FEF76EFD162106E0608A401EB2
:101730000004000C60827CD00CE22846FEF768FDB5
:10174000F6E1A07A012804D02846FEF767FDA072D2
:1017500000E2EC48807800280ED0207E4000207601
:10176000608B40006083A08B4000A083208C000130
:1017700020840120207510E02889E18A13E0A07AF6
:10178000012803D02846FEF74FFDE0E7DD488078CA
:10179000002806D00B99012088702846FEF732FDFC
:1017A00082E02889A18C8842C6D12821C5E784E03F
:1017B000A07A01280CD02846FEF73CFDA07200203C
:1017C0007072B072C6E111E1C3E055E1E9E027E1D2
:1017D000CC48C078002801D000202071707A012800
:1017E0000ED0B07A012813D0F07F0128D5D0608ABE
:1017F000401E0004000C60826CD0ABE167E189E11F
:101800000020E06730600B9901208871062148E0D4
:101810002846FEF7F7FC0B990020887101207B21F8
:101820004855207170790628287906D000221A219F
:1018300000E03BE1FEF704FD36E000220621F7E779
:101840002221FEF703FD31E100222221FEF7F8FC00
:101850002CE1A07A012806D02846FEF7FDFCA072F4
:101860000020B07176E1B0790128C0D12846FEF79A
:10187000C9FC00203072F0717072B071B07213E068
:10188000A07A012806D02846FEF7ECFCA0720020C2
:10189000F0715FE1F0790128A9D10B9900208871DE
:1018A0000B212846FEF7E4FCE07B002803D00AE782
:1018B00040E014E03EE10DB0F0BDA07A012803D075
:1018C0002846FEF7DBFC42E78E48C07800288ED021
:1018D0000321E6E7307901282879B5D1B0E7A07A6D
:1018E000012811D0884900202B180A18FF33013332
:1018F0005278401C5A730828F6DB2846FEF7C4FCD1
:10190000A0720020307325E1307B012806D0608A68
:10191000401E0004000C608206D01BE129790020E3
:10192000039AFEF7B7FC38E729792220039AFEF7DD
:10193000B1FCBBE0A07A012803D02846FEF7B0FC3A
:1019400005E77048C078002800D1EFE60120307329
:1019500023E7A07A012805D00120F0752846FEF77C
:10196000A5FCF4E6707D012806D0608A401E0004C4
:10197000000C60820CD0EDE0B07D0128D3D1B08B9B
:101980000090738B327E29790020FEF795FC04E7E6
:10199000B08B0090738B327E29792220FEF78CFC6D
:1019A00084E0A07A012807D02846FEF78BFCA072BD
:1019B000099900204874CDE05248C0780028C4D06E
:1019C000099901204874E8E6A07A012803D0284646
:1019D000FEF77EFCBBE64B48C0780028B5D00999DD
:1019E000002008742879FEF779FCD6E6A07A012851
:1019F00007D02846FEF778FCA072089900200872EC
:101A0000A8E04048C07800289FD0089901200872BB
:101A10003E484079012886D1089900200872BCE62A
:101A2000A07A012803D02846FEF764FC8FE63548EB
:101A3000807800281DD00798007B002803D10798E4
:101A4000407B002808D007990120087408990020DD
:101A500008720899C871A0E60998417E0798017339
:101A60000998817E0798417300212846FEF748FCBB
:101A7000ECE72889718E96E6A07A01280ED00898A6
:101A8000007A012814D00B988078012812D0207D8C
:101A900001280FD0387E012811D05BE01948C078AA
:101AA00000288CD007990120887276E6222144E62E
:101AB000232100E02A212846FEF728FC47E6797E0C
:101AC0002846FEF723FCA0720020787642E0A07A38
:101AD000012806D02846FEF71FFCA07201203876A8
:101AE00038E00848C078002899D1608A401E000478
:101AF000000C60822ED10648042200212818FEF72F
:101B000011FCD3E7E010FF1F480EFF1F988AFF1F4C
:101B100056020000A07A012803D02846FEF708FCF0
:101B200015E60F48C078002802D00020F87534E68A
:101B30000120C0E62846FEF701FC01288BD009E011
:101B400007990120C875FF2149314853044880781E
:101B5000012801D00020AEE607980178EDE50000ED
:101B6000E010FF1FF0B5054687B0E030049028462E
:101B7000A030039040380590092080012E46281897
:101B8000FF36E136029030462030EF1DF9372C4603
:101B9000803401909FE1E07A801E0300FEF7B4FAE2
:101BA0001A0E3822396BF638C13892D1A938383834
:101BB000383838F5F4F3F23838F1F038A07A0128E3
:101BC00003D02846FEF718FB12E0C54880780028AD
:101BD00001D0162130E1608A401E0004000C6082B2
:101BE0006FD076E1A07A012804D02846FEF7ACFB3E
:101BF000A0726EE1BA48C0780028ECD02846FEF703
:101C000001FB2A4629462879C832C031FEF7A2FBDB
:101C100061E1A07A012813D00498C07D012821D069
:101C20000498007E00287BD02A4629462846D732D1
:101C3000B031E730FEF794FB04990120C8754AE102
:101C4000A748C078002805D003990120887100209A
:101C5000E0673860B8790128BDD106212846FEF733
:101C600007FB38E12846FEF781FB0128B9D10020A7
:101C7000B8710120BCE7A07A012803D02846FEF7FE
:101C8000EBFAB5E79648C0780028A4D0E88C6884C1
:101C90002846FEF7B7FA05990120C87620713879F1
:101CA0000128287909D001220021FEF7C9FA002075
:101CB00038713872F871B8710DE10021FEF7C6FA7B
:101CC000F5E7B8E0A07A012805D02846FEF7D6FA55
:101CD000012807D0FDE0F8790128BDD12846FEF79C
:101CE00091FAF8E00020F871039988710120A07240
:101CF000F1E0A07A012804D079792846FEF73CFB70
:101D000076E77748C178002906D0039A00219171BF
:101D1000059A0121D176217180780028DED15AE719
:101D20008EE0A07A012803D02846FEF7B9FA5FE7D3
:101D30006B48C0780028F2D001203873E88C6884A2
:101D4000CCE7A07A012805D00120F8752846FEF7D7
:101D5000ADFA4DE7787D012806D0608A401E000468
:101D6000000C608213D0B4E0B87D0128B6D1B88BE6
:101D700000907B8B3A7E29790020FEF79DFAADE733
:101D80008FE072E03BE02DE01BE009E09CE0B88BC7
:101D900000907B8B3A7E29792220FEF78DFA4AE06B
:101DA000A07A012806D02846FEF78CFAA0720020FF
:101DB00070748EE04A48C0780028B0D0012070745A
:101DC0008CE7A07A012803D02846FEF781FA0FE7B6
:101DD0004348C0780028A2D0002030742879FEF74C
:101DE0007DFA7BE7A07A012803D02846FEF77CFA2B
:101DF00036E03B48C078002891D0012018E0A07A56
:101E0000012807D0707FB17F08401BD041071DD546
:101E1000042020E03248C07800288CD001990020AE
:101E2000C871019A012111722E490979012987D1BE
:101E30000199087252E722212846FEF7E9F90120AC
:101E400007B0F0BD707E7075B07E05E0800701D5EB
:101E5000022000E001207075B0752846FEF792FA66
:101E6000A07201990020087233E0A07A012807D0FF
:101E70002846FEF751FAA07202990120087628E060
:101E80001748C07800289BD1608A401E0004000CCF
:101E900060821ED11448042200212818FEF742FA5D
:101EA000C9E7A07A012803D02846FEF741FA9FE649
:101EB0000B48C07800280ED00299002008760299BD
:101EC000C875FEF765FA09E72846FEF737FA0128D4
:101ED00087D00020B4E7E07B002800D05BE6AFE7C6
:101EE000E010FF1F988AFF1F5602000070B51F48C0
:101EF000012201781E4D002915D01E48A1218078AD
:101F0000890048431C491D4C0968227046182078F6
:101F1000FEF744FAA87B00281AD003281BD0022819
:101F20001CD0002070BDA97B002904D0032904D057
:101F3000022904D005E0027003E0042100E003213F
:101F40000170FEF7EDF80E4900200870012070BD09
:101F5000FEF72AFA04E0FEF72DFA01E0FEF730FA68
:101F6000FF36FF360236317B217070BD1C09FF1F22
:101F7000A60BFF1F300DFF1F3409FF1F490AFF1F6B
:101F80002309FF1F1449134888631348134940303D
:101F900041611349016113490F4A01621249803AB4
:101FA0001163124901601349114A0A60124A8A609A
:101FB0001249104A41621249403A51611149816007
:101FC0001149816111494160124A114991601249D8
:101FD000C1617047E547FF1F8001FF1F79130211A0
:101FE000ED110211C5130211792AFF1F9516021176
:101FF000FD5AFF1F8002FF1F2564FF1FE14BFF1FDB
:10200000A177FF1FB979FF1FD10802114549FF1FB2
:10201000F11502118000FF1FA920021110B5FEF773
:10202000D5F9FEF7D9F910BD03480249C16003494B
:10203000816170476970FF1F8002FF1FDD65FF1F10
:102040000E480D4901600E4981600C490D4A40312E
:102050004A610E4B0C4A5A610D4AC2620D4A8263B4
:102060000D4A8A600D4A4263084A0D48403A1062A0
:102070000C48886170470000591002114000FF1F92
:10208000650E0211017AFF1FA177FF1F4002FF1F9B
:10209000AD4BFF1FC149FF1FF1150211651B021156
:1020A0003D4FFF1FED2FFF1F70B5FEF70FF8904C4F
:1020B000002025682060FEF795F906462560FEF7AA
:1020C00011F8304670BD8B49C968FF318131886590
:1020D0007047F8B5FEF78CF9864D874A687211781B
:1020E000022903D9002801D1012010708349002062
:1020F0000446E9608300401CCC50FF28FADDE86804
:102100007F49882319507F49C1627F490978002996
:1021100002D07C491131C1620A21016511788163C5
:102120007A49C161FEF76AF9E9687948486119207E
:1021300080018861084637228030C2600823362239
:102140000B64CA631E224A64362242603222026055
:102150003B220364C263282242644122C2643922C2
:102160008264322243650265282282650222026669
:102170004222C2651E22836642662822C26620224F
:102180004267422202675A22436102613C22826115
:10219000192292010A605F4A0A63FF222D328A6087
:1021A000CA60FF22F5320A615B4A8A647D22D2004E
:1021B0005A4EC267CE644A62594A8A623222CA655E
:1021C00006224A658A65CA1DF932022513604D66EA
:1021D0004B25ED008D660925CD66524D0D678C6748
:1021E0004B67AB10CB67504FFF313E604A4E866263
:1021F0007D26F6008667642646620526C6620226AC
:102200000663C826466384633820506047481064DC
:102210004B2080019061B000D061581010627D2089
:1022200000015062D466956513665364D5651467E2
:1022300053671E2090663E4890673E485B008131A0
:10224000D0670B608B604860FF20F530C860086184
:102250004B20C00010630E6538483749274A81601B
:102260003749803A11613549364A80318A62364AA7
:10227000CA62364A8261364AC262364A02632F4ACD
:102280003548403A50633548D0633548C8613548D1
:1022900090632A4934484031886135493348886021
:1022A00026483449803841603349244A41633349E0
:1022B000C03AD1603349324B204CCB63324B403C67
:1022C0002363324B9362324AC263324AC260324A5B
:1022D0004A63324AE260324A8A63324A0A633249C6
:1022E0008163FEF791F80120FEF794F8F8BD000035
:1022F0009809FF1F988AFF1F4A0AFF1F0004FF1F4B
:10230000C0ECFF1F6E0400002C87FF1F3A0700007F
:1023100080C3C9019A02000050C30000280A0000CF
:102320006A180000204E0000F009FF1F0040001155
:10233000DC05000040420F00C553FF1F0001FF1FD6
:10234000512DFF1F0D7DFF1FE17FFF1F5D2AFF1F26
:10235000F12BFF1F792AFF1FB53CFF1FA53AFF1F76
:10236000CD84FF1FB982FF1FE528FF1FD110021186
:102370000002FF1F394AFF1F4951FF1FA52FFF1FF2
:10238000890C02110000FF1F157BFF1F1D4DFF1F51
:102390001557FF1F554DFF1F8D2FFF1F8D4AFF1F24
:1023A000AD140211392FFF1F4173FF1F0A7802700D
:1023B0008A7842704A88120A82700979C1700420B2
:1023C00070470A7802700988090A41700220704734
:1023D000097801700120704710B500220EE09300CB
:1023E0005B189C7804705C88521C240A44701C7929
:1023F00084709B88D2B21B0AC370001D0B78934275
:10240000EDD81806800D10BDF8B50D460646497882
:10241000012031700024761C16E06978012917D05C
:102420001221614349198A7832704A88871C120A3E
:102430007270B61C10223046091DFDF795FE10374C
:10244000B8B21036641CE4B22978A142E5D8F8BDD0
:10245000A10049198A7832704A88871C120A727062
:10246000B61C02223046091DFDF77EFEBF1CB8B225
:10247000B61CE7E710B50C46097801702188090AF7
:1024800041706288211D801CFDF76EFE6088801CF3
:1024900080B210BD10B50C46097801702188090A78
:1024A0004170A17881706188090AC170A288A11D5C
:1024B000001DFDF759FEA088001D80B210BD10B5AB
:1024C0000C460A88891CFDF74FFE208810BD10B508
:1024D0000B788A7802705343DCB22246401C091DF7
:1024E000FDF742FE601C10BD10B50B788A780270B3
:1024F0005343DCB22246401C091DFDF735FE601C2B
:1025000010BD10B50C460A88891CFDF72DFE2088E9
:1025100010BD10B50C460A88891CFDF725FE2088E1
:1025200010BD10B50C46097801702188090A417068
:102530006288211D801CFDF717FE6088801C80B218
:1025400010BD7FB515460446022901D0102903D1DC
:10255000022B04D0102B02D0002004B070BD994291
:1025600002D10A46294607E01029694607D000F043
:102570000DF8102269462846FDF732FEEDE71046B9
:1025800000F004F8102269462046F5E770B50C46C5
:1025900005000CD0002C0AD0102206492046FDF779
:1025A000E3FD2878207368786073012070BD0020F7
:1025B00070BD000058D6021110B50B460122024929
:1025C00002F0D6F910BD0000AD23021170B5064629
:1025D00008880C46172812D30B46032209493046B7
:1025E00002F0C6F9050008D1074920880988884209
:1025F00000D20146304600F0C9F9284670BD0220DD
:1026000070BD0000C3230211108BFF1F10B50B46D5
:102610001822024902F0ACF910BD0000D1230211CA
:1026200010B500231922194602F0A2F910BD0000CE
:1026300010B50A78002A05D00B460722024902F09D
:1026400097F910BD022010BDD923021110B54A78A8
:10265000012A01D0022A08D10A78002A05D00B46A7
:102660000522034902F084F910BD022010BD0000CC
:1026700009240211024940008968085A7047000085
:10268000048BFF1F10B50B461D22024902F070F9A2
:1026900010BD00007524021110B50B461B22024923
:1026A00002F066F910BD00007524021110B506494C
:1026B000002089681723054A02E044000B53401CA0
:1026C0001478A042F9DB10BD048BFF1FE48BFF1FC1
:1026D0000098022B01D00420704711785278120222
:1026E00089180180002070470098012B01D0042038
:1026F0007047117801700020704770B5049C1E4629
:102700001546062B1BD369782878090240182080CB
:10271000E978A87809024018608002222271291DF8
:10272000601DFDF721FDB61FB2B22281F02A06D846
:102730002046A91D0A30FDF717FD002070BD0420BA
:1027400070BD0098042B01D0042070475378117895
:102750001B02C91801809178D27812028918418031
:1027600000207047F8B584890D460646002C26D017
:10277000B2681778380620D50C2C20D90C3CA4B2AE
:102780001019009001217088234602F072F8002889
:1027900011D0022028707806C00F6870B806800E2D
:1027A000A870641E2004000CA88001D0B068401CF2
:1027B000A8600020F8BD0120ECE70020EAE7012036
:1027C000F8BD10B502981146042B14D34C780A7842
:1027D000240212190280CC788A78240212194280CD
:1027E0001B1F9AB28280F22A05D8801D091DFDF7B1
:1027F000BBFC002010BD042010BD0098042B01D0AC
:1028000004207047537811781B02C9180180917811
:10281000D2781202891841800020704710B50298C2
:102820001146062B03D0142B03D0042010BD022226
:1028300000E0102202714B780A781B02D218028045
:10284000CB788A781B02D21842800279401D091D7C
:10285000FDF78AFC002010BD30B5039CD80718D1C5
:10286000D805010E022914D30B488088814210D864
:10287000F6200155002008E0557813782D025B19E9
:102880004500401C6353C0B2921C8842F4D3002020
:1028900030BD042030BD0000048BFF1F0098022BC8
:1028A00001D00420704711785278120289180180F3
:1028B0000020704770B5144602460498022B18D3C6
:1028C000667825783602AD1905800546E0352A760A
:1028D0006976002A0BD0E8219B1E9AB242808A4278
:1028E00007D8A11C001DFDF73FFC002070BDF4219E
:1028F000F2E7042070BD002901D0042070470020B9
:102900007047000010B50B461722024902F030F85C
:1029100010BD00009524021110B50B460D2202498E
:1029200002F026F810BD0000BF24021110B50A788D
:10293000002A05D00B461122024902F019F810BDF9
:10294000022010BDCF24021110B50A78002A05D04C
:102950000B460922024902F00BF810BD022010BDFF
:10296000E924021110B50B460F22024902F000F8CB
:1029700010BD00000325021110B50B460B220249C1
:1029800001F0F6FF10BD000013250211034A138861
:10299000994202D89268400011527047048BFF1F81
:1029A00070B50B46E0331C7E1222012C0AD10A4D71
:1029B00042002D684C88AA5A0F3A944201DD022049
:1029C00070BD92225B7E012B01D140231A430B463E
:1029D000024901F0CDFF70BD0C8BFF1F23250211B2
:1029E00010B500231322194601F0C2FF10BD0000EC
:1029F00070B50C460146012080020A1A00251C48C9
:102A00001300FDF781FB0F32090B0D1012181A1C71
:102A10002A1F212325272A00408A23E0407800E04E
:102A20008078207021E0C078FBE710221149204611
:102A3000FDF79AFB19E00079F3E7807AF1E7C069C6
:102A4000206012E0007AECE7407AEAE7C07AE8E733
:102A5000807BE6E702F012FAE3E7272904D2084672
:102A600000F004FA208000E00225284670BD000036
:102A70006887FF1F5CCAFF1F70B500240546002948
:102A80000BD108491046FDF7CDFA0846294600F05B
:102A900085FA040003D00121284600F067FB204698
:102AA00070BD000040420F0010B5064C2062217836
:102AB000FF2905D0262000F049FB207800F0ACFD6E
:102AC00010BD00006887FF1F70B50246032000029A
:102AD000161A22480C460146002520313300FDF726
:102AE00013FB150C0E12191C323232322932322CE1
:102AF0002E32323021232527320000781BE01022AD
:102B0000411C204603E01549102211312046FDF7F3
:102B10002BFB20E0406A20601DE01049062228318E
:102B20002046F4E7C08D13E0008E11E0408E0FE0E8
:102B3000808E0DE0087E20700DE0487EFBE7887EE9
:102B4000F9E7C87EF7E7272A04D2104600F08EF98D
:102B5000208000E00225284670BD0000C4D7FF1F7A
:102B600010B5094CA07006F0FBFC3C220021074880
:102B7000FDF7D8FB0648FFF797FFFF22F532042147
:102B8000A078FDF74DFC10BD7489FF1FC4D7FF1F4F
:102B900050D5021170B50C46080415D51748807839
:102BA000FDF744FC05000CD00078A22806D0B02820
:102BB00004D0D02802D1284601F0F0FB2846FDF7CA
:102BC0003BFC0120C00315E0E00703D006F07EFCCB
:102BD00001200FE0A00702D50220484070BD600729
:102BE0000AD5FF20F53006F069FD06F0D3FC06F0AB
:102BF000EDFC0420604070BD002070BD7489FF1F93
:102C0000F8B51546024603200002171A344E002478
:102C1000304620303B00FDF777FA150C1117205590
:102C200055555555395555404755554E252A2F343C
:102C30005500012941D12878307048E010293CD155
:102C400010222946701C05E0102936D12448102294
:102C500029461130FDF788FA39E004292DD128687A
:102C6000706234E0022928D12888F0852FE00229FB
:102C700023D1288830862AE002291ED12888708630
:102C800025E0022919D12888B08620E0012914D135
:102C90002978042911D8017619E001290DD1297864
:102CA00007290AD8417612E0012906D1297803299B
:102CB00003D881760BE0012901D0182407E0297898
:102CC000C17604E0272A01D2022902D0022420463C
:102CD000F8BD2988104600F039FA0446F7E70000ED
:102CE000C4D7FF1F1CB50D4C002800D060602078B1
:102CF00008700B4901910846133803460090113BB8
:102D000019780022A0785B1C00F038F802460549CB
:102D100005A001F0A7FE00201CBD00007489FF1F64
:102D2000E8D7FF1F58D5021125732C726574202532
:102D3000640A000010B505480078000701D5044872
:102D400000E0002002F09EFD10BD0000258BFF1F5B
:102D50001C8BFF1F10B5FFF7B6F906480A21007853
:102D6000084204D0044802F087FD002010BD012075
:102D700010BD0000258BFF1F148BFF1FFFB51E46E3
:102D800081B017460D4602240B00FDF7BDF90D2159
:102D90000B0B0B0B210B210B0B21210821000EA08B
:102DA00001F060FE2946019800F0DCF804000FD124
:102DB00030460B9A0A9900F0A9F93846FFF7CAFF86
:102DC000FFF7B8FF01F09EFC00F00CF901F016FDD2
:102DD000204605B0F0BD00004741505F446576696C
:102DE0006365496E69743A204741505F50524F46BF
:102DF000494C455F43454E5452414C207C2047414D
:102E0000505F50524F46494C455F504552495048DB
:102E10004552414C200A000070B5104C2168002931
:102E200004D00978814203D0032070BD122070BD08
:102E30000B4D02212878FDF779F90A4800264680D3
:102E400004212878FDF772F90748068021680320DD
:102E500048700020FDF7F6FA70BD0000848BFF1F5C
:102E6000B58BFF1F988BFF1F288BFF1F272803D2CE
:102E700002494000085A704701487047308BFF1FD5
:102E8000FFFF000010B5044C6070FDF7E1FA05216A
:102E9000607800F0ADFF10BDB48BFF1F70B5284EF9
:102EA000054630680C46002801D0112070BD254829
:102EB00001780520014216D023488068002805D0FB
:102EC0000078002802D0C80706D101E0102070BDAC
:102ED00000F044F8002808D02078032805D0022804
:102EE00003D0002801D0122070BD0C20FDF7B6FAE7
:102EF0003060002820D00570002141700A22214650
:102F0000801CFDF731F902F013FE040002D002F03C
:102F100035F812E00D48007803280ED11D20FFF788
:102F2000A5FF0B490028088007D00B48094A042157
:102F30000078FDF775FA00E01324204670BD00000C
:102F4000848BFF1F258BFF1F988BFF1F268BFF1F76
:102F5000288BFF1F60EA0000B58BFF1F10B504F03F
:102F6000C3FF10BD70B50C4605461C220021094860
:102F7000FDF7D8F9084805704470FDF775FA054962
:102F8000002803D000200870122070BD01220A70B2
:102F900070BD00001CE4FF1F248BFF1F7FB504469B
:102FA0000D46084604F044FF002805D00C48844232
:102FB00004D9022004B070BD1220FBE710220021CA
:102FC0006846FDF7AFF968460470210A4170210C8C
:102FD0008170210EC170294601F0A4FBEAE70000D0
:102FE0003F420F0070B50F4C0025A068002802D0AA
:102FF000FDF740FAA560E068002802D0FDF73AFA34
:10300000E560094805210078084206D005481030DF
:1030100002F03EFC01F008FF70BD002002F038FC19
:10302000002070BD988BFF1F258BFF1FFEB5344D10
:103030000C46080419D56878FDF7F8F90121C90391
:103040004C40064600280ED002F00CFB002807D1A9
:103050002878FF2804D03146FDF712FA002802D064
:103060003046FDF7E9F92046FEBDE00701270028BC
:103070000AD0A868002804D04168002901D00020A7
:10308000884720467840FEBDA00709D5686800281B
:1030900004D04168002901D00120884702202AE09D
:1030A00060072AD5174E308800281FD0401E000424
:1030B000000C30801ED101F0D7FF002809D0124843
:1030C00007706868002804D04168002901D00120F9
:1030D000884701F0A3FF694601F092FA684602F0C2
:1030E000ABFA1D20FFF7C2FE308003E004216878B0
:1030F000FDF71CF804206040FEBD0020FEBD00006E
:10310000B48BFF1F288BFF1F278BFF1F70B50E4C42
:103110000B46261D07C60546102200211846FDF75E
:10312000B5F9012803D11021A06808F09DFA1022FA
:1031300000212846FDF7AAF9012803D11021606873
:1031400008F092FA70BD00001CE4FF1F272807D288
:10315000044A914204D0044A4000115200207047B2
:1031600002207047FFFF0000308BFF1F38B50C4670
:10317000054604F05DFE002806D0684604706946E6
:10318000284608F04DFF38BD142038BDF8B50E466E
:10319000014619481546007805221F46104028D0E0
:1031A000304326D01548012E1BD0C468002C20D0F7
:1031B0001F2D18D8002D01D0002F14D001701F2210
:1031C0000021601CFDF7AEF82A463946601CFCF76A
:1031D000CBFF28462570002E07D0611CFDF75CF957
:1031E000F8BD8468E2E70220F8BD611CFDF75AF9DA
:1031F000F8BD1220F8BD0000258BFF1F988BFF1F24
:10320000014610B50020C90704D0034A0421034831
:1032100000F008FA10BD000008D502112488FF1F35
:1032200010B5002309E01C012418E468944202D17F
:103230001901081810BD5B1C9BB28B42F3D3002010
:1032400010BD000070B50E4D0F4CA8700D49204602
:1032500000F020F800210D480B46CA0084521218D5
:10326000491CC9B253600429F7D3012003F0D8FBED
:10327000A87800F0A3FB064804F04CFE70BD0000E7
:103280001488FF1F1CD1FF1FFFFF00002CCBFF1F66
:103290006562021170B50A4C0025A04209D10020D8
:1032A00082008C525218401CC0B295700528F7D38A
:1032B00070BD02F0A6FF0028FAD00480857070BDB2
:1032C000FFFF0000F8B50E46074606990024079850
:1032D000002902D00B242046F8BD022B01D00D247A
:1032E000F9E711785278120289188DB22946814384
:1032F00001D08024EFE73846F16800F085F9A84254
:10330000E9D02A463846F16800F0F8F90400E2D125
:1033100071892A46384600F0B3F9DCE7FFB51F464D
:103320000446C1B022881E4B00254A989A4233D0E9
:10333000A278002A30D00A4601463846FFF770FFCF
:10334000060029D0174A208812684100515C0023EA
:10335000C91EC9B203AA02320193029100927A896E
:1033600004AB314600F03CF8002815D1708969465D
:103370008881A078C00705D0208803A9439A00F06F
:10338000EBFA0546A078800706D5208803A94B9B59
:10339000439A00F083FA0543284645B0F0BD00008B
:1033A000FFFF00000C8BFF1F70B50C46080412D500
:1033B0000A488078FDF73AF8050008D02878B02848
:1033C00002D1284603F03CF82846FDF735F80120E5
:1033D000C003604070BD002070BD00001488FF1F56
:1033E000FFB583B0087A00250C9E1C460F46C00628
:1033F0000DD5059802F0FEFE030006D00A223946DC
:1034000003989847050035D101E00E2532E0387861
:1034100002281DD178682922017840781202000222
:10342000081881B2881A91427ED009DC7348081AC4
:1034300023D0012821D002284FD0032808D125E02D
:10344000012872D0022871D003286DD004286ED0D4
:10345000059802F0F7FE00286AD00568002DD4D048
:103460000E990D98019100903346224639460398F3
:10347000A8470546284607B0F0BD0D98002872D130
:10348000F868017831800278416896E00D9800284C
:1034900069D101203080F868002100782070788997
:1034A000401C80B200F058F900280DD03188027815
:1034B0008918891C3180817A61704189090AA1705B
:1034C00002784168E01C79E030880422001D3080D9
:1034D0000021601CFCF726FFCCE70D98002875D171
:1034E000F86802A9008800900420308000982070BD
:1034F0000098000A6070009800F02EF9070029D0AB
:10350000F86800906846028901AB3D49384600F0F2
:103510007BF9002810D13B7802213A487A68FFF7FE
:1035200010F8002808D104E026E030E01CE04AE072
:1035300062E0401E694688800098007802280CD11D
:10354000009802224168201DFCF70EFE3088801C86
:10355000308002E069460098888068468088A070C4
:10356000000AE07086E731E00D9800282ED1F96856
:10357000039800F049F804E00D98002826D1F86877
:103580000088022131802070000A607072E7F868BC
:10359000FCF78EFF0D99C0B2814212D8814201D151
:1035A000002206E00E9A8918814202D30D99401A32
:1035B000C2B23280F9680D9809182046FCF7D4FD94
:1035C00058E7072556E70D98002801D00B2551E74D
:1035D0000721F86831800178217041786170817825
:1035E000A1704188090AE1700179217181796171C5
:1035F000C088000AA0713DE700252FE700280000E1
:10360000FFFF0000CED6021110B502F0FAFD00282F
:1036100000D0807810BD000001490870704700009C
:103620001488FF1F7CB51546040019D06846019424
:10363000018000F0C9F903001DD1002D1BD0648961
:10364000002C0DD00C20FCF709FF00280AD0002325
:1036500003608480094A85609168002904D006E0EF
:10366000022308E0132306E0906004E011460A6894
:10367000002AFBD1086018467CBD00001488FF1F9B
:10368000F8B50C4C0746207815460E46FF280FD09B
:103690000A20FCF713FF01000AD0B12008700020B7
:1036A000487008714F80CE800D812078FCF7E8FECD
:1036B000F8BD00001488FF1FFFB583B008461F4601
:1036C00001A90C9E00F048F8050014D068468088D7
:1036D00002F0B8FD00280AD04468002C09D00096FA
:1036E0003B462946059A0398A04707B0F0BD002441
:1036F000F3E70E20F9E70120F7E7000070B5144664
:103700000E46054602F07DFD002806D131460548EB
:1037100002F077FD002803D005808470002070BD82
:10372000112070BDFFFF000010B50178B0290BD14A
:103730004178002908D10179122906D01B2903D12B
:103740004088012100F0D0FA10BDFF210231095C50
:103750000129F5D010BD0000F0B58C4610494B682A
:1037600019E09F687C89A04214D39E883119814258
:1037700010D900220CE011017D186989814205D120
:103780006046002800D004802846F0BD521C92B24A
:103790009642F0D81B68002BE3D10020F0BD00005A
:1037A000C88BFF1FFFB5174881B00A9F446824E00B
:1037B00000251EE0A06829014618708901998842F9
:1037C00015D30299884212D80498002807D031787E
:1037D0007068049B039AFEF7B4FE002807D0002F00
:1037E00002D0A06840893880304605B0F0BD6D1C1D
:1037F000ADB2A088A842DDD82468002CD8D1002022
:10380000F3E70000C88BFF1FFEB5174600256A4688
:103810009580044640891D4A1E46904208D001AA60
:103820000092401C237880B26268FFF7BBFF054618
:103830002378022116486268FEF783FE002807D12C
:103840002378022113486268FEF77BFE002801D02E
:1038500060890EE0237802210F486268FEF771FE4E
:1038600000280DD0002D03D068468088B84203D0D0
:10387000384603F0E9F904E06889401E80B200E0B0
:103880006089002E00D030802846FEBDFFFF00007A
:10389000CCD60211CED60211D2D60211FFB581B01C
:1038A0000F461E4614466946019802F0CFFA0500FD
:1038B00018D1002C06D001221021019804F092FAB0
:1038C00005000FD139460198FEF7DCFE050009D14D
:1038D000009CFF2E06D021461E22A31C034803F0A5
:1038E000BFF9E670284605B0F0BD00004D6B02112F
:1038F00010B505490870042100F07AFA00F006F8C6
:10390000FEF7D4FE10BD0000D48BFF1FF8B50F4D9D
:103910000D4B00206E1C1C78FF2209E09F6881007F
:10392000C91900280ED00E80CA70401C8A70C0B21F
:10393000A042F3D3064802F02DFC064804F0EAFA50
:103940000020F8BD0D80EFE7C88BFF1FFEFF0000D1
:10395000796B0211CD6A0211F8B50D461446064680
:10396000694602F073FA17280CD0002C06D0012209
:103970001021304604F036FA002803D1294630469B
:10398000FEF78AFEF8BD000070B50C46080411D59C
:1039900009480078FCF74AFD050007D00178A02906
:1039A00001D102F09BFB2846FCF746FD0120C00335
:1039B000604070BD002070BDD48BFF1F014948706E
:1039C00070470000C88BFF1F70B5054600880028AF
:1039D0001DD068680221037842682248FEF7B1FDD5
:1039E000002808D168680221037842681E48FEF763
:1039F000A8FD00280BD01D4C6088002805D00122AE
:103A000029881204101A814203D9012070BD0220B6
:103A100070BD0C20FCF722FD060001D000200BE059
:103A2000132070BD01016B6862880A315A526188A7
:103A3000491C401C618080B229888142F2D8002054
:103A4000306008222946301DFCF78EFB6068002894
:103A500002D1666004E0084601680029FBD10660D7
:103A6000002070BDCCD60211CED60211C88BFF1F2C
:103A70000649496806E08A685289824201D18888ED
:103A8000704709680029F6D100207047C88BFF1FD6
:103A900010B51422114201D0012202E04A0604D5D9
:103AA0000022102104F09EF910BDC80701D00020AB
:103AB00010BD022010BD10B514468A0604D501229F
:103AC000102104F08FF910BD882211420ED0082277
:103AD0000A40102104F086F900280BD0E034617E02
:103AE0000029F0D0217E0129EDD103E0880701D41F
:103AF000032010BD002010BD10B503F0E5F810BD87
:103B0000014610B50020C90704D0034A0721034825
:103B1000FFF788FD10BD0000F4D40211A087FF1F3D
:103B200070B50D46164600241D490300FCF7ECFA5B
:103B300008051234341934222934152D23D81622BD
:103B400000211848FCF7EEFB2A4631461548FCF7E1
:103B50000BFB22E0022D16D1114910881039088084
:103B60001BE0082D0FD10E48082231460838FCF71B
:103B70009BFA12E0012D06D1CA6909493078283133
:103B800007E0012D01D0182407E0CA6B0449307802
:103B9000483103F06CF900E00224204670BD0000BB
:103BA000A087FF1F14CBFF1FF0B5069F099E0028BA
:103BB00033D0102831D800292FD0002A2DD0002B47
:103BC0002BD0002F29D0079C002C26D0089C002C3D
:103BD00023D0002E21D00A9C002C1ED0104C851D15
:103BE00020706570A26061600E490F4A0B600599F4
:103BF00011600E490E4A0F60079911600D4A08992D
:103C000011600D49401C08700C490E600C49087089
:103C10000C490A9808600020F0BD1820F0BD000093
:103C2000E48BFF1F2C8CFF1F0C8BFF1F948BFF1F3F
:103C3000188CFF1F1C8CFF1FC08BFF1FC48BFF1F26
:103C4000C88BFF1FD08BFF1F0B7803700B880222DD
:103C50001B0A43700B88801C012B02D0022B07D05B
:103C600011E08A7802704988090A417004220AE04A
:103C70008A7802704A88120A42700A7982708988AA
:103C8000090AC1700622104670470A780270098836
:103C9000090A41700220704708B5044B009313468F
:103CA0000A46012103F0EEFF08BD0000493C021165
:103CB0001CB50323019200930A46024B122104F023
:103CC00011F81CBD5D75021108B5044B0093134635
:103CD0000A46132103F0D6FF08BD00008B3C0211F9
:103CE00010B5FCF7F1FB10BD13B5044800780128AE
:103CF00003D101AA6946FCF7EDFB1CBDE08BFF1F59
:103D000070B51049104A087000210B468C00491C00
:103D1000C9B213530429F9D30B4C00211034FF26E8
:103D20000A460A256A4315196B80491CA354C9B277
:103D30006E720329F4D3FCF7D3FB03F059FF04F0B0
:103D4000ADF870BDE18BFF1F38E4FF1F082A01D0DA
:103D5000012070474B780A781B02D2180280CB787A
:103D60008A781B02D21842804B790A791B02D2183A
:103D700082808A79C97909025118C1800020704770
:103D800070B50C46080411D509480078FCF74EFBC5
:103D9000050007D00178902901D103F08BFE284659
:103DA000FCF74AFB0120C003604070BD002070BDDD
:103DB000E18BFF1F70B50C490978884213D20B4C78
:103DC00006016068002585533018858160683018C9
:103DD0008580606830188068002804D0FCF786FB76
:103DE00060683018856070BDE48BFF1F148CFF1F66
:103DF000072907D0052905D0042903D0062901D0B9
:103E000002207047044A8B009A181346403B1986DB
:103E1000203A90740020704738E4FF1F70B51749AE
:103E20000978884228D25C21154C4843A168054690
:103E30004018002640300674A068281840304674A8
:103E4000A068281840300676A0682818406D002821
:103E500004D0FCF74BFBA068281846650026A06834
:103E6000F100281840184068002801D0FCF73EFBFC
:103E7000761CF6B20A2EF2D370BD0000E48BFF1F51
:103E8000148CFF1F70B50A880C460546072A07D018
:103E9000052A05D0042A03D0062A01D0022070BDCD
:103EA000012104F069F8002804D02146284603F0D7
:103EB0006BFB70BD142070BD10B5001D80B2FCF707
:103EC0001BFB002803D00321C943FCF71BFB10BDDB
:103ED00038B50B4B01250FCB084C009503F0A6FA23
:103EE00008482A022118012003F0E2FA064A0021BC
:103EF0002046FCF717FA002038BD000064DCFF1FE5
:103F000048D602110703000007040000F8B50D466B
:103F10002F4809040CD50078FCF788FA040004D077
:103F2000FCF7F6FA2046FCF787FA0120C0034AE0C6
:103F3000690703D500F060F8042044E0E907002693
:103F4000022700292ED0234C61782246927800293E
:103F500020D0002A1ED0012900D16770A178E27814
:103F60000546891A41701CA000F07CFDE078271DF1
:103F7000C019697805F0AAFBE0786A78C119194878
:103F8000FCF7F2F808212878FCF794F86670E670E0
:103F9000A6701AE014A000F065FD6670E670A670C9
:103FA000012010E0A90704D500F07AF828467840EF
:103FB000F8BD290709D50446427800210948FCF7D5
:103FC000B1F9667008206840F8BD0020F8BD000017
:103FD000918AFF1F64DCFF1F756172742064617435
:103FE000613A0A006BE0FF1F55324220733D3A25CB
:103FF000782C25780000000070B5124CA178201DA7
:10400000E51D0818FF351049FA35AA796118FCF743
:10401000ABF8E078002801D0512070BDA078A979D4
:104020004018A0700020A8716078002801D00720F7
:1040300070BD01220548627011460078FCF77CF8DB
:10404000002070BD64DCFF1F07020000918AFF1F83
:1040500010B50C49CC1DF9346279002A0CD02079B6
:10406000002809D00120A11D03F012FA0020607180
:1040700002202071002010BD03A000F0F3FC0720F7
:1040800010BD000064DCFF1F756172742073656EE3
:1040900064206572722073746174650A0000000008
:1040A00010B505484179002902D0FFF7D1FF01E0A2
:1040B00000210171002010BD64DDFF1F10B508490B
:1040C0000022087011466820FCF728FA6820FCF7E7
:1040D0002BFAFFF7FDFE03A000F0C4FC10BD0000AA
:1040E000918AFF1F75617274207461736B20696E11
:1040F00069740A0010B506490648FFF7CBF8064870
:1041000003F008FF054A08210548FFF78BFA10BDA8
:104110000EDAFF1FFFFF0000A187021108D602116F
:104120008489FF1F70B500241546022904D0032995
:1041300007D00224204670BDFEF79CFAC21E054936
:1041400004E0FEF797FA0349C21EF7312846FCF750
:104150000BF8EFE720D8FF1FFFB5174602460020F7
:10416000184D83B0032902D0022007B0F0BD164ECF
:104170000024A100715A914206D1A0008119104675
:10418000FFF742FA254603E0641CE4B2042CF0D3A6
:10419000C00715D00C483A46F7380699FBF7E4FFFC
:1041A0000A48FF210770082001910090074B06493B
:1041B000A800801908330022F739FFF7AFF8D4E7D9
:1041C0001020D2E7FFFF00000EDAFF1F7C89FF1FDF
:1041D000002803D002494860002070471120704732
:1041E0007C89FF1F10B504460246064906A000F070
:1041F00039FC0A494978012902D1204600F0E4F946
:1042000010BD0000ABD50211257320636F6E6E5F89
:1042100068616E646C652025640A00007489FF1F64
:10422000F0B50646024687B0244925A000F01AFCE6
:104230000520FEF71BFE074606A92648FEF744FCAC
:10424000244804A9401CFEF73FFC224805A9801C15
:10425000FEF73AFCC52003A98000FEF735FC69464D
:10426000088B8880088AC880888A08818889488164
:10427000304604F07FFA04460146324616A000F0AC
:10428000F1FB1B4801A982783046FFF711FD182089
:10429000FCF7E4F8A400174D002828510BD00023A8
:1042A0003A461549009605F061F929590020486100
:1042B000285905F0C5F907B0F0BD000087D50211F7
:1042C000257320636F6E6E5F68616E646C65202578
:1042D000640A0000110300006964782025642C63DF
:1042E0006F6E6E48616E646C652025640A00000084
:1042F0007489FF1F10D8FF1FE541021138B54178BE
:104300000546002903D011A000F0ACFB38BD1848C9
:104310000468688900902B89EA88A98815A000F0B4
:10432000A1FB0FE0002C0CD1284604F007FA04286A
:1043300007D28100184840580028E7D005F0A6F9B8
:1043400038BD2469002CEDD138BD00005061726188
:104350006D557064617465496E666F206572726F29
:1043600072207374617475732025640A0000000064
:10437000448AFF1F68616E646C652025642C496E59
:1043800074762025642C6C6174656E6379202564D5
:104390002C544F2025640A0010D8FF1FF0B58578F3
:1043A00085B02B00FBF7B0FE0805BA2228282B8722
:1043B000B8BA41780446002903D05AA000F052FB55
:1043C000ACE061A000F04EFB64A000F04BFBE01CF1
:1043D00000F018FB00F046FB5AA000F043FB618997
:1043E00064A000F03FFB217B67A0E7E7C27841783B
:1043F000284604F00BF991E041780022F8E7417873
:104400000446002940D12146284604F015F80190C1
:10441000684685882806000F36D10027684607724F
:10442000312002A90001FEF74FFB6846007A002800
:104430002AD06846878103A91F20FEF745FB6846FE
:1044400080880005060F314655A000F00BFB1820B0
:10445000FCF704F8B100594E0028705014D02A0718
:10446000120F00926A4692897D23DB005A430D4663
:104470000023534905F07AF87059476171590120BA
:104480000860705905F0DCF84E4840680568002D5A
:1044900044D0201D00906846808801050B0F01065E
:1044A000090F032905D000220107090F6078A847EA
:1044B00034E00322F8E741780446002919D1214667
:1044C000284603F0B9FF0090684600880106090FEE
:1044D0000FD10005000F850038484059002801D051
:1044E00005F0D4F8354810304059002801D005F0C7
:1044F000CDF8344840684568002D0FD068460088E4
:10450000A37901050A0F0106090F032900D0002134
:104510000007000FA84701E0FFF7F0FE012005B0FB
:10452000F0BD000044657669636520496E697420BA
:10453000446F6E65204552525F436F64652030784A
:10454000253032580A0000004465766963652049C9
:104550006E697420446F6E65200A0000424C45204D
:104560004D756C74692D526F6C6520416464726581
:1045700073733A004843495F4C4520504B54204CDC
:10458000454E2025640A00004843495F4C45204EB3
:10459000554D20544F54414C2025640A0000000022
:1045A0006D756C746974696D65725F696E6974208C
:1045B0007065724964782025640A000000D8FF1FE6
:1045C000C94502117489FF1F10B50446024605490A
:1045D00005A000F047FA0949E0B24978FFF720FE4C
:1045E00010BD00006BD50211257320636F6E6E5FE6
:1045F00068616E646C652025640A00007489FF1F81
:1046000038B50C46050014D0002C12D003216846A2
:1046100007F02AF86946887840218006800E084312
:10462000694688702246284607F05AFE050002D0E7
:1046300006E0022038BD03226946E01CFBF794FD2A
:10464000284638BDF7B58EB00E9815460E460028A0
:104650002DD0002D2BD0301DC0B20190FBF7FEFEF7
:10466000040039D000F0E6FC07463246201D0E99C2
:10467000FBF760FFF8B20890E0703804000E0B9072
:10468000A0703802000E0A9060703F0E277000F094
:10469000CBFC0146102202A8FBF74CFF06AB2146DB
:1046A00002A8019A07F072FD060003D010E0022074
:1046B00011B0F0BD089828700B9868700A98A8701F
:1046C000EF70082206A9281DFBF734FF00F0B8FCA4
:1046D0002046FBF7CFFE00E013263046E8E7000057
:1046E00010B5064C2070FBF72BFF06212078FFF752
:1046F0007FFB034803F00EFC10BD0000088CFF1F79
:104700007DB8021110B505480078000701D50448AE
:1047100000E0002007F060FA002010BD258BFF1F8D
:10472000F08BFF1FF8B50E46214C0146A068B5007E
:1047300040590027002807D02422125C022A05D005
:10474000032A03D0042A01D01220F8BDC288B24245
:1047500001D00220F8BD10220C30FBF705FDA06847
:1047600010214059353006F07FFFA068415930468E
:104770000B460A46253335320C3107F0D3FDA068CD
:10478000022140590278002A427807D0032A0BD12F
:104790004170304606F02EFF074605E0042A02D09D
:1047A000032A03D000E041703846F8BD0521EFE749
:1047B000248CFF1F70B50C46080419D50D480078ED
:1047C000FBF734FE05000FD007F07EF9002808D172
:1047D00009480078FF2804D02946FBF751FE00283D
:1047E00002D02846FBF728FE0120C003604070BDC0
:1047F000002070BD088CFF1FB48BFF1F10B505484B
:104800000078400701D5044800E0002007F0EAF9ED
:10481000002010BD258BFF1FFC8BFF1FF0B587B05C
:104820000C9E1C460D00074614D068460276110AFD
:10483000417610220021FBF775FD32462946684675
:10484000FBF792FC002C08D00822214604A8FBF7B5
:104850008BFC07E0022007B0F0BD0822002104A86D
:10486000FBF760FD6B4606AA04A93846FBF76EFE0F
:10487000F1E7FFB58DB00F98169C0E46002815D0B5
:10488000002C13D00D9803F0D3FA050011D06178F5
:10489000207809024018A178E278090412068918E4
:1048A0004718286AB84206D3401C04D0022011B031
:1048B000F0BD1420FBE7002E04D02879800701D436
:1048C0000120F4E70822002106A8FBF72BFD109831
:1048D000001DC0B20190FBF7C1FD060017D0301DCE
:1048E000109A0F99FBF726FE042221463046FBF76B
:1048F00021FE1022A91802A8FBF71CFE06AB3146C8
:1049000002A8019A07F042FC050002D013E0132030
:10491000CDE7082206A908A8FBF70CFE0822211DF6
:1049200008A8FBF75DFC012801D0012503E039460A
:104930000D9801F083F93046FBF79CFD2846B6E759
:104940000A4610B50146002002F0A2FD10BD00008D
:1049500010B5064900200860FBF7FEFD0120FBF7BB
:1049600001FEFBF705FE002010BD00006008FF1FE0
:10497000FFB583B016460F461B2A01D0522E04D134
:104980000398FBF7FBFD00281BD01D49039889689D
:104990004000085AFFF790FA04002DD00125601C52
:1049A0002670002F03D00699B847401C85B2300608
:1049B00013D51021039803F0DFFA002804D019263C
:1049C00016E0132007B0F0BD6219E9B22046FFF7E8
:1049D00039FE06000CD10C35ADB2042168460180C9
:1049E0000194058169460398FFF74CFA060004D04C
:1049F0002046FBF77BFD00E013263046E2E700008F
:104A0000048BFF1F10B586B0044614220FA1684620
:104A1000FBF7BAFD12493020087078204870062054
:104A2000891C6A46A41D641E2378401E1B09D35CA2
:104A30000B70237800061B071B0FD35C4B70891C7F
:104A4000000EF0D10870064806B010BD3031323388
:104A5000343536373839414243444546000000007A
:104A6000B4D7FF1F0FB410B503AA0448029903F08E
:104A700095FA10BC08BC04B0184700004149021167
:104A800038B5034B00240FCB009402F0CFFC38BDA7
:104A9000DCD4021110B50C4603F0E2F9002804D072
:104AA00040882146FBF776FD10BD122010BD0000A6
:104AB00010B504480068C07C002801D0FBF770FDE9
:104AC00010BD00007C8AFF1F70B505460024064E0D
:104AD00004E020034019FBF769FD641C306800798D
:104AE000A042F6DC70BD00007C8AFF1FF0B5594E75
:104AF00099B03068FF2101724172817110214171BA
:104B00000121C171002425460922FF210A30FBF74B
:104B100009FC4E22002104A8FBF704FC04AF31E09D
:104B20003068210340181022694600F05BF94948BB
:104B3000009A01680868824216D1684600790A79AD
:104B4000904211D1684640794B7998420CD1684621
:104B50008079521E904225DAA04201D1022500E060
:104B60000325385588710BE00098401C1AD168461F
:104B70000079FF2816D168464079FF2812D13855B0
:104B8000641CE4B2334806683179A142C8D8042DC8
:104B900008D0044620688079FF2806D0012D04D073
:104BA000002025E0202019B0F0BD00250CE08D711B
:104BB00008682A038018102200F018F9002801D094
:104BC0001F20F0E76D1CEDB221680879401EA84255
:104BD000EDDC002008740879401E4874102088829B
:104BE0000120887427E03A5C002A03D0401CC0B240
:104BF0008142F8D881421ED9401E0818FBF7DCFC20
:104C000071740120B0740020024618A9189000F0B9
:104C100025F8002802D0212802D005E0189901E0EB
:104C20000121090322689182C0B2212803D0002803
:104C300001D02A20B7E7084A002023684100CB189A
:104C40008033DA822368401CC918CA824028F4DB0A
:104C50000020A8E77C8AFF1FFFFF0000F7B50124B2
:104C600084B000200E4627460190A7E0687CC0195A
:104C7000FBF7D8F9C8B2FF2C02D9FF3CA4B29BE0E5
:104C8000049A002A00D12974000301250390019899
:104C9000002803D000200190281906E0012C05D936
:104CA0002819811EFF2918DA401E85B203982901B0
:104CB000081802904A4804220068016802980818FF
:104CC000694600F08FF8049800280ED0012824D0FF
:104CD000022837D0062007B0F0BDFF200230401B6D
:104CE000201A84B20120019066E000998803800FA9
:104CF00004D0022802D0032859D109E0080D090385
:104D0000890F801C012947D10C214AE001214CE088
:104D100002980005000D30605BE000998A03900F57
:104D200004D0022805D0032841D156E0900F022874
:104D3000E4D1328888B292B29042DFD106990298CB
:104D4000086046E000988103890F04D002291FD033
:104D500003292CD13DE00103890F012903D03068DC
:104D600001240C300DE0000D0C21801CFBF75AF9DA
:104D7000002900D00121401884B20C203168604322
:104D800008183060069806990068401C08600EE01C
:104D90000103890F012901D0012408E0000D0C2135
:104DA000801CFBF73FF90029B0D1401884B26D1C7C
:104DB000ADB2FF2D00D86AE77F1CFFB20848056836
:104DC0002979B94200D951E70498002803D0012875
:104DD00003D000207FE721207DE725207BE700002E
:104DE0007C8AFF1F10B5FBF7EDFB10BD10B5FBF77C
:104DF000EFFBC0B210BD0022002913D0002811D053
:104E0000012806D04A799206920E4A71032805D0ED
:104E100007E04879C0221043487102E04020024375
:104E20004A7101221046704770B51248002500787B
:104E3000052108421BD02020FBF710FB0E4C002858
:104E4000A06013D020220021FBF76CFA2020FBF792
:104E500005FBE060002804D020220021FBF762FA65
:104E600005E0A068FBF706FB0020A060132528469C
:104E700070BD0000258BFF1F988BFF1F70B50025AC
:104E8000094E2C460E20604380190622FF21FBF7B5
:104E9000FDFA002801D16D1CEDB2641CE4B20A2CAD
:104EA000F0D3284670BD00006CCAFF1F10B50D4A34
:104EB00003460B4C12201268A14209D1002A04D0EB
:104EC0001078984202D1FBF789FB10BD032010BD7A
:104ED000034B5B1C9942FAD1002AF4D110BD0000AB
:104EE000FEFF00008C8BFF1F0246094B10B501200E
:104EF000D21807D0012A01D0002010BD8A6812788C
:104F0000002AFAD08868007800F06CFE10BD00001E
:104F1000F5DFFFFF002909D0012807D14979890968
:104F20008901C02902D0402901D002207047032006
:104F30007047FFB500200E4608701AE01C5C401C4C
:104F4000C5B2002C17D02819904214D85F5D6D1C93
:104F5000EDB2384600F09BFE002806D0641EE0B299
:104F6000307000998F4202D1581904B0F0BD401939
:104F7000C0B29042E2D30020F7E7000010B5044C25
:104F80002068002803D0FBF775FA0020206010BDD0
:104F9000848BFF1F70B5104D8400E868005900280D
:104FA00019D0006A002801D0FBF764FAE8680059BC
:104FB000406A002801D0FBF75DFAE8680059806A72
:104FC000002801D0FBF756FAE8680059FBF752FABF
:104FD000E9680020085170BD888BFF1F10B5044C94
:104FE0006068002803D0FBF745FA0020606010BD20
:104FF000888BFF1F011E044805D1044989780029C8
:1050000001D00248801D70472CE4FF1F248BFF1F36
:105010000148807870470000248BFF1F01484068DA
:10502000704700001CE4FF1F0148806870470000C3
:105030001CE4FF1F0148C068006870471CE4FF1FA4
:1050400010B50748C0680168491C01600548007830
:10505000FF2803D001218903FBF72CF810BD0000C5
:105060001CE4FF1F248BFF1F02484068002800D06B
:1050700001207047808BFF1FFFB581B00F460D9E4A
:105080000A9D039802F0D4FE040042D00198002843
:105090003FD120791021084320710499490702D596
:1050A0000221084301E0FD21084020710B992846A8
:1050B00008430C9908433043207902D00421084367
:1050C00001E0FB2108402071002E06D0306910223B
:1050D00020623146A018FBF747F8002D01D0002FC1
:1050E00005D00B98002814D0012F08D011E0606A79
:1050F000002801D0FBF7BEF91C21284606E0606AB3
:10510000002801D0FBF7B6F91C210B98FBF76CFACD
:1051100060620398274C8700E068C059002846D099
:10512000002D11D0006A002807D11C20FBF796F94A
:10513000E1680028C959086206D0E0681C22C059FD
:105140002946006AFBF710F80C98002813D0E06895
:10515000C059406A002807D11620FBF77FF9E168A3
:105160000028C959486206D0E0681622C0590C9937
:10517000406AFAF7F9FF002E13D0E068C059806A40
:10518000002807D11420FBF769F9E1680028C95904
:10519000886206D0E0681422C0593146806AFAF766
:1051A000E3FF0B9B049A0399019806F0ABF805B056
:1051B000F0BD0000888BFF1FF3B581B0019802F0AD
:1051C00037FE050029D00E20FBF778F9040024D023
:1051D0002620FDF74BFE060000D12E78D02020704F
:1051E000002767700B20A0700622E91DE01CFAF76B
:1051F000BBFF019860810298C1070120002901D0FE
:10520000207300E027730299890701D5607300E0DD
:105210006773F0B22146FBF733F9FEBD10B5818804
:105220001F4B0124CA1A994237D011DC1D4BCA1AF0
:10523000994219D007DC1C4A8A1810D0022A1ED0C5
:10524000032A29D11BE0472A27D0482A24D124E069
:105250001300FAF759FF0621222222222221806818
:10526000007800F0A9FC08E080688278417812029A
:10527000891889B2007800F02BFD04460DE0094A38
:10528000921E914201D1012200E000228068017843
:10529000104600F005FD00E00024204610BD00008F
:1052A000532000000A200000FADFFFFF70B51A4DFE
:1052B0001A4A0146002628781268194C01290CD098
:1052C000002A09D017490978490705D50221FAF7BC
:1052D0002DFF6680FFF752FE70BD6188002903D064
:1052E000114B1B78002B05D0002AF5D01078FDF764
:1052F00093FD70BD3C2902D33C39618070BD022111
:10530000FAF714FF62887D20C0004243022128780A
:10531000FAF712FF668070BDB58BFF1F848BFF1FED
:10532000988BFF1F258BFF1F278BFF1F10B50E4A81
:105330000124801810D001280BD0062810D00B4A69
:10534000D04203D1084600F047F900E0002420468F
:1053500010BD00F06FFCFAE7887800F08DF8F6E7F2
:10536000887800F005F8F2E7F3DFFFFF0E20FFFF7B
:1053700008B5002805D000210B460A46009100F030
:105380003BFB08BD08B5418900910389C28881882B
:10539000C07800F031FB08BDF0B504468088A1213B
:1053A00089004843304987B009684018FF30FF3012
:1053B0000230A1794167002C54D02C4D6868002838
:1053C00023D006782A480068002804D041680029C4
:1053D00001D0002088472146E07908310591FFF788
:1053E00099FDE0710246277D638A218AE089019058
:1053F00002A88AC0A0880090E0783146059B05F09D
:10540000F9FFE078002802D00DE01A48D9E7E079EA
:10541000E2896B46059907C3A379A188012230462A
:1054200002F0B4FCE0706868002811D0FFF7D6FDE8
:10543000287800280CD06978FFF72CFB002807D0CB
:10544000E078A2880346297806F001F80020287049
:10545000A0881721FDF79AFAA088FEF7ABFCA08878
:10546000FEF7DCFC07B0F0BD3409FF1F888BFF1F7F
:10547000B88BFF1F248BFF1F00B585B0002810D00C
:1054800009490B68002B0CD0002101910291039176
:1054900004910091DA7819781B1D05F0ABFFFFF736
:1054A0009DFD05B000BD00008C8BFF1F70B504464C
:1054B0000025808802F0BCFC002803D00578A08875
:1054C00002F03EFD134E3078002808D0854206D108
:1054D0007178FFF7DFFA002809D000203070002D26
:1054E00005D0A379A288A078294605F0B0FFA0884E
:1054F000F26881005158002901D0FFF74BFDA088C8
:105500001721FDF743FAA088FEF754FCA088FEF7A8
:1055100085FC70BD888BFF1F70B58288294D0124E2
:10552000531B2949AA4242D019DC284D531BAA42D9
:1055300018D00BDC264BD21826D0254B1033D218AE
:105540001ED0032A17D0042A39D10BE0012B09D031
:10555000022B07D0032B21D0042B30D11AE0433B80
:10556000072B2CD8496800292AD00968002927D0A0
:105570008847044624E08068007800F0DDF81FE0EA
:10558000806800F05BF9F4E78068411C007800F067
:1055900033F9EEE783681B78002B11D08968002966
:1055A0000ED00B6808E0014610469847E1E709492C
:1055B0000968002904D04B68002BF4D100E00024D6
:1055C000204670BD0E200000B48BFF1F0820000095
:1055D000F7EFFFFF908BFF1F7FB50546407912283C
:1055E00025D12C460834EB89AA8969892889FBF7DB
:1055F00001F80026002804D02520FDF737FC0028FC
:1056000016D00120694688812979688803AAFEF7A7
:105610005BFB68468089002809D1E08801960296E4
:105620000090A388628821886888FBF791F87FBD85
:1056300068468681E8E7000010B5094CA17800298A
:105640000CD001460622A01DFAF78EFDA11DA07800
:10565000FFF7D1FBA01DFBF7B1F810BD002010BD76
:10566000248BFF1F1CB52F49037801240A68912B56
:1056700002D0A22B2ED13EE04178052909D00E2977
:1056800004D00F2908D03E2924D115E0FFF744FFAC
:1056900010E0FFF70BFF3AE001468088224B01241F
:1056A000C31801D0062B15D1002A30D05268002A29
:1056B0002DD0904704462AE081780124032917D091
:1056C00004DC012911D0022904D105E015291ED0DE
:1056D00016291CD000241AE014498968002916D024
:1056E0004968002913D0884711E0FFF755FE0EE006
:1056F000FFF748FE0BE00E490978042909D0002A7B
:1057000005D05268002A02D001460A489047204638
:105710001CBD00216A46118001794088FEF7BCFA61
:10572000F5E70000908BFF1FF3DFFFFFB48BFF1F37
:10573000258BFF1FFFFF0000F8B5164F0646BD1F63
:105740002878FF2814D00A20FAF7B8FE04000FD0FA
:10575000D020207066700820A070A878E070062223
:105760003946201DFAF700FD21462878FAF788FE11
:10577000E87801280DD108480068002803D0806827
:10578000002800D080470648044A04210078FAF730
:1057900047FEF8BD2A8BFF1FB88BFF1F60EA000091
:1057A000B58BFF1FF8B505000BD0E878002812D0A4
:1057B0006C68002C0FD02420FDF758FB47B2002660
:1057C00014E00C480068002805D0002000F088F89C
:1057D000002000F081F9F8BD28200157B94202DB12
:1057E000204600F0A5F8761CF6B22934E878B042DD
:1057F000F2D8F8BD808BFF1F70B500240546002845
:1058000005D1002903D006220B48FAF7ADFC0A485F
:1058100010380178012907D10124002D06D000217C
:105820000170284600F0C4F8204670BD02210170C6
:10583000FAF7E6FEF8E700002CE4FF1F10B500249D
:10584000002813D002780B49002A03D14288CA826B
:1058500002790A760A78022A08D102780124002AFD
:1058600006D000220A70007800F0A2F8204610BD91
:105870000322F7E71CE4FF1F01498860704700001E
:10588000B48BFF1F0149886070470000888BFF1FA1
:105890000149486070470000B48BFF1FF8B5074608
:1058A0000E46084602F0C4FA040018D02620FDF780
:1058B000DDFA050000D125780620FAF7FFFD040087
:1058C0000DD006220021FAF72DFDD0202070677040
:1058D0000E20A070A680E8B22146FAF7D1FDF8BDEF
:1058E000F8B5124C05462068002600281CD0082078
:1058F000FAF7E4FD00270146002806D10820FAF750
:10590000DDFD1325014600280AD0D02008704D7017
:1059100001208870CE704F6020680078FAF7B0FDE3
:105920002068FAF7A7FD2760F8BD0000808BFF1FF5
:10593000F8B51D4E05463068002829D0287A143065
:10594000FAF7BCFD040024D0D02020700027677037
:105950000D20A0702878E0702820405DE072687803
:1059600020710622A91C601DFAF7FEFB2A7A227319
:10597000002A07D020461430294609312061FAF761
:10598000F3FB00E02761306821460078FAF778FDE4
:10599000F8BDFAF79BFB05480178002901D0491EA4
:1059A0000170FAF79FFBF8BD808BFF1F988AFF1FDD
:1059B00070B50F4D06462878FF2818D00E20FAF74C
:1059C0007DFD040013D0D020207066700020A070F0
:1059D00006220849E01CFAF7C7FB06481038C18ABE
:1059E0006181007E207321462878FAF749FD70BD59
:1059F000248BFF1F2CE4FF1FFFB581B01E46174606
:105A00000D460C20FAF75AFD040013D0284602F088
:105A10000FFA002810D00078D02121700199617010
:105A20000721A170A580E78026810A99618121461E
:105A3000FAF726FD05B0F0BD0048ECE7248BFF1F08
:105A400070B50D4D044628680E46002812D0062079
:105A5000FAF734FD010009D0D02008704C70032003
:105A600088708E8028680078FAF70AFD002C01D033
:105A7000FFF784FA70BD0000848BFF1FFFB581B073
:105A80001F460E46084602F0D3F9050022D010202A
:105A9000FAF714FD04001DD010220021FAF742FC91
:105AA0002620FDF7E3F9002800D12878D0212170C5
:105AB000019961700F21A170A6800399217267720C
:105AC0000A99A1720B99E1720C99E160C0B221466A
:105AD000FAF7D6FC05B0F0BD10B504462320FDF75B
