:020000041102E7
:1000000003B40148019001BDFD11000003B4014893
:10001000019001BD7511000003B40148019001BDBC
:100020001130000003B40148019001BD090E000029
:1000300003B40148019001BD53B9000003B4014865
:10004000019001BD29B6000003B40148019001BD33
:100050007582000003B40148019001BDFD5C010000
:1000600003B40148019001BD85C1000003B40148FB
:10007000019001BD61D5000003B40148019001BDAC
:100080001BBA000003B40148019001BD3DBA000055
:1000900003B40148019001BD5944000003B4014874
:1000A000019001BDB95E000003B40148019001BD9B
:1000B000810E000003B40148019001BD0D52010002
:1000C00003B40148019001BDC1EC000003B4014834
:1000D000019001BD75A9000003B40148019001BD64
:1000E000C93E000003B40148019001BD9DA9000074
:1000F00003B40148019001BDB30E000003B40148F0
:10010000019001BDC963FF1F03B40148019001BD07
:100110006189000003B40148019001BD1907010085
:1001200003B40148019001BDA9D8000003B40148FF
:10013000019001BDB352010003B40148019001BD1B
:100140008B52010003B40148019001BDC1A500001C
:1001500003B40148019001BD9D6A000003B4014849
:10016000019001BD116E000003B40148019001BD72
:10017000E94C010003B40148019001BDF97F000082
:1001800003B40148019001BD7912010003B4014894
:10019000019001BD757A000003B40148019001BDD2
:1001A000F143000003B40148019001BDC1430000C8
:1001B00003B40148019001BD6944000003B4014843
:1001C000019001BD8BB9000003B40148019001BD4D
:1001D000D1D4000003B40148019001BD01890000A1
:1001E00003B40148019001BDC53F000003B40148BC
:1001F000019001BDC95C010003B40148019001BD3B
:10020000CD4C010003B40148019001BD09B80000C4
:1002100003B40148019001BD2DFC000003B4014866
:10022000019001BDEDB8000003B40148019001BD8B
:1002300039B8000003B40148019001BD6DFE000013
:1002400003B40148019001BDF9FD000003B4014869
:10025000019001BDA1E6000003B40148019001BD79
:100260009946000003B40148019001BD1547000004
:1002700003B40148019001BDB558FF1F03B4014804
:10028000019001BD75F0000003B40148019001BD6B
:10029000F5D5000003B40148019001BDC5F0000090
:1002A00003B40148019001BD01EC000003B4014812
:1002B000019001BD6160000003B40148019001BDDF
:1002C00063EC000003B40148019001BD05FF00008C
:1002D00003B40148019001BD3161000003B401483D
:1002E000019001BD59E4000003B40148019001BD33
:1002F000D5E4000003B40148019001BD01BF000036
:1003000003B40148019001BD21F1000003B401488C
:10031000019001BDCDF1000003B40148019001BD81
:10032000B9C0000003B40148019001BD4DF40000C4
:1003300003B40148019001BDC1E2000003B40148CB
:10034000019001BD154D010003B40148019001BDAC
:100350008DE3000003B40148019001BDA5FD00003C
:1003600003B40148019001BD25E7000003B4014832
:10037000019001BD3148000003B40148019001BD66
:10038000F1FA000003B40148019001BD79F40000C6
:1003900003B40148019001BD77F1000003B40148A6
:1003A000019001BD5511010003B40148019001BD48
:1003B0005D8EFF1F03B40148019001BDE9F6000006
:1003C00003B40148019001BD75F8000003B4014871
:1003D000019001BD19FA000003B40148019001BD6C
:1003E000A965FF1F03B40148019001BDF164FF1F1F
:1003F00003B40148019001BDA93C000003B40148C9
:10040000019001BD953FFF1F03B40148019001BD5C
:100410002947FF1F03B40148019001BDADAE0000A4
:1004200003B40148019001BD456B010003B40148CC
:10043000019001BD1D4B010003B40148019001BDB5
:100440004551010003B40148019001BD595201001A
:1004500003B40148019001BDF54E010003B4014809
:10046000019001BD434D010003B40148019001BD5D
:100470003D4B010003B40148019001BD014C010056
:1004800003B40148019001BDF94C010003B40148D7
:10049000019001BD3522000003B40148019001BD67
:1004A000691F000003B40148019001BD4D1A00000E
:1004B00003B40148019001BD5D17000003B4014879
:1004C000019001BD5125000003B40148019001BD18
:1004D000594F010003B40148019001BD8D12000085
:1004E00003B40148019001BD4D1F000003B4014851
:1004F000019001BD5522000003B40148019001BDE7
:10050000DD52010003B40148019001BD1D4D010001
:1005100003B40148019001BD017F000003B401480C
:10052000019001BDE117000003B40148019001BD35
:100530007918000003B40148019001BDD9490100B8
:1005400003B40148019001BDE928000003B401484B
:10055000019001BD5549010003B40148019001BD5E
:100560000131FF1F03B40148019001BD412AFF1F63
:1005700003B40148019001BD7546FF1F03B4014853
:10058000019001BD4943FF1F03B40148019001BD23
:100590004531FF1F03B40148019001BD0331FF1F26
:1005A00003B40148019001BDA12AFF1F03B4014813
:1005B000019001BDC94A010003B40148019001BD89
:1005C000B11F000003B40148019001BDC92600001D
:1005D00003B40148019001BDE122000003B40148C9
:1005E000019001BDED4A010003B40148019001BD35
:1005F000A54F010003B40148019001BD85520100DF
:1006000003B40148019001BD4936FF1F03B40148FE
:10061000019001BDB539FF1F03B40148019001BD30
:100620006D48FF1F03B40148019001BD350E000065
:1006300003B40148019001BD1949FF1F03B40148EB
:10064000019001BDC949FF1F03B40148019001BDDC
:100650003519000003B40148019001BDBD18000028
:1006600003B40148019001BD311A000003B40148F0
:10067000019001BD9928000003B40148019001BD1B
:10068000291C000003B40148019001BD192200009B
:1006900003B40148019001BD851F000003B4014867
:1006A000019001BD5147010003B40148019001BD13
:1006B000A946010003B40148019001BD11470100A2
:1006C00003B40148019001BD7926FF1F03B401481E
:1006D000019001BDC726FF1F03B40148019001BD71
:1006E0009944FF1F03B40148019001BD814EFF1FD3
:1006F00003B40148019001BD3948FF1F03B401480C
:10070000019001BD0548FF1F03B40148019001BDE0
:10071000BB29FF1F03B40148019001BD9529FF1FAC
:1007200003B40148019001BD951BFF1F03B40148AC
:10073000019001BDC51AFF1F03B40148019001BD1E
:10074000A91AFF1F03B40148019001BDB11BFF1F8F
:1007500003B40148019001BD810E000003B40148BB
:10076000019001BDBD2BFF1F03B40148019001BDE5
:100770000151FF1F03B40148019001BD1DBC0000E1
:1007800003B40148019001BD6DBC000003B40148F1
:10079000019001BDE586FF1F03B40148019001BD32
:1007A000055E000003B40148019001BD0539FF1F3B
:1007B00003B40148019001BD156B010003B4014869
:1007C000019001BDE548000003B40148019001BD5E
:1007D0002951010003B40148019001BDD91B00005B
:1007E000FEB508AF70CF6F4670C700F041F8024900
:1007F000FFF706FC0020FEBD1320000038B50446BC
:1008000000F098FA0146684601704470210A817030
:100810006A4603210248FFF7F9FB002038BD0000BB
:100820001B20000038B5044600F0AAFA01466846CD
:1008300001704470210A81706A4603210248FFF763
:10084000E5FB002038BD00001A20000008B5002894
:1008500002D000F09DFC00E01220694608706A4654
:1008600001210248FFF7D2FB002008BD052000004F
:10087000FFB50446354F0001C019807981B0154697
:10088000022802D00C2005B0F0BD314A881F9042EA
:100890002ED2062D2CD3501D854229D88D4227D328
:1008A000FF220499F432914222D80A990A291FD3CF
:1008B00081421DD82046FFF7AFFB0028E3D1A120DD
:1008C0008000444323480068261834468034E07B87
:1008D000002802D0E07A00280CD0207D012809D021
:1008E0000A98C1000498401C68434000814203D824
:1008F0001220C8E73A20C6E77878174F01280AD9AE
:100900006804B988000C884203D3FFF78BFB0029E9
:1009100009D03B20B7E7BD80F08E10494000097830
:10092000FFF780FBF8600220207600206083308F84
:100930000021C01DE082A5830498E0830A982084EA
:100940003046FFF775FB00209DE70000300DFF1FCC
:100950007B0C00003409FF1F300EFF1F1409FF1F1E
:10096000FFB583B0DB480090DB48129E02780C9DF7
:100970000E9B1399012A20D000270770D7480478CE
:10098000092C78D00A2C76D00B2C74D00C2C72D079
:100990000D2C70D0039AD248121F824246D2049A7C
:1009A000121F824242D2049A039882423ED805988E
:1009B000002805D0012839D102E00C2007B0F0BD95
:1009C000284333D00698002805D0012803D00328F7
:1009D00001D002282AD10D98002805D0012803D083
:1009E000032801D0022821D1B1421FD3BD49981F4D
:1009F00088421BD20F98062818D301461920C0013F
:100A0000814213D8994211D3FF221099F4329142B6
:100A10000CD811990A2909D3814207D8CA00109825
:100A20000F99401C48434000824201D81220C5E77C
:100A3000AD48AE49027809788A4201D30720BDE764
:100A4000A948AB4E407800280CD00F98B1884004DC
:100A5000000C884203D3FFF7E5FA002902D03B20BF
:100A6000ACE708E00621082C01D0072C06D1A148EC
:100A70000278002A01D02120A0E70170FFF7DEFAFA
:100A8000040058D098484178491C41702046FFF72F
:100A9000DBFA20460021FF3081308B001B19FF3329
:100AA0000133C26A491CDA660829F6DB00218B0093
:100AB0001B19FF338133C26A491CDA600829F6DB4F
:100AC0002079FFF7C7FA002081000919FF310131B1
:100AD000401CCF660828F7DB002081000919FF3190
:100AE0008131401CCF600828F7DB834821790174ED
:100AF00003994181049981810599C1737F4900203F
:100B000023180A5C6033401CC0B25A710528F7D321
:100B10002146653120460191FFF7A2FA274620378A
:100B2000F87F02280BD22046FFF7A0FA6E484178E2
:100B3000491E41707AE76F48077009203EE7704808
:100B4000002D0BD02978417069788170A978C17027
:100B5000E97801712979417169798171664A0D9944
:100B600011700D9900297DD0664A634913784B7046
:100B700053788B709378CB70D3780B7113794B715A
:100B800052798A71069901700D980099C007400E3C
:100B900008430699C907090E01430291FFF76CFA51
:100BA000E062FFF76FFAA0624F48407801287AD0E0
:100BB000B088E08630896087F08820874E4E707C50
:100BC00038745148C0688030818DB974008EA08619
:100BD000FFF75EFA0C21FFF725FA20466030491D29
:100BE000009081762520B073012030724748029929
:100BF0008180801DFFF752FA002D0DD043492A78DD
:100C0000881D0A736978C171A9780172E978417207
:100C1000297981726979C1723C48214612300422D7
:100C20002831FFF741FA39482146163003222C318A
:100C3000FFF73AFA3549B87C48760846397D81761F
:100C4000797DC176014620462230027D0A77427DB9
:100C50004A773A7E8A777A7ECA771A31027E8A711B
:100C6000407E00E01DE0C871084608300522019969
:100C7000FFF71AFA0098397C807E4901C006C00E41
:100C800008432249213188711448007800281DD07A
:100C90001F48012189030078FFF70CFA00208DE638
:100CA00001E01C4A61E70F98E0861199618710996D
:100CB0002187B080208FF080608F3081E08E0B49DB
:100CC00040000978FFF7AEF9F06077E72079FFF789
:100CD000F7F9E3E7052200001909FF1F1C09FF1FB0
:100CE000FD3F00007B0C0000300DFF1F1409FF1FAB
:100CF000300EFF1F2309FF1FD40BFF1F6009FF1FCA
:100D00007809FF1F6B09FF1FCC99FF1F6C11FF1F94
:100D10001B09FF1F6509FF1F70B50C460546FFF74D
:100D2000D5F921462846FFF7D7F90446FFF7DAF947
:100D3000204670BD10B5114AA121890012684143B7
:100D40008C189D2189000959012901D00C2010BD62
:100D5000FFF762F90028FAD1E01DF9300279062187
:100D6000012A06D041710D212046FFF761F90020CC
:100D700010BDFF20213001550221F5E73409FF1F86
:100D800070B50D46134AA1218900126841438C18A1
:100D90009D2189000959012901D00C2070BD002D29
:100DA00016D0FFF739F90028F8D110210B1A2A5C68
:100DB0001B19E033401CC0B29A711028F6D30121F0
:100DC000F820015505212046FFF732F9002070BDBB
:100DD000122070BD3409FF1FFEB5089D099C1746FF
:100DE000002874D0002972D0002C02D0012C02D02F
:100DF00003E02A2201E0FF220732921D0192354AC8
:100E00000E461770344A1060344803703448057039
:100E100034480470002446E0A12080002546454364
:100E20002D48A121006889002818FFF761F92A4898
:100E30002D49006862002818FF308130C662019891
:100E4000361800208854511848702649097800291E
:100E50003BD0FF211131009121461C204143224803
:100E6000002220300D182A764254E0B20099FFF794
:100E700045F9686000202872E0B201220099FFF76E
:100E80003DF9E86000202874E0B202220099FFF7E3
:100E900035F968616968002919D0E968002916D018
:100EA000002814D0641CBC42B6DB00200F4D104A51
:100EB000014683009C186580401CD154C0B261700B
:100EC0001028F6D30020FEBD01E03421C3E7122034
:100ED000F9E700001409FF1F3409FF1F1509FF1F60
:100EE0001609FF1F1709FF1FB8EAFF1FFFFF0000C9
:100EF00098ECFF1FF8B5714D0028AA7916D0012A89
:100F000001D0032A12D16E490B78FF2B0ED14B78FA
:100F1000FF2B0BD18B78FF2B08D1CB78FF2B05D182
:100F20000B79FF2B02D14979FF2930D065490B7825
:100F3000012B1DD00026644C0E702178092931D078
:100F40000A292FD00B292DD00C292BD00D2929D0DF
:100F5000052927D0062925D0A97B00290AD00129F7
:100F600008D0032906D0022904D004290FD101E0BA
:100F70000C20F8BD002A05D0012A03D0022A01D096
:100F8000032A04D1514F002875D0012801D0122026
:100F9000F8BDA888012805D0FFF798F82078002828
:100FA00002D01AE02120F8BDA87B0300FFF7ACF8BF
:100FB000050408100C082400012020701F200AE0FE
:100FC00002202070202006E004202070222002E071
:100FD000032020702120FFF79DF820782821012888
:100FE0000DD002280BD0042809D0032807D00728E9
:100FF0000ED008280CD01BE026701E20EBE73448EA
:1010000006602975FFF78CF8002820D0AE800FE02D
:101010003048C068808D80060AD52F480278002AA3
:1010200006D1AA7B032A06D0022A04D0002A02D0C5
:10103000FFF758F8B6E7022202702975140321461B
:101040003878FFF773F821463878FFF733F8012036
:10105000A88022480078002809D021480121028870
:101060007D20C0004243C9033878FFF765F8FFF7D9
:1010700039F820E0FFE7FFF729F8AE80207807284D
:1010800008D0082806D026701648FFF75BF81E2007
:10109000FFF740F810480178002905D006700121BB
:1010A00049033878FFF742F8FFF71CF80121C9031C
:1010B0003878FFF73BF80020F8BD0000A60BFF1FB3
:1010C0006B09FF1F1A09FF1F1C09FF1F1B09FF1FC8
:1010D0004809FF1FCC99FF1F2309FF1F2109FF1F8C
:1010E0002C09FF1F00100040FFB585B016460D46C5
:1010F0000446119FFEF7EAFF154829460078049040
:101100002046202C00D22020202900D220210EAA07
:101110002CCA009201AAA8C23246089BFFF718F811
:1011200005460C480A49448004980870012E01D0F5
:10113000042E08D1084880230078C101074882881E
:101140009A4311438180FEF7CDFF284609B0F0BDD8
:101150001C09FF1FA60BFF1F7809FF1F6C11FF1F43
:1011600010B5FB2908D8084B9A4205D81B2903D390
:10117000FF2349339A4201D2302010BD034B19821C
:101180005A82FEF7EBFF10BD480800008410FF1FD5
:10119000F8B53249097801292AD0022928D0032933
:1011A00026D0042924D0052922D0062920D02C4974
:1011B000097802291CD004291AD0012918D0032942
:1011C00016D0062914D0072912D00178254C8C4658
:1011D0002170467866708378A370C278E2700179D6
:1011E00021714079204D6071AF79012F02D008E064
:1011F0000C20F8BD6746EF712E726B72AA72E9720D
:1012000028730622E91D1948FEF7AEFF0622E91DE4
:101210001748FEF7A9FF1748017801290BD121785B
:10122000417061788170A178C170E1780171217994
:101230004171617981711048017801290BD12178C0
:10124000417061788170A178C170E1780171217974
:101250004171617981710020F8BD00001C09FF1FF8
:101260002309FF1F6B09FF1FA60BFF1F7211FF1F32
:101270008A13FF1FBC0BFF1FD40BFF1FF8B584465A
:1012800057480F460178012914D00026554D0670A5
:101290002878092838D00A2836D00B2834D00C28D2
:1012A00032D00D2830D0504C607A002804D001286C
:1012B0004BD101E00C20F8BD2078002805D0012892
:1012C00003D0022801D003283FD162894748111F6B
:1012D00081423AD2A1890B1F834236D2914234D83F
:1012E000002F01D0012F30D1604600284FD00128B7
:1012F0002BD1207A012807D0FEF7E8FE20780128BC
:1013000004D0032802D014E02120F8BD3848017829
:10131000FF290ED14178FF290BD18178FF2908D10F
:10132000C178FF2905D10179FF2902D14079FF2831
:1013300009D0287825210126002808D007280ED0BA
:1013400008280CD014E0FEF7CDFE1220F8BDE6719F
:10135000E773A17405202870FEF70CFF13E0254801
:10136000C068808D400603D523480278002A02D049
:10137000FEF7B8FEC8E7A1740670204801210903F2
:101380000078FEF797FE2672FEF7ACFE25E0FEF72A
:101390009DFE2878052804D007280AD0082808D000
:1013A0000FE02E701648FEF7CDFE1E20FEF7B2FEAF
:1013B00007E0114801210670104809030078FEF784
:1013C000B5FE26725820FEF7DBFE0A480670FEF7CF
:1013D00089FE0C4801680129FCD00020F8BD0000FE
:1013E0001909FF1F1C09FF1FBC0BFF1FFD3F000059
:1013F0006B09FF1FCC99FF1F2309FF1F1B09FF1F4C
:10140000001000409809FF1F38B51C46049B00934C
:101410002346FEF7BBFE002812D10B49002C0C70AE
:101420000FD0022C0DD0094A13784B7053788B7073
:101430009378CB70D3780B7113794B7152798A7191
:1014400038BD034AF0E70000BC0BFF1F6B09FF1F0C
:101450006509FF1FFFB581B0044602981F46164676
:10146000002814D0002E12D0002F10D02046FEF7F6
:10147000D3FD00280CD1A120800044432C480068F3
:101480002418E51DF935287B002803D00EE0122032
:1014900005B0F0BD2749002023180A18FF33013397
:1014A000401C5278C0B25A730828F5D3687BC00735
:1014B00038D0002002992218095CC032401CC0B20A
:1014C00011700828F6D320463178C0300172717847
:1014D0004172002010210B1A3A5C1B19E033401CAA
:1014E000C0B29A711028F6D32046B830FEF754FEE9
:1014F0002046AC30FEF756FE0C210F48FEF758FE92
:1015000000207B2108552146E031C8750876A621C8
:10151000095D012908D0287103212046FEF788FDC6
:101520000020B5E71120B3E7012028710A21F4E774
:101530003409FF1F480EFF1F3811FF1FFFB50D466E
:10154000A12189004843234981B009681E464418F7
:10155000002D09D0FF20D930015B0398814203D3CD
:10156000002E04D0012E02D0122005B0F0BDE0788C
:1015700000280AD00520C00127181748F9780078FC
:10158000801C814203D30720EFE70220EDE7FEF73E
:101590009DFDF878A91E401CF87003980870002E75
:1015A00010D00120487020467C30091FFEF706FE4F
:1015B000FEF798FD09480078082805D0072803D0D1
:1015C0000020D2E70220EDE700212046FEF7FCFDD7
:1015D000F6E700003409FF1F1509FF1F1C09FF1F54
:1015E000F8B50F4E307A002818D10E4CE0690E4F36
:1015F000C005C50F02D1E0693843E06104210B4802
:1016000000F016F809480421103000F011F8002D00
:1016100002D1E069B843E06101203072F8BD0000FA
:10162000CC99FF1F00F0004000010000D8ECFF1F24
:10163000F3B50746104881B0C169104A1140FF3127
:101640000931C161002613E000252C461120FEF768
:10165000C1FD0948406A8007800F61008840284327
:10166000641CE4B20546102CF0D301C7761CF6B218
:1016700002988642E8D3FEBD40F0004000FEFEFF27
:10168000F0B500248BB00D460646102902D9012082
:101690000BB0F0BDFFF7A4FF1F4900200A5C401CFF
:1016A0001419C0B21028F9D3002C03D0102D03D97F
:1016B0000B20EDE70E20EBE71848174C00230068DD
:1016C00002A91034E25CC75C7A40CA545B1CDBB2EE
:1016D000102BF7D306AA1048FEF782FD102D00D973
:1016E00010252A4606A93046FEF73EFDFEF77EFD90
:1016F000216840182060FEF779FD6168401860603D
:10170000FEF774FDA1684018A060FEF76FFDE16868
:101710004018E0600020BBE7D8ECFF1F389AFF1F9D
:1017200070B50446FF30FF300230406F0D4601288F
:1017300012D1282D10D1A420005BE188401A1D4948
:1017400080B2884208D321466A3105220E46481FDE
:10175000FEF752FD002818D01749002082005218C9
:101760005278002A16D0401CC0B21028F6D3134875
:10177000012189020078FEF79DFC207901011048C3
:101780000918897902290DD00FE031462046FEF76D
:1017900067FC70BD80002379421853800D540120EE
:1017A0005070E4E74178491E41702046FEF72AFD5B
:1017B00070BD0000FF7F000098ECFF1F1B09FF1F9A
:1017C000300DFF1FF0B505468DB0A0300B902846B8
:1017D000FF300E300390092080012F18E81DFF30E4
:1017E000FA300890E0380790C030EE1DF9362C46EC
:1017F00080340990F0E0E07A0B2870D009DC030017
:10180000FEF782FC0B37551C6EEAEABFF0EFEED60E
:10181000EA0016286FD008DC0C286DD011286CD097
:1018200014286BD01528E5D166E1182867D01A284E
:101830007CD01B287BD0FE28DCD119E2A07A0128BD
:1018400003D02846FEF7E4FC19E0FA488078002827
:1018500004D02846FEF7E2FC162106E0608A401E0E
:101860000004000C60827CD00CE22846FEF7DCFC11
:10187000F6E1A07A012804D02846FEF7DBFCA0722E
:1018800000E2EC48807800280ED0207E40002076D0
:10189000608B40006083A08B4000A083208C0001FF
:1018A00020840120207510E02889E18A13E0A07AC5
:1018B000012803D02846FEF7C3FCE0E7DD48807826
:1018C000002806D00B99012088702846FEF7A6FC58
:1018D00082E02889A18C8842C6D12821C5E784E00E
:1018E000A07A01280CD02846FEF7B0FCA072002098
:1018F0007072B072C6E111E1C3E055E1E9E027E1A1
:10190000CC48C078002801D000202071707A0128CE
:101910000ED0B07A012813D0F07F0128D5D0608A8C
:10192000401E0004000C60826CD0ABE167E189E1ED
:101930000020E06730600B9901208871062148E0A3
:101940002846FEF76BFC0B990020887101207B2153
:101950004855207170790628287906D000221A216E
:1019600000E03BE1FEF778FC36E000220621F7E7D5
:101970002221FEF777FC31E100222221FEF76CFCE8
:101980002CE1A07A012806D02846FEF771FCA0724F
:101990000020B07176E1B0790128C0D12846FEF769
:1019A0003DFC00203072F0717072B071B07213E0C3
:1019B000A07A012806D02846FEF760FCA07200201D
:1019C000F0715FE1F0790128A9D10B9900208871AD
:1019D0000B212846FEF758FCE07B002803D00AE7DD
:1019E00040E014E03EE10DB0F0BDA07A012803D044
:1019F0002846FEF74FFC42E78E48C07800288ED07C
:101A00000321E6E7307901282879B5D1B0E7A07A3B
:101A1000012811D0884900202B180A18FF33013300
:101A20005278401C5A730828F6DB2846FEF738FC2B
:101A3000A0720020307325E1307B012806D0608A37
:101A4000401E0004000C608206D01BE129790020B2
:101A5000039AFEF72BFC38E729792220039AFEF738
:101A600025FCBBE0A07A012803D02846FEF724FC21
:101A700005E77048C078002800D1EFE601203073F8
:101A800023E7A07A012805D00120F0752846FEF74B
:101A900019FCF4E6707D012806D0608A401E00041F
:101AA000000C60820CD0EDE0B07D0128D3D1B08B6A
:101AB0000090738B327E29790020FEF709FC04E741
:101AC000B08B0090738B327E29792220FEF700FCC8
:101AD00084E0A07A012807D02846FEF7FFFBA07219
:101AE000099900204874CDE05248C0780028C4D03D
:101AF000099901204874E8E6A07A012803D0284615
:101B0000FEF7F2FBBBE64B48C0780028B5D0099938
:101B1000002008742879FEF7EDFBD6E6A07A0128AC
:101B200007D02846FEF7ECFBA07208990020087247
:101B3000A8E04048C07800289FD00899012008728A
:101B40003E484079012886D1089900200872BCE6F9
:101B5000A07A012803D02846FEF7D8FB8FE6354847
:101B6000807800281DD00798007B002803D10798B3
:101B7000407B002808D007990120087408990020AC
:101B800008720899C871A0E60998417E0798017308
:101B90000998817E0798417300212846FEF7BCFB17
:101BA000ECE72889718E96E6A07A01280ED0089875
:101BB000007A012814D00B988078012812D0207D5B
:101BC00001280FD0387E012811D05BE01948C07879
:101BD00000288CD007990120887276E6222144E6FD
:101BE000232100E02A212846FEF79CFB47E6797E68
:101BF0002846FEF797FBA0720020787642E0A07A94
:101C0000012806D02846FEF793FBA0720120387603
:101C100038E00848C078002899D1608A401E000446
:101C2000000C60822ED10648042200212818FEF7FD
:101C300085FBD3E7E010FF1F480EFF1FCC99FF1F65
:101C400056020000A07A012803D02846FEF77CFB4C
:101C500015E60F48C078002802D00020F87534E659
:101C60000120C0E62846FEF775FB01288BD009E06D
:101C700007990120C875FF214931485304488078ED
:101C8000012801D00020AEE607980178EDE50000BC
:101C9000E010FF1FF0B5054687B0E03004902846FD
:101CA000A030039040380590092080012E46281866
:101CB000FF36E136029030462030EF1DF9372C46D2
:101CC000803401909FE1E07A801E0300FEF71CFA49
:101CD0001A0E3822396BF638C13892D1A938383803
:101CE000383838F5F4F3F23838F1F038A07A0128B2
:101CF00003D02846FEF78CFA12E0C5488078002809
:101D000001D0162130E1608A401E0004000C608280
:101D10006FD076E1A07A012804D02846FEF720FB98
:101D2000A0726EE1BA48C0780028ECD02846FEF7D1
:101D300075FA2A4629462879C832C031FEF716FBC3
:101D400061E1A07A012813D00498C07D012821D038
:101D50000498007E00287BD02A4629462846D732A0
:101D6000B031E730FEF73CFA04990120C8754AE12A
:101D7000A748C078002805D0039901208871002069
:101D8000E0673860B8790128BDD106212846FEF702
:101D90007BFA38E12846FEF7EFFA0128B9D1002096
:101DA000B8710120BCE7A07A012803D02846FEF7CD
:101DB0005FFAB5E79648C0780028A4D0E88C68841C
:101DC0002846FEF72BFA05990120C876207138794C
:101DD0000128287909D001220021FEF73DFA0020D0
:101DE00038713872F871B8710DE10021FEF73AFAD6
:101DF000F5E7B8E0A07A012805D02846FEF74AFAB0
:101E0000012807D0FDE0F8790128BDD12846FEF76A
:101E100005FAF8E00020F871039988710120A0729A
:101E2000F1E0A07A012804D079792846FEF7AAFAD1
:101E300076E77748C178002906D0039A002191718E
:101E4000059A0121D176217180780028DED15AE7E8
:101E50008EE0A07A012803D02846FEF72DFA5FE72E
:101E60006B48C0780028F2D001203873E88C688471
:101E7000CCE7A07A012805D00120F8752846FEF7A6
:101E800021FA4DE7787D012806D0608A401E0004C3
:101E9000000C608213D0B4E0B87D0128B6D1B88BB5
:101EA00000907B8B3A7E29790020FEF711FAADE78E
:101EB0008FE072E03BE02DE01BE009E09CE0B88B96
:101EC00000907B8B3A7E29792220FEF701FA4AE0C6
:101ED000A07A012806D02846FEF700FAA07200205A
:101EE00070748EE04A48C0780028B0D00120707429
:101EF0008CE7A07A012803D02846FEF7F5F90FE712
:101F00004348C0780028A2D0002030742879FEF71A
:101F1000F1F97BE7A07A012803D02846FEF7F0F913
:101F200036E03B48C078002891D0012018E0A07A24
:101F3000012807D0707FB17F08401BD041071DD515
:101F4000042020E03248C07800288CD0019900207D
:101F5000C871019A012111722E490979012987D18D
:101F60000199087252E722212846FEF75DF9012007
:101F700007B0F0BD707E7075B07E05E0800701D5BA
:101F8000022000E001207075B0752846FEF700FAC7
:101F9000A07201990020087233E0A07A012807D0CE
:101FA0002846FEF7C5F9A07202990120087628E0BC
:101FB0001748C07800289BD1608A401E0004000C9E
:101FC00060821ED11448042200212818FEF7B6F9B9
:101FD000C9E7A07A012803D02846FEF7B5F99FE6A5
:101FE0000B48C07800280ED002990020087602998C
:101FF000C875FEF7D3F909E72846FEF7ABF90128C3
:1020000087D00020B4E7E07B002800D05BE6AFE794
:10201000E010FF1FCC99FF1F5602000070B51F484B
:10202000012201781E4D002915D01E48A12180787B
:10203000890048431C491D4C0968227046182078C5
:10204000FEF7B2F9A87B00281AD003281BD002287B
:102050001CD0002070BDA97B002904D0032904D026
:10206000022904D005E0027003E0042100E003210E
:102070000170FEF755F80E4900200870012070BD70
:10208000FEF798F904E0FEF79BF901E0FEF79EF9F0
:10209000FF36FF360236317B217070BD1C09FF1FF1
:1020A000A60BFF1F300DFF1F3409FF1F490AFF1F3A
:1020B0002309FF1F1449134888631348134940300C
:1020C00041611349016113490F4A01621249803A83
:1020D0001163124901601349114A0A60124A8A6069
:1020E0001249104A41621249403A516111498160D6
:1020F0001149816111494160124A114991601249A7
:10210000C1617047BD53FF1F8001FF1F09140211F9
:102110007D12021155140211B531FF1FC5170211AE
:10212000D566FF1F8002FF1FFD6FFF1FB957FF1FFE
:102130007983FF1FC984FF1F610902111D55FF1F0D
:10214000211702118000FF1FD921021110B5FEF7DF
:1021500043F9FEF747F910BD03480249C16003493E
:1021600081617047417CFF1F8002FF1FB571FF1F17
:102170000E480D4901600E4981600C490D4A4031FD
:102180004A610E4B0C4A5A610D4AC2620D4A826383
:102190000D4A8A600D4A4263084A0D48403A10626F
:1021A0000C48886170470000E91002114000FF1FD1
:1021B000F50E02111185FF1F7983FF1F4002FF1FDB
:1021C0008557FF1F9955FF1F21170211951C0211FA
:1021D000155BFF1F2937FF1F70B5FDF777FF904C88
:1021E000002025682060FEF703F906462560FDF70C
:1021F00079FF304670BD8B49C968FF3181318865F0
:102200007047F8B5FEF7FAF8864D874A687211787C
:10221000022903D9002801D1012010708349002030
:102220000446E9608300401CCC50FF28FADDE868D2
:102230007F49882319507F49C1627F490978002965
:1022400002D07C491131C1620A2101651178816394
:102250007A49C161FEF7D8F8E968794848611920E0
:1022600080018861084637228030C2600823362208
:102270000B64CA631E224A64362242603222026024
:102280003B220364C263282242644122C264392291
:102290008264322243650265282282650222026638
:1022A0004222C2651E22836642662822C26620221E
:1022B0004267422202675A22436102613C228261E4
:1022C000192292010A605F4A0A63FF222D328A6056
:1022D000CA60FF22F5320A615B4A8A647D22D2001D
:1022E0005A4EC267CE644A62594A8A623222CA652D
:1022F00006224A658A65CA1DF932022513604D66B9
:102300004B25ED008D660925CD66524D0D678C6716
:102310004B67AB10CB67504FFF313E604A4E866231
:102320007D26F6008667642646620526C66202267A
:102330000663C826466384633820506047481064AB
:102340004B2080019061B000D061581010627D2058
:1023500000015062D466956513665364D5651467B1
:1023600053671E2090663E4890673E485B0081316F
:10237000D0670B608B604860FF20F530C860086153
:102380004B20C00010630E6538483749274A8160EA
:102390003749803A11613549364A80318A62364A76
:1023A000CA62364A8261364AC262364A02632F4A9C
:1023B0003548403A50633548D0633548C8613548A0
:1023C00090632A49344840318861354933488860F0
:1023D00026483449803841603349244A41633349AF
:1023E000C03AD1603349324B204CCB63324B403C36
:1023F0002363324B9362324AC263324AC260324A2A
:102400004A63324AE260324A8A63324A0A63324994
:102410008163FDF7FFFF0120FEF702F8F8BD000021
:102420009809FF1FCC99FF1F4A0AFF1F0004FF1FD6
:10243000A8F5FF1F6E040000A895FF1F3A070000D3
:1024400080C3C9019A02000050C30000280A00009E
:102450006A180000204E0000F009FF1F0040001124
:10246000DC05000040420F009D5FFF1F0001FF1FC1
:102470008D34FF1F898BFF1F5D8EFF1F9931FF1F5A
:102480002D33FF1FB531FF1F3146FF1FE543FF1FEF
:102490008193FF1F6D91FF1F152AFF1F611102110C
:1024A0000002FF1F1156FF1F215DFF1FE136FF1FB6
:1024B000190D02110000FF1F1586FF1FF558FF1FA1
:1024C000ED62FF1F2D59FF1FC936FF1F6556FF1F05
:1024D0003D1502117536FF1F197FFF1F0A78027024
:1024E0008A7842704A88120A82700979C170042081
:1024F00070470A7802700988090A41700220704703
:102500000A7802700988090A417002207047097828
:1025100001700120704770B50C4609780170218860
:10252000C51C090A4170A17881706088611D000A8C
:1025300028706D1C22792846FDF716FE2079214669
:10254000401922890A31FDF70FFE207921894018B0
:10255000001D80B270BD10B500220EE093005B1824
:102560009C7804705C88521C240A44701C79847026
:102570009B88D2B21B0AC370001D0B789342EDD822
:102580001806800D10BD0A7802700A88120A42707F
:102590008A7882704988090AC17004207047F8B5AA
:1025A0000D4606464978012031700024761C16E05D
:1025B0006978012917D01221614349198A7832704C
:1025C0004A88871C120A7270B61C10223046091DF8
:1025D000FDF7CAFD1037B8B21036641CE4B2297892
:1025E000A142E5D8F8BDA10049198A7832704A881D
:1025F000871C120A7270B61C02223046091DFDF7B4
:10260000B3FDBF1CB8B2B61CE7E710B50C4609789D
:1026100001702188090A41706288211D801CFDF724
:10262000A3FD6088801C80B210BD10B50C460978EF
:1026300001702188090A4170A17881706188090AB6
:10264000C170A288A11D001DFDF78EFDA088001D90
:1026500080B210BD10B50C46097801702188090AB6
:102660004170A17881706188090AC170A288A11D9A
:10267000001DFDF779FDA088001D80B210BD0A780D
:1026800002700A88120A42708A7882704988090AA0
:10269000C1700420704710B50C460A88891CFDF7EC
:1026A00063FD208810BD10B50B788A780270534303
:1026B000DCB22246401C091DFDF756FD601C10BD12
:1026C00010B50C46097801702188090A4170A1787B
:1026D00081706188090AC1702279611D001DFDF7B2
:1026E00043FD2079001D10BD10B50B788A7802706B
:1026F0005343DCB22246401C091DFDF735FD601C2A
:1027000010BD10B50C460A88891CFDF72DFD2088E8
:1027100010BD10B50C460A88891CFDF725FD2088E0
:1027200010BD10B50C46097801702188090A417066
:102730006288211D801CFDF717FD6088801C80B217
:1027400010BD7FB515460446022901D0102903D1DA
:10275000022B04D0102B02D0002004B070BD99428F
:1027600002D10A46294607E01029694607D000F041
:102770000DF8102269462846FDF73EFDEDE71046AC
:1027800000F004F8102269462046F5E770B50C46C3
:1027900005000CD0002C0AD0102206492046FDF777
:1027A000E3FC2878207368786073012070BD0020F6
:1027B00070BD000029E8021110B50B460122024944
:1027C00003F0D4FB10BD0000DD24021110B50A880F
:1027D000173AE02A05D80B460222034903F0C6FB4C
:1027E00010BD022010BD0000F324021170B5064692
:1027F00008880C46172812D30B4603220949304695
:1028000003F0B4FB050008D10749208809888842F5
:1028100000D20146304600F0A3FA284670BD0220DF
:1028200070BD0000012502114C9AFF1F10B50B4628
:102830001822024903F09AFB10BD00000F25021177
:1028400010B500231922194603F090FB10BD0000BB
:1028500010B50A79022A01D0022010BD0B460622CB
:10286000014903F083FB10BD1725021110B50A784A
:10287000002A05D00B460722024903F077FB10BD62
:10288000022010BD5725021110B50B460422024943
:1028900003F06CFB10BD00008725021110B54A78CB
:1028A000012A01D0022A08D10A78002A05D00B4655
:1028B0000522034903F05AFB10BD022010BD0000A1
:1028C0009F250211024940008968085A704700009C
:1028D000409AFF1F10B500231E22194603F046FB45
:1028E00010BD000010B50B461D22024903F03EFB4F
:1028F00010BD00000B26021110B50B461B22024929
:1029000003F034FB10BD00000B26021110B5064980
:10291000002089681723054A02E044000B53401C3D
:102920001478A042F9DB10BD409AFF1F209BFF1FC7
:10293000042901D004207047017811708378417810
:102940001B02C9185180C078107100207047009890
:10295000022B01D004207047117852781202891896
:10296000018000207047022901D0042070470178BF
:102970004078000208181080002070470098012B52
:1029800001D00420704711780170002070470029A1
:1029900001D0042070470020704770B5049C1E468B
:1029A0001546062B1BD36978287809024018208029
:1029B000E978A87809024018608002222271291D56
:1029C000601DFDF7D1FBB61FB2B22281F02A06D8F6
:1029D0002046A91D0A30FDF7C7FB002070BD04206A
:1029E00070BD0098042B01D00420704753781178F3
:1029F0001B02C91801809178D2781202891841808F
:102A00000020704710B502981146022B0FD34C7866
:102A10000A782402121902809B1E9AB24280F42A7C
:102A200005D8001D891CFDF79FFB002010BD042068
:102A300010BDF8B584890D460646002C26D0B26834
:102A40001778380620D50C2C20D90C3CA4B21019CC
:102A5000009001217088234603F0CAF9002811D0A4
:102A6000022028707806C00F6870B806800EA87023
:102A7000641E2004000CA88001D0B068401CA8602F
:102A80000020F8BD0120ECE70020EAE70120F8BDB6
:102A900010B502981146042B14D34C780A782402FE
:102AA00012190280CC788A782402121942801B1FE6
:102AB0009AB28280F22A05D8801D091DFDF754FBC9
:102AC000002010BD042010BD0098042B01D004206C
:102AD0007047537811781B02C91801809178D27819
:102AE0001202891841800020704770B505461446CF
:102AF00003290CD3491ECEB229786180F52E06D861
:102B0000002904D03046FDF78DFA002901D00420B9
:102B100070BD20703246691C201DFDF725FB00208A
:102B200070BD10B502981146062B03D0142B03D0AC
:102B3000042010BD022200E0102202714B780A78B6
:102B40001B02D2180280CB788A781B02D2184280EE
:102B50000279401D091DFDF707FB002010BD70B56F
:102B60000546144603290CD3491ECEB2297861804C
:102B7000F52E06D8002904D03046FDF753FA002977
:102B800001D0042070BD20703246691C201DFDF765
:102B9000EBFA002070BD000030B5039CD80718D1B7
:102BA000D805010E022914D30B488088814210D821
:102BB000F6200155002008E0557813782D025B19A6
:102BC0004500401C6353C0B2921C8842F4D30020DD
:102BD00030BD042030BD0000409AFF1F0098022B3A
:102BE00001D00420704711785278120289180180B0
:102BF0000020704770B5144602460498022B18D383
:102C0000667825783602AD1905800546E0352A76C6
:102C10006976002A0BD0E8219B1E9AB242808A4234
:102C200007D8A11C001DFDF79FFA002070BDF421FC
:102C3000F2E7042070BD002901D004207047002075
:102C40007047000010B50B461622024903F08EF9BA
:102C500010BD00002B26021110B50B4617220249A9
:102C600003F084F910BD00005526021110B50B4683
:102C70000C22024903F07AF910BD00007F260211F0
:102C800010B50B460D22024903F070F910BD00008B
:102C90009726021110B50A79102A03D0022A01D012
:102CA000022010BD0B461022014903F05FF910BD50
:102CB000C126021110B50A78002A05D00B46112250
:102CC000024903F053F910BD022010BDA7260211DE
:102CD00010B50A79102A03D0022A01D0022010BDB3
:102CE0000B460822014903F041F910BDC12602112B
:102CF00010B50A78002A05D00B460922024903F0D4
:102D000035F910BD022010BDE926021110B50B46A1
:102D10000F22024903F02AF910BD00000327021117
:102D200010B50B460B22024903F020F910BD00003C
:102D300013270211F72800D9F720084A014610800E
:102D4000401EC3179B0F18188003000C5080491EAB
:102D5000C80F4018C003000C90807047409AFF1FB6
:102D6000034A1388994202D8926840001152704772
:102D7000409AFF1F70B50B46E0331C7E1222012CD7
:102D80000AD10A4D42002D684C88AA5A0F3A944243
:102D900001DD022070BD92225B7E012B01D1402318
:102DA0001A430B46024903F0E1F870BD489AFF1F31
:102DB0002327021110B500231322194603F0D6F879
:102DC00010BD0000FFB593B0054600201090119093
:102DD0001E4610AA284600F0B9F904460A2855D222
:102DE00003F07DFD0546082E19D0002000903346E3
:102DF0002A462146159803F083FC142200210BA8D3
:102E0000FDF79CFA20460621484307462430C0B20D
:102E10000BAA102109F052FB002802D014E0012077
:102E2000E4E71022FF210BA8FDF700FB00280BD1DF
:102E30002537F8B20FAA042109F040FBE907C90FB2
:102E40000BAA159801F03AF87034E0B201AA2821D3
:102E500009F034FB002811D101A803F052FD002431
:102E600001AFA000C0190188002903D0827815980D
:102E700001F03CFB641CE4B20A2CF2D3A80707D58E
:102E800016480178159801F01FFB01E0082E02D0CA
:102E9000042E17D01FE0114815991630405C022807
:102EA00019D100222946159803F0A0FB0B48006AAF
:102EB000002810D04368002B0DD000221146159831
:102EC000984708E0054815991630405C022802D161
:102ED000084603F053FD002017B0F0BDDC95FF1F3E
:102EE000F0B504468078964F801F3D4685B0163D6C
:102EF00000260300FDF708F90AFC1111881B06CC17
:102F0000115D9911286A002808D00668002E05D0A6
:102F1000637B227B6189E01CB0470EE16189E8692F
:102F200000F0B6FE0028F8D060890121D7E0607873
:102F300000282CD1A079C00729D0A0888149800021
:102F40000858002823D10E2200216846FDF7F6F923
:102F50006169002903D006226846103107E0A08885
:102F600007F0CCFC0028D8D0C11D06226846FDF72A
:102F7000FBF869468889A1794907C90F0843694662
:102F800088812146684603F073FA002809D0286A30
:102F90000028C2D04368002BBFD06278A0880121EE
:102FA0006FE0A0882246694603F0B8FD002005B016
:102FB000F0BD6078062817D1A08807F09FFC0600B6
:102FC00012D0687B012804D0022808D003280BD136
:102FD00014E0B179A088002203F008FB04E0A18886
:102FE0003078052200F0A0FF286A00281CD0436832
:102FF000002B19D06278A088022142E000221146FD
:10300000514800F0FDF8EAE7E0780022211D00F0C9
:103010009DF80A2808D20621484325302246C0B22E
:103020000C32042109F055FA87E0287A0028A0889C
:1030300001D0697A53E0395C002924D007F05EFCA6
:103040000646A07AC0070DD0002E76D0B0790028B1
:1030500008D0A189890505D46A46F11D00F076F8EB
:10306000002812D02246B179A088083203F0BEFAB7
:10307000286A002861D04368002B5ED00022A08817
:103080001146984759E0052129E0A088032126E050
:10309000A58801962846029607F030FC04004CD023
:1030A000785D022849D0A07901AAE11D00F04EF810
:1030B00006460A280AD203F012FC024601200090BC
:1030C00008233146284603F01BFB36E0785D0028D4
:1030D00003D0012806D030E00AE00521284600F0A0
:1030E00013FF2AE0A1790022284603F07FFA24E0AA
:1030F00000F0AEFD002820D1E87B012806D0114D5C
:1031000000240C3D285D01280AD00DE003F038FBB7
:103110000C48EE730A2200210C38FDF70FF907E086
:10312000204603F039FB2E55641CE4B20A2CE9D387
:10313000502009F0C1F903F0F3FB012037E700004C
:10314000F295FF1FB0DDFF1F09040000F0B50A244F
:1031500085B015460F46002806D0012804D0022865
:1031600010D0032846D11FE0084603F077FB044641
:103170000A283FD2002D3DD0062239462846FCF7CA
:10318000F3FF37E01D4E00240E2060438019062215
:103190003946801DFDF730F8002823D1641CE4B2C5
:1031A0000A2CF1D30A241DE00024204606214843BE
:1031B0002330C0B26A46102109F080F900280CD1F2
:1031C0001022FF216846FDF731F9002805D1394664
:1031D000684600F015FE002804D0641CE4B20A2CF6
:1031E000E3D3DFE70A2C05D2002D03D02946204681
:1031F00003F05AFB204605B0F0BD000018DDFF1FAC
:10320000FEB5154601229202821A00240127584E6B
:103210001300FCF779FF110A151A21282F373E43B6
:103220004B767E858DA29956A200012970D129780E
:1032300002296DD84E4804221630FDF77FF894E03D
:10324000022965D1288870828FE0012960D1287811
:1032500001285DD8707088E001297CD12878042885
:1032600079D8B07081E0012975D12878012872D809
:10327000F0707AE010296ED1102229463D48FCF703
:1032800073FF72E0012966D12878012863D8307174
:103290006BE001295FD12878B07266E004295AD129
:1032A00035492868884256D8F0615EE0002952D13D
:1032B00000F0CEFC002801D0F77356E003F060FA6E
:1032C00019E0072947D10622691C6846FDF7B4F8C2
:1032D000287800226946FFF739FF05460A280ED2F2
:1032E00000F0B6FC002803D022489C3047553CE053
:1032F000284603F051FA502009F0DEF821E00224BC
:1033000033E0012927D12878012824D830722CE015
:1033100021E001291FD1287809281CD8707224E0E7
:10332000012918D12878C11F092914D8F0721CE08E
:10333000012910D1B17B2878B073002915D101285B
:1033400013D103F0EDFA10E0012904D12878032805
:1033500001D8707309E0182407E02728CFD202298A
:10336000CDD1298800F09AFD04462046FEBD00001C
:10337000DC95FF1F08DDFF1F3F420F00F8B50F4629
:1033800013491525164688420DD100243246394688
:10339000204603F013FB002800D00025641CE4B293
:1033A0000A2CF3D312E007F0A9FA00280DD0837994
:1033B000C11D00221846FFF7C9FE0A2806D2324670
:1033C000394603F0FBFA002500E014252846F8BD35
:1033D000FFFF000010B50248807800F085FA10BDAC
:1033E0004497FF1F3EB5084C6D46A4782C7068705A
:1033F000A970EA700622194601A8FCF7B5FE6846D6
:1034000000F02CFB3EBD00004497FF1F70B52D4E11
:103410000C462B4B024631460025C01A20319A42F9
:1034200044D00CDC2848101A0300FCF76DFE0D1D7B
:103430001F232A2D161616163A16163D16000628B4
:103440002BD006DC032833D0042822D0052804D151
:1034500021E0072823D0F7282CD0272A2CD2104689
:1034600000F07EFB208028E030781BE01022711CE9
:10347000204603E01349102211312046FCF774FE68
:103480001BE0706A206018E00E49062228312046B1
:10349000F4E7F08DE6E7308EE4E7708EE2E7B08E79
:1034A000E0E7087E207008E0487EFBE7887EF9E7C9
:1034B000C87EF7E7087FF5E70225284670BD0000C3
:1034C0000D03000074E4FF1F0003000010B50A4C58
:1034D000A07008F065FE442200210848FCF72EFF8A
:1034E00001F092F9A07801F019FAFF222D3204219F
:1034F000A078FCF7A7FF10BD4497FF1F74E4FF1FDF
:1035000070B50C46080417D51C488078FCF7A0FF5E
:1035100005000ED00178A22908D0B02904D0D02906
:1035200004D102F0B3F801E008F040FA2846FCF7B5
:1035300095FF0120C0031CE0E00703D008F0C4FDA4
:10354000012016E0A00702D50220484070BD2007E8
:1035500004D50B4800F0EEF808200AE060070AD511
:10356000FF202D3008F086FF08F0DEFE08F0F8FEA0
:103570000420604070BD002070BD00004497FF1F14
:10358000FEFF0000F8B5554E1546534B0246374630
:103590000024C01A20379A424AD00EDC5048101A34
:1035A0000300FCF7B1FD12272C323B202020202005
:1035B0005420205B622020694020F4286BD008DC76
:1035C00001283AD002283DD0F2285AD0F3280AD157
:1035D0005CE0F52864D0414B4033F62865D0F728ED
:1035E00068D0F8286BD0272A01D202296ED0022495
:1035F0002046F8BD012964D128783070F8E71029F9
:103600005FD110222946701C05E0102959D133489A
:10361000102229461130FCF7A7FDE9E7042950D113
:1036200028687062E4E702294BD12888F085DFE73B
:10363000022946D128883086DAE7022941D1288834
:103640007086D5E702293CD12888B086D0E70129C9
:1036500037D12878042834D83876C9E7012930D101
:10366000287807282DD87876C2E7012929D128782B
:10367000032826D8B876BBE7012922D12878F87626
:10368000B6E701291DD128783877B1E7012918D18B
:1036900028787877ACE7012913D12878B877A7E79D
:1036A00001290ED12878F877A2E7012909D12878D5
:1036B00018709DE7012904D12878587098E70229ED
:1036C00001D0182494E72888588091E7298810466B
:1036D00000F0E4FB04468BE71203000074E4FF1FD4
:1036E000000300001CB50A4C002800D06060207860
:1036F00008700848027F011D0F38034601910090B1
:10370000113B1978A0785B1C00F058F900201CBD13
:103710004497FF1F94E4FF1F38B5054B6C469B7818
:1037200023706070A170E270684600F0F9F838BD4F
:103730004497FF1F014610B502481322807800F01D
:10374000F3FB10BD4497FF1FF8B504462F480F4602
:103750000078022805D0012803D0082803D1002FC3
:1037600001D01220F8BD002C08D0294D2088EA682D
:1037700081005158002903D01120F8BD0220F8BD66
:1037800007F0BCF806003BD02C20FCF76DFE21882A
:10379000EA6889005050002834D02C220021FCF720
:1037A000CDFD2088EA68810051581C22488020887D
:1037B000E96880000858211D001DFCF7D5FC218810
:1037C000EA6889005158022008702288E968900050
:1037D0000B5870791B1D002816D000200D49097860
:1037E00002F0AAFA0546002F03D03946304609F008
:1037F000C3FA002D02D0208803F040FA2846F8BD15
:103800001420F8BD1320F8BD0120E7E7619AFF1FDF
:10381000C49AFF1FF19AFF1FFFB5204D81B0287891
:103820001E461746022823D0012821D0002F22D07F
:10383000019807F063F804001FD0606A002801D0E7
:10384000FCF718FE1C213846FCF71AFE6062011EC8
:1038500015D02878000714D5002E12D0887E00904D
:103860000B4612330A8A019809F06AFD014609E005
:10387000122005B0F0BD0220FBE71420F9E7132069
:10388000F7E700212079042210432071029A002AD0
:1038900002D00222104320710846EAE7619AFF1F16
:1038A00010B505480078000701D5044800E0002065
:1038B00003F064FE10BD0000619AFF1F589AFF1FBD
:1038C00010B5FEF798FC06480A210078084204D09B
:1038D000044803F04DFE002010BD012010BD000083
:1038E000619AFF1F509AFF1F10B50B490968002904
:1038F00004D00978814203D0032010BD122010BDEE
:10390000064801210078FCF711FC302003F064FE2A
:10391000002003F05DFF10BDBC9AFF1FF19AFF1F4E
:1039200038B5234D04462868002801D0112038BD41
:1039300020480A210078084201D1122038BD042015
:10394000FCF792FD286000282FD004222146FCF7C6
:103950000BFC00F07DF9002805D00C2000F000F9E8
:1039600005460D2007E06078022812D0102000F0F4
:10397000F7F80546112000F0F3F80246E078002839
:1039800000D0012000900C480078002807D00123C7
:1039900006E0122000F0E4F805461320EBE70023D0
:1039A000A0782946FCF772FD38BD132038BD000011
:1039B000BC9AFF1F619AFF1F629AFF1FF8B51D4650
:1039C00016460224079F0B00FCF79EFB0D1C0808FF
:1039D00008081C081C08081C1C081C0000F03CF906
:1039E00004000FD13A462846069900F00DFA3046F9
:1039F000FFF766FFFFF754FF02F0C0F800F06CF924
:103A000002F05EF92046F8BD70B5104C216800291F
:103A100004D00978814203D0032070BD122070BD0C
:103A20000B4D02212878FCF781FB0A4800264680CE
:103A300004212878FCF77AFB0748068021680320D8
:103A400048700020FCF728FD70BD0000C09AFF1FE1
:103A5000F19AFF1FD49AFF1F649AFF1FF0B5054625
:103A60003B4889B00078000702D4122009B0F0BDAD
:103A700003F076F9002801D01020F7E700F0E8F80D
:103A800034490978884201D31520EFE7324C206889
:103A9000002801D01120E9E70A20FCF7E5FC2060AE
:103AA000002851D00A222946FCF75EFB20684078A6
:103AB000002805D00E2000F053F808900F2004E0F5
:103AC0000C2000F04DF808900D2000F049F8054654
:103AD00022480078002835D001261C2000F040F84C
:103AE00004901B2000F03CF80390192000F038F8F7
:103AF00002901A2000F034F80746162000F030F843
:103B00000190152000F02CF800902168C878091D5C
:103B100002F06BFC034602A807C8049705AF07C76D
:103B20002268019900980391141D02900196009457
:103B3000927829460898FCF7B5FC040005D003F0FC
:103B4000C1F802E00026C8E7132420468EE70000F3
:103B5000619AFF1F209BFF1FC89AFF1F629AFF1FD9
:103B6000272803D202494000085A7047014870478D
:103B70006C9AFF1FFFFF000010B5044C6070FCF74B
:103B800097FC0521607801F011F910BDF09AFF1F34
:103B900070B5284E054630680C46002801D011202B
:103BA00070BD254801780520014216D02348806861
:103BB000002805D00078002802D0C80706D101E00F
:103BC000102070BD00F044F8002808D020780328A9
:103BD00005D0022803D0002801D0122070BD0C208F
:103BE000FCF742FC3060002820D0057000214170B5
:103BF0000A222146801CFCF7B7FA03F015FE0400E8
:103C000002D003F02FF812E00D48007803280ED1FF
:103C10001D20FFF7A5FF0B490028088007D00B489F
:103C2000094A04210078FCF70DFC00E0132420462B
:103C300070BD0000C09AFF1F619AFF1FD49AFF1F3A
:103C4000629AFF1F649AFF1F60EA0000F19AFF1F4B
:103C500010B506F0AFFE10BD70B50C4605461C222F
:103C600000210948FCF76AFB084805704470FCF71E
:103C700025FC0549002803D000200870122070BDE3
:103C800001220A7070BD000008EDFF1F609AFF1F3F
:103C90007FB504460D46084606F030FE002805D0E4
:103CA0000C48844204D9022004B070BD1220FBE706
:103CB000102200216846FCF741FB68460470210A87
:103CC0004170210C8170210EC170294601F066FF00
:103CD000EAE700003F420F0070B50F4C0025A068D6
:103CE000002802D0FCF7C6FBA560E068002802D0DF
:103CF000FCF7C0FBE560094805210078084206D0C2
:103D00000548103003F040FC02F088FB70BD002035
:103D100003F03AFC002070BDD49AFF1F619AFF1F88
:103D2000FEB5344D0C46080419D56878FCF790FBB5
:103D30000121C9034C40064600280ED003F00EFBBB
:103D4000002807D12878FF2804D03146FCF7BCFBB7
:103D5000002802D03046FCF781FB2046FEBDE0077C
:103D6000012700280AD0A868002804D0416800294B
:103D700001D00020884720467840FEBDA00709D525
:103D80006868002804D04168002901D001208847D4
:103D900002202AE060072AD5174E308800281FD05D
:103DA000401E0004000C30801ED102F0D1FF00281C
:103DB00009D0124807706868002804D041680029BB
:103DC00001D00120884702F09DFF694601F054FEB2
:103DD000684603F0ADFA1D20FFF7C2FE308003E015
:103DE00004216878FCF7A2F904206040FEBD0020A1
:103DF000FEBD0000F09AFF1F649AFF1F639AFF1F29
:103E000010B501F037FF10BD70B50E4C0B46261DE6
:103E100007C60546102200211846FCF707FB0128BB
:103E200003D11021A06808F02DFD102200212846A2
:103E3000FCF7FCFA012803D11021606808F022FD8C
:103E400070BD000008EDFF1F38B5054610480C4650
:103E50000078400701D4122038BD284606F04EFDF8
:103E6000002812D00B48A90000684058002801D053
:103E7000817D00E02146684609F0BCFA064B6A469F
:103E80000221284609F018FA38BD142038BD000078
:103E9000619AFF1FD09AFF1F05D90211272807D268
:103EA000044A914204D0044A400011520020704755
:103EB00002207047FFFF00006C9AFF1F70B50E468E
:103EC000104915460978022916D0012914D0002D71
:103ED00014D006F013FD040012D0002E03D0207978
:103EE00002210843207110222946A018FCF73CF952
:103EF00028692062002070BD122070BD022070BDB4
:103F0000142070BD619AFF1F38B50C46054606F0B7
:103F1000F5FC002806D0684604706946284609F07A
:103F2000B9F938BD142038BDF8B50D4617461D49FE
:103F300006461B4A12248868954208D100282DD0D5
:103F40000268002A2AD029463046904723E0144AC6
:103F5000521C954213D1002807D00268002A04D0D1
:103F6000294630469047040005D03946304602F0D5
:103F700057F8040012D10B48067047700EE028462F
:103F800006F0BCFC002809D00078B04205D13946C3
:103F90002846FCF79FFA044600E003242046F8BDBB
:103FA000FEFF0000C49AFF1FF8B50E4601461948EF
:103FB0001546007805221F46104028D0304326D0F1
:103FC0001548012E1BD0C468002C20D01F2D18D8F6
:103FD000002D01D0002F14D001701F220021601C81
:103FE000FCF7ACF92A463946601CFCF7BDF82846B8
:103FF0002570002E07D0611CFCF772FAF8BD8468AA
:10400000E2E70220F8BD611CFCF770FAF8BD12204F
:10401000F8BD0000619AFF1FD49AFF1F014610B53A
:104020000020C90704D0034A0421034800F002FA23
:1040300010BD000040E402119896FF1F10B5002348
:1040400009E01C012418E468944202D119010818FF
:1040500010BD5B1C9BB28B42F3D3002010BD00004F
:1040600070B50E4D0F4CA8700D49204600F020F899
:1040700000210D480B46CA0084521218491CC9B2CF
:1040800053600429F7D3012004F0A8FEA87800F0BB
:104090004BFC064806F0A4FC70BD00008896FF1F8C
:1040A000C8E3FF1FFFFF0000D8DDFF1F21860211BC
:1040B00070B50A4C0025A04209D1002082008C5224
:1040C0005218401CC0B295700528F7D370BD04F09B
:1040D00076FA0028FAD00480857070BDFFFF0000DA
:1040E000F8B50E460746069900240798002902D025
:1040F0000B242046F8BD022B01D00D24F9E71178DE
:104100005278120289188DB22946814301D0802449
:10411000EFE73846F16800F085F9A842E9D02A4671
:104120003846F16800F010FA0400E2D171892A469D
:10413000384600F0ADF9DCE7FFB51F460446C1B0D4
:1041400022881E4B00254A989A4233D0A278002A32
:1041500030D00A4601463846FFF770FF060029D0E6
:10416000174A208812684100515C0023C91EC9B259
:1041700003AA02320193029100927A8904AB31467C
:1041800000F03CF8002815D1708969468881A07834
:10419000C00705D0208803A9439A00F08DFB05468F
:1041A000A078800706D5208803A94B9B439A00F08E
:1041B000F3FA0543284645B0F0BD0000FFFF0000BC
:1041C000489AFF1F70B50C46080412D50A4880783B
:1041D000FCF73EF9050008D02878B02802D128461F
:1041E00004F00CFB2846FCF739F90120C0036040BD
:1041F00070BD002070BD00008896FF1FFFB583B022
:10420000087A00250C9E1C460F46C0060DD5059861
:1042100004F0CEF9030006D00A22394603989847E5
:10422000050035D101E00E2532E0387802281DD195
:10423000786829220178407812020002081881B2B9
:10424000881A91427ED009DC7348081A23D00128CD
:1042500021D002284FD0032808D125E0012872D0B0
:10426000022871D003286DD004286ED0059804F080
:10427000C7F900286AD00568002DD4D00E990D9892
:10428000019100903346224639460398A8470546D7
:10429000284607B0F0BD0D98002872D1F868017863
:1042A00031800278416896E00D98002869D101209C
:1042B0003080F8680021007820707889401C80B236
:1042C00000F0C8F900280DD0318802788918891CBF
:1042D0003180817A61704189090AA1700278416850
:1042E000E01C79E030880422001D30800021601C31
:1042F000FCF724F8CCE70D98002875D1F86802A9DE
:104300000088009004203080009820700098000AF7
:104310006070009800F09EF9070029D0F8680090BE
:104320006846028901AB3D49384600F0EBF90028A8
:1043300010D13B7802213A487A68FEF702FA002849
:1043400008D104E026E030E01CE04AE062E0401ED4
:10435000694688800098007802280CD100980222D3
:104360004168201DFBF700FF3088801C308002E090
:1043700069460098888068468088A070000AE070CE
:1043800086E731E00D9800282ED1F968039800F0F7
:1043900049F804E00D98002826D1F8680088022129
:1043A00031802070000A607072E7F868FCF7A4F8AA
:1043B0000D99C0B2814212D8814201D1002206E09B
:1043C0000E9A8918814202D30D99401AC2B23280E6
:1043D000F9680D9809182046FBF7C6FE58E707252F
:1043E00056E70D98002801D00B2551E70721F86802
:1043F000318001782170417861708178A1704188A5
:10440000090AE1700179217181796171C088000A1E
:10441000A0713DE700252FE700280000FFFF000006
:10442000A2E8021110B504F0CAF8002800D0807884
:1044300010BD00007CB51546040019D068460194F3
:10444000018000F077FA03001DD1002D1BD0648994
:10445000002C0DD00C20FCF707F800280AD0002310
:1044600003608480094A85609168002904D006E0D1
:10447000022308E0132306E0906004E011460A6876
:10448000002AFBD1086018467CBD00008896FF1FFB
:10449000F8B50C4C0746207815460E46FF280FD07D
:1044A0000A20FCF72FF801000AD0B1200870002084
:1044B000487008714F80CE800D812078FCF704F899
:1044C000F8BD00008896FF1F70B50C4605460649EA
:1044D000FFF7A8FF800704D52146284600F07EFAA2
:1044E00070BD012070BD0000C8E3FF1F1CB56B4606
:1044F0001A71120A5A7100220092022301AA00F0D6
:1045000001F81CBDFFB583B008461F4601A90C9EEB
:1045100000F0A0F8050014D06846808804F070F818
:1045200000280AD04468002C09D000963B46294652
:10453000059A0398A04707B0F0BD0024F3E70E20CA
:10454000F9E70120F7E7000070B514460E4605466E
:1045500004F035F8002806D13146054804F02FF85C
:10456000002803D005808470002070BD112070BD2C
:10457000FFFF000010B50178B0290BD14178002968
:1045800008D10179122906D01B2903D140880121C5
:1045900000F088FB10BDFF210231095C0129F5D034
:1045A00010BD10B586B06C46218062800221217159
:1045B000032161712821A1710022694603F08EFF59
:1045C00006B010BDF0B58BB001236A4693819B1EE7
:1045D000D381022313740023537428230D4693744C
:1045E000064603AF02A903F055FB04000CD139467F
:1045F0003046FEF74FFB040006D1054B1122394629
:104600000095029804F01EFD20460BB0F0BD00009E
:10461000EB2A0211FEB50E461546074601A903F026
:1046200039FB04000FD131463846FEF7CFF80400BD
:1046300009D1064930880880054B03223146009590
:10464000019804F0FFFC2046FEBD00004C9AFF1FBD
:1046500067290211F0B58C4610494B6819E09F6834
:104660007C89A04214D39E883119814210D900223E
:104670000CE011017D186989814205D1604600284E
:1046800000D004802846F0BD521C92B29642F0D869
:104690001B68002BE3D10020F0BD0000049BFF1F2E
:1046A000FFB5174881B00A9F446824E000251EE04A
:1046B000A0682901461870890199884215D302998A
:1046C000884212D80498002807D031787068049B7B
:1046D000039AFEF736F8002807D0002F02D0A06812
:1046E00040893880304605B0F0BD6D1CADB2A08861
:1046F000A842DDD82468002CD8D10020F3E70000C0
:10470000049BFF1FFEB5174600256A4695800446A8
:1047100040891D4A1E46904208D001AA0092401CC2
:10472000237880B26268FFF7BBFF05462378022139
:1047300016486268FEF705F8002807D123780221A1
:1047400013486268FDF7FDFF002801D060890EE084
:10475000237802210F486268FDF7F3FF00280DD08F
:10476000002D03D068468088B84203D0384604F054
:1047700049FC04E06889401E80B200E06089002E98
:1047800000D030802846FEBDFFFF0000A0E80211E7
:10479000A2E80211A6E80211FFB581B00F461E463D
:1047A00014466946019803F08BFA050018D1002CD5
:1047B00006D001221021019806F07AF805000FD1E9
:1047C00039460198FEF78EF8050009D1009CFF2EAE
:1047D00006D021461E22A31C034804F01FFCE670ED
:1047E000284605B0F0BD0000098F021110B505493B
:1047F0000870042100F0DAFA00F038F8FEF786F8C5
:1048000010BD0000109BFF1FF8B50024134D264675
:10481000FF2715E0FF200D30696860434018002C29
:1048200019D00F49018086704772FF210772093144
:104830000E54FC2200210C30FBF780FD641CE4B216
:1048400028788442E6D3074803F07CFE064806F049
:10485000C7F80020F8BD0249491EE3E7FC9AFF1F94
:10486000FFFF0000397B0211817A0211F8B50F4D6C
:104870000D4B00206E1C1C78FF2209E09F68810010
:10488000C91900280ED00E80CA70401C8A70C0B2B0
:10489000A042F3D3064803F05BFE064806F0A0F8FA
:1048A0000020F8BD0D80EFE7049BFF1FFEFF000016
:1048B000358F0211898E0211F8B50D461446064651
:1048C000694603F0FDF917280CD0002C06D0012210
:1048D0001021304605F0ECFF002803D12946304670
:1048E000FEF70AF8F8BD000070B50C46080411D5B3
:1048F00009480078FBF7ACFD050007D00178A02936
:1049000001D103F039FD2846FBF7A8FD0120C003C3
:10491000604070BD002070BD109BFF1F01494870B2
:1049200070470000FC9AFF1F014948707047000063
:10493000049BFF1F70B50546008800281DD06868DD
:104940000221037842682248FDF7FBFE002808D1C7
:1049500068680221037842681E48FDF7F2FE0028CD
:104960000BD01D4C6088002805D001222988120434
:10497000101A814203D9012070BD022070BD0C20A5
:10498000FBF772FD060001D000200BE0132070BD84
:1049900001016B6862880A315A526188491C401CC7
:1049A000618080B229888142F2D8002030600822DC
:1049B0002946301DFBF7D8FB6068002802D16660ED
:1049C00004E0084601680029FBD10660002070BDA4
:1049D000A0E80211A2E80211049BFF1F70B5BEB04F
:1049E0000D460646002402230E4A0F49012000947A
:1049F000FFF756FE002812D040896A461080042036
:104A00005080012010715471FF209071D0712B469D
:104A1000002269463046FFF7BFFE3EB070BD012060
:104A2000FBE70000BEE80211FFFF000006494968ED
:104A300006E08A685289824201D1888870470968F5
:104A40000029F6D100207047049BFF1F10B51422E7
:104A5000114201D0012202E04A0604D500221021B1
:104A600005F026FF10BDC80701D0002010BD0220B0
:104A700010BD10B514468A0604D50122102105F098
:104A800017FF10BD882211420ED008220A401021C3
:104A900005F00EFF00280BD0E034617E0029F0D035
:104AA000217E0129EDD103E0880701D4032010BD48
:104AB000002010BD10B504F0E5FA10BD014610B598
:104AC0000020C90704D0034A07210348FFF7B2FCBE
:104AD00010BD00002CE402111496FF1F70B50D46A6
:104AE000164600241D490300FBF70EFB080512348F
:104AF000341934222934152D23D8162200211848C0
:104B0000FBF71CFC2A4631461548FBF72DFB22E03B
:104B1000022D16D111491088103908801BE0082D8C
:104B20000FD10E48082231460838FBF7BDFA12E0D3
:104B3000012D06D1CA6909493078283107E0012DD5
:104B400001D0182407E0CA6B04493078483104F0DA
:104B50006CFB00E00224204670BD00001496FF1F8D
:104B6000C0DDFF1FF0B5069F099E002833D0102836
:104B700031D800292FD0002A2DD0002B2BD0002F88
:104B800029D0079C002C26D0089C002C23D0002E76
:104B900021D00A9C002C1ED0104C851D2070657001
:104BA000A26061600E490F4A0B60059911600E49C1
:104BB0000E4A0F60079911600D4A089911600D495E
:104BC000401C08700C490E600C4908700C490A988A
:104BD00008600020F0BD1820F0BD0000209BFF1FE2
:104BE000689BFF1F489AFF1FD09AFF1F549BFF1F0F
:104BF000589BFF1FFC9AFF1F009BFF1F049BFF1F7A
:104C00000C9BFF1F0B7803700B8802221B0A43705A
:104C10000B88801C012B02D0022B07D011E08A7870
:104C200002704988090A417004220AE08A780270F9
:104C30004A88120A42700A7982708988090AC1700A
:104C40000622104670470A7802700988090A4170E6
:104C50000220704708B5044B009313460A46012111
:104C600005F076FD08BD0000054C02111CB50323BC
:104C7000019200930A46024B122105F099FD1CBDDA
:104C800029A0021108B5044B009313460A461321CC
:104C900005F05EFD08BD0000474C021110B5FBF7A2
:104CA00037FC10BD13B504480078012803D101AAD0
:104CB0006946FBF733FC1CBD1C9BFF1F70B51049F8
:104CC000104A087000210B468C00491CC9B21353CE
:104CD0000429F9D30B4C00211034FF260A460A257B
:104CE0006A4315196B80491CA354C9B26E7203291B
:104CF000F4D3FBF719FC05F0E1FC05F035FE70BDBF
:104D00001D9BFF1F24EDFF1F082A01D001207047C3
:104D10004B780A781B02D2180280CB788A781B0263
:104D2000D21842804B790A791B02D21882808A7984
:104D3000C97909025118C1800020704770B50C462E
:104D4000080411D509480078FBF782FB050007D05D
:104D50000178902901D105F013FC2846FBF77EFB72
:104D60000120C003604070BD002070BD1D9BFF1F6F
:104D700070B50C490978884213D20B4C0601606863
:104D800000258553301885816068301885806068FB
:104D900030188068002804D0FBF7CCFB606830181E
:104DA000856070BD209BFF1F509BFF1F072907D008
:104DB000052905D0042903D0062901D00220704717
:104DC000044A8B009A181346403B1986203A907487
:104DD0000020704724EDFF1F70B5174909788842FD
:104DE00028D25C21154C4843A1680546401800268E
:104DF00040300674A068281840304674A06828180F
:104E000040300676A0682818406D002804D0FBF7D3
:104E100091FBA068281846650026A068F1002818B4
:104E200040184068002801D0FBF784FB761CF6B2DE
:104E30000A2EF2D370BD0000209BFF1F509BFF1F66
:104E400070B50A880C460546072A07D0052A05D002
:104E5000042A03D0062A01D0022070BD012105F0EA
:104E6000F1FD002804D02146284605F0F3F870BD76
:104E7000142070BD10B5001D80B2FBF761FB002847
:104E800003D00321C943FBF761FB10BDF0B585B02A
:104E90000D4608040DD5F948C078FBF7D9FA04008F
:104EA00004D0FBF759FB2046FBF7D8FA0120C003DA
:104EB0001DE2F34EE807314634465231FF364034A6
:104EC000022741360291002863D0ED4AED492F3286
:104ED00010460392FBF746FB304604221630039936
:104EE000FBF78AF9002843D0E54802993330FBF7F5
:104EF0003FFB202815D2BB20694608704F708120E7
:104F000088700020C87000A803210130FBF736FB31
:104F100069460871012007F0B5FAB07F00F08EFDF8
:104F200011E0BB20694608704F7081208870042012
:104F3000C87000A803210130FBF720FB6946087107
:104F4000022007F09FFA20880522694600F0E4F964
:104F500000280BD0C94805226946001DFBF704F95B
:104F6000C64864228021C078FBF7E6F80120BEE144
:104F7000BB20694608704F70812088700520C8707A
:104F800000A803210130FBF7F9FA694608710320F4
:104F9000D7E7A8076FD5BA4CAA202178CC2901D031
:104FA000207017E0AA202070A07807287ED009DCA6
:104FB000B549801E00910300FBF7A6F805142536BD
:104FC00060900C00082872D0092871D00A2870D08F
:104FD000FF286FD06770A07880210843A07001205F
:104FE000E07074E0072060708220A549A07006225E
:104FF0004431E01CFBF7B8F80821601CFBF7BEFA4F
:1050000060720A22D6E00920607083209C49A0705B
:1050100008224A31E01CFBF7A7F80A21601CFBF7C5
:10502000ADFAE0720C22C5E00422E11C9748FBF7C0
:10503000E3F8002806D10422E11C0098FBF7DCF815
:10504000002819D0E21D8F49E01DFBF78BFA20469E
:105050000B300299FBF78CFA202807D2012007F0C9
:1050600011FA207E00F0EAFC002000E00320E0704E
:10507000677084202AE0A7E00120F8E70422E11C01
:105080008248FBF7B9F8002806D10422E11C0098F9
:10509000FBF7B2F8002815D00422E11D0098FBF7B9
:1050A00063F855206071AA20A07104E022E034E08A
:1050B0003BE051E06AE0621D0621A02007F009FAFA
:1050C000002000E00320E07067708520A0700321BD
:1050D000601CFBF753FA207105226BE0E078C11EDB
:1050E0001C2901D3032001E0B0770020E070677035
:1050F0008620EBE7032060708720A070092004F071
:10510000E3FDE0700C2004F0DFFD20710421601C41
:10511000FBF734FA607106224CE0E07807F0B2F950
:105120000020E07067708820D0E7E078F8280ED281
:10513000C1085348C90008180822211D5230FBF746
:1051400013F8E078022100F0BBFE002000E001200F
:10515000E07067708920B9E7E078F82811D22179EA
:10516000CA00C1084648C9000818FF215230FBF7A1
:10517000E5F820794006010EE07800F0A1FE00205D
:1051800000E00120E07067708A209FE7FF22013273
:10519000FF210298FBF7D2F84021002000F090FE9A
:1051A00001206070FF20A0700221601CFBF7E6F96F
:1051B000E070042232482346008D022100F0F2F80C
:1051C0002846784005B0F0BD680721D52C48E17825
:1051D0002030C07AC14209D00121022004F08AFDAA
:1051E0000121032004F086FD002108E000210220B7
:1051F00004F080FD0121032004F07CFD0121042046
:1052000004F078FD0021082004F074FD04206EE015
:1052100028070ED5B07E022802D0012805D006E06E
:1052200000207077F076B07601E0FBF7ADF908204A
:105230005DE0E80634D50420104C00901049207839
:105240000A18A178890053180818C2B210485021D2
:1052500000685233FBF79EF910214D40002819D108
:10526000A078401CC0B2A0706178884212D10020A2
:10527000A070207060702846A4E70000A099FF1F6E
:105280004098FF1FAB99FF1F9299FF1F26E502115F
:105290003C98FF1F0A221021E078FAF74DFFEAE759
:1052A000A8060CD5092004F00FFD002805D1012027
:1052B00007F0E8F8B07F00F0C1FB202017E0680697
:1052C00004D5012007F0DEF8402010E0280616D5AE
:1052D000208805220B4900F01FF8002809D0094852
:1052E0003222001F8021C078FAF726FF8020684014
:1052F00068E7052200210348FBF720F8F6E70020C5
:1053000060E70000A499FF1F10B50249C870FBF7C1
:1053100047F910BDA099FF1F30B5BFB0002338ADCD
:105320002B7604466B760F206D4628806A8001A894
:10533000FAF71AFF0348694602782046FFF7BAFBDE
:105340003FB030BD1098FF1F10B506490648FEF764
:10535000AFFE064805F044FB054A08210548FFF763
:1053600069F810BDE0E4FF1FFFFF000099B30211D0
:10537000CCE402117497FF1F10B5002410460129D8
:1053800004D0022905D00224204610BD142204496D
:1053900002E0034914221431FAF7E6FEF4E70000B4
:1053A000B8E4FF1FFFB5174602460020184D83B032
:1053B000022902D0022007B0F0BD164E0024A10041
:1053C000715A914206D1A00081191046FFF72AF8C0
:1053D000254603E0641CE4B2042CF0D3C00715D0CA
:1053E0000C483A4614380699FAF7BEFE0A48FF21DF
:1053F0000770082001910090074B0649A80080190A
:10540000083300221439FEF797FED4E71020D2E7C4
:10541000FFFF0000E0E4FF1F6C97FF1F002803D090
:105420000249486000207047112070476C97FF1FA9
:1054300010B503494978012901D100F0F5FA10BDF2
:105440004497FF1FF0B5064687B00520FEF788FB9E
:10545000074606A91D48FDF7D9FF1C4804A9401CB2
:10546000FDF7D4FF194805A9801CFDF7CFFFC52023
:1054700003A98000FDF7CAFF6946088B8880088A67
:10548000C880888A088188894881304605F0D0FD27
:1054900004460F4801A982783046FFF7E7FB182041
:1054A000FAF7E2FF0A4DA4002435285100280BD05A
:1054B00000233A460749009606F022FF29590020AA
:1054C0004861285906F098FF07B0F0BD11030000AD
:1054D0004497FF1F3154021170B5054640780028EB
:1054E00013D1134804681FE0002C04D1284605F0AE
:1054F00073FD002803D0A078032807D013E00D48DF
:105500000068002801D006F09DFF70BD2088A988A2
:105510000005000D884206D18AB2E0780823211DDB
:10552000FDF750FC70BD2469002CDDD170BD00007A
:105530003498FF1F6897FF1FF0B50446821C8BB09C
:105540005149052005F0DAFE06003FD021462079BA
:105550000C310A91491C0991491C0891491C4A4D7A
:105560004F1C1C3D0791092837D011282ED1207AD5
:1055700000282DD0002526E060890A996843425C06
:105580000999405C694600021018088060890899F2
:105590006843425C0799405C6946000210184880E5
:1055A000A07A001FC2B20A7160896843C11901A8BC
:1055B0000130FAF7D9FD31466A460831062005F078
:1055C00035FE6D1CEDB2207AA842D5D80BB0F0BDE7
:1055D00060781A28FAD1B06843E0207A002836D0E3
:1055E000002530E060890A996843425C0999405C73
:1055F0006946000210180880608908996843405C79
:1056000069468870608907996843415CC05D000203
:10561000081869468880A07A401FC2B28A716089E2
:10562000214668431131411801A80330FAF79CFD67
:1056300031466A460C31072005F0F8FD6946888836
:105640006D1C7080EDB2207AA842CBD8BEE760789E
:105650001A28BBD1B21C911D062005F04FFE002870
:1056600006D0428801886088AB78FEF79AFFADE7E4
:105670006868002804D08168002901D03046884736
:10568000608806F01BFEA1E76097FF1FF0B58578E4
:1056900091B09F4E2B00FAF737FD0E0DFE080E0E4F
:1056A00011CDFD0D0D0D0DFCFB0DC2784178284686
:1056B00005F0BCFB29E141780022F8E74178044677
:1056C00000297DD12146284605F00EFB049068464E
:1056D000058A28060390000F35D100276846077118
:1056E000312001A90001FDF791FE684600790028EC
:1056F00029D000206946088102A91F20FDF786FEF7
:105700001820FAF7B1FE6946098A814F0905090F89
:10571000890020377850002815D02A07120F0092F0
:105720006A4612897D23DB005A430D4600237949DE
:1057300006F0E6FD7959002048617959012008609A
:10574000785906F059FE0398000F03285CD161894F
:10575000714A012050540821B078FAF7E7FC05F0AF
:10576000FBFB6E484588002D4ED00C22002101A87D
:10577000FAF7E4FD6946088A00270007000F009049
:105780008880CD800F72624901AA143103200397EB
:1057900005F04CFD002837D01822002105A8FAF7A3
:1057A000CDFD68460A97008A59490007000F069008
:1057B00005AA1831042005F039FD002824D000E0A6
:1057C00022E053490420183105F0ECFC07001BD0FF
:1057D000FF220123F5325249384606F091FD680751
:1057E0000FD5142200210BA8FAF7A8FD6946088AF4
:1057F0000BAA0007000F8885454905201C3105F0DC
:1058000015FD384606F0E6FD70680569002D7CD070
:10581000201D00906846008A01050B0F0106090F44
:10582000032905D000220107090F6078A8476CE022
:105830000322F8E741780446002920D12146284672
:1058400005F052FA0090684605882F06380F0328A5
:1058500002D1A08806F032FD380F10D12805000FC4
:1058600085002B4820304059002801D006F0EAFD81
:10587000274824304059002801D006F0E3FD706825
:105880004569002D41D068460088A379010503E0F1
:105890000FE038E00AE018E00A0F0106090F0329BB
:1058A00000D000210007000FA8472EE0FFF714FEEC
:1058B0002BE0044606F07AFC7168002925D00968BF
:1058C000002922D0204688471FE07068002804D0B5
:1058D0004168002901D0B0688847B468002C0FD017
:1058E000A069B060E068002801D0FAF7C3FD6069E4
:1058F000002801D0FAF7BEFD2046FAF7BBFDECE721
:1059000005F0FCFA01E0FDF7EBFA012011B0F0BD63
:105910004497FF1F295A0211F295FF1FB4E4FF1F9D
:105920007959021138B5054605F050FB04460221AD
:10593000684605F035FB002C15D068464178227882
:105940000078631CFDF74EFD0A4C00280CD00121A5
:105950002078FAF72BFE002805D1FF22F53201212D
:105960002078FAF7E9FB38BD01206870A87008219B
:10597000AA68F5E74697FF1FF1B582B002AA284949
:10598000042005F0BBFC2649054602AA091F032096
:1059900005F0B4FC0446002D2AD0002C28D0207934
:1059A000002825D160881E4FC107183F0126002915
:1059B00010D01720FDF7BEF96B4617201880BA7873
:1059C00019461889FEF726FE002811D12671608835
:1059D000B0430CE081070CD56846124AFB210089D0
:1059E000FAF7EAFD002803D160880221884360802D
:1059F000FEBD4007FCD50A4902AA091D052005F095
:105A00007DFC0500F4D028790028F1D16846B978EA
:105A10000089FEF7D7FD0028EAD126712E71FEBD60
:105A20005C97FF1F4808000010B50349C0B24978D1
:105A3000FFF708FD10BD00004497FF1F10B5044696
:105A40000121022004F056F90021032004F052F94C
:105A50000121042004F04EF90121082004F04AF944
:105A60007D20C0002246424302480421C078FAF754
:105A700063FB10BDA099FF1F38B50C46050014D07C
:105A8000002C12D00321684606F0FCFE6946887897
:105A900040218006800E08436946887022462846C9
:105AA00007F068FD050002D006E0022038BD0322A1
:105AB0006946E01CFAF758FB284638BDF7B58EB0AA
:105AC0000E9815460E4600282DD0002D2BD0301DE7
:105AD000C0B20190FAF7C8FC040039D001F01EF9F9
