:020000041102E7
:1000000003B40148019001BDFD11000003B4014893
:10001000019001BD7511000003B40148019001BDBC
:100020001130000003B40148019001BD090E000029
:1000300003B40148019001BD53B9000003B4014865
:10004000019001BD29B6000003B40148019001BD33
:100050007582000003B40148019001BDFD5C010000
:1000600003B40148019001BD85C1000003B40148FB
:10007000019001BD61D5000003B40148019001BDAC
:100080001BBA000003B40148019001BD3DBA000055
:1000900003B40148019001BD5944000003B4014874
:1000A000019001BDB95E000003B40148019001BD9B
:1000B000810E000003B40148019001BD0D52010002
:1000C00003B40148019001BDC1EC000003B4014834
:1000D000019001BD75A9000003B40148019001BD64
:1000E000C93E000003B40148019001BD9DA9000074
:1000F00003B40148019001BDB30E000003B40148F0
:10010000019001BD2D57FF1F03B40148019001BDAF
:100110006189000003B40148019001BD1907010085
:1001200003B40148019001BDA9D8000003B40148FF
:10013000019001BDB352010003B40148019001BD1B
:100140008B52010003B40148019001BDC1A500001C
:1001500003B40148019001BD9D6A000003B4014849
:10016000019001BD116E000003B40148019001BD72
:10017000E94C010003B40148019001BDF97F000082
:1001800003B40148019001BD7912010003B4014894
:10019000019001BD757A000003B40148019001BDD2
:1001A000F143000003B40148019001BDC1430000C8
:1001B00003B40148019001BD6944000003B4014843
:1001C000019001BD8BB9000003B40148019001BD4D
:1001D000D1D4000003B40148019001BD01890000A1
:1001E00003B40148019001BDC53F000003B40148BC
:1001F000019001BDC95C010003B40148019001BD3B
:10020000CD4C010003B40148019001BD09B80000C4
:1002100003B40148019001BD2DFC000003B4014866
:10022000019001BDEDB8000003B40148019001BD8B
:1002300039B8000003B40148019001BD6DFE000013
:1002400003B40148019001BDF9FD000003B4014869
:10025000019001BDA1E6000003B40148019001BD79
:100260009946000003B40148019001BD1547000004
:1002700003B40148019001BD194CFF1F03B40148AC
:10028000019001BD75F0000003B40148019001BD6B
:10029000F5D5000003B40148019001BDC5F0000090
:1002A00003B40148019001BD01EC000003B4014812
:1002B000019001BD6160000003B40148019001BDDF
:1002C00063EC000003B40148019001BD05FF00008C
:1002D00003B40148019001BD3161000003B401483D
:1002E000019001BD59E4000003B40148019001BD33
:1002F000D5E4000003B40148019001BD01BF000036
:1003000003B40148019001BD21F1000003B401488C
:10031000019001BDCDF1000003B40148019001BD81
:10032000B9C0000003B40148019001BD4DF40000C4
:1003300003B40148019001BDC1E2000003B40148CB
:10034000019001BD154D010003B40148019001BDAC
:100350008DE3000003B40148019001BDA5FD00003C
:1003600003B40148019001BD25E7000003B4014832
:10037000019001BD3148000003B40148019001BD66
:10038000F1FA000003B40148019001BD79F40000C6
:1003900003B40148019001BD77F1000003B40148A6
:1003A000019001BD5511010003B40148019001BD48
:1003B000057FFF1F03B40148019001BDE9F600006D
:1003C00003B40148019001BD75F8000003B4014871
:1003D000019001BD19FA000003B40148019001BD6C
:1003E0000D59FF1F03B40148019001BD5558FF1F6F
:1003F00003B40148019001BDA93C000003B40148C9
:10040000019001BDD135FF1F03B40148019001BD2A
:100410005D3DFF1F03B40148019001BDADAE00007A
:1004200003B40148019001BD456B010003B40148CC
:10043000019001BD1D4B010003B40148019001BDB5
:100440004551010003B40148019001BD595201001A
:1004500003B40148019001BDF54E010003B4014809
:10046000019001BD434D010003B40148019001BD5D
:100470003D4B010003B40148019001BD014C010056
:1004800003B40148019001BDF94C010003B40148D7
:10049000019001BD3522000003B40148019001BD67
:1004A000691F000003B40148019001BD4D1A00000E
:1004B00003B40148019001BD5D17000003B4014879
:1004C000019001BD5125000003B40148019001BD18
:1004D000594F010003B40148019001BD8D12000085
:1004E00003B40148019001BD4D1F000003B4014851
:1004F000019001BD5522000003B40148019001BDE7
:10050000DD52010003B40148019001BD1D4D010001
:1005100003B40148019001BD017F000003B401480C
:10052000019001BDE117000003B40148019001BD35
:100530007918000003B40148019001BDD9490100B8
:1005400003B40148019001BDE928000003B401484B
:10055000019001BD5549010003B40148019001BD5E
:10056000C94A010003B40148019001BDB11F000058
:1005700003B40148019001BDC926000003B401483D
:10058000019001BDE122000003B40148019001BDCA
:10059000ED4A010003B40148019001BDA54F0100DF
:1005A00003B40148019001BD8552010003B4014824
:1005B000019001BD052FFF1F03B40148019001BD4B
:1005C000810E000003B40148019001BD3532FF1FC8
:1005D00003B40148019001BD1D3FFF1F03B4014852
:1005E000019001BD350E000003B40148019001BD2A
:1005F000C93FFF1F03B40148019001BD7940FF1FAF
:1006000003B40148019001BD3519000003B401484D
:10061000019001BDBD18000003B40148019001BD67
:10062000311A000003B40148019001BD992800006F
:1006300003B40148019001BD291C000003B4014826
:10064000019001BD1922000003B40148019001BDD1
:10065000851F000003B40148019001BD514701000E
:1006600003B40148019001BDA946010003B401484B
:10067000019001BD1147010003B40148019001BD83
:10068000A125FF1F03B40148019001BDEF25FF1F05
:1006900003B40148019001BDF53AFF1F03B40148BE
:1006A000019001BD9942FF1F03B40148019001BDB3
:1006B0007329FF1F03B40148019001BD4D29FF1F9D
:1006C00003B40148019001BD951BFF1F03B401480D
:1006D000019001BDC51AFF1F03B40148019001BD7F
:1006E000A91AFF1F03B40148019001BDB11BFF1FF0
:1006F00003B40148019001BDF929FF1F03B401486B
:10070000019001BDAD44FF1F03B40148019001BD3C
:100710006DBC000003B40148019001BD156B0100E0
:1007200003B40148019001BDE548000003B401484D
:10073000019001BD2951010003B40148019001BDA0
:10074000D91B000003B40148019001BD3D42FF1FC9
:1007500003B40148019001BDA13EFF1F03B401484D
:10076000019001BD393EFF1F03B40148019001BD56
:10077000D1A5000003B40148019001BD6D3EFF1FEB
:10078000FEB508AF70CF6F4670C700F041F8024960
:10079000FFF736FC0020FEBD1320000038B50446EC
:1007A00000F098FA0146684601704470210A817091
:1007B0006A4603210248FFF729FC002038BD0000EB
:1007C0001B20000038B5044600F0AAFA014668462E
:1007D00001704470210A81706A4603210248FFF7C4
:1007E00015FC002038BD00001A20000008B50028C4
:1007F00002D000F09DFC00E01220694608706A46B5
:1008000001210248FFF702FC002008BD052000007E
:10081000FFB50446354F0001C019807981B01546F7
:10082000022802D00C2005B0F0BD314A881F90424A
:100830002ED2062D2CD3501D854229D88D4227D388
:10084000FF220499F432914222D80A990A291FD32F
:1008500081421DD82046FFF7DFFB0028E3D1A1200D
:100860008000444323480068261834468034E07BE7
:10087000002802D0E07A00280CD0207D012809D081
:100880000A98C1000498401C68434000814203D884
:100890001220C8E73A20C6E77878174F01280AD90E
:1008A0006804B988000C884203D3FFF7BBFB00291A
:1008B00009D03B20B7E7BD80F08E10494000097891
:1008C000FFF7B0FBF8600220207600206083308FB5
:1008D0000021C01DE082A5830498E0830A9820844B
:1008E0003046FFF7A5FB00209DE70000300DFF1FFD
:1008F0007B0C00003409FF1F300EFF1F1409FF1F7F
:10090000FFB583B0DB480090DB48129E02780C9D57
:100910000E9B1399012A20D000270770D74804782E
:10092000092C78D00A2C76D00B2C74D00C2C72D0D9
:100930000D2C70D0039AD248121F824246D2049ADC
:10094000121F824242D2049A039882423ED80598EE
:10095000002805D0012839D102E00C2007B0F0BDF5
:10096000284333D00698002805D0012803D0032857
:1009700001D002282AD10D98002805D0012803D0E3
:10098000032801D0022821D1B1421FD3BD49981FAD
:1009900088421BD20F98062818D301461920C0019F
:1009A000814213D8994211D3FF221099F432914217
:1009B0000CD811990A2909D3814207D8CA00109886
:1009C0000F99401C48434000824201D81220C5E7DD
:1009D000AD48AE49027809788A4201D30720BDE7C5
:1009E000A948AB4E407800280CD00F98B18840043D
:1009F000000C884203D3FFF715FB002902D03B20EF
:100A0000ACE708E00621082C01D0072C06D1A1484C
:100A10000278002A01D02120A0E70170FFF70EFB29
:100A2000040058D098484178491C41702046FFF78F
:100A30000BFB20460021FF3081308B001B19FF3358
:100A40000133C26A491CDA660829F6DB00218B00F3
:100A50001B19FF338133C26A491CDA600829F6DBAF
:100A60002079FFF7F7FA002081000919FF310131E1
:100A7000401CCF660828F7DB002081000919FF31F0
:100A80008131401CCF600828F7DB8348217901744D
:100A900003994181049981810599C1737F4900209F
:100AA00023180A5C6033401CC0B25A710528F7D382
:100AB0002146653120460191FFF7D2FA27462037BB
:100AC000F87F02280BD22046FFF7D0FA6E48417813
:100AD000491E41707AE76F48077009203EE7704869
:100AE000002D0BD02978417069788170A978C17088
:100AF000E97801712979417169798171664A0D99A5
:100B000011700D9900297DD0664A634913784B70A6
:100B100053788B709378CB70D3780B7113794B71BA
:100B200052798A71069901700D980099C007400E9C
:100B300008430699C907090E01430291FFF79CFA81
:100B4000E062FFF79FFAA0624F48407801287AD010
:100B5000B088E08630896087F08820874E4E707CB0
:100B600038745148C0688030818DB974008EA08679
:100B7000FFF78EFA0C21FFF755FA20466030491D29
:100B8000009081762520B073012030724748029989
:100B90008180801DFFF782FA002D0DD043492A780D
:100BA000881D0A736978C171A9780172E978417268
:100BB000297981726979C1723C4821461230042238
:100BC0002831FFF771FA39482146163003222C31BB
:100BD000FFF76AFA3549B87C48760846397D817650
:100BE000797DC176014620462230027D0A77427D1A
:100BF0004A773A7E8A777A7ECA771A31027E8A717C
:100C0000407E00E01DE0C8710846083005220199C9
:100C1000FFF74AFA0098397C807E4901C006C00E71
:100C200008432249213188711448007800281DD0DA
:100C30001F48012189030078FFF73CFA00208DE668
:100C400001E01C4A61E70F98E086119961871099CD
:100C50002187B080208FF080608F3081E08E0B493B
:100C600040000978FFF7DEF9F06077E72079FFF7B9
:100C700027FAE3E7052200001909FF1F1C09FF1FDF
:100C8000FD3F00007B0C0000300DFF1F1409FF1F0B
:100C9000300EFF1F2309FF1FD40BFF1F6009FF1F2A
:100CA0007809FF1F6B09FF1FD088FF1F6C11FF1F02
:100CB0001B09FF1F6509FF1F70B50C460546FFF7AE
:100CC00005FA21462846FFF707FA0446FFF70AFA15
:100CD000204670BD10B5114AA12189001268414318
:100CE0008C189D2189000959012901D00C2010BDC3
:100CF000FFF792F90028FAD1E01DF93002790621B8
:100D0000012A06D041710D212046FFF791F90020FC
:100D100010BDFF20213001550221F5E73409FF1FE6
:100D200070B50D46134AA1218900126841438C1801
:100D30009D2189000959012901D00C2070BD002D89
:100D400016D0FFF769F90028F8D110210B1A2A5C98
:100D50001B19E033401CC0B29A711028F6D3012150
:100D6000F820015505212046FFF762F9002070BDEB
:100D7000122070BD3409FF1FFEB5089D099C17465F
:100D8000002874D0002972D0002C02D0012C02D08F
:100D900003E02A2201E0FF220732921D0192354A28
:100DA0000E461770344A106034480370344805709A
:100DB00034480470002446E0A120800025464543C5
:100DC0002D48A121006889002818FFF791F92A48C9
:100DD0002D49006862002818FF308130C6620198F2
:100DE000361800208854511848702649097800297F
:100DF0003BD0FF211131009121461C204143224864
:100E0000002220300D182A764254E0B20099FFF7F4
:100E100075F9686000202872E0B201220099FFF79E
:100E20006DF9E86000202874E0B202220099FFF713
:100E300065F968616968002919D0E968002916D048
:100E4000002814D0641CBC42B6DB00200F4D104AB1
:100E5000014683009C186580401CD154C0B261706B
:100E60001028F6D30020FEBD01E03421C3E7122094
:100E7000F9E700001409FF1F3409FF1F1509FF1FC0
:100E80001609FF1F1709FF1FA4D7FF1FFFFF000050
:100E900084D9FF1FF8B5714D0028AA7916D0012A10
:100EA00001D0032A12D16E490B78FF2B0ED14B785B
:100EB000FF2B0BD18B78FF2B08D1CB78FF2B05D1E3
:100EC0000B79FF2B02D14979FF2930D065490B7886
:100ED000012B1DD00026644C0E702178092931D0D9
:100EE0000A292FD00B292DD00C292BD00D2929D040
:100EF000052927D0062925D0A97B00290AD0012958
:100F000008D0032906D0022904D004290FD101E01A
:100F10000C20F8BD002A05D0012A03D0022A01D0F6
:100F2000032A04D1514F002875D0012801D0122086
:100F3000F8BDA888012805D0FFF7C8F82078002858
:100F400002D01AE02120F8BDA87B0300FFF7DCF8EF
:100F5000050408100C082400012020701F200AE05E
:100F600002202070202006E004202070222002E0D1
:100F7000032020702120FFF7CDF8207828210128B8
:100F80000DD002280BD0042809D0032807D0072849
:100F90000ED008280CD01BE026701E20EBE734484A
:100FA00006602975FFF7BCF8002820D0AE800FE05E
:100FB0003048C068808D80060AD52F480278002A04
:100FC00006D1AA7B032A06D0022A04D0002A02D026
:100FD000FFF788F8B6E7022202702975140321464C
:100FE0003878FFF7A3F821463878FFF763F8012037
:100FF000A88022480078002809D0214801210288D1
:101000007D20C0004243C9033878FFF795F8FFF709
:1010100069F820E0FFE7FFF759F8AE80207807284D
:1010200008D0082806D026701648FFF78BF81E2037
:10103000FFF770F810480178002905D006700121EB
:1010400049033878FFF772F8FFF74CF80121C9031C
:101050003878FFF76BF80020F8BD0000A60BFF1FE3
:101060006B09FF1F1A09FF1F1C09FF1F1B09FF1F28
:101070004809FF1FD088FF1F2309FF1F2109FF1FF9
:101080002C09FF1F00100040FFB585B016460D4625
:101090000446119FFFF71AF8154829460078049076
:1010A0002046202C00D22020202900D220210EAA68
:1010B0002CCA009201AAA8C23246089BFFF748F842
:1010C00005460C480A49448004980870012E01D056
:1010D000042E08D1084880230078C101074882887F
:1010E0009A4311438180FEF7FDFF284609B0F0BD09
:1010F0001C09FF1FA60BFF1F7809FF1F6C11FF1FA4
:1011000010B5FB2908D8084B9A4205D81B2903D3F0
:10111000FF2349339A4201D2302010BD034B19827C
:101120005A82FFF71BF810BD480800008410FF1F0B
:10113000F8B53249097801292AD0022928D0032993
:1011400026D0042924D0052922D0062920D02C49D4
:10115000097802291CD004291AD0012918D00329A2
:1011600016D0062914D0072912D00178254C8C46B8
:101170002170467866708378A370C278E270017936
:1011800021714079204D6071AF79012F02D008E0C4
:101190000C20F8BD6746EF712E726B72AA72E9726D
:1011A00028730622E91D1948FEF7DEFF0622E91D15
:1011B0001748FEF7D9FF1748017801290BD121788C
:1011C000417061788170A178C170E17801712179F5
:1011D0004171617981711048017801290BD1217821
:1011E000417061788170A178C170E17801712179D5
:1011F0004171617981710020F8BD00001C09FF1F59
:101200002309FF1F6B09FF1FA60BFF1F7211FF1F92
:101210008A13FF1FBC0BFF1FD40BFF1FF8B58446BA
:1012200057480F460178012914D00026554D067005
:101230002878092838D00A2836D00B2834D00C2832
:1012400032D00D2830D0504C607A002804D00128CC
:101250004BD101E00C20F8BD2078002805D00128F2
:1012600003D0022801D003283FD162894748111FCB
:1012700081423AD2A1890B1F834236D2914234D89F
:10128000002F01D0012F30D1604600284FD0012817
:101290002BD1207A012807D0FEF718FF20780128EB
:1012A00004D0032802D014E02120F8BD384801788A
:1012B000FF290ED14178FF290BD18178FF2908D170
:1012C000C178FF2905D10179FF2902D14079FF2892
:1012D00009D0287825210126002808D007280ED01B
:1012E00008280CD014E0FEF7FDFE1220F8BDE671D0
:1012F000E773A17405202870FEF73CFF13E0254832
:10130000C068808D400603D523480278002A02D0A9
:10131000FEF7E8FEC8E7A174067020480121090322
:101320000078FEF7C7FE2672FEF7DCFE25E0FEF72A
:10133000CDFE2878052804D007280AD0082808D030
:101340000FE02E701648FEF7FDFE1E20FEF7E2FEAF
:1013500007E0114801210670104809030078FEF7E4
:10136000E5FE26725820FEF70BFF0A480670FEF7CE
:10137000B9FE0C4801680129FCD00020F8BD00002E
:101380001909FF1F1C09FF1FBC0BFF1FFD3F0000B9
:101390006B09FF1FD088FF1F2309FF1F1B09FF1FB9
:1013A000001000409809FF1F38B51C46049B0093AD
:1013B0002346FEF7EBFE002812D10B49002C0C70DF
:1013C0000FD0022C0DD0094A13784B7053788B70D4
:1013D0009378CB70D3780B7113794B7152798A71F2
:1013E00038BD034AF0E70000BC0BFF1F6B09FF1F6D
:1013F0006509FF1FFFB581B0044602981F461646D7
:10140000002814D0002E12D0002F10D02046FEF756
:1014100003FE00280CD1A120800044432C48006822
:101420002418E51DF935287B002803D00EE0122092
:1014300005B0F0BD2749002023180A18FF330133F7
:10144000401C5278C0B25A730828F5D3687BC00795
:1014500038D0002002992218095CC032401CC0B26A
:1014600011700828F6D320463178C03001727178A7
:101470004172002010210B1A3A5C1B19E033401C0A
:10148000C0B29A711028F6D32046B830FEF784FE19
:101490002046AC30FEF786FE0C210F48FEF788FE92
:1014A00000207B2108552146E031C8750876A62129
:1014B000095D012908D0287103212046FEF7B8FDF7
:1014C0000020B5E71120B3E7012028710A21F4E7D5
:1014D0003409FF1F480EFF1F3811FF1FFFB50D46CF
:1014E000A12189004843234981B009681E46441858
:1014F000002D09D0FF20D930015B0398814203D32E
:10150000002E04D0012E02D0122005B0F0BDE078EC
:1015100000280AD00520C00127181748F97800785C
:10152000801C814203D30720EFE70220EDE7FEF79E
:10153000CDFDF878A91E401CF87003980870002EA5
:1015400010D00120487020467C30091FFEF736FE7F
:10155000FEF7C8FD09480078082805D0072803D001
:101560000020D2E70220EDE700212046FEF72CFE06
:10157000F6E700003409FF1F1509FF1F1C09FF1FB4
:10158000F8B50F4E307A002818D10E4CE0690E4F96
:10159000C005C50F02D1E0693843E06104210B4862
:1015A00000F016F809480421103000F011F8002D61
:1015B00002D1E069B843E06101203072F8BD00005B
:1015C000D088FF1F00F0004000010000C4D9FF1FB9
:1015D000F3B50746104881B0C169104A1140FF3188
:1015E0000931C161002613E000252C461120FEF7C9
:1015F000F1FD0948406A8007800F61008840284358
:10160000641CE4B20546102CF0D301C7761CF6B278
:1016100002988642E8D3FEBD40F0004000FEFEFF87
:10162000F0B500248BB00D460646102902D90120E2
:101630000BB0F0BDFFF7A4FF1F4900200A5C401C5F
:101640001419C0B21028F9D3002C03D0102D03D9DF
:101650000B20EDE70E20EBE71848174C002300683D
:1016600002A91034E25CC75C7A40CA545B1CDBB24E
:10167000102BF7D306AA1048FEF7B2FD102D00D9A3
:1016800010252A4606A93046FEF76EFDFEF7AEFD90
:10169000216840182060FEF7A9FD6168401860606D
:1016A000FEF7A4FDA1684018A060FEF79FFDE16869
:1016B0004018E0600020BBE7C4D9FF1F3C89FF1F32
:1016C00070B50446FF30FF300230406F0D460128F0
:1016D00012D1282D10D1A420005BE188401A1D49A9
:1016E00080B2884208D321466A3105220E46481F3F
:1016F000FEF782FD002818D01749002082005218FA
:101700005278002A16D0401CC0B21028F6D31348D5
:10171000012189020078FEF7CDFC207901011048F3
:101720000918897902290DD00FE031462046FEF7CD
:1017300097FC70BD80002379421853800D5401201E
:101740005070E4E74178491E41702046FEF75AFD8B
:1017500070BD0000FF7F000084D9FF1F1B09FF1F21
:10176000300DFF1FF0B505468DB0A0300B90284618
:10177000FF300E300390092080012F18E81DFF3044
:10178000FA300890E0380790C030EE1DF9362C464C
:1017900080340990F0E0E07A0B2870D009DC030077
:1017A000FEF7B2FC0B37551C6EEAEABFF0EFEED63F
:1017B000EA0016286FD008DC0C286DD011286CD0F8
:1017C00014286BD01528E5D166E1182867D01A28AF
:1017D0007CD01B287BD0FE28DCD119E2A07A01281E
:1017E00003D02846FEF714FD19E0FA488078002857
:1017F00004D02846FEF712FD162106E0608A401E3E
:101800000004000C60827CD00CE22846FEF70CFD40
:10181000F6E1A07A012804D02846FEF70BFDA0725D
:1018200000E2EC48807800280ED0207E4000207630
:10183000608B40006083A08B4000A083208C00015F
:1018400020840120207510E02889E18A13E0A07A25
:10185000012803D02846FEF7F3FCE0E7DD48807856
:10186000002806D00B99012088702846FEF7D6FC88
:1018700082E02889A18C8842C6D12821C5E784E06E
:10188000A07A01280CD02846FEF7E0FCA0720020C8
:101890007072B072C6E111E1C3E055E1E9E027E101
:1018A000CC48C078002801D000202071707A01282F
:1018B0000ED0B07A012813D0F07F0128D5D0608AED
:1018C000401E0004000C60826CD0ABE167E189E14E
:1018D0000020E06730600B9901208871062148E004
:1018E0002846FEF79BFC0B990020887101207B2184
:1018F0004855207170790628287906D000221A21CF
:1019000000E03BE1FEF7A8FC36E000220621F7E705
:101910002221FEF7A7FC31E100222221FEF79CFCE8
:101920002CE1A07A012806D02846FEF7A1FCA0727F
:101930000020B07176E1B0790128C0D12846FEF7C9
:101940006DFC00203072F0717072B071B07213E0F3
:10195000A07A012806D02846FEF790FCA07200204D
:10196000F0715FE1F0790128A9D10B99002088710D
:101970000B212846FEF788FCE07B002803D00AE70D
:1019800040E014E03EE10DB0F0BDA07A012803D0A4
:101990002846FEF77FFC42E78E48C07800288ED0AC
:1019A0000321E6E7307901282879B5D1B0E7A07A9C
:1019B000012811D0884900202B180A18FF33013361
:1019C0005278401C5A730828F6DB2846FEF768FC5C
:1019D000A0720020307325E1307B012806D0608A98
:1019E000401E0004000C608206D01BE12979002013
:1019F000039AFEF75BFC38E729792220039AFEF769
:101A000055FCBBE0A07A012803D02846FEF754FC21
:101A100005E77048C078002800D1EFE60120307358
:101A200023E7A07A012805D00120F0752846FEF7AB
:101A300049FCF4E6707D012806D0608A401E00044F
:101A4000000C60820CD0EDE0B07D0128D3D1B08BCA
:101A50000090738B327E29790020FEF739FC04E771
:101A6000B08B0090738B327E29792220FEF730FCF8
:101A700084E0A07A012807D02846FEF72FFCA07248
:101A8000099900204874CDE05248C0780028C4D09D
:101A9000099901204874E8E6A07A012803D0284675
:101AA000FEF722FCBBE64B48C0780028B5D0099968
:101AB000002008742879FEF71DFCD6E6A07A0128DC
:101AC00007D02846FEF71CFCA07208990020087277
:101AD000A8E04048C07800289FD0089901200872EB
:101AE0003E484079012886D1089900200872BCE65A
:101AF000A07A012803D02846FEF708FC8FE6354877
:101B0000807800281DD00798007B002803D1079813
:101B1000407B002808D0079901200874089900200C
:101B200008720899C871A0E60998417E0798017368
:101B30000998817E0798417300212846FEF7ECFB47
:101B4000ECE72889718E96E6A07A01280ED00898D5
:101B5000007A012814D00B988078012812D0207DBB
:101B600001280FD0387E012811D05BE01948C078D9
:101B700000288CD007990120887276E6222144E65D
:101B8000232100E02A212846FEF7CCFB47E6797E98
:101B90002846FEF7C7FBA0720020787642E0A07AC4
:101BA000012806D02846FEF7C3FBA0720120387634
:101BB00038E00848C078002899D1608A401E0004A7
:101BC000000C60822ED10648042200212818FEF75E
:101BD000B5FBD3E7E010FF1F480EFF1FD088FF1FA3
:101BE00056020000A07A012803D02846FEF7ACFB7D
:101BF00015E60F48C078002802D00020F87534E6BA
:101C00000120C0E62846FEF7A5FB01288BD009E09D
:101C100007990120C875FF2149314853044880784D
:101C2000012801D00020AEE607980178EDE500001C
:101C3000E010FF1FF0B5054687B0E030049028465D
:101C4000A030039040380590092080012E462818C6
:101C5000FF36E136029030462030EF1DF9372C4632
:101C6000803401909FE1E07A801E0300FEF74CFA79
:101C70001A0E3822396BF638C13892D1A938383863
:101C8000383838F5F4F3F23838F1F038A07A012812
:101C900003D02846FEF7BCFA12E0C5488078002839
:101CA00001D0162130E1608A401E0004000C6082E1
:101CB0006FD076E1A07A012804D02846FEF750FBC9
:101CC000A0726EE1BA48C0780028ECD02846FEF732
:101CD000A5FA2A4629462879C832C031FEF746FBC4
:101CE00061E1A07A012813D00498C07D012821D099
:101CF0000498007E00287BD02A4629462846D73201
:101D0000B031E730FEF76CFA04990120C8754AE15A
:101D1000A748C078002805D00399012088710020C9
:101D2000E0673860B8790128BDD106212846FEF762
:101D3000ABFA38E12846FEF71FFB0128B9D1002095
:101D4000B8710120BCE7A07A012803D02846FEF72D
:101D50008FFAB5E79648C0780028A4D0E88C68844C
:101D60002846FEF75BFA05990120C876207138797C
:101D70000128287909D001220021FEF76DFA002000
:101D800038713872F871B8710DE10021FEF76AFA06
:101D9000F5E7B8E0A07A012805D02846FEF77AFAE0
:101DA000012807D0FDE0F8790128BDD12846FEF7CB
:101DB00035FAF8E00020F871039988710120A072CB
:101DC000F1E0A07A012804D079792846FEF7DAFA02
:101DD00076E77748C178002906D0039A00219171EF
:101DE000059A0121D176217180780028DED15AE749
:101DF0008EE0A07A012803D02846FEF75DFA5FE75F
:101E00006B48C0780028F2D001203873E88C6884D1
:101E1000CCE7A07A012805D00120F8752846FEF706
:101E200051FA4DE7787D012806D0608A401E0004F3
:101E3000000C608213D0B4E0B87D0128B6D1B88B15
:101E400000907B8B3A7E29790020FEF741FAADE7BE
:101E50008FE072E03BE02DE01BE009E09CE0B88BF6
:101E600000907B8B3A7E29792220FEF731FA4AE0F6
:101E7000A07A012806D02846FEF730FAA07200208A
:101E800070748EE04A48C0780028B0D00120707489
:101E90008CE7A07A012803D02846FEF725FA0FE741
:101EA0004348C0780028A2D0002030742879FEF77B
:101EB00021FA7BE7A07A012803D02846FEF720FA12
:101EC00036E03B48C078002891D0012018E0A07A85
:101ED000012807D0707FB17F08401BD041071DD576
:101EE000042020E03248C07800288CD001990020DE
:101EF000C871019A012111722E490979012987D1EE
:101F00000199087252E722212846FEF78DF9012037
:101F100007B0F0BD707E7075B07E05E0800701D51A
:101F2000022000E001207075B0752846FEF730FAF7
:101F3000A07201990020087233E0A07A012807D02E
:101F40002846FEF7F5F9A07202990120087628E0EC
:101F50001748C07800289BD1608A401E0004000CFE
:101F600060821ED11448042200212818FEF7E6F9E9
:101F7000C9E7A07A012803D02846FEF7E5F99FE6D5
:101F80000B48C07800280ED00299002008760299EC
:101F9000C875FEF703FA09E72846FEF7DBF90128C2
:101FA00087D00020B4E7E07B002800D05BE6AFE7F5
:101FB000E010FF1FD088FF1F5602000070B51F48B9
:101FC000012201781E4D002915D01E48A1218078DC
:101FD000890048431C491D4C096822704618207826
:101FE000FEF7E2F9A87B00281AD003281BD00228AC
:101FF0001CD0002070BDA97B002904D0032904D087
:10200000022904D005E0027003E0042100E003216E
:102010000170FEF785F80E4900200870012070BDA0
:10202000FEF7C8F904E0FEF7CBF901E0FEF7CEF9C0
:10203000FF36FF360236317B217070BD1C09FF1F51
:10204000A60BFF1F300DFF1F3409FF1F490AFF1F9A
:102050002309FF1F1449134888631348134940306C
:1020600041611349016113490F4A01621249803AE3
:102070001163124901601349114A0A60124A8A60C9
:102080001249104A41621249403A51611149816036
:102090001149816111494160124A11499160124907
:1020A000C16170472147FF1F8001FF1FA913021163
:1020B0001D120211F5130211712AFF1F651702117B
:1020C000395AFF1F8002FF1F6163FF1F1D4BFF1F57
:1020D000DD76FF1FF578FF1F010902118148FF1F00
:1020E000C11602118000FF1F7921021110B5FEF701
:1020F00073F9FEF777F910BD03480249C16003493F
:1021000081617047A56FFF1F8002FF1F1965FF1FC8
:102110000E480D4901600E4981600C490D4A40315D
:102120004A610E4B0C4A5A610D4AC2620D4A8263E3
:102130000D4A8A600D4A4263084A0D48403A1062CF
:102140000C48886170470000891002114000FF1F91
:10215000950E02113D79FF1FDD76FF1F4002FF1F24
:10216000E94AFF1FFD48FF1FC1160211351C02116D
:10217000794EFF1FE52FFF1F70B5FDF7A7FF904CAD
:10218000002025682060FEF733F906462560FDF73C
:10219000A9FF304670BD8B49C968FF318131886520
:1021A0007047F8B5FEF72AF9864D874A68721178AC
:1021B000022903D9002801D1012010708349002091
:1021C0000446E9608300401CCC50FF28FADDE86833
:1021D0007F49882319507F49C1627F4909780029C6
:1021E00002D07C491131C1620A21016511788163F5
:1021F0007A49C161FEF708F9E96879484861192010
:1022000080018861084637228030C2600823362268
:102210000B64CA631E224A64362242603222026084
:102220003B220364C263282242644122C2643922F1
:102230008264322243650265282282650222026698
:102240004222C2651E22836642662822C26620227E
:102250004267422202675A22436102613C22826144
:10226000192292010A605F4A0A63FF222D328A60B6
:10227000CA60FF22F5320A615B4A8A647D22D2007D
:102280005A4EC267CE644A62594A8A623222CA658D
:1022900006224A658A65CA1DF932022513604D6619
:1022A0004B25ED008D660925CD66524D0D678C6777
:1022B0004B67AB10CB67504FFF313E604A4E866292
:1022C0007D26F6008667642646620526C6620226DB
:1022D0000663C8264663846338205060474810640C
:1022E0004B2080019061B000D061581010627D20B9
:1022F00000015062D466956513665364D565146712
:1023000053671E2090663E4890673E485B008131CF
:10231000D0670B608B604860FF20F530C8600861B3
:102320004B20C00010630E6538483749274A81604A
:102330003749803A11613549364A80318A62364AD6
:10234000CA62364A8261364AC262364A02632F4AFC
:102350003548403A50633548D0633548C861354800
:1023600090632A4934484031886135493348886050
:1023700026483449803841603349244A416333490F
:10238000C03AD1603349324B204CCB63324B403C96
:102390002363324B9362324AC263324AC260324A8A
:1023A0004A63324AE260324A8A63324A0A633249F5
:1023B0008163FEF72FF80120FEF732F8F8BD000028
:1023C0009809FF1FD088FF1F4A0AFF1F0004FF1F44
:1023D00098E2FF1F6E0400004086FF1F3A070000CE
:1023E00080C3C9019A02000050C30000280A0000FF
:1023F0006A180000204E0000F009FF1F0040001185
:10240000DC05000040420F000153FF1F0001FF1FC9
:10241000492DFF1F317CFF1F057FFF1F552AFF1F1E
:10242000E92BFF1F712AFF1F8D3CFF1F413AFF1F41
:10243000D983FF1FC581FF1FCD29FF1F0111021185
:102440000002FF1F7549FF1F8550FF1F9D2FFF1FB3
:10245000B90C02110000FF1F397AFF1F594CFF1FF2
:102460005156FF1F914CFF1F852FFF1FC949FF1FAA
:10247000DD140211312FFF1F7D72FF1F0A780270D9
:102480008A7842704A88120A82700979C1700420E1
:1024900070470A7802700988090A41700220704763
:1024A0000A7802700988090A417002207047097889
:1024B00001700120704770B50C46097801702188C1
:1024C000C51C090A4170A17881706088611D000AED
:1024D00028706D1C22792846FDF746FE207921469A
:1024E000401922890A31FDF73FFE207921894018E1
:1024F000001D80B270BD10B500220EE093005B1885
:102500009C7804705C88521C240A44701C79847086
:102510009B88D2B21B0AC370001D0B789342EDD882
:102520001806800D10BD0A7802700A88120A4270DF
:102530008A7882704988090AC17004207047F8B50A
:102540000D4606464978012031700024761C16E0BD
:102550006978012917D01221614349198A783270AC
:102560004A88871C120A7270B61C10223046091D58
:10257000FDF7FAFD1037B8B21036641CE4B22978C2
:10258000A142E5D8F8BDA10049198A7832704A887D
:10259000871C120A7270B61C02223046091DFDF714
:1025A000E3FDBF1CB8B2B61CE7E710B50C460978CE
:1025B00001702188090A41706288211D801CFDF785
:1025C000D3FD6088801C80B210BD10B50C46097820
:1025D00001702188090A4170A17881706188090A17
:1025E000C170A288A11D001DFDF7BEFDA088001DC1
:1025F00080B210BD10B50C46097801702188090A17
:102600004170A17881706188090AC170A288A11DFA
:10261000001DFDF7A9FDA088001D80B210BD0A783D
:1026200002700A88120A42708A7882704988090A00
:10263000C1700420704710B50C460A88891CFDF74C
:1026400093FD208810BD10B50B788A780270534333
:10265000DCB22246401C091DFDF786FD601C10BD42
:1026600010B50C46097801702188090A4170A178DB
:1026700081706188090AC1702279611D001DFDF712
:1026800073FD2079001D10BD10B50B788A7802709B
:102690005343DCB22246401C091DFDF765FD601C5A
:1026A00010BD10B50C460A88891CFDF75DFD208819
:1026B00010BD10B50C460A88891CFDF755FD208811
:1026C00010BD10B50C46097801702188090A4170C7
:1026D0006288211D801CFDF747FD6088801C80B248
:1026E00010BD7FB515460446022901D0102903D13B
:1026F000022B04D0102B02D0002004B070BD9942F0
:1027000002D10A46294607E01029694607D000F0A1
:102710000DF8102269462846FDF76EFDEDE71046DC
:1027200000F004F8102269462046F5E770B50C4623
:1027300005000CD0002C0AD0102206492046FDF7D7
:1027400013FD2878207368786073012070BD002025
:1027500070BD000018F2021110B50B4601220249AB
:1027600003F0F6F910BD00007D24021110B50A88AF
:10277000173AE02A05D80B460222034903F0E8F98C
:1027800010BD022010BD00009324021170B5064652
:1027900008880C46172812D30B46032209493046F5
:1027A00003F0D6F9050008D1074920880988884236
:1027B00000D20146304600F099FA284670BD02204A
:1027C00070BD0000A12402115089FF1F10B50B46F7
:1027D0001822024903F0BCF910BD0000AF24021119
:1027E00010B500231922194603F0B2F910BD0000FC
:1027F00010B50A79022A01D0022010BD0B4606222C
:10280000014903F0A5F910BDB724021110B50A78EB
:10281000002A05D00B460722024903F099F910BDA2
:10282000022010BDF724021110B50B460422024904
:1028300003F08EF910BD00002725021110B54A786B
:10284000012A01D0022A08D10A78002A05D00B46B5
:102850000522034903F07CF910BD022010BD0000E1
:102860003F250211024940008968085A704700005C
:102870004489FF1F10B500231E22194603F068F992
:1028800010BD000010B50B461D22024903F060F98F
:1028900010BD0000AB25021110B506490020896863
:1028A0001723054A02E044000B53401C1478A04251
:1028B000F9DB10BD4489FF1F248AFF1F042901D0C2
:1028C0000420704701781170837841781B02C91881
:1028D0005180C0781071002070470098022B01D001
:1028E0000420704711785278120289180180002064
:1028F0007047022901D00420704701784078000217
:1029000008181080002070470098012B01D0042087
:1029100070471178017000207047002901D0042011
:1029200070470020704770B5049C1E461546062B64
:102930001BD369782878090240182080E978A878A4
:1029400009024018608002222271291D601DFDF7D6
:102950000BFCB61FB2B22281F02A06D82046A91D70
:102960000A30FDF701FC002070BD042070BD009806
:10297000042B01D004207047537811781B02C9182A
:1029800001809178D2781202891841800020704726
:1029900010B502981146022B0FD34C780A78240206
:1029A000121902809B1E9AB24280F42A05D8001D9B
:1029B000891CFDF7D9FB002010BD042010BDF8B51F
:1029C00084890D460646002C26D0B2681778380652
:1029D00020D50C2C20D90C3CA4B210190090012158
:1029E0007088234603F03CF8002811D0022028709C
:1029F0007806C00F6870B806800EA870641E2004A8
:102A0000000CA88001D0B068401CA8600020F8BD70
:102A10000120ECE70020EAE70120F8BD10B502989C
:102A20001146042B14D34C780A7824021219028020
:102A3000CC788A782402121942801B1F9AB28280B5
:102A4000F22A05D8801D091DFDF78EFB002010BD60
:102A5000042010BD0098042B01D004207047537847
:102A600011781B02C91801809178D2781202891856
:102A700041800020704770B50546144603290CD3E9
:102A8000491ECEB229786180F52E06D8002904D0DF
:102A90003046FDF7C7FA002901D0042070BD207030
:102AA0003246691C201DFDF75FFB002070BD10B58C
:102AB00002981146062B03D0142B03D0042010BD1E
:102AC000022200E0102202714B780A781B02D21811
:102AD0000280CB788A781B02D21842800279401D8E
:102AE000091DFDF741FB002010BD70B505461446D9
:102AF00003290CD3491ECEB229786180F52E06D861
:102B0000002904D03046FDF78DFA002901D00420B9
:102B100070BD20703246691C201DFDF725FB00208A
:102B200070BD000030B5039CD80718D1D805010E40
:102B3000022914D30B488088814210D8F620015511
:102B4000002008E0557813782D025B194500401CE1
:102B50006353C0B2921C8842F4D3002030BD0420DD
:102B600030BD00004489FF1F0098022B01D00420D3
:102B7000704711785278120289180180002070473E
:102B800070B5144602460498022B18D3667825784F
:102B90003602AD1905800546E0352A766976002AA9
:102BA0000BD0E8219B1E9AB242808A4207D8A11C12
:102BB000001DFDF7D9FA002070BDF421F2E70420D2
:102BC00070BD002901D0042070470020704700002C
:102BD00010B50B461622024902F0BAFF10BD0000E4
:102BE000CB25021110B50B461722024902F0B0FFA7
:102BF00010BD0000F525021110B50B460C2202494C
:102C000002F0A6FF10BD00001F26021110B50B46F2
:102C10000D22024902F09CFF10BD00003726021170
:102C200010B50A79102A03D0022A01D0022010BD63
:102C30000B461022014902F08BFF10BD61260211E4
:102C400010B50A78002A05D00B461122024902F07D
:102C50007FFF10BD022010BD4726021110B50A7972
:102C6000102A03D0022A01D0022010BD0B460822F0
:102C7000014902F06DFF10BD6126021110B50A78FE
:102C8000002A05D00B460922024902F061FF10BD5F
:102C9000022010BD8926021110B50B460F220249F1
:102CA00002F056FF10BD0000A326021110B50B461E
:102CB0000B22024902F04CFF10BD0000B3260211A6
:102CC000F72800D9F720084A01461080401EC31794
:102CD0009B0F18188003000C5080491EC80F401825
:102CE000C003000C908070474489FF1F034A13887B
:102CF000994202D892684000115270474489FF1FE0
:102D000070B50B46E0331C7E1222012C0AD10A4D0D
:102D100042002D684C88AA5A0F3A944201DD0220E5
:102D200070BD92225B7E012B01D140231A430B46DA
:102D3000024902F00DFF70BD4C89FF1FC32602112E
:102D400010B500231322194602F002FF10BD000047
:102D5000FFB593B005460020109011901E4610AAB2
:102D6000284600F0B9F904460A2855D203F0F1FBD1
:102D70000546082E19D00020009033462A462146E9
:102D8000159803F0F7FA142200210BA8FDF7D6FAE4
:102D900020460621484307462430C0B20BAA102122
:102DA00009F0B8FF002802D014E00120E4E7102267
:102DB000FF210BA8FDF73AFB00280BD12537F8B20D
:102DC0000FAA042109F0A6FFE907C90F0BAA15985D
:102DD00001F05EF87034E0B201AA282109F09AFFF0
:102DE000002811D101A803F0C6FB002401AFA00008
:102DF000C0190188002903D08278159801F008FBDA
:102E0000641CE4B20A2CF2D3A80707D5164801784F
:102E1000159801F0EBFA01E0082E02D0042E17D02D
:102E20001FE0114815991630405C022819D1002284
:102E30002946159803F014FA0B48006A002810D0B0
:102E40004368002B0DD0002211461598984708E0E2
:102E5000054815991630405C022802D1084603F057
:102E6000C7FB002017B0F0BD7C86FF1FF0B50446FD
:102E70008078964F801F3D4685B0163D00260300A2
:102E8000FDF742F90AFC1111881B06CC115D99115E
:102E9000286A002808D00668002E05D0637B227BB4
:102EA0006189E01CB0470EE16189E86900F0DAFE53
:102EB0000028F8D060890121D7E0607800282CD163
:102EC000A079C00729D0A08881498000085800282F
:102ED00023D10E2200216846FDF730FA61690029EE
:102EE00003D006226846103107E0A08807F0F6FA02
:102EF0000028D8D0C11D06226846FDF735F969467D
:102F00008889A1794907C90F084369468881214604
:102F1000684603F0E7F8002809D0286A0028C2D0E4
:102F20004368002BBFD06278A08801216FE0A088A1
:102F30002246694603F02CFC002005B0F0BD607805
:102F4000062817D1A08807F0C9FA060012D0687BBE
:102F5000012804D0022808D003280BD114E0B1794D
:102F6000A088002203F07CF904E0A18830780522D3
:102F700000F0C4FF286A00281CD04368002B19D039
:102F80006278A088022142E000221146514800F0F8
:102F9000FDF8EAE7E0780022211D00F09DF80A28FC
:102FA00008D20621484325302246C0B20C32042103
:102FB00009F0DCFE87E0287A0028A08801D0697A31
:102FC00053E0395C002924D007F088FA0646A07A3D
:102FD000C0070DD0002E76D0B079002808D0A18986
:102FE000890505D46A46F11D00F076F8002812D054
:102FF0002246B179A088083203F032F9286A002805
:1030000061D04368002B5ED00022A088114698470B
:1030100059E0052129E0A088032126E0A588019632
:103020002846029607F05AFA04004CD0785D022830
:1030300049D0A07901AAE11D00F04EF806460A2801
:103040000AD203F086FA0246012000900823314696
:10305000284603F08FF936E0785D002803D0012878
:1030600006D030E00AE00521284600F037FF2AE0CC
:10307000A1790022284603F0F3F824E000F0D2FD05
:10308000002820D1E87B012806D0114D00240C3DFA
:10309000285D01280AD00DE003F0ACF90C48EE736E
:1030A0000A2200210C38FDF749F907E0204603F019
:1030B000ADF92E55641CE4B20A2CE9D3502009F076
:1030C00027FE03F067FA012037E700009286FF1F12
:1030D00044C9FF1F09040000F0B50A2485B0154655
:1030E0000F46002806D0012804D0022810D003285B
:1030F00046D11FE0084603F0EBF904460A283FD208
:10310000002D3DD0062239462846FDF72DF837E040
:103110001D4E00240E206043801906223946801D72
:10312000FDF76AF8002823D1641CE4B20A2CF1D31D
:103130000A241DE000242046062148432330C0B263
:103140006A46102109F0E6FD00280CD11022FF216B
:103150006846FDF76BF9002805D13946684600F04E
:1031600039FE002804D0641CE4B20A2CE3D3DFE764
:103170000A2C05D2002D03D02946204603F0CEF9B3
:10318000204605B0F0BD0000ACC8FF1FFEB51546D7
:1031900001229202821A00240127584E1300FCF7E4
:1031A000B3FF110A151A21282F373E434B767E852F
:1031B0008DA29956A200012970D1297802296DD8D3
:1031C0004E4804221630FDF7B9F894E0022965D183
:1031D000288870828FE0012960D1287801285DD885
:1031E000707088E001297CD12878042879D8B070E3
:1031F00081E0012975D12878012872D8F0707AE031
:1032000010296ED1102229463D48FCF7ADFF72E02F
:10321000012966D12878012863D830716BE0012933
:103220005FD12878B07266E004295AD13549286800
:10323000884256D8F0615EE0002952D100F0F2FCDD
:10324000002801D0F77356E003F0D4F819E00729FD
:1032500047D10622691C6846FDF7EEF8287800225F
:103260006946FFF739FF05460A280ED200F0DAFC5E
:10327000002803D022489C3047553CE0284603F004
:10328000C5F8502009F044FD21E0022433E0012973
:1032900027D12878012824D830722CE021E0012998
:1032A0001FD1287809281CD8707224E0012918D170
:1032B0002878C11F092914D8F0721CE0012910D107
:1032C000B17B2878B073002915D1012813D103F000
:1032D00061F910E0012904D12878032801D870731E
:1032E00009E0182407E02728CFD20229CDD1298868
:1032F00000F0BEFD04462046FEBD00007C86FF1F98
:103300009CC8FF1F3F420F00F8B50F461349152513
:10331000164688420DD1002432463946204603F035
:1033200087F9002800D00025641CE4B20A2CF3D3EE
:1033300012E007F0D3F800280DD08379C11D0022D8
:103340001846FFF7C9FE0A2806D23246394603F06E
:103350006FF9002500E014252846F8BDFFFF0000A6
:1033600010B50248807800F081FA10BD7C87FF1FFD
:103370003EB5084C6D46A4782C706870A970EA7050
:103380000622194601A8FCF7EFFE684600F050FB44
:103390003EBD00007C87FF1F70B52D4E0C462B4BA9
:1033A000024631460025C01A20319A4244D00CDC36
:1033B0002848101A0300FCF7A7FE0D1D1F232A2D15
:1033C000161616163A16163D160006282BD006DCE1
:1033D000032833D0042822D0052804D121E007286F
:1033E00023D0F7282CD0272A2CD2104600F0A2FB9D
:1033F000208028E030781BE01022711C204603E07A
:103400001349102211312046FCF7AEFE1BE0706A12
:10341000206018E00E49062228312046F4E7F08D9E
:10342000E6E7308EE4E7708EE2E7B08EE0E7087EF4
:10343000207008E0487EFBE7887EF9E7C87EF7E762
:10344000087FF5E70225284670BD00000D03000047
:1034500080CFFF1F0003000010B50A4CA07009F0D8
:103460001DFA442200210848FCF768FF01F05EF9CC
:10347000A07801F0CDF9FF22F5320421A078FCF705
:10348000E1FF10BD7C87FF1F80CFFF1F70B50C468A
:10349000080417D51D488078FCF7DAFF05000ED028
:1034A0000178A22908D0B02904D0D02904D101F094
:1034B00087FE01E008F06CFB2846FCF7CFFF0120F7
:1034C000C0031FE0E00703D009F07CF9012019E0F8
:1034D000A00702D50220484070BD200707D50CA0E8
:1034E00002F0C0FB0E4800F0E7F808200AE0600791
:1034F0000AD5FF20F53009F03BFB09F093FA09F0FB
:10350000ADFA0420604070BD002070BD7C87FF1FB5
:1035100063616E63656C20636F6E6E0A000000006D
:10352000FEFF0000F8B5554E1546534B0246374690
:103530000024C01A20379A424AD00EDC5048101A94
:103540000300FCF7E1FD12272C323B202020202035
:103550005420205B622020694020F4286BD008DCD6
:1035600001283AD002283DD0F2285AD0F3280AD1B7
:103570005CE0F52864D0414B4033F62865D0F7284D
:1035800068D0F8286BD0272A01D202296ED00224F5
:103590002046F8BD012964D128783070F8E7102959
:1035A0005FD110222946701C05E0102959D13348FB
:1035B000102229461130FCF7D7FDE9E7042950D144
:1035C00028687062E4E702294BD12888F085DFE79C
:1035D000022946D128883086DAE7022941D1288895
:1035E0007086D5E702293CD12888B086D0E701292A
:1035F00037D12878042834D83876C9E7012930D162
:10360000287807282DD87876C2E7012929D128788B
:10361000032826D8B876BBE7012922D12878F87686
:10362000B6E701291DD128783877B1E7012918D1EB
:1036300028787877ACE7012913D12878B877A7E7FD
:1036400001290ED12878F877A2E7012909D1287835
:1036500018709DE7012904D12878587098E702294D
:1036600001D0182494E72888588091E729881046CB
:1036700000F0FEFB04468BE71203000080CFFF1F23
:103680000003000010B5002801D0034A506008462E
:1036900001F064FD002010BD7C87FF1F38B5054B8D
:1036A0006C469B7823706070A170E270684600F0F1
:1036B000F9F838BD7C87FF1F014610B50248132278
:1036C000807800F01BFC10BD7C87FF1FF8B5044616
:1036D0002F480F460078022805D0012803D008287B
:1036E00003D1002F01D01220F8BD002C08D0294DA5
:1036F0002088EA6881005158002903D01120F8BDC4
:103700000220F8BD06F0EAFE06003BD02C20FCF7B4
:10371000ABFE2188EA6889005050002834D02C2262
:103720000021FCF70BFE2088EA68810051581C221A
:1037300048802088E96880000858211D001DFCF79A
:1037400013FD2188EA6889005158022008702288F8
:10375000E96890000B5870791B1D002816D00020D6
:103760000D49097802F020F90546002F03D03946AB
:10377000304609F09BFF002D02D0208803F0B8F8F6
:103780002846F8BD1420F8BD1320F8BD0120E7E756
:103790006589FF1FC889FF1FF589FF1FFFB5204DF1
:1037A00081B028781E461746022823D0012821D050
:1037B000002F22D0019806F091FE04001FD0606A0D
:1037C000002801D0FCF756FE1C213846FCF758FEB5
:1037D0006062011E15D02878000714D5002E12D083
:1037E000887E00900B4612330A8A01980AF042FA4A
:1037F000014609E0122005B0F0BD0220FBE71420CD
:10380000F9E71320F7E70021207904221043207103
:10381000029A002A02D00222104320710846EAE7E9
:103820006589FF1F10B505480078000701D50448D9
:1038300000E0002003F0DCFC10BD00006589FF1FE4
:103840005C89FF1F10B5FEF7A6FC06480A21007828
:10385000084204D0044803F0C5FC002010BD01203C
:1038600010BD00006589FF1F5489FF1F10B50B496B
:103870000968002904D00978814203D0032010BDD3
:10388000122010BD064801210078FCF74FFC3020C3
:1038900003F0DCFC002003F0D5FD10BDC089FF1F44
:1038A000F589FF1F38B5234D04462868002801D04C
:1038B000112038BD20480A210078084201D1122089
:1038C00038BD0420FCF7D0FD286000282FD004224A
:1038D0002146FCF749FC00F0A5F9002805D00C2092
:1038E00000F028F905460D2007E06078022812D084
:1038F000102000F01FF90546112000F01BF90246C8
:10390000E078002800D0012000900C4800780028C2
:1039100007D0012306E0122000F00CF90546132021
:10392000EBE70023A0782946FCF7B0FD38BD132053
:1039300038BD0000C089FF1F6589FF1F6689FF1F12
:10394000FFB51E4681B017460D4602240B00FCF75A
:10395000DBFB0D210B0B0B0B210B210B0B2121088A
:1039600021000EA002F07EF92946019800F05EF9D0
:1039700004000FD130460B9A0A9900F02FFA38460E
:10398000FFF760FFFFF74EFF01F030FF00F08EF908
:1039900001F0CEFF204605B0F0BD00004741505F6A
:1039A000446576696365496E69743A204741505FA2
:1039B00050524F46494C455F43454E5452414C206E
:1039C0007C204741505F50524F46494C455F50451F
:1039D000524950484552414C200A000070B5104CE5
:1039E0002168002904D00978814203D0032070BDEA
:1039F000122070BD0B4D02212878FCF797FB0A4876
:103A00000026468004212878FCF790FB07480680B2
:103A10002168032048700020FCF73EFD70BD0000C7
:103A2000C489FF1FF589FF1FD889FF1F6889FF1F01
:103A3000F0B505463B4889B00078000702D4122053
:103A400009B0F0BD02F0C6FF002801D01020F7E752
:103A500000F0E8F834490978884201D31520EFE7EF
:103A6000324C2068002801D01120E9E70A20FCF739
:103A7000FBFC2060002851D00A222946FCF774FB89
:103A800020684078002805D00E2000F053F80890F8
:103A90000F2004E00C2000F04DF808900D2000F0FD
:103AA00049F8054622480078002835D001261C2018
:103AB00000F040F804901B2000F03CF8039019201F
:103AC00000F038F802901A2000F034F8074616206B
:103AD00000F030F80190152000F02CF800902168DB
:103AE000C878091D02F0BBFA034602A807C804976C
:103AF00005AF07C72268019900980391141D029031
:103B000001960094927829460898FCF7CBFC0400B3
:103B100005D002F011FF02E00026C8E7132420467A
:103B20008EE700006589FF1F248AFF1FCC89FF1FD5
:103B30006689FF1F272803D202494000085A7047B0
:103B4000014870477089FF1FFFFF000010B5044C4B
:103B50006070FCF7ADFC0521607801F0A1F810BDA4
:103B6000F489FF1F70B5284E054630680C460028C2
:103B700001D0112070BD254801780520014216D0E2
:103B800023488068002805D00078002802D0C807A4
:103B900006D101E0102070BD00F044F8002808D0E4
:103BA0002078032805D0022803D0002801D0122055
:103BB00070BD0C20FCF758FC3060002820D0057048
:103BC000002141700A222146801CFCF7CDFA03F047
:103BD00065FC040002D002F07FFE12E00D48007880
:103BE00003280ED11D20FFF7A5FF0B4900280880F0
:103BF00007D00B48094A04210078FCF723FC00E0B9
:103C00001324204670BD0000C489FF1F6589FF1F73
:103C1000D889FF1F6689FF1F6889FF1F60EA0000BF
:103C2000F589FF1F10B506F0B5FC10BD70B50C4648
:103C300005461C2200210948FCF780FB0848057056
:103C40004470FCF73BFC0549002803D000200870B5
:103C5000122070BD01220A7070BD0000F4D9FF1F50
:103C60006489FF1F7FB504460D46084606F036FC02
:103C7000002805D00C48844204D9022004B070BD4D
:103C80001220FBE7102200216846FCF757FB68462C
:103C90000470210A4170210C8170210EC1702946E7
:103CA00001F0B4FDEAE700003F420F0070B50F4C91
:103CB0000025A068002802D0FCF7DCFBA560E068C6
:103CC000002802D0FCF7D6FBE56009480521007802
:103CD000084206D00548103003F090FA02F0D8F9F7
:103CE00070BD002003F08AFA002070BDD889FF1F44
:103CF0006589FF1FFEB5344D0C46080419D5687858
:103D0000FCF7A6FB0121C9034C40064600280ED053
:103D100003F05EF9002807D12878FF2804D0314647
:103D2000FCF7D2FB002802D03046FCF797FB204678
:103D3000FEBDE007012700280AD0A868002804D0AB
:103D40004168002901D00020884720467840FEBD08
:103D5000A00709D56868002804D04168002901D06F
:103D60000120884702202AE060072AD5174E3088B4
:103D700000281FD0401E0004000C30801ED102F02D
:103D800021FE002809D0124807706868002804D076
:103D90004168002901D00120884702F0EDFD694605
:103DA00001F0A2FC684603F0FDF81D20FFF7C2FEFB
:103DB000308003E004216878FCF7B8F90420604003
:103DC000FEBD0020FEBD0000F489FF1F6889FF1FB3
:103DD0006789FF1F10B501F085FD10BD70B50E4C51
:103DE0000B46261D07C60546102200211846FCF783
:103DF0001DFB012803D11021A06809F0DDF9102274
:103E000000212846FCF712FB012803D1102160682D
:103E100009F0D2F970BD0000F4D9FF1F38B505468E
:103E200010480C460078400701D4122038BD2846BF
:103E300006F054FB002812D00B48A9000068405837
:103E4000002801D0817D00E02146684609F06CFF22
:103E5000064B6A460221284609F0C8FE38BD1420E8
:103E600038BD00006589FF1FD489FF1F39E20211A8
:103E7000272807D2044A914204D0044A4000115234
:103E80000020704702207047FFFF00007089FF1F6D
:103E900070B50E46104915460978022916D0012939
:103EA00014D0002D14D006F019FB040012D0002EFF
:103EB00003D0207902210843207110222946A0183E
:103EC000FCF752F928692062002070BD122070BDF5
:103ED000022070BD142070BD6589FF1F38B50C46E7
:103EE000054606F0FBFA002806D0684604706946CD
:103EF000284609F069FE38BD142038BDF8B50D46D6
:103F000017461D4906461B4A12248868954208D167
:103F100000282DD00268002A2AD029463046904732
:103F200023E0144A521C954213D1002807D002689E
:103F3000002A04D0294630469047040005D039466F
:103F4000304601F0A7FE040012D10B4806704770FE
:103F50000EE0284606F0C2FA002809D00078B042E8
:103F600005D139462846FCF7B5FA044600E003249B
:103F70002046F8BDFEFF0000C889FF1FF8B50E46B9
:103F8000014619481546007805221F46104028D0E2
:103F9000304326D01548012E1BD0C468002C20D0F9
:103FA0001F2D18D8002D01D0002F14D001701F2212
:103FB0000021601CFCF7C2F92A463946601CFCF758
:103FC000D3F828462570002E07D0611CFCF788FA2C
:103FD000F8BD8468E2E70220F8BD611CFCF786FAB0
:103FE000F8BD1220F8BD00006589FF1FD889FF1FAA
:103FF000014610B50020C90704D0034A0421034834
:1040000000F0AAF910BD0000ECF002113887FF1F84
:1040100070B50E4D0F4CA8700D49204600F020F8E9
:1040200000210D480B46CA0084521218491CC9B21F
:1040300053600429F7D3012004F00AFDA87800F0AA
:10404000EDFB064806F0BCFA70BD00002887FF1F94
:104050005CCFFF1FFFFF00006CC9FF1F958202119C
:1040600070B50A4C0025A04209D1002082008C5274
:104070005218401CC0B295700528F7D370BD04F0EB
:10408000D8F80028FAD00480857070BDFFFF0000CA
:10409000F8B50E460746069900240798002902D075
:1040A0000B242046F8BD022B01D00D24F9E711782E
:1040B0005278120289188DB22946814301D080249A
:1040C000EFE73846F16800F03FF9A842E9D02A4608
:1040D0003846F16800F0CAF90400E2D171892A4635
:1040E000384600F067F9DCE770B50C46080412D5D5
:1040F0000A488078FCF7ACF9050008D02878B02889
:1041000002D1284604F0B4F92846FCF7A7F90120AB
:10411000C003604070BD002070BD00002887FF1FF5
:10412000FFB583B0087A00250C9E1C460F46C006DA
:104130000DD5059804F076F8030006D00A2239461A
:1041400003989847050035D101E00E2532E0387814
:1041500002281DD1786829220178407812020002D5
:10416000081881B2881A91427ED009DC7348081A77
:1041700023D0012821D002284FD0032808D125E0E0
:10418000012872D0022871D003286DD004286ED087
:10419000059804F06FF800286AD00568002DD4D087
:1041A0000E990D98019100903346224639460398A6
:1041B000A8470546284607B0F0BD0D98002872D1E3
:1041C000F868017831800278416896E00D980028FF
:1041D00069D101203080F86800210078207078894A
:1041E000401C80B200F0C8F900280DD03188027858
:1041F0008918891C3180817A61704189090AA1700E
:1042000002784168E01C79E030880422001D30808B
:104210000021601CFCF792F8CCE70D98002875D1BE
:10422000F86802A90088009004203080009820706F
:104230000098000A6070009800F09EF9070029D0ED
:10424000F86800906846028901AB3D49384600F0A5
:10425000EBF9002810D13B7802213A487A68FEF742
:1042600040FA002808D104E026E030E01CE04AE0F3
:1042700062E0401E694688800098007802280CD1D0
:10428000009802224168201DFBF76EFF3088801CD9
:10429000308002E069460098888068468088A07077
:1042A000000AE07086E731E00D9800282ED1F96809
:1042B000039800F049F804E00D98002826D1F8682A
:1042C0000088022131802070000A607072E7F8686F
:1042D000FCF712F90D99C0B2814212D8814201D186
:1042E000002206E00E9A8918814202D30D99401AE5
:1042F000C2B23280F9680D9809182046FBF734FFE6
:1043000058E7072556E70D98002801D00B2551E7FF
:104310000721F868318001782170417861708178D7
:10432000A1704188090AE170017921718179617177
:10433000C088000AA0713DE700252FE70028000093
:10434000FFFF00008EF2021110B503F072FF00288B
:1043500000D0807810BD00007CB51546040019D04F
:1043600068460194018000F05FFA03001DD1002D22
:104370001BD06489002C0DD00C20FCF775F80028A8
:104380000AD0002303608480094A8560916800296F
:1043900004D006E0022308E0132306E0906004E066
:1043A00011460A68002AFBD1086018467CBD00004F
:1043B0002887FF1FF8B50C4C0746207815460E4697
:1043C000FF280FD00A20FCF79DF801000AD0B12089
:1043D00008700020487008714F80CE800D812078D1
:1043E000FCF772F8F8BD00002887FF1F70B50C4677
:1043F00005460649FFF7A8FF800704D52146284651
:1044000000F066FA70BD012070BD00005CCFFF1F98
:104410001CB56B461A71120A5A71002200920223CF
:1044200001AA00F001F81CBDFFB583B008461F4685
:1044300001A90C9E00F0A0F8050014D06846808801
:1044400003F018FF00280AD04468002C09D0009619
:104450003B462946059A0398A04707B0F0BD0024C3
:10446000F3E70E20F9E70120F7E7000070B51446E6
:104470000E46054603F0DDFE002806D1314605480C
:1044800003F0D7FE002803D005808470002070BDA3
:10449000112070BDFFFF000010B50178B0290BD1CD
:1044A0004178002908D10179122906D01B2903D1AE
:1044B0004088012100F070FB10BDFF210231095C32
:1044C0000129F5D010BD10B586B06C462180628000
:1044D00002212171032161712821A1710022694605
:1044E00003F036FE06B010BDF0B58BB001236A466E
:1044F00093819B1ED38102231374002353742823BA
:104500000D469374064603AF02A903F0FDF90400BB
:104510000CD139463046FEF783FB040006D1054B2B
:10452000112239460095029804F0C6FB20460BB0D4
:10453000F0BD0000772A0211FEB50E46154607466B
:1045400001A903F0E1F904000FD131463846FEF726
:104550000DF9040009D1064930880880054B032273
:1045600031460095019804F0A7FB2046FEBD0000EF
:104570005089FF1FF3280211F0B58C4610494B6893
:1045800019E09F687C89A04214D39E88311981422A
:1045900010D900220CE011017D186989814205D1F2
:1045A0006046002800D004802846F0BD521C92B21C
:1045B0009642F0D81B68002BE3D10020F0BD00002C
:1045C000088AFF1FFFB5174881B00A9F446824E09E
:1045D00000251EE0A06829014618708901998842CB
:1045E00015D30299884212D80498002807D0317850
:1045F0007068049B039AFEF774F8002807D0002F18
:1046000002D0A06840893880304605B0F0BD6D1CEE
:10461000ADB2A088A842DDD82468002CD8D10020F3
:10462000F3E70000088AFF1FFEB5174600256A461B
:104630009580044640891D4A1E46904208D001AA32
:104640000092401C237880B26268FFF7BBFF0546EA
:104650002378022116486268FEF743F8002807D144
:104660002378022113486268FEF73BF8002801D046
:1046700060890EE0237802210F486268FEF731F866
:1046800000280DD0002D03D068468088B84203D0A2
:10469000384604F0F1FA04E06889401E80B200E078
:1046A0006089002E00D030802846FEBDFFFF00004C
:1046B0008CF202118EF2021192F20211FFB581B05A
:1046C0000F461E4614466946019803F033F905006B
:1046D00018D1002C06D001221021019805F0D8FE37
:1046E00005000FD139460198FEF7CCF8050009D135
:1046F000009CFF2E06D021461E22A31C034804F076
:10470000C7FAE670284605B0F0BD00007D8B0211A7
:1047100010B505490870042100F0C2FA00F038F81D
:10472000FEF7BAF810BD0000148AFF1FF8B5002488
:10473000134D2646FF2715E0FF200D3069686043C2
:104740004018002C19D00F49018086704772FF2154
:10475000077209310E54FC2200210C30FBF7EEFDEC
:10476000641CE4B228788442E6D3074803F024FDB1
:10477000064805F025FF0020F8BD0249491EE3E781
:10478000008AFF1FFFFF0000AD770211F5760211CE
:10479000F8B50F4D0D4B00206E1C1C78FF2209E070
:1047A0009F688100C91900280ED00E80CA70401C75
:1047B0008A70C0B2A042F3D3064803F003FD064856
:1047C00005F0FEFE0020F8BD0D80EFE7088AFF1F10
:1047D000FEFF0000A98B0211FD8A021170B50C4684
:1047E000080411D509480078FBF732FE050007D010
:1047F0000178A02901D103F0F9FB2846FBF72EFE32
:104800000120C003604070BD002070BD148AFF1FEE
:104810000149487070470000008AFF1F0149487035
:1048200070470000088AFF1F70B505460088002801
:104830001DD068680221037842682248FDF751FFC5
:10484000002808D168680221037842681E48FDF7F5
:1048500048FF00280BD01D4C6088002805D001229D
:1048600029881204101A814203D9012070BD022048
:1048700070BD0C20FBF7F8FD060001D000200BE016
:10488000132070BD01016B6862880A315A52618839
:10489000491C401C618080B229888142F2D80020E6
:1048A000306008222946301DFBF75EFC6068002856
:1048B00002D1666004E0084601680029FBD1066069
:1048C000002070BD8CF202118EF20211088AFF1FC7
:1048D00070B5BEB00D460646002402230E4A0F49AD
:1048E00001200094FFF76EFE002812D040896A462E
:1048F000108004205080012010715471FF209071AD
:10490000D0712B46002269463046FFF7D7FE3EB0F5
:1049100070BD0120FBE70000AAF20211FFFF0000BA
:104920000649496806E08A685289824201D188882E
:10493000704709680029F6D100207047088AFF1FD8
:1049400010B51422114201D0012202E04A0604D51A
:104950000022102105F09CFD10BDC80701D00020E9
:1049600010BD022010BD10B514468A0604D50122E0
:10497000102105F08DFD10BD882211420ED00822B5
:104980000A40102105F084FD00280BD0E034617E40
:104990000029F0D0217E0129EDD103E0880701D460
:1049A000032010BD002010BD10B504F0A5F910BD06
:1049B000014610B50020C90704D0034A0721034867
:1049C000FFF7CAFC10BD0000D8F00211B486FF1F2B
:1049D00070B50D46164600241D490300FBF794FBF5
:1049E00008051234341934222934152D23D81622FF
:1049F00000211848FBF7A2FC2A4631461548FBF770
:104A0000B3FB22E0022D16D111491088103908801D
:104A10001BE0082D0FD10E48082231460838FBF75D
:104A200043FB12E0012D06D1CA69094930782831CB
:104A300007E0012D01D0182407E0CA6B0449307843
:104A4000483104F02CFA00E00224204670BD00003A
:104A5000B486FF1F54C9FF1FF0B5069F099E0028AA
:104A600033D0102831D800292FD0002A2DD0002B88
:104A70002BD0002F29D0079C002C26D0089C002C7E
:104A800023D0002E21D00A9C002C1ED0104C851D56
:104A900020706570A26061600E490F4A0B60059935
:104AA00011600E490E4A0F60079911600D4A08996E
:104AB00011600D49401C08700C490E600C490870CB
:104AC0000C490A9808600020F0BD1820F0BD0000D5
:104AD000248AFF1F6C8AFF1F4C89FF1FD489FF1F88
:104AE000588AFF1F5C8AFF1F008AFF1F048AFF1F6E
:104AF000088AFF1F108AFF1F0B7803700B880222A1
:104B00001B0A43700B88801C012B02D0022B07D09C
:104B100011E08A7802704988090A417004220AE08B
:104B20008A7802704A88120A42700A7982708988EB
:104B3000090AC1700622104670470A780270098877
:104B4000090A41700220704708B5044B00931346D0
:104B50000A46012105F0ECFB08BD0000F94A0211EC
:104B60001CB50323019200930A46024B122105F063
:104B70000FFC1CBD099C021108B5044B00931346A1
:104B80000A46132105F0D4FB08BD00003B4B02117F
:104B900010B5FBF7BDFC10BD13B504480078012823
:104BA00003D101AA6946FBF7B9FC1CBD208AFF1F8F
:104BB00070B51049104A087000210B468C00491C42
:104BC000C9B213530429F9D30B4C00211034FF262A
:104BD0000A460A256A4315196B80491CA354C9B2B9
:104BE0006E720329F4D3FBF79FFC05F057FB05F029
:104BF000ABFC70BD218AFF1F10DAFF1F082A01D00D
:104C0000012070474B780A781B02D2180280CB78BB
:104C10008A781B02D21842804B790A791B02D2187B
:104C200082808A79C97909025118C18000207047B1
:104C300070B50C46080411D509480078FBF708FC4C
:104C4000050007D00178902901D105F089FA28469E
:104C5000FBF704FC0120C003604070BD002070BD64
:104C6000218AFF1F70B50C490978884213D20B4C7A
:104C7000060160680025855330188581606830180A
:104C80008580606830188068002804D0FBF752FCEB
:104C900060683018856070BD248AFF1F548AFF1F2A
:104CA000072907D0052905D0042903D0062901D0FA
:104CB00002207047044A8B009A181346403B19861D
:104CC000203A90740020704710DAFF1F70B5174922
:104CD0000978884228D25C21154C4843A1680546D2
:104CE0004018002640300674A068281840304674EA
:104CF000A068281840300676A0682818406D002863
:104D000004D0FBF717FCA068281846650026A068A9
:104D1000F100281840184068002801D0FBF70AFC71
:104D2000761CF6B20A2EF2D370BD0000248AFF1F53
:104D3000548AFF1F70B50A880C460546072A07D01B
:104D4000052A05D0042A03D0062A01D0022070BD0E
:104D5000012105F067FC002804D02146284604F014
:104D600069FF70BD142070BD10B5001D80B2FBF747
:104D7000E7FB002803D00321C943FBF7E7FB10BD85
:104D800010B506490648FFF76BF9064805F018FC10
:104D9000054A08210548FFF7DFFA10BDECCFFF1FD9
:104DA000FFFF000005B30211A8F10211AC87FF1F3D
:104DB00010B500241046012904D0022905D0022490
:104DC000204610BD1422044902E003491422143184
:104DD000FBF7CAF9F4E70000C4CFFF1F002803D097
:104DE000024948600020704711207047A487FF1FC8
:104DF00010B504460246064906A000F033FF0A49F2
:104E00004978012902D1204600F052FC10BD000073
:104E10004BF10211257320636F6E6E5F68616E64E3
:104E20006C652025640A00007C87FF1FF0B50646EC
:104E3000024687B0244925A000F014FF0520FEF7A4
:104E400079FE074606A92648FEF7A6FA244804A9D3
:104E5000401CFEF7A1FA224805A9801CFEF79CFA27
:104E6000C52003A98000FEF797FA6946088B888061
:104E7000088AC880888A088188894881304606F077
:104E80008DF804460146324616A000F0EBFE1B48A2
:104E900001A982783046FFF763FE1820FBF7E4FA99
:104EA000164DA4002435285100280BD000233A4683
:104EB0001349009607F0A2FD29590020486128599E
:104EC00007F018FE07B0F0BD27F10211257320632B
:104ED0006F6E6E5F68616E646C652025640A000009
:104EE000110300006964782025642C636F6E6E489E
:104EF000616E646C652025640A0000007C87FF1FDA
:104F0000F14D021138B541780546002903D019A0AA
:104F100000F0A8FE38BD20480468688900902B89FD
:104F2000EA88A9881DA000F09DFE1FE0002C04D196
:104F3000284606F007F8002803D0A078032807D0F9
:104F400013E01F4800680028E4D007F0F9FD38BDE1
:104F50002088A9880005000D884206D18AB2E07831
:104F60000823211DFDF7F4FE38BD2469002CDDD196
:104F700038BD0000506172616D557064617465499F
:104F80006E666F206572726F7220737461747573D0
:104F90002025640A000000006C88FF1F68616E64B1
:104FA0006C652025642C496E74762025642C6C6118
:104FB00074656E63792025642C544F2025640A00A3
:104FC000A087FF1FF0B50446821C8BB05349052013
:104FD00006F04AF906003FD0214620790C310A91AB
:104FE000491C0991491C0891491C4C4D4F1C1C3D02
:104FF0000791092837D011282ED1207A00282DD0EA
:10500000002526E060890A996843425C0999405C62
:105010006946000210180880608908996843425C5C
:105020000799405C6946000210184880A07A001F6A
:10503000C2B20A7160896843C11901A80130FBF747
:1050400093F831466A460831062006F0A5F86D1C33
:10505000EDB2207AA842D5D80BB0F0BD60781A28FE
:10506000FAD1B06843E0207A002836D0002530E03D
:1050700060890A996843425C0999405C694600026C
:1050800010180880608908996843405C69468870F8
:10509000608907996843415CC05D00020818694651
:1050A0008880A07A401FC2B28A7160892146684315
:1050B0001131411801A80330FBF756F831466A4612
:1050C0000C31072006F068F8694688886D1C7080EE
:1050D000EDB2207AA842CBD8BEE760781A28BBD1BF
:1050E000B21C911D062006F0BFF8002806D04288A9
:1050F00001886088AB78FFF7E6F9ADE7618808A022
:1051000000F0B0FD6868002804D08168002901D053
:1051100030468847608807F04FFC9DE79887FF1F5F
:10512000416C6C2043686172616374657269737469
:10513000696320446973636F766572205375636396
:1051400065737320704D73672D3E636F6E6E48619B
:105150006E646C652025640A000000007CB50E4D6D
:10516000297801700D48047F0DA0214600F07AFDDA
:105170000A482246001D014613390346009101905A
:10518000243B1978A8785B1CFEF7DAFB0246084935
:1051900008A000F067FD7CBD7C87FF1FA0CFFF1F2C
:1051A0006D61785363616E4E756D2025640A000051
:1051B000F8F0021125732C7265742025640A000032
:1051C000F0B50446807891B0AF4E0300FAF79CFF2B
:1051D0000E08FC2429292CEAFB0E0E0E0EFAF90EFD
:1051E0006178002903D0A9A000F03CFD48E1B0A0FF
:1051F00000F038FDB3A000F035FDE01C00F0F2FC3B
:1052000000F030FDA9A000F02DFD6189B3A000F0F1
:1052100029FD217BB6A0E7E7E278617805F08CFDF7
:105220002EE161780022F9E7617800297ED12146DC
:1052300005F090FC04906846058A28060390000F4C
:1052400039D1002768460771312001A90001FEF716
:10525000A3F86846007900282DD00020694608810F
:1052600002A91F20FEF798F86946088A0005070F73
:105270003946A5A000F0F6FC1820FBF7F5F8B900B8
:10528000814F20377850002815D02A07120F00923E
:105290006A4612897D23DB005A430D460023A1494B
:1052A00007F0ACFB7959002048617959012008606A
:1052B000785907F01FFC0398000F03285CD161891F
:1052C000994A012050540821B078FAF72FFF05F0D1
:1052D000F9FD96484588002D4ED00C22002101A8EA
:1052E000FBF72CF86946088A00270007000F00909A
:1052F0008880CD800F72644901AA1431032003977E
:1053000005F04AFF002837D01822002105A8FBF736
:1053100015F868460A97008A5B490007000F069057
:1053200005AA1831042005F037FF00E024E000282A
:1053300022D055490420183105F0EAFE07001BD0A1
:10534000FF220123F5327A49384607F057FB6807F8
:105350000FD5142200210BA8FAF7F0FF6946088A3E
:105360000BAA0007000F8885474905201C3105F06E
:1053700013FF384607F0ACFB70680569002D7FD03D
:10538000201D00906846008A01050B0F0106090FD9
:10539000032905D000220107090F6078A8476FE0B4
:1053A0000322F8E76178002924D1214605F0D2FBD9
:1053B0000090684605882F06380F032807D1A0887B
:1053C00003E02DE056E027E036E007F0F5FA380F6D
:1053D00010D12805000F85002B48203040590028A7
:1053E00001D007F0ADFB284824304059002801D0F7
:1053F00007F0A6FB70684569002D41D0684600881B
:10540000A37901050A0F0106090F032900D0002125
:105410000007000FA84733E02046FFF773FD2FE099
:10542000204607F041FA7168002929D0096800294F
:1054300026D02046884723E07068002804D04168C1
:10544000002901D0B0688847B468002C0FD0A0694B
:10545000B060E068002801D0FBF70CF86069002814
:1054600001D0FBF707F82046FBF704F8ECE705F05E
:10547000FBFC05E02FA000F0F5FB2046FDF7F6FC55
:10548000012011B0F0BD00007C87FF1F44657669E4
:10549000636520496E697420446F6E6520455252E1
:1054A0005F436F6465203078253032580A00000071
:1054B00044657669636520496E697420446F6E6542
:1054C000200A0000424C45204D756C74692D526FC6
:1054D0006C6520416464726573733A004843495FA8
:1054E0004C4520504B54204C454E2025640A00006A
:1054F0004843495F4C45204E554D20544F54414C34
:105500002025640A000000006D756C746974696D73
:1055100065725F696E6974207065724964782025D0
:10552000640A0000B15602119286FF1FC0CFFF1F10
:105530000156021147415020736C617665207265F7
:1055400071756573746564207365637572697479C8
:10555000206576656E74200A0000000038B50546A7
:1055600005F0EAFC04460221684605F0CFFC002C59
:1055700018D06846417822780078631CFDF7F8FE61
:105580000F4C01000FD00FA000F06CFB0121207820
:10559000FAF7E2FF002805D1FF22F5320121207839
:1055A000FAF7CAFD38BD01206870A870082120787C
:1055B000AA68FAF7C1FD0BA000F054FB38BD00004B
:1055C0007E87FF1F73746172742065737461626CEF
:1055D000697368206661696C7572652072657420F4
:1055E00025640A0073746172742065737461626C5F
:1055F0006973682073756363657373200A00000024
:10560000F1B582B002AA2849042005F02DFE2649F2
:10561000054602AA091F032005F026FE0446002DB8
:105620002AD0002C28D02079002825D160881E4F50
:10563000C107183F0126002910D01720FDF740FBB5
:105640006B4617201880BA7819461889FEF774FF40
:10565000002811D126716088B0430CE081070CD579
:105660006846124AFB210089FAF77CFF002803D123
:105670006088022188436080FEBD4007FCD50A494E
:1056800002AA091D052005F0EFFD0500F4D02879D8
:105690000028F1D16846B9780089FEF725FF002877
:1056A000EAD126712E71FEBD9487FF1F48080000C5
:1056B00010B504460246054905A000F0D3FA094991
:1056C000E0B24978FFF7B2FB10BD00000BF1021108
:1056D000257320636F6E6E5F68616E646C65202554
:1056E000640A00007C87FF1F38B50C46050014D003
:1056F000002C12D00321684607F05EFD69468878C9
:1057000040218006800E084369468870224628465C
:1057100008F0CAFB050002D006E0022038BD0322D3
:105720006946E01CFAF720FD284638BDF7B58EB073
:105730000E9815460E4600282DD0002D2BD0301D7A
:10574000C0B20190FAF790FE040039D001F020F9C0
:1057500007463246201D0E99FAF76EFEF8B2089001
:10576000E0703804000E0B90A0703802000E0A9012
:1057700060703F0E277001F005F90146102202A863
:10578000FAF75AFE06AB214602A8019A08F0E2FA9F
:10579000060003D010E0022011B0F0BD0898287078
:1057A0000B9868700A98A870EF70082206A9281D47
:1057B000FAF742FE01F0F2F82046FAF75BFE00E04D
:1057C00013263046E8E7000010B5064C2070FAF7C3
:1057D000CFFE06212078FFF763FA034804F0F0FEBD
:1057E00010BD0000488AFF1FCDD3021110B5054837
:1057F0000078000701D5044800E0002007F0C0FF52
:10580000002010BD6589FF1F308AFF1FF8B50E46C6
:10581000214C0146A068B50040590027002807D058
:105820002422125C022A05D0032A03D0042A01D0C4
:105830001220F8BDC288B24201D00220F8BD102269
:105840000C30FAF791FCA06810214059353007F070
:10585000B3FCA068415930460B460A462533353221
:105860000C3108F043FBA068022140590278002A5D
:10587000427807D0032A0BD14170304607F062FC12
:10588000074605E0042A02D0032A03D000E0417055
:105890003846F8BD0521EFE7648AFF1F70B50C4656
:1058A000080419D50D480078FAF7D2FD05000FD08D
:1058B00007F0B2FE002808D109480078FF2804D07C
:1058C0002946FAF701FE002802D02846FAF7C6FD5D
:1058D0000120C003604070BD002070BD488AFF1FDA
:1058E000F489FF1F7CB50C4605001DD0002C1BD091
:1058F0000322E11C6846FAF737FC694688784021A4
:105900008006800E08436946887001AA284608F080
:10591000CBFA002807D10322214601A8FAF76CFC34
:10592000012803D001207CBD02207CBD00207CBD6D
:1059300010B505480078400701D5044800E0002074
:1059400007F024FF002010BD6589FF1F3C8AFF1F60
:10595000F0B587B00C9E1C460D00074614D0684673
:105960000276110A417610220021FAF7E7FC32464E
:1059700029466846FAF7F8FB002C08D00822214691
:1059800004A8FAF7F1FB07E0022007B0F0BD0822F7
:10599000002104A8FAF7D2FC6B4606AA04A93846EF
:1059A000FAF7ECFDF1E70000FFB581B000202B4CC9
:1059B0000090A068950040591E461746002802D066
:1059C000112005B0F0BD002E0BD02120FEF7B2F85B
:1059D000317E884205D82220FEF7ACF8317E88421D
:1059E00001D20220EDE77820FAF73EFDA1680028F9
:1059F000485130D078220021FAF7A0FCA06800219D
:105A000040594170A268019852591070A2680298DA
:105A100052599070A268FF205259D070A068425924
:105A2000D780425996604259116240592030017125
:105A30000198002803D0384607F09CFB0090A1682D
:105A40000120495948700098002802D0384607F0D4
:105A500043FB0098B5E71320B3E70000648AFF1FFB
:105A6000FFB58DB00F98169C0E46002815D0002C5F
:105A700013D00D9804F032FD050011D06178207824
:105A800009024018A178E27809041206891847181B
:105A9000286AB84206D3401C04D0022011B0F0BDE1
:105AA0001420FBE7002E04D02879800701D40120C0
:105AB000F4E70822002106A8FAF740FC1098001D20
:105AC000C0B20190FAF7D0FC060017D0301D109A32
:105AD0000F99FAF7B1FC042221463046FAF7ACFCE4
