:020000041102E7
:1000000003B40148019001BDFD11000003B4014893
:10001000019001BD7511000003B40148019001BDBC
:100020001130000003B40148019001BD090E000029
:1000300003B40148019001BD53B9000003B4014865
:10004000019001BD29B6000003B40148019001BD33
:100050007582000003B40148019001BDFD5C010000
:1000600003B40148019001BD85C1000003B40148FB
:10007000019001BD61D5000003B40148019001BDAC
:100080001BBA000003B40148019001BD3DBA000055
:1000900003B40148019001BD5944000003B4014874
:1000A000019001BDB95E000003B40148019001BD9B
:1000B000810E000003B40148019001BD0D52010002
:1000C00003B40148019001BDC1EC000003B4014834
:1000D000019001BD75A9000003B40148019001BD64
:1000E000C93E000003B40148019001BD9DA9000074
:1000F00003B40148019001BDB30E000003B40148F0
:10010000019001BDF558FF1F03B40148019001BDE6
:100110006189000003B40148019001BD1907010085
:1001200003B40148019001BDA9D8000003B40148FF
:10013000019001BDB352010003B40148019001BD1B
:100140008B52010003B40148019001BDC1A500001C
:1001500003B40148019001BD9D6A000003B4014849
:10016000019001BD116E000003B40148019001BD72
:10017000E94C010003B40148019001BDF97F000082
:1001800003B40148019001BD7912010003B4014894
:10019000019001BD757A000003B40148019001BDD2
:1001A000F143000003B40148019001BDC1430000C8
:1001B00003B40148019001BD6944000003B4014843
:1001C000019001BD8BB9000003B40148019001BD4D
:1001D000D1D4000003B40148019001BD01890000A1
:1001E00003B40148019001BDCD4C010003B40148A6
:1001F000019001BD09B8000003B40148019001BDA0
:100200002DFC000003B40148019001BDEDB80000D1
:1002100003B40148019001BD39B8000003B401489E
:10022000019001BD6DFE000003B40148019001BDC5
:10023000F9FD000003B40148019001BDA1E60000F2
:1002400003B40148019001BD9946000003B4014880
:10025000019001BD1547000003B40148019001BDA4
:10026000E14DFF1F03B40148019001BD75F000008E
:1002700003B40148019001BDF5D5000003B4014865
:10028000019001BDC5F0000003B40148019001BD1B
:1002900001EC000003B40148019001BD6160000061
:1002A00003B40148019001BD63EC000003B40148B0
:1002B000019001BD05FF000003B40148019001BD9C
:1002C0003161000003B40148019001BD59E4000010
:1002D00003B40148019001BDD5E4000003B4014816
:1002E000019001BD01BF000003B40148019001BDB0
:1002F00021F1000003B40148019001BDCDF10000DF
:1003000003B40148019001BDB9C0000003B4014825
:10031000019001BD4DF4000003B40148019001BDFE
:10032000C1E2000003B40148019001BD154D010078
:1003300003B40148019001BD8DE3000003B40148FE
:10034000019001BDA5FD000003B40148019001BD6D
:1003500025E7000003B40148019001BD31480000C9
:1003600003B40148019001BDC53F000003B401483A
:10037000019001BDF1FA000003B40148019001BDF4
:1003800079F4000003B40148019001BD77F1000049
:1003900003B40148019001BD5511010003B40148A7
:1003A000019001BDE580FF1F03B40148019001BD2C
:1003B000E9F6000003B40148019001BD75F80000A2
:1003C00003B40148019001BD19FA000003B40148CB
:1003D000019001BDD55AFF1F03B40148019001BD32
:1003E0001D5AFF1F03B40148019001BDA93C000044
:1003F00003B40148019001BD2537FF1F03B4014834
:10040000019001BDE13EFF1F03B40148019001BD11
:10041000ADAE000003B40148019001BD456B010081
:1004200003B40148019001BD5952010003B40148D1
:10043000019001BDF54E010003B40148019001BDDA
:10044000434D010003B40148019001BD691F000044
:1004500003B40148019001BD5D17000003B40148D9
:10046000019001BD3D4B010003B40148019001BD65
:100470005125000003B40148019001BD014C010069
:1004800003B40148019001BD594F010003B4014874
:10049000019001BD1D4B010003B40148019001BD55
:1004A0008D12000003B40148019001BD4D1F0000F2
:1004B00003B40148019001BD5522000003B4014876
:1004C000019001BDDD52010003B40148019001BD5E
:1004D0001D4D010003B40148019001BD017F0000E2
:1004E00003B40148019001BDE117000003B40148C5
:1004F000019001BD7918000003B40148019001BDCD
:10050000D949010003B40148019001BDE928000068
:1005100003B40148019001BD5549010003B40148ED
:10052000019001BD092BFF1F03B40148019001BDDB
:100530005946FF1F03B40148019001BDB13BFF1FA5
:1005400003B40148019001BD592AFF1F03B40148BB
:10055000019001BD4D2BFF1F03B40148019001BD67
:100560000D2BFF1F03B40148019001BD455101004F
:1005700003B40148019001BDC926000003B401483D
:10058000019001BDE122000003B40148019001BDCA
:10059000ED4A010003B40148019001BDA54F0100DF
:1005A00003B40148019001BD8552010003B4014824
:1005B000019001BD4930FF1F03B40148019001BD06
:1005C000810E000003B40148019001BD8933FF1F73
:1005D00003B40148019001BDA140FF1F03B40148CD
:1005E000019001BD350E000003B40148019001BD2A
:1005F0004D41FF1F03B40148019001BDFD41FF1FA4
:1006000003B40148019001BD311A000003B4014850
:10061000019001BDF94C010003B40148019001BDF6
:100620009928000003B40148019001BD291C000075
:1006300003B40148019001BD1922000003B4014830
:10064000019001BD851F000003B40148019001BD68
:10065000A946010003B40148019001BD1147010002
:1006600003B40148019001BD0126FF1F03B40148F6
:10067000019001BD4F26FF1F03B40148019001BD49
:10068000793CFF1F03B40148019001BD4544FF1FA1
:1006900003B40148019001BDF13FFF1F03B40148BD
:1006A000019001BDBD3FFF1F03B40148019001BD92
:1006B000D329FF1F03B40148019001BDAD29FF1FDD
:1006C00003B40148019001BDC94A010003B40148C7
:1006D000019001BD951BFF1F03B40148019001BDAE
:1006E000C51AFF1F03B40148019001BDA91AFF1FDD
:1006F00003B40148019001BDB11BFF1F03B40148C1
:10070000019001BD7146FF1F03B40148019001BD76
:100710006546FF1F03B40148019001BD6DBC000098
:1007200003B40148019001BD153BFF1F03B401480C
:10073000019001BD156B010003B40148019001BD9A
:10074000E548000003B40148019001BD29510100B2
:1007500003B40148019001BDD91B000003B4014856
:10076000019001BD5147010003B40148019001BD52
:10077000E943FF1F03B40148019001BD2540FF1F5D
:1007800003B40148019001BDD1A50000FEB508AF3A
:1007900070CF6F4670C700F041F80249FFF730FC98
:1007A0000020FEBD1320000038B5044600F098FA82
:1007B0000146684601704470210A81706A4603212F
:1007C0000248FFF723FC002038BD00001B2000007A
:1007D00038B5044600F0AAFA014668460170447034
:1007E000210A81706A4603210248FFF70FFC0020AE
:1007F00038BD00001A20000008B5002802D000F023
:100800009DFC00E01220694608706A4601210248FA
:10081000FFF7FCFB002008BD05200000FFB50446E3
:10082000354F0001C019807981B01546022802D0E9
:100830000C2005B0F0BD314A881F90422ED2062D03
:100840002CD3501D854229D88D4227D3FF220499ED
:10085000F432914222D80A990A291FD381421DD825
:100860002046FFF7D9FB0028E3D1A12080004443B4
:1008700023480068261834468034E07B002802D0E4
:10088000E07A00280CD0207D012809D00A98C10008
:100890000498401C68434000814203D81220C8E7F6
:1008A0003A20C6E77878174F01280AD96804B98832
:1008B000000C884203D3FFF7B5FB002909D03B2089
:1008C000B7E7BD80F08E104940000978FFF7AAFB1A
:1008D000F8600220207600206083308F0021C01D48
:1008E000E082A5830498E0830A9820843046FFF7CD
:1008F0009FFB00209DE70000300DFF1F7B0C0000D8
:100900003409FF1F300EFF1F1409FF1FFFB583B00E
:10091000DB480090DB48129E02780C9D0E9B1399D9
:10092000012A20D000270770D7480478092C78D0F6
:100930000A2C76D00B2C74D00C2C72D00D2C70D0CD
:10094000039AD248121F824246D2049A121F824250
:1009500042D2049A039882423ED80598002805D0D6
:10096000012839D102E00C2007B0F0BD284333D074
:100970000698002805D0012803D0032801D00228BA
:100980002AD10D98002805D0012803D0032801D0D2
:10099000022821D1B1421FD3BD49981F88421BD2E2
:1009A0000F98062818D301461920C001814213D898
:1009B000994211D3FF221099F43291420CD8119927
:1009C0000A2909D3814207D8CA0010980F99401C00
:1009D00048434000824201D81220C5E7AD48AE49E5
:1009E000027809788A4201D30720BDE7A948AB4EB7
:1009F000407800280CD00F98B1884004000C884241
:100A000003D3FFF70FFB002902D03B20ACE708E03F
:100A10000621082C01D0072C06D1A1480278002A13
:100A200001D02120A0E70170FFF708FB040058D097
:100A300098484178491C41702046FFF705FB204645
:100A40000021FF3081308B001B19FF330133C26A54
:100A5000491CDA660829F6DB00218B001B19FF33DD
:100A60008133C26A491CDA600829F6DB2079FFF776
:100A7000F1FA002081000919FF310131401CCF66D5
:100A80000828F7DB002081000919FF318131401C63
:100A9000CF600828F7DB83482179017403994181ED
:100AA000049981810599C1737F49002023180A5C4C
:100AB0006033401CC0B25A710528F7D32146653116
:100AC00020460191FFF7CCFA27462037F87F02280D
:100AD0000BD22046FFF7CAFA6E484178491E417092
:100AE0007AE76F48077009203EE77048002D0BD069
:100AF0002978417069788170A978C170E9780171AD
:100B00002979417169798171664A0D9911700D9940
:100B100000297DD0664A634913784B7053788B70F7
:100B20009378CB70D3780B7113794B7152798A71AA
:100B3000069901700D980099C007400E0843069968
:100B4000C907090E01430291FFF796FAE062FFF729
:100B500099FAA0624F48407801287AD0B088E086A0
:100B600030896087F08820874E4E707C38745148F9
:100B7000C0688030818DB974008EA086FFF788FA36
:100B80000C21FFF74FFA20466030491D0090817616
:100B90002520B07301203072474802998180801D62
:100BA000FFF77CFA002D0DD043492A78881D0A737F
:100BB0006978C171A9780172E978417229798172E5
:100BC0006979C1723C482146123004222831FFF76E
:100BD0006BFA39482146163003222C31FFF764FAAC
:100BE0003549B87C48760846397D8176797DC1766D
:100BF000014620462230027D0A77427D4A773A7EBE
:100C00008A777A7ECA771A31027E8A71407E00E046
:100C10001DE0C8710846083005220199FFF744FA23
:100C20000098397C807E4901C006C00E08432249E5
:100C3000213188711448007800281DD01F480121F7
:100C400089030078FFF736FA00208DE601E01C4AA0
:100C500061E70F98E0861199618710992187B0802C
:100C6000208FF080608F3081E08E0B494000097842
:100C7000FFF7D8F9F06077E72079FFF721FAE3E78B
:100C8000052200001909FF1F1C09FF1FFD3F00007E
:100C90007B0C0000300DFF1F1409FF1F300EFF1FDB
:100CA0002309FF1FD40BFF1F6009FF1F7809FF1FD7
:100CB0006B09FF1F608AFF1F6C11FF1F1B09FF1FBD
:100CC0006509FF1F70B50C460546FFF7FFF9214681
:100CD0002846FFF701FA0446FFF704FA204670BDE4
:100CE00010B5114AA1218900126841438C189D2139
:100CF00089000959012901D00C2010BDFFF78CF99A
:100D00000028FAD1E01DF93002790621012A06D027
:100D100041710D212046FFF78BF9002010BDFF2007
:100D2000213001550221F5E73409FF1F70B50D464A
:100D3000134AA1218900126841438C189D21890022
:100D40000959012901D00C2070BD002D16D0FFF7E4
:100D500063F90028F8D110210B1A2A5C1B19E03323
:100D6000401CC0B29A711028F6D30121F820015519
:100D700005212046FFF75CF9002070BD122070BDF0
:100D80003409FF1FFEB5089D099C1746002874D042
:100D9000002972D0002C02D0012C02D003E02A22BC
:100DA00001E0FF220732921D0192354A0E4617706C
:100DB000344A106034480370344805703448047075
:100DC000002446E0A1208000254645432D48A1216E
:100DD000006889002818FFF78BF92A482D49006818
:100DE00062002818FF308130C66201983618002052
:100DF0008854511848702649097800293BD0FF21B2
:100E00001131009121461C2041432248002220300C
:100E10000D182A764254E0B20099FFF76FF9686026
:100E200000202872E0B201220099FFF767F9E8601C
:100E300000202874E0B202220099FFF75FF9686190
:100E40006968002919D0E968002916D0002814D053
:100E5000641CBC42B6DB00200F4D104A01468300E3
:100E60009C186580401CD154C0B261701028F6D324
:100E70000020FEBD01E03421C3E71220F9E70000A5
:100E80001409FF1F3409FF1F1509FF1F1609FF1F53
:100E90001709FF1F8CD8FF1FFFFF00006CDAFF1F30
:100EA000F8B5714D0028AA7916D0012A01D0032A7D
:100EB00012D16E490B78FF2B0ED14B78FF2B0BD143
:100EC0008B78FF2B08D1CB78FF2B05D10B79FF2B2B
:100ED00002D14979FF2930D065490B78012B1DD00B
:100EE0000026644C0E702178092931D00A292FD0B0
:100EF0000B292DD00C292BD00D2929D0052927D03D
:100F0000062925D0A97B00290AD0012908D0032968
:100F100006D0022904D004290FD101E00C20F8BD2D
:100F2000002A05D0012A03D0022A01D0032A04D1C5
:100F3000514F002875D0012801D01220F8BDA88893
:100F4000012805D0FFF7C2F82078002802D01AE067
:100F50002120F8BDA87B0300FFF7D6F80504081090
:100F60000C082400012020701F200AE002202070BD
:100F7000202006E004202070222002E003202070C0
:100F80002120FFF7C7F82078282101280DD002285A
:100F90000BD0042809D0032807D007280ED0082832
:100FA0000CD01BE026701E20EBE734480660297544
:100FB000FFF7B6F8002820D0AE800FE03048C068B8
:100FC000808D80060AD52F480278002A06D1AA7B98
:100FD000032A06D0022A04D0002A02D0FFF782F8A2
:100FE000B6E7022202702975140321463878FFF70C
:100FF0009DF821463878FFF75DF80120A880224847
:101000000078002809D02148012102887D20C000F5
:101010004243C9033878FFF78FF8FFF763F820E001
:10102000FFE7FFF753F8AE802078072808D008289C
:1010300006D026701648FFF785F81E20FFF76AF8DD
:1010400010480178002905D006700121490338783D
:10105000FFF76CF8FFF746F80121C9033878FFF76E
:1010600065F80020F8BD0000A60BFF1F6B09FF1FED
:101070001A09FF1F1C09FF1F1B09FF1F4809FF1F3B
:10108000608AFF1F2309FF1F2109FF1F2C09FF1F73
:1010900000100040FFB585B016460D460446119F6E
:1010A000FFF714F815482946007804902046202CB4
:1010B00000D22020202900D220210EAA2CCA009282
:1010C00001AAA8C23246089BFFF742F805460C4821
:1010D0000A49448004980870012E01D0042E08D1DA
:1010E000084880230078C101074882889A43114349
:1010F0008180FEF7F7FF284609B0F0BD1C09FF1FED
:10110000A60BFF1F7809FF1F6C11FF1F10B5FB29ED
:1011100008D8084B9A4205D81B2903D3FF2349332B
:101120009A4201D2302010BD034B19825A82FFF738
:1011300015F810BD480800008410FF1FF8B53249AB
:10114000097801292AD0022928D0032926D0042988
:1011500024D0052922D0062920D02C49097802293B
:101160001CD004291AD0012918D0032916D0062929
:1011700014D0072912D00178254C8C46217046786E
:1011800066708378A370C278E2700179217140792A
:10119000204D6071AF79012F02D008E00C20F8BD1E
:1011A0006746EF712E726B72AA72E972287306227B
:1011B000E91D1948FEF7D8FF0622E91D1748FEF77A
:1011C000D3FF1748017801290BD12178417061784C
:1011D0008170A178C170E1780171217941716179E3
:1011E00081711048017801290BD121784170617813
:1011F0008170A178C170E1780171217941716179C3
:1012000081710020F8BD00001C09FF1F2309FF1F8A
:101210006B09FF1FA60BFF1F7211FF1F8A13FF1F11
:10122000BC0BFF1FD40BFF1FF8B5844657480F4671
:101230000178012914D00026554D06702878092818
:1012400038D00A2836D00B2834D00C2832D00D28BC
:1012500030D0504C607A002804D001284BD101E0F6
:101260000C20F8BD2078002805D0012803D00228E2
:1012700001D003283FD162894748111F81423AD2E9
:10128000A1890B1F834236D2914234D8002F01D05E
:10129000012F30D1604600284FD001282BD1207A71
:1012A000012807D0FEF712FF2078012804D0032878
:1012B00002D014E02120F8BD38480178FF290ED172
:1012C0004178FF290BD18178FF2908D1C178FF2906
:1012D00005D10179FF2902D14079FF2809D028786A
:1012E00025210126002808D007280ED008280CD078
:1012F00014E0FEF7F7FE1220F8BDE671E773A17463
:1013000005202870FEF736FF13E02548C068808D61
:10131000400603D523480278002A02D0FEF7E2FEF9
:10132000C8E7A17406702048012109030078FEF780
:10133000C1FE2672FEF7D6FE25E0FEF7C7FE28782E
:10134000052804D007280AD0082808D00FE02E70FE
:101350001648FEF7F7FE1E20FEF7DCFE07E01148F8
:1013600001210670104809030078FEF7DFFE26729F
:101370005820FEF705FF0A480670FEF7B3FE0C483A
:1013800001680129FCD00020F8BD00001909FF1FE9
:101390001C09FF1FBC0BFF1FFD3F00006B09FF1F57
:1013A000608AFF1F2309FF1F1B09FF1F0010004059
:1013B0009809FF1F38B51C46049B00932346FEF78F
:1013C000E5FE002812D10B49002C0C700FD0022C26
:1013D0000DD0094A13784B7053788B709378CB708B
:1013E000D3780B7113794B7152798A7138BD034AE6
:1013F000F0E70000BC0BFF1F6B09FF1F6509FF1F13
:10140000FFB581B0044602981F461646002814D046
:10141000002E12D0002F10D02046FEF7FDFD002830
:101420000CD1A120800044432C4800682418E51DFD
:10143000F935287B002803D00EE0122005B0F0BD5E
:101440002749002023180A18FF330133401C527823
:10145000C0B25A730828F5D3687BC00738D0002083
:1014600002992218095CC032401CC0B211700828D1
:10147000F6D320463178C030017271784172002075
:1014800010210B1A3A5C1B19E033401CC0B29A7150
:101490001028F6D32046B830FEF77EFE2046AC304A
:1014A000FEF780FE0C210F48FEF782FE00207B2114
:1014B00008552146E031C8750876A621095D012945
:1014C00008D0287103212046FEF7B2FD0020B5E7C1
:1014D0001120B3E7012028710A21F4E73409FF1F26
:1014E000480EFF1F3811FF1FFFB50D46A1218900CF
:1014F0004843234981B009681E464418002D09D08D
:10150000FF20D930015B0398814203D3002E04D021
:10151000012E02D0122005B0F0BDE07800280AD0DC
:101520000520C00127181748F9780078801C8142EF
:1015300003D30720EFE70220EDE7FEF7C7FDF878B9
:10154000A91E401CF87003980870002E10D00120CE
:10155000487020467C30091FFEF730FEFEF7C2FDC2
:1015600009480078082805D0072803D00020D2E7D2
:101570000220EDE700212046FEF726FEF6E70000F8
:101580003409FF1F1509FF1F1C09FF1FF8B50F4E77
:10159000307A002818D10E4CE0690E4FC005C50FF7
:1015A00002D1E0693843E06104210B4800F016F8ED
:1015B00009480421103000F011F8002D02D1E06933
:1015C000B843E06101203072F8BD0000608AFF1F5F
:1015D00000F0004000010000ACDAFF1FF3B5074641
:1015E000104881B0C169104A1140FF310931C16111
:1015F000002613E000252C461120FEF7EBFD0948DC
:10160000406A8007800F610088402843641CE4B270
:101610000546102CF0D301C7761CF6B2029886421C
:10162000E8D3FEBD40F0004000FEFEFF70B504466A
:10163000FF30FF300230406F0D46012812D1282DB7
:1016400010D1A420005BE188401A1D4980B2884275
:1016500008D321466A3105220E46481FFEF7C0FD19
:10166000002818D017490020820052185278002A0A
:1016700016D0401CC0B21028F6D3134801218902AD
:101680000078FEF717FD20790101104809188979C3
:1016900002290DD00FE031462046FEF7E1FC70BD77
:1016A00080002379421853800D5401205070E4E7E4
:1016B0004178491E41702046FEF798FD70BD00003C
:1016C000FF7F00006CDAFF1F1B09FF1F300DFF1F9B
:1016D000F0B505468DB0A0300B902846FF300E3097
:1016E0000390092080012F18E81DFF30FA30089080
:1016F000E0380790C030EE1DF9362C468034099052
:10170000F0E0E07A0B2870D009DC0300FEF7FCFC67
:101710000B37551C6EEAEABFF0EFEED6EA0016284A
:101720006FD008DC0C286DD011286CD014286BD039
:101730001528E5D166E1182867D01A287CD01B2827
:101740007BD0FE28DCD119E2A07A012803D02846FC
:10175000FEF752FD19E0FA488078002804D02846A8
:10176000FEF750FD162106E0608A401E0004000CC2
:1017700060827CD00CE22846FEF74AFDF6E1A07AB2
:10178000012804D02846FEF749FDA07200E2EC488B
:10179000807800280ED0207E40002076608B4000AC
:1017A0006083A08B4000A083208C00012084012056
:1017B000207510E02889E18A13E0A07A012803D07F
:1017C0002846FEF731FDE0E7DD488078002806D0A6
:1017D0000B99012088702846FEF714FD82E02889C5
:1017E000A18C8842C6D12821C5E784E0A07A0128CF
:1017F0000CD02846FEF71EFDA07200207072B07259
:10180000C6E111E1C3E055E1E9E027E1CC48C07849
:10181000002801D000202071707A01280ED0B07A03
:10182000012813D0F07F0128D5D0608A401E000423
:10183000000C60826CD0ABE167E189E10020E067D9
:1018400030600B9901208871062148E02846FEF798
:10185000D9FC0B990020887101207B21485520710B
:1018600070790628287906D000221A2100E03BE191
:10187000FEF7E6FC36E000220621F7E72221FEF71C
:10188000E5FC31E100222221FEF7DAFC2CE1A07A0E
:10189000012806D02846FEF7DFFCA0720020B071B8
:1018A00076E1B0790128C0D12846FEF7ABFC0020D4
:1018B0003072F0717072B071B07213E0A07A0128CA
:1018C00006D02846FEF7CEFCA0720020F0715FE142
:1018D000F0790128A9D10B99002088710B212846A5
:1018E000FEF7C6FCE07B002803D00AE740E014E0E6
:1018F0003EE10DB0F0BDA07A012803D02846FEF7E6
:10190000BDFC42E78E48C07800288ED00321E6E770
:10191000307901282879B5D1B0E7A07A012811D013
:10192000884900202B180A18FF3301335278401CD5
:101930005A730828F6DB2846FEF7A6FCA0720020A2
:10194000307325E1307B012806D0608A401E0004F8
:10195000000C608206D01BE129790020039AFEF773
:1019600099FC38E729792220039AFEF793FCBBE023
:10197000A07A012803D02846FEF792FC05E77048BC
:10198000C078002800D1EFE60120307323E7A07A69
:10199000012805D00120F0752846FEF787FCF4E603
:1019A000707D012806D0608A401E0004000C608211
:1019B0000CD0EDE0B07D0128D3D1B08B0090738BBB
:1019C000327E29790020FEF777FC04E7B08B009087
:1019D000738B327E29792220FEF76EFC84E0A07A98
:1019E000012807D02846FEF76DFCA0720999002057
:1019F0004874CDE05248C0780028C4D0099901202D
:101A00004874E8E6A07A012803D02846FEF760FC77
:101A1000BBE64B48C0780028B5D00999002008746F
:101A20002879FEF75BFCD6E6A07A012807D0284685
:101A3000FEF75AFCA072089900200872A8E04048FE
:101A4000C07800289FD00899012008723E4840794C
:101A5000012886D1089900200872BCE6A07A0128E6
:101A600003D02846FEF746FC8FE6354880780028EC
:101A70001DD00798007B002803D10798407B0028E1
:101A800008D0079901200874089900200872089965
:101A9000C871A0E60998417E079801730998817E74
:101AA0000798417300212846FEF72AFCECE72889B5
:101AB000718E96E6A07A01280ED00898007A012847
:101AC00014D00B988078012812D0207D01280FD0E7
:101AD000387E012811D05BE01948C07800288CD0EE
:101AE00007990120887276E6222144E6232100E04E
:101AF0002A212846FEF70AFC47E6797E2846FEF7AB
:101B000005FCA0720020787642E0A07A012806D079
:101B10002846FEF701FCA0720120387638E008481C
:101B2000C078002899D1608A401E0004000C6082B1
:101B30002ED10648042200212818FEF7F3FBD3E734
:101B4000E010FF1F480EFF1F608AFF1F56020000B3
:101B5000A07A012803D02846FEF7EAFB15E60F48D5
:101B6000C078002802D00020F87534E60120C0E6D5
:101B70002846FEF7E3FB01288BD009E007990120F6
:101B8000C875FF214931485304488078012801D0A5
:101B90000020AEE607980178EDE50000E010FF1F99
:101BA000F0B5054687B0E03004902846A030039099
:101BB00040380590092080012E462818FF36E1366E
:101BC000029030462030EF1DF9372C4680340190CA
:101BD0009FE1E07A801E0300FEF796FA1A0E382283
:101BE000396BF638C13892D1A9383838383838F5D9
:101BF000F4F3F23838F1F038A07A012803D02846FF
:101C0000FEF7FAFA12E0C5488078002801D01621C4
:101C100030E1608A401E0004000C60826FD076E1E3
:101C2000A07A012804D02846FEF78EFBA0726EE150
:101C3000BA48C0780028ECD02846FEF7E3FA2A46D6
:101C400029462879C832C031FEF784FB61E1A07AC9
:101C5000012813D00498C07D012821D00498007E6B
:101C600000287BD02A4629462846D732B031E730B3
:101C7000FEF776FB04990120C8754AE1A748C078B1
:101C8000002805D00399012088710020E0673860A2
:101C9000B8790128BDD106212846FEF7E9FA38E1D6
:101CA0002846FEF763FB0128B9D10020B871012056
:101CB000BCE7A07A012803D02846FEF7CDFAB5E7A5
:101CC0009648C0780028A4D0E88C68842846FEF79F
:101CD00099FA05990120C876207138790128287968
:101CE00009D001220021FEF7ABFA002038713872CA
:101CF000F871B8710DE10021FEF7A8FAF5E7B8E038
:101D0000A07A012805D02846FEF7B8FA012807D0A6
:101D1000FDE0F8790128BDD12846FEF773FAF8E016
:101D20000020F871039988710120A072F1E0A07A77
:101D3000012804D079792846FEF71EFB76E777481C
:101D4000C178002906D0039A00219171059A0121DA
:101D5000D176217180780028DED15AE78EE0A07A12
:101D6000012803D02846FEF79BFA5FE76B48C0784E
:101D70000028F2D001203873E88C6884CCE7A07A80
:101D8000012805D00120F8752846FEF78FFA4DE7A7
:101D9000787D012806D0608A401E0004000C608215
:101DA00013D0B4E0B87D0128B6D1B88B00907B8BFE
:101DB0003A7E29790020FEF77FFAADE78FE072E0E6
:101DC0003BE02DE01BE009E09CE0B88B00907B8BB2
:101DD0003A7E29792220FEF76FFA4AE0A07A01289C
:101DE00006D02846FEF76EFAA072002070748EE0CE
:101DF0004A48C0780028B0D0012070748CE7A07ADF
:101E0000012803D02846FEF763FA0FE74348C0785D
:101E10000028A2D0002030742879FEF75FFA7BE713
:101E2000A07A012803D02846FEF75EFA36E03B4848
:101E3000C078002891D0012018E0A07A012807D0AE
:101E4000707FB17F08401BD041071DD5042020E0E2
:101E50003248C07800288CD001990020C871019ABE
:101E6000012111722E490979012987D1019908723E
:101E700052E722212846FEF7CBF9012007B0F0BD3A
:101E8000707E7075B07E05E0800701D5022000E00D
:101E900001207075B0752846FEF774FAA07201999A
:101EA0000020087233E0A07A012807D02846FEF708
:101EB00033FAA07202990120087628E01748C0780A
:101EC00000289BD1608A401E0004000C60821ED155
:101ED0001448042200212818FEF724FAC9E7A07A42
:101EE000012803D02846FEF723FA9FE60B48C07866
:101EF00000280ED00299002008760299C875FEF7D6
:101F000047FA09E72846FEF719FA012887D000208A
:101F1000B4E7E07B002800D05BE6AFE7E010FF1FEE
:101F2000608AFF1F5602000070B51F480122017829
:101F30001E4D002915D01E48A121807889004843F4
:101F40001C491D4C0968227046182078FEF726FAB5
:101F5000A87B00281AD003281BD002281CD0002000
:101F600070BDA97B002904D0032904D0022904D024
:101F700005E0027003E0042100E003210170FEF798
:101F8000CFF80E4900200870012070BDFEF70CFA52
:101F900004E0FEF70FFA01E0FEF712FAFF36FF3613
:101FA0000236317B217070BD1C09FF1FA60BFF1F7D
:101FB000300DFF1F3409FF1F490AFF1F2309FF1FB0
:101FC0001449134888631348134940304161134949
:101FD000016113490F4A01621249803A11631249A3
:101FE00001601349114A0A60124A8A601249104A74
:101FF00041621249403A5161114981601149816140
:1020000011494160124A114991601249C1617047FA
:10201000E948FF1F8001FF1FB513021129120211A9
:1020200001140211B52BFF1FD1160211015CFF1F15
:102030008002FF1F2965FF1FE54CFF1FA578FF1FCA
:10204000BD7AFF1F0D090211494AFF1F2D1602110B
:102050008000FF1FE520021110B5FEF7B7F9FEF76B
:10206000BBF910BD03480249C16003498161704753
:102070006D71FF1F8002FF1FE166FF1F0E480D49B3
:1020800001600E4981600C490D4A40314A610E4B96
:102090000C4A5A610D4AC2620D4A82630D4A8A6037
:1020A0000D4A4263084A0D48403A10620C48886164
:1020B00070470000951002114000FF1FA10E021191
:1020C000057BFF1FA578FF1F4002FF1FB14CFF1FBC
:1020D000C54AFF1F2D160211A11B02114150FF1FFF
:1020E0002931FF1F70B5FDF7F1FF904C00202568E6
:1020F0002060FEF777F906462560FDF7F3FF3046CE
:1021000070BD8B49C968FF31813188657047F8B56A
:10211000FEF76EF9864D874A68721178022903D955
:10212000002801D101201070834900200446E96095
:102130008300401CCC50FF28FADDE8687F498823E3
:1021400019507F49C1627F490978002902D07C4932
:102150001131C1620A210165117881637A49C16137
:10216000FEF74CF9E96879484861192080018861D7
:10217000084637228030C260082336220B64CA63C7
:102180001E224A6436224260322202603B220364ED
:10219000C263282242644122C2643922826432220C
:1021A0004365026528228265022202664222C265D8
:1021B0001E22836642662822C2662022426742228D
:1021C00002675A22436102613C2282611922920114
:1021D0000A605F4A0A63FF222D328A60CA60FF22CA
:1021E000F5320A615B4A8A647D22D2005A4EC26788
:1021F000CE644A62594A8A623222CA6506224A6518
:102200008A65CA1DF932022513604D664B25ED0023
:102210008D660925CD66524D0D678C674B67AB10F7
:10222000CB67504FFF313E604A4E86627D26F600F6
:102230008667642646620526C66202260663C826AD
:102240004663846338205060474810644B20800107
:102250009061B000D061581010627D200001506282
:10226000D466956513665364D565146753671E205D
:1022700090663E4890673E485B008131D0670B60B6
:102280008B604860FF20F530C86008614B20C000BB
:1022900010630E6538483749274A81603749803ACC
:1022A00011613549364A80318A62364ACA62364AF5
:1022B0008261364AC262364A02632F4A3548403A42
:1022C00050633548D0633548C861354890632A4922
:1022D000344840318861354933488860264834495C
:1022E000803841603349244A41633349C03AD16060
:1022F0003349324B204CCB63324B403C2363324B4F
:102300009362324AC263324AC260324A4A63324AF4
:10231000E260324A8A63324A0A6332498163FEF7D5
:1023200073F80120FEF776F8F8BD00009809FF1F4A
:10233000608AFF1F4A0AFF1F0004FF1F80E3FF1F80
:102340006E0400001888FF1F3A07000080C3C9010F
:102350009A02000050C30000280A00006A1800001A
:10236000204E0000F009FF1F00400011DC050000B6
:1023700040420F00C954FF1F0001FF1F8D2EFF1F99
:10238000117EFF1FE580FF1F992BFF1F2D2DFF1FC3
:10239000B52BFF1F113EFF1FC53BFF1FB985FF1F58
:1023A000A583FF1F2D2AFF1F0D1102110002FF1F21
:1023B0003D4BFF1F4D52FF1FE130FF1FC50C0211A7
:1023C0000000FF1F197CFF1F214EFF1F1958FF1F20
:1023D000594EFF1FC930FF1F914BFF1FE914021117
:1023E0007530FF1F4574FF1F0A7802708A784270AB
:1023F0004A88120A82700979C170042070470A78ED
:1024000002700988090A417002207047097801703A
:102410000120704710B500220EE093005B189C78F5
:1024200004705C88521C240A44701C7984709B8858
:10243000D2B21B0AC370001D0B789342EDD8180668
:10244000800D10BDF8B50D46064649780120317063
:102450000024761C16E06978012917D01221614307
:1024600049198A7832704A88871C120A7270B61C21
:1024700010223046091DFDF777FE1037B8B210362E
:10248000641CE4B22978A142E5D8F8BDA10049193D
:102490008A7832704A88871C120A7270B61C02222F
:1024A0003046091DFDF760FEBF1CB8B2B61CE7E759
:1024B00010B50C46097801702188090A41706288BC
:1024C000211D801CFDF750FE6088801C80B210BD6D
:1024D00010B50C46097801702188090A4170A1786D
:1024E00081706188090AC170A288A11D001DFDF7D5
:1024F0003BFEA088001D80B210BD10B50C460A88B6
:10250000891CFDF731FE208810BD10B50B788A7844
:1025100002705343DCB22246401C091DFDF724FE25
:10252000601C10BD10B50B788A7802705343DCB282
:102530002246401C091DFDF717FE601C10BD10B59A
:102540000C460A88891CFDF70FFE208810BD10B5C7
:102550000C460A88891CFDF707FE208810BD10B5BF
:102560000C46097801702188090A41706288211D92
:10257000801CFDF7F9FD6088801C80B210BD7FB51E
:1025800015460446022901D0102903D1022B04D09C
:10259000102B02D0002004B070BD994202D10A462F
:1025A000294607E01029694607D000F00DF81022EF
:1025B00069462846FDF714FEEDE7104600F004F8E2
:1025C000102269462046F5E770B50C4605000CD090
:1025D000002C0AD0102206492046FDF7C5FD2878B8
:1025E000207368786073012070BD002070BD00000A
:1025F000C8CA021110B50B460122024902F03CFC88
:1026000010BD0000E923021170B5064608880C468B
:10261000172812D30B4603220949304602F02CFC3E
:10262000050008D1074920880988884200D2014660
:10263000304600F0C9F9284670BD022070BD000088
:10264000FF230211D88AFF1F10B50B46182202493A
:1026500002F012FC10BD00000D24021110B5002381
:102660001922194602F008FC10BD000010B50A78C6
:10267000002A05D00B460722024902F0FDFB10BDDF
:10268000022010BD1524021110B54A78012A01D08C
:10269000022A08D10A78002A05D00B4605220349F0
:1026A00002F0EAFB10BD022010BD0000452402111B
:1026B000024940008968085A70470000CC8AFF1F11
:1026C00010B50B461D22024902F0D6FB10BD0000DA
:1026D000B124021110B50B461B22024902F0CCFBBB
:1026E00010BD0000B124021110B506490020896810
:1026F0001723054A02E044000B53401C1478A04203
:10270000F9DB10BDCC8AFF1FAC8BFF1F0098022B9A
:1027100001D0042070471178527812028918018084
:10272000002070470098012B01D0042070471178D9
:1027300001700020704770B5049C1E461546062B9C
:102740001BD369782878090240182080E978A87896
:1027500009024018608002222271291D601DFDF7C8
:1027600003FDB61FB2B22281F02A06D82046A91D69
:102770000A30FDF7F9FC002070BD042070BD009800
:10278000042B01D004207047537811781B02C9181C
:1027900001809178D2781202891841800020704718
:1027A000F8B584890D460646002C26D0B268177805
:1027B000380620D50C2C20D90C3CA4B2101900905E
:1027C00001217088234602F0A0FA002811D00220CF
:1027D00028707806C00F6870B806800EA870641E56
:1027E0002004000CA88001D0B068401CA860002024
:1027F000F8BD0120ECE70020EAE70120F8BD10B5A4
:1028000002981146042B14D34C780A78240212192A
:102810000280CC788A782402121942801B1F9AB257
:102820008280F22A05D8801D091DFDF79DFC00203D
:1028300010BD042010BD0098042B01D00420704767
:10284000537811781B02C91801809178D27812024E
:10285000891841800020704710B502981146062B58
:1028600003D0142B03D0042010BD022200E010225C
:1028700002714B780A781B02D2180280CB788A78D2
:102880001B02D21842800279401D091DFDF76CFC25
:10289000002010BD30B5039CD80718D1D805010E13
:1028A000022914D30B488088814210D8F6200155A4
:1028B000002008E0557813782D025B194500401C74
:1028C0006353C0B2921C8842F4D3002030BD042070
:1028D00030BD0000CC8AFF1F0098022B01D00420DD
:1028E00070471178527812028918018000207047D1
:1028F00070B5144602460498022B18D366782578E2
:102900003602AD1905800546E0352A766976002A3B
:102910000BD0E8219B1E9AB242808A4207D8A11CA4
:10292000001DFDF721FC002070BDF421F2E704201A
:1029300070BD002901D004207047002070470000BE
:1029400010B50B461722024902F096FA10BD00009E
:10295000D124021110B50B460D22024902F08CFA67
:1029600010BD0000FB24021110B50A78002A05D022
:102970000B461122024902F07FFA10BD022010BD61
:102980000B25021110B50A78002A05D00B46092242
:10299000024902F071FA10BD022010BD2525021176
:1029A00010B50B460F22024902F066FA10BD000076
:1029B0003F25021110B50B460B22024902F05CFACA
:1029C00010BD00004F250211034A1388994202D816
:1029D0009268400011527047CC8AFF1F70B50B46B9
:1029E000E0331C7E1222012C0AD10A4D42002D68D0
:1029F0004C88AA5A0F3A944201DD022070BD9222FF
:102A00005B7E012B01D140231A430B46024902F0A1
:102A100033FA70BDD48AFF1F5F25021110B5002361
:102A20001322194602F028FA10BD000070B50246C4
:102A300003200002161A22480C46014600252031C8
:102A40003300FDF761FB150C0E12191C32323232C5
:102A50002932322C2E3232302123252732000078C1
:102A60001BE01022411C204603E0154910221131C1
:102A70002046FDF779FB20E0406A20601DE0104908
:102A8000062228312046F4E7C08D13E0008E11E0C5
:102A9000408E0FE0808E0DE0087E20700DE0487EB5
:102AA000FBE7887EF9E7C87EF7E7272A04D21046BD
:102AB00000F094F9208000E00225284670BD000057
:102AC00050D0FF1F10B5084CA07007F03BFC3C2213
:102AD00000210648FDF726FCFF22F5320421A078EC
:102AE000FDF79EFC10BD00002C89FF1F50D0FF1F7A
:102AF00070B50C46080415D517488078FDF796FC8C
:102B000005000CD00078A22806D0B02804D0D02828
:102B100002D1284601F00EFE2846FDF78DFC01206B
:102B2000C00315E0E00703D007F0C2FB01200FE06F
:102B3000A00702D50220484070BD60070AD5FF20DB
:102B4000F53007F0ADFC07F017FC07F031FC04206E
:102B5000604070BD002070BD2C89FF1FF8B5154680
:102B6000024603200002171A344E0024304620305B
:102B70003B00FDF7C9FA150C111720555555555551
:102B8000395555404755554E252A2F3455000129B2
:102B900041D12878307048E010293CD110222946D4
:102BA000701C05E0102936D1244810222946113026
:102BB000FDF7DAFA39E004292DD12868706234E093
:102BC000022928D12888F0852FE0022923D12888DE
:102BD00030862AE002291ED12888708625E0022945
:102BE00019D12888B08620E0012914D12978042938
:102BF00011D8017619E001290DD1297807290AD8C1
:102C0000417612E0012906D12978032903D881767B
:102C10000BE0012901D0182407E02978C17604E0EF
:102C2000272A01D2022902D002242046F8BD298891
:102C3000104600F01FFA0446F7E7000050D0FF1FCF
:102C40001CB50D4C002800D06060207808700B493E
:102C500001910846133803460090113B1978002271
:102C6000A0785B1C00F042F80246054905A002F07E
:102C70008DF900201CBD00002C89FF1F74D0FF1FA0
:102C800090C9021125732C7265742025640A000016
:102C9000014610B502481322807800F0FBF910BD00
:102CA0002C89FF1F10B505480078000701D504489E
:102CB00000E0002003F096F810BD0000ED8AFF1F31
:102CC000E48AFF1F10B5FFF71CFA06480A210078B6
:102CD000084204D0044803F07FF8002010BD012012
:102CE00010BD0000ED8AFF1FDC8AFF1FFFB51E46E6
:102CF00081B017460D4602240B00FDF705FA0D21A1
:102D00000B0B0B0B210B210B0B21210821000EA01B
:102D100002F03CF92946019800F0DCF804000FD1DC
:102D200030460B9A0A9900F085F93846FFF7CAFF3A
:102D3000FFF7B8FF01F07AFF00F0E8F801F0AAFF12
:102D4000204605B0F0BD00004741505F44657669FC
:102D50006365496E69743A204741505F50524F464F
:102D6000494C455F43454E5452414C207C204741DD
:102D7000505F50524F46494C455F5045524950486C
:102D80004552414C200A000070B5104C21680029C2
:102D900004D00978814203D0032070BD122070BD99
:102DA0000B4D02212878FDF7C1F90A48002646801C
:102DB00004212878FDF7BAF9074806802168032026
:102DC00048700020FDF73EFB70BD00004C8BFF1FDC
:102DD0007D8BFF1F608BFF1FF08AFF1F272803D208
:102DE00002494000085A704701487047F88AFF1F9F
:102DF000FFFF000010B5044C6070FDF729FB0521B2
:102E0000607800F0B3FF10BD7C8BFF1F70B5284EBB
:102E1000054630680C46002801D0112070BD2548B9
:102E200001780520014216D023488068002805D08B
:102E30000078002802D0C80706D101E0102070BD3C
:102E400000F044F8002808D02078032805D0022894
:102E500003D0002801D0122070BD0C20FDF7FEFA2F
:102E60003060002820D00570002141700A222146E0
:102E7000801CFDF779F903F00BF9040002D002F091
:102E80002DFB12E00D48007803280ED11D20FFF71E
:102E9000A5FF0B490028088007D00B48094A0421E8
:102EA0000078FDF7BDFA00E01324204670BD000055
:102EB0004C8BFF1FED8AFF1F608BFF1FEE8AFF1FE9
:102EC000F08AFF1F60EA00007D8BFF1F10B505F040
:102ED000B5FE10BD70B50C4605461C220021094800
:102EE000FDF720FA084805704470FDF7BDFA054962
:102EF000002803D000200870122070BD01220A7043
:102F000070BD0000DCDAFF1FEC8AFF1F70B50F4CAC
:102F10000025A068002802D0FDF7ACFAA560E068A3
:102F2000002802D0FDF7A6FAE560094805210078DF
:102F3000084206D00548103002F05AFF02F03CFA71
:102F400070BD002002F054FF002070BD608BFF1F99
:102F5000ED8AFF1FFEB5344D0C46080419D568787C
:102F6000FDF764FA0121C9034C40064600280ED043
:102F700002F028FE002807D12878FF2804D0314627
:102F8000FDF77EFA002802D03046FDF755FA2046BC
:102F9000FEBDE007012700280AD0A868002804D059
:102FA0004168002901D00020884720467840FEBDB6
:102FB000A00709D56868002804D04168002901D01D
:102FC0000120884702202AE060072AD5174E308862
:102FD00000281FD0401E0004000C30801ED102F0DB
:102FE000F3FA002809D0124807706868002804D056
:102FF0004168002901D00120884702F0BFFA6946E4
:1030000001F092FD684602F0C7FD1D20FFF7E6FEC5
:10301000308003E004216878FDF788F804206040E0
:10302000FEBD0020FEBD00007C8BFF1FF08AFF1F4D
:10303000EF8AFF1F70B50E4C0B46261D07C60546CE
:10304000102200211846FDF721FA012803D1102192
:10305000A06807F047FD102200212846FDF716FA68
:10306000012803D11021606807F03CFD70BD00000D
:10307000DCDAFF1F272807D2044A914204D0044A11
:10308000400011520020704702207047FFFF0000EF
:10309000F88AFF1FF8B50D4617461D4906461B4A1C
:1030A00012248868954208D100282DD00268002A91
:1030B0002AD029463046904723E0144A521C9542B4
:1030C00013D1002807D00268002A04D029463046D0
:1030D0009047040005D03946304601F06FFF0400E8
:1030E00012D10B48067047700EE0284605F04AFDE5
:1030F000002809D00078B04205D139462846FDF7AE
:10310000CBF9044600E003242046F8BDFEFF000092
:10311000508BFF1FF8B50E4601461948154600783A
:1031200005221F46104028D0304326D01548012ED6
:103130001BD0C468002C20D01F2D18D8002D01D022
:10314000002F14D001701F220021601CFDF7EAF847
:103150002A463946601CFDF707F828462570002EE0
:1031600007D0611CFDF79EF9F8BD8468E2E70220F4
:10317000F8BD611CFDF79CF9F8BD1220F8BD0000F8
:10318000ED8AFF1F608BFF1F014610B50020C907A5
:1031900004D0034A0421034800F002FA10BD0000E5
:1031A00084C90211E888FF1F10B5002309E01C0143
:1031B0002418E468944202D11901081810BD5B1C60
:1031C0009BB28B42F3D3002010BD000070B50E4DB2
:1031D0000F4CA8700D49204600F020F800210D4842
:1031E0000B46CA0084521218491CC9B25360042904
:1031F000F7D3012003F0C4FEA87800F09DFB064839
:1032000005F032FD70BD0000D888FF1F2CD0FF1FD5
:10321000FFFF00003CCAFF1FC567021170B50A4CD2
:103220000025A04209D1002082008C525218401C77
:10323000C0B295700528F7D370BD03F092FA00284C
:10324000FAD00480857070BDFFFF0000F8B50E460F
:103250000746069900240798002902D00B2420462F
:10326000F8BD022B01D00D24F9E711785278120233
:1032700089188DB22946814301D08024EFE7384672
:10328000F16800F085F9A842E9D02A463846F1688D
:1032900000F0F2F90400E2D171892A46384600F0C4
:1032A000ADF9DCE7FFB51F460446C1B022881E4BCE
:1032B00000254A989A4233D0A278002A30D00A4694
:1032C00001463846FFF770FF060029D0174A2088CC
:1032D00012684100515C0023C91EC9B203AA023220
:1032E0000193029100927A8904AB314600F03CF8D8
:1032F000002815D1708969468881A078C00705D05B
:10330000208803A9439A00F0E5FA0546A0788007D3
:1033100006D5208803A94B9B439A00F07DFA05430C
:10332000284645B0F0BD0000FFFF0000D48AFF1F13
:1033300070B50C46080412D50A488078FDF776F877
:10334000050008D02878B02802D1284603F028FBD1
:103350002846FDF771F80120C003604070BD0020D1
:1033600070BD0000D888FF1FFFB583B0087A002524
:103370000C9E1C460F46C0060DD5059803F0EAF9D1
:10338000030006D00A22394603989847050035D134
:1033900001E00E2532E0387802281DD17868292214
:1033A0000178407812020002081881B2881A91420E
:1033B0007ED009DC7348081A23D0012821D00228C6
:1033C0004FD0032808D125E0012872D0022871D0FF
:1033D00003286DD004286ED0059803F0E3F9002887
:1033E0006AD00568002DD4D00E990D9801910090F7
:1033F0003346224639460398A8470546284607B073
:10340000F0BD0D98002872D1F868017831800278FB
:10341000416896E00D98002869D101203080F86855
:103420000021007820707889401C80B200F052F9A9
:1034300000280DD0318802788918891C3180817A62
:1034400061704189090AA17002784168E01C79E045
:1034500030880422001D30800021601CFCF762FFD0
:10346000CCE70D98002875D1F86802A90088009073
:1034700004203080009820700098000A6070009846
:1034800000F028F9070029D0F86800906846028902
:1034900001AB3D49384600F075F9002810D13B7862
:1034A00002213A487A68FFF76AF8002808D104E058
:1034B00026E030E01CE04AE062E03348694688805C
:1034C0000098007802280CD1009802224168201D43
:1034D000FCF74AFE3088801C308002E06946009884
:1034E000888068468088A070000AE07086E731E036
:1034F0000D9800282ED1F968039800F049F804E0EF
:103500000D98002826D1F8680088022131802070AB
:10351000000A607072E7F868FCF7D0FF0D99C0B23E
:10352000814212D8814201D1002206E00E9A891808
:10353000814202D30D99401AC2B23280F9680D98C7
:1035400009182046FCF710FE58E7072556E70D98A6
:10355000002801D00B2551E70721F8683180017858
:103560002170417861708178A1704188090AE17009
:103570000179217181796171C088000AA0713DE7EC
:1035800000252FE700280000FFFF00003ECB0211BE
:1035900010B503F0E6F8002800D0807810BD0000D8
:1035A0007CB51546040019D068460194018000F0EE
:1035B000C9F903001DD1002D1BD06489002C0DD04A
:1035C0000C20FCF74BFF00280AD000230360848006
:1035D000094A85609168002904D006E0022308E0CA
:1035E000132306E0906004E011460A68002AFBD12C
:1035F000086018467CBD0000D888FF1FF8B50C4C49
:103600000746207815460E46FF280FD00A20FCF703
:103610005BFF01000AD0B1200870002048700871DB
:103620004F80CE800D812078FCF72AFFF8BD000086
:10363000D888FF1FFFB583B008461F4601A90C9E1E
:1036400000F048F8050014D06846808803F0AAF816
:1036500000280AD04468002C09D000963B46294631
:10366000059A0398A04707B0F0BD0024F3E70E20A9
:10367000F9E70120F7E7000070B514460E4605464D
:1036800003F06FF8002806D13146054803F069F8C9
:10369000002803D005808470002070BD112070BD0B
:1036A000FFFF000010B50178B0290BD14178002947
:1036B00008D10179122906D01B2903D140880121A4
:1036C00000F0D0FA10BDFF210231095C0129F5D0CC
:1036D00010BD0000F0B58C4610494B6819E09F689A
:1036E0007C89A04214D39E883119814210D90022CE
:1036F0000CE011017D186989814205D160460028DE
:1037000000D004802846F0BD521C92B29642F0D8F8
:103710001B68002BE3D10020F0BD0000908BFF1F41
:10372000FFB5174881B00A9F446824E000251EE0D9
:10373000A0682901461870890199884215D3029919
:10374000884212D80498002807D031787068049B0A
:10375000039AFEF714FF002807D0002F02D0A068BC
:1037600040893880304605B0F0BD6D1CADB2A088F0
:10377000A842DDD82468002CD8D10020F3E700004F
:10378000908BFF1FFEB5174600256A4695800446BC
:1037900040891D4A1E46904208D001AA0092401C52
:1037A000237880B26268FFF7BBFF054623780221C9
:1037B00016486268FEF7E3FE002807D1237802214D
:1037C00013486268FEF7DBFE002801D060890EE036
:1037D000237802210F486268FEF7D1FE00280DD041
:1037E000002D03D068468088B84203D0384603F0E5
:1037F000DBFC04E06889401E80B200E06089002E96
:1038000000D030802846FEBDFFFF00003CCB0211F7
:103810003ECB021142CB0211FFB581B00F461E46CE
:1038200014466946019802F0C1FD050018D1002C2C
:1038300006D001221021019805F07EF905000FD174
:1038400039460198FEF73CFF050009D1009CFF2E88
:1038500006D021461E22A31C034803F0B1FCE670EB
:10386000284605B0F0BD0000AD70021110B5054945
:103870000870042100F07AFA00F006F8FEF734FF31
:1038800010BD00009C8BFF1FF8B50F4D0D4B0020A5
:103890006E1C1C78FF2209E09F688100C91900286E
:1038A0000ED00E80CA70401C8A70C0B2A042F3D302
:1038B000064802F01FFF064805F0D6F90020F8BDC3
:1038C0000D80EFE7908BFF1FFEFF0000D970021103
:1038D0002D700211F8B50D4614460646694602F0F1
:1038E00065FD17280CD0002C06D00122102130468F
:1038F00005F022F9002803D129463046FEF7EAFEFA
:10390000F8BD000070B50C46080411D509480078D0
:10391000FCF78CFD050007D00178A02901D102F049
:103920008DFE2846FCF788FD0120C003604070BD75
:10393000002070BD9C8BFF1F01494870704700003C
:10394000908BFF1F70B50546008800281DD0686861
:103950000221037842682248FEF711FE002808D1B0
:1039600068680221037842681E48FEF708FE0028B6
:103970000BD01D4C6088002805D001222988120434
:10398000101A814203D9012070BD022070BD0C20A5
:10399000FCF764FD060001D000200BE0132070BD91
:1039A00001016B6862880A315A526188491C401CC7
:1039B000618080B229888142F2D8002030600822DC
:1039C0002946301DFCF7D0FB6068002802D16660F4
:1039D00004E0084601680029FBD10660002070BDA4
:1039E0003CCB02113ECB0211908BFF1F0649496868
:1039F00006E08A685289824201D188887047096846
:103A00000029F6D100207047908BFF1F10B51422BB
:103A1000114201D0012202E04A0604D50022102101
:103A200005F08AF810BDC80701D0002010BD0220A3
:103A300010BD10B514468A0604D50122102105F0E8
:103A40007BF810BD882211420ED008220A401021B6
:103A500005F072F800280BD0E034617E0029F0D028
:103A6000217E0129EDD103E0880701D4032010BD98
:103A7000002010BD10B503F0D7FB10BD014610B5F6
:103A80000020C90704D0034A07210348FFF788FD37
:103A900010BD000070C902116488FF1F70B50D468B
:103AA000164600241D490300FCF72EFB08051234BE
:103AB000341934222934152D23D816220021184810
:103AC000FCF730FC2A4631461548FCF74DFB22E056
:103AD000022D16D111491088103908801BE0082DDD
:103AE0000FD10E48082231460838FCF7DDFA12E003
:103AF000012D06D1CA6909493078283107E0012D26
:103B000001D0182407E0CA6B04493078483103F02B
:103B10005EFC00E00224204670BD00006488FF1FA8
:103B200024CAFF1FF0B5069F099E002833D0102835
:103B300031D800292FD0002A2DD0002B2BD0002FD8
:103B400029D0079C002C26D0089C002C23D0002EC6
:103B500021D00A9C002C1ED0104C851D2070657051
:103B6000A26061600E490F4A0B60059911600E4911
:103B70000E4A0F60079911600D4A089911600D49AE
:103B8000401C08700C490E600C4908700C490A98DA
:103B900008600020F0BD1820F0BD0000AC8BFF1FB6
:103BA000F48BFF1FD48AFF1F5C8BFF1FE08BFF1F6E
:103BB000E48BFF1F888BFF1F8C8BFF1F908BFF1FD9
:103BC000988BFF1F0B7803700B8802221B0A43702F
:103BD0000B88801C012B02D0022B07D011E08A78C1
:103BE00002704988090A417004220AE08A7802704A
:103BF0004A88120A42700A7982708988090AC1705B
:103C00000622104670470A7802700988090A417036
:103C10000220704708B5044B009313460A46012161
:103C200004F0DAFE08BD0000C53B02111CB50323F9
:103C3000019200930A46024B122104F0FDFE1CBDC6
:103C4000B182021108B5044B009313460A461321B2
:103C500004F0C2FE08BD0000073C021110B5FCF7DD
:103C600039FC10BD13B504480078012803D101AA1E
:103C70006946FCF735FC1CBDA88BFF1F70B51049C9
:103C8000104A087000210B468C00491CC9B213531E
:103C90000429F9D30B4C00211034FF260A460A25CB
:103CA0006A4315196B80491CA354C9B26E7203296B
:103CB000F4D3FCF71BFC04F045FE04F099FF70BD43
:103CC000A98BFF1FF8DAFF1F082A01D001207047D7
:103CD0004B780A781B02D2180280CB788A781B02B4
:103CE000D21842804B790A791B02D21882808A79D5
:103CF000C97909025118C1800020704770B50C467F
:103D0000080411D509480078FCF790FB050007D09E
:103D10000178902901D104F077FD2846FCF78CFB4F
:103D20000120C003604070BD002070BDA98BFF1F43
:103D300070B50C490978884213D20B4C06016068B3
:103D4000002585533018858160683018858060684B
:103D500030188068002804D0FCF7CEFB606830186B
:103D6000856070BDAC8BFF1FDC8BFF1F072907D060
:103D7000052905D0042903D0062901D00220704767
:103D8000044A8B009A181346403B1986203A9074D7
:103D900000207047F8DAFF1F70B51749097888428C
:103DA00028D25C21154C4843A168054640180026DE
:103DB00040300674A068281840304674A06828185F
:103DC00040300676A0682818406D002804D0FCF723
:103DD00093FBA068281846650026A068F100281803
:103DE00040184068002801D0FCF786FB761CF6B22C
:103DF0000A2EF2D370BD0000AC8BFF1FDC8BFF1FBF
:103E000070B50A880C460546072A07D0052A05D052
:103E1000042A03D0062A01D0022070BD012104F03B
:103E200055FF002804D02146284604F057FA70BDFB
:103E3000142070BD10B5001D80B2FCF763FB002894
:103E400003D00321C943FCF763FB10BD70B5082004
:103E500004F018F81B4B01251C46143C00280DD01B
:103E60006078FF26F53600281ED00020607018719B
:103E70000A2201212079FCF75FF91CE0617801201A
:103E8000002901D001290AD0607018710A2201218D
:103E90002079FCF751F904212079FCF747F92078C3
:103EA000002800D1257070BD20780028FBD106A025
:103EB00001F06CF82570324604212079FCF73CF9BA
:103EC00070BD0000408AFF1F6B6579206572720A21
:103ED00000000000FEB5504F0C46387909040BD5A0
:103EE000FCF7A4FA050004D0FCF718FB2846FCF701
:103EF000A3FA0120C0038AE0E107002600296CD064
:103F0000FCF712FB0121444D084314353861287930
:103F10000028B8780ED0002817D11421F868FCF7D3
:103F200009FB002811D00120B8703869B8602879E1
:103F3000F8700AE0002808D01421B868FCF7FAFAF3
:103F4000002802D03869F860BE706879002820D057
:103F5000286800281DD0FF215F31FCF7EBFA00280C
:103F600017D069792DA001F011F8687905280ED1D4
:103F700030A003C80191009000A906222F48023109
:103F8000FCF7F2F86A460821A02006F085FB2E60B7
:103F90006E71F878002813D02879002816D13221C4
:103FA000B868FCF7C7FA00280AD06879401CC1B28B
:103FB000697138692860FA7821A000F0E7FFFE7087
:103FC0002879002802D16879002804D01422012120
:103FD0003879FCF7B1F8012019E0A10707D52822AC
:103FE0000221FCF7A9F8FFF731FF02200FE060077C
:103FF0000FD51AA000F0CAFF3E701C4A002108200D
:1040000004F008F802213879FCF790F804206040A9
:10401000FEBD0020FEBD00002C8AFF1F4B657920ED
:10402000746F74616C204B69636B206E756D3A2000
:1040300025640A0099983132333435360A8AFF1FD5
:104040006B65792074696D65206E756D3A20256405
:104050002C206B657920697325640A0073746F7076
:10406000207363616E66200A000000002529FF1F8F
:1040700001490871704700002C8AFF1F70B5154D6B
:10408000154CA878401CC1B2A97014A0E26D00F0D4
:104090007DFFA87802280CD9A96800290AD0E26D12
:1040A00012098A420FD1062807D002D9022000F057
:1040B00073FC70BDE06D000909E0022000F06CFCAB
:1040C00000F0E2FC70BD0328FCD90020A870A860B5
:1040D00070BD0000488AFF1F28D5FF1F52462034BC
:1040E00033334D202530336420434D442030782530
:1040F00038780A0070B51D4B00241D78012D10D0B2
:104100005E781B4A002E12D0012E0FD101290DD14D
:104110001146C96D0646093E4900082E12D8491CB1
:1041200013E0002902D1B42800D31C7070BD00290F
:1041300006D15F2804D301205870D4655C6070BD3F
:104140005C7070BD801E062801D8D16501E05C60FE
:104150005C705868401C58601828F2D35C605C7032
:10416000002DEED1FFF78AFF70BD0000488AFF1FC7
:1041700028D5FF1F70B50D4D002428786978884236
:1041800013D0401CC0B2C821FBF74CFF0748297070
:10419000801C0A5C48004019C03080891146FFF736
:1041A000A9FF641CE4B2322CE7D970BD28D3FF1FED
:1041B00010B50C460A4601460648FBF7D5FF0548F0
:1041C0000221801F4471017103480078FBF772FFE0
:1041D00010BD00001DD6FF1F588AFF1F7CB5214D62
:1041E0000C4608040CD5E878FCF720F9050004D04B
:1041F000FCF794F92846FCF71FF90120C0032DE0D5
:10420000A0071AD5184D2878022814D1174806227D
:1042100003C801910090294600A81A390230FBF723
:10422000A3FF6A460821A02006F036FA0120287074
:104230000F48FEF72DFD022010E0600708D5FFF7BC
:1042400099FF32220421E878FBF776FF042005E08D
:10425000200705D5042000F09FFB082060407CBDAE
:1042600000207CBD488AFF1F248AFF1FA0CA0211BC
:10427000FFFF000010B50249C870FCF761F910BDDE
:10428000488AFF1F38B50C4B01250FCB094C009510
:1042900003F076FF2146FF3160222831012003F030
:1042A000B1FFFF22883200212046FCF73BF80020B6
:1042B00038BD0000B7D5FF1FB8CA0211F8B50D46CA
:1042C000284809040CD50078FCF7B0F8040004D0A5
:1042D000FCF724F92046FCF7AFF80120C00336E0D4
:1042E000690703D500F052F8042030E0E907022600
:1042F00000292ED01C4C0027617822469278002994
:104300001ED0002A1CD0012900D16670A178E27865
:104310000646891A417015A000F038FEE178251D87
:104320004819717806F0C4F8E07872784319124899
:104330000321807A00F0CAF86770E770A7700FE079
:104340000EA000F023FE6770E770A77001206840A0
:10435000F8BDA80704D500F069F828467040F8BDFC
:104360000020F8BD588AFF1FB7D5FF1F7561727412
:1043700020646174613A0A00ACD5FF1F55324220B7
:10438000733D3A25782C25780000000070B5114C5B
:104390002546A178C035201D0818AA79E91DFBF72C
:1043A000E3FEE078002801D0512070BDA078A97903
:1043B0004018A0700020A8716078002801D0072064
:1043C00070BD01220448627011460078FBF7B4FE0C
:1043D000002070BDB7D5FF1F588AFF1F10B50C49CC
:1043E0000C4660346279002A0CD02079002809D06C
:1043F0000120663103F0F6FE00206071022020717A
:10440000002010BD03A000F0C1FD072010BD00007A
:10441000B7D5FF1F756172742073656E6420657275
:10442000722073746174650A0000000010B50548BD
:104430004179002902D0FFF7D1FF01E0002101718D
:10444000002010BD17D6FF1F10B504490870FFF7F4
:1044500019FF03A000F09AFD10BD0000588AFF1F4D
:1044600075617274207461736B20696E69740A00DF
:1044700010B506490648FEF7D1FE064804F0F4FBE5
:10448000054A08210548FFF78BF810BDD4D0FF1F5F
:10449000FFFF0000F594021140CA02113C89FF1F82
:1044A00010B500241046022904D0032905D00224A7
:1044B000204610BD1422044902E00349142214319D
:1044C000FBF752FEF4E70000ACD0FF1FFFB500265B
:1044D0001B4D83B0032902D0022007B0F0BD194F55
:1044E0000024A100795A814206D1A100C919FFF721
:1044F0004FF80646254603E0641CE4B2042CF0D3D2
:104500002A46314610A000F041FDF00716D00D48B4
:10451000059A14380699FBF727FE1249059808708A
:10452000FF210820019100900E4B0649A800C019F8
:10453000083300221439FEF7B5FECEE71020CCE791
:10454000FFFF0000D4D0FF1F474343203A203078BC
:1045500025303458202068616E646C652025640A1B
:10456000000000003489FF1F002803D00249486082
:1045700000207047112070473489FF1F10B5044692
:104580000246064906A000F001FD0A4949780129C2
:1045900002D1204600F0E4F910BD0000E3C9021189
:1045A000257320636F6E6E5F68616E646C65202595
:1045B000640A00002C89FF1FF0B50646024687B04A
:1045C000244925A000F0E2FC0520FEF707FC074681
:1045D00006A92648FEF72AFA244804A9401CFEF73B
:1045E00025FA224805A9801CFEF720FAC52003A958
:1045F0008000FEF71BFA6946088B8880088AC8800D
:10460000888A088188894881304604F05DFF044625
:104610000146324616A000F0B9FC1B4801A9827879
:104620003046FFF703FB1820FBF718FFA400174DD7
:10463000002828510BD000233A461549009605F072
:1046400087FE295900204861285905F0EBFE07B084
:10465000F0BD0000BFC90211257320636F6E6E5F4D
:1046600068616E646C652025640A00001103000017
:104670006964782025642C636F6E6E48616E646C8B
:10468000652025640A0000002C89FF1F9CD0FF1FB5
:104690007D45021138B541780546002903D011A0A7
:1046A00000F074FC38BD18480468688900902B89B4
:1046B000EA88A98815A000F069FC0FE0002C0CD155
:1046C000284604F0E5FE042807D281001848405827
:1046D0000028E7D005F0CCFE38BD2469002CEDD1D0
:1046E00038BD0000506172616D5570646174654938
:1046F0006E666F206572726F722073746174757369
:104700002025640A00000000FC89FF1F68616E64B8
:104710006C652025642C496E74762025642C6C61B0
:1047200074656E63792025642C544F2025640A003B
:104730009CD0FF1FF0B5857885B02B00FBF7E4FC1B
:104740000805BA2228282B87B8BA417804460029E0
:1047500003D05AA000F01AFCACE061A000F016FCF7
:1047600064A000F013FCE01C00F0D0FB00F00EFC95
:104770005AA000F00BFC618964A000F007FC217BCB
:1047800067A0E7E7C2784178284604F0E9FD91E0A8
:1047900041780022F8E741780446002940D12146BB
:1047A000284604F0F3FC0190684685882806000F2F
:1047B00036D1002768460772312002A90001FEF7B2
:1047C00035F96846007A00282AD06846878103A90F
:1047D0001F20FEF72BF9684680880005060F31463A
:1047E00055A000F0D3FB1820FBF738FEB100594E5E
:1047F0000028705014D02A07120F00926A4692893E
:104800007D23DB005A430D460023534905F0A0FDEC
:1048100070594761715901200860705905F002FE16
:104820004E4840680568002D44D0201D0090684621
:10483000808801050B0F0106090F032905D000220E
:104840000107090F6078A84734E00322F8E74178B0
:104850000446002919D12146284604F097FC00900F
:10486000684600880106090F0FD10005000F85007A
:1048700038484059002801D005F0FAFD354810307D
:104880004059002801D005F0F3FD344840684568E0
:10489000002D0FD068460088A37901050A0F010694
:1048A000090F032900D000210007000FA84701E0ED
:1048B000FFF7F0FE012005B0F0BD00004465766909
:1048C000636520496E697420446F6E6520455252BD
:1048D0005F436F6465203078253032580A0000004D
:1048E00044657669636520496E697420446F6E651E
:1048F000200A0000424C45204D756C74692D526FA2
:104900006C6520416464726573733A004843495F83
:104910004C4520504B54204C454E2025640A000045
:104920004843495F4C45204E554D20544F54414C0F
:104930002025640A000000006D756C746974696D4F
:1049400065725F696E6974207065724964782025AC
:10495000640A00008CD0FF1F614902112C89FF1FDF
:1049600010B504460246054905A000F00FFB0949B1
:10497000E0B24978FFF720FE10BD0000A3C9021184
:10498000257320636F6E6E5F68616E646C652025B1
:10499000640A00002C89FF1F70B500242A4D0128ED
:1049A00011D0022825D02949032837D0042809D15D
:1049B0000C71002103F002FA0021042003F038FA00
:1049C000FBF7C4FD70BD0021042003F0F7F90121BD
:1049D000042003F02DFA1E4A0420114603F01AFBAE
:1049E0000120FBF7B9FD64220421E878FBF7A4FB62
:1049F00011E00421E878FBF799FB0021042003F083
:104A000017FA00221146042003F004FB042003F0EF
:104A100063FAFBF79BFDAC70AC6070BD08790028B1
:104A2000FBD10120087109482038C4778C70CC7004
:104A30000461042003F050FA0121042003F0BEF9C0
:104A40000220FBF789FD70BD488AFF1F248AFF1FE3
:104A50004529FF1F70B5064600240A4D0DE0600091
:104A600020184019032231461430FBF7B9FB002807
:104A700001D0204670BD641CE4B2687FA042EED82D
:104A8000FF2070BD048AFF1F7FB523486C460FC806
:104A90000FC42348214D827FE96D540012190B0C7D
:104AA00012181375827F0B0A5400121912185375CD
:104AB000827FF0245300D218214012189175817F13
:104AC000491CC9B28177022901D900218177417F30
:104AD000032901D2491C00E0032141776A46917005
:104AE0000F4900A8092214310330FBF73DFB6A4649
:104AF0000C21A12005F0D0FDE86D6A46010C9170F3
:104B0000010AD1702040107106486B46807A052258
:104B10000321FFF7DBFC7FBDA8CA021128D5FF1FC8
:104B2000048AFF1FACD5FF1F38B50C46050014D012
:104B3000002C12D00321684605F0D4FF694688781E
:104B400040218006800E0843694688702246284628
:104B500006F004FE050002D006E0022038BD032264
:104B60006946E01CFBF700FB284638BDF7B58EB060
:104B70000E9815460E4600282DD0002D2BD0301D46
:104B8000C0B20190FBF76AFC040039D000F002FDCE
:104B900007463246201D0E99FBF7E4FCF8B2089058
:104BA000E0703804000E0B90A0703802000E0A90DE
:104BB00060703F0E277000F0E7FC0146102202A84B
:104BC000FBF7D0FC06AB214602A8019A06F01CFDBB
:104BD000060003D010E0022011B0F0BD0898287044
:104BE0000B9868700A98A870EF70082206A9281D13
:104BF000FBF7B8FC00F0D4FC2046FBF73BFC00E0E0
:104C000013263046E8E7000010B5064C2070FBF78D
:104C1000AFFC06212078FFF7A9F8034804F024F838
:104C200010BD0000D08BFF1FF9AC021110B5054874
:104C30000078000701D5044800E0002006F00AFAD9
:104C4000002010BDED8AFF1FB88BFF1F70B50C460A
:104C5000080419D50D480078FBF7E8FB05000FD0D4
:104C600006F070F9002808D109480078FF2804D020
:104C70002946FBF705FC002802D02846FBF7DCFBA1
:104C80000120C003604070BD002070BDD08BFF1FAD
:104C90007C8BFF1F10B505480078400701D50448FC
:104CA00000E0002006F0DCF9002010BDED8AFF1FB7
:104CB000C48BFF1FF0B587B00C9E1C460D00074645
:104CC00014D068460276110A417610220021FBF7C3
:104CD00029FB324629466846FBF746FA002C08D0E5
:104CE0000822214604A8FBF73FFA07E0022007B09C
:104CF000F0BD0822002104A8FBF714FB6B4606AAAE
:104D000004A93846FBF73AFCF1E7FFB58DB00F98E0
:104D1000169C0E46002815D0002C13D00D9803F0D9
:104D200031FF050011D06178207809024018A17880
:104D3000E2780904120689184718286AB84206D38F
:104D4000401C04D0022011B0F0BD1420FBE7002E5F
:104D500004D02879800701D40120F4E7082200213B
:104D600006A8FBF7DFFA1098001DC0B20190FBF710
:104D700075FB060017D0301D109A0F99FBF7F2FB58
:104D8000042221463046FBF7EDFB1022A91802A8A9
:104D9000FBF7E8FB06AB314602A8019A06F034FCAB
:104DA000050002D013E01320CDE7082206A908A8C9
:104DB000FBF7D8FB0822211D08A8FBF711FA0128F0
:104DC00001D0012503E039460D9801F0E7F930469E
:104DD000FBF750FB2846B6E7002809DBC106C90EE1
:104DE0000120884003490860BFF34F8FBFF36F8FE6
:104DF0007047000080E100E0002805DBC106C90E15
:104E000001208840014908607047000000E100E08F
:104E10008307FF22DB0E9A408907090E994000287C
:104E200008DB830809489B001818036893430B4369
:104E3000036070470007000F0838830804489B0090
:104E40001818C36993430B43C361704700E400E043
:104E500000ED00E00A4610B50146002003F0C2F95B
:104E600010BD10B5FBF790FB0120FBF793FBFBF7A0
:104E700097FB002010BD0000FFB583B016460F461B
:104E80001B2A01D0522E04D10398FBF78FFB002878
:104E90001BD01D49039889684000085AFEF7CAFFD5
:104EA00004002DD00125601C2670002F03D0069928
:104EB000B847401C85B2300613D51021039803F083
:104EC00005FF002804D0192616E0132007B0F0BD16
:104ED0006219E9B22046FFF749FE06000CD10C35F5
:104EE000ADB20421684601800194058169460398AA
:104EF000FEF786FF060004D02046FBF7FDFA00E02F
:104F000013263046E2E70000CC8AFF1F10B586B0BA
:104F1000044614220FA16846FBF74EFB12493020CD
:104F20000870782048700620891C6A46A41D641EFB
:104F30002378401E1B09D35C0B70237800061B07E7
:104F40001B0FD35C4B70891C000EF0D10870064813
:104F500006B010BD3031323334353637383941423E
:104F6000434445460000000040D0FF1F01680A0589
:104F700009D11031044A016012681279120391427A
:104F800001D3891A01607047008AFF1F0FB410B562
:104F900003AA0448029903F0ABFE10BC08BC04B09D
:104FA00018470000554E021138B5034B00240FCBB3
:104FB000009403F0E5F838BD58C9021110B50C464D
:104FC00003F0F8FD002804D040882146FBF764FA7E
:104FD00010BD122010BD0000F0B5174FB84201D12E
:104FE0002F20F0BD154E002233688DB25400E41816
:104FF000E48A84420AD15000C2188032D582B94274
:1050000002D131684018C7820020F0BD521C402AEE
:10501000ECDB00214A00D218D28ABA4207D14900FB
:10502000CA18D082306808188030C582ECE7491C65
:105030004029EFDB3020F0BDFFFF0000008AFF1F9A
:1050400010B504480068C07C002801D0FBF7BAFA0C
:1050500010BD0000008AFF1F70B505460024064EF3
:1050600004E020034019FBF7B3FA641C30680079B0
:10507000A042F6DC70BD0000008AFF1FF0B5594E5B
:1050800099B03068FF210172417281711021417124
:105090000121C171002425460922FF210A30FBF7B6
:1050A00041F94E22002104A8FBF73CF904AF31E09E
:1050B0003068210340181022694600F05BF9494826
:1050C000009A01680868824216D1684600790A7918
:1050D000904211D1684640794B7998420CD168468C
:1050E0008079521E904225DAA04201D1022500E0CB
:1050F0000325385588710BE00098401C1AD168468A
:105100000079FF2816D168464079FF2812D138551A
:10511000641CE4B2334806683179A142C8D8042D32
:1051200008D0044620688079FF2806D0012D04D0DD
:10513000002025E0202019B0F0BD00250CE08D7185
:1051400008682A038018102200F018F9002801D0FE
:105150001F20F0E76D1CEDB221680879401EA842BF
:10516000EDDC002008740879401E48741020888205
:105170000120887427E03A5C002A03D0401CC0B2AA
:105180008142F8D881421ED9401E0818FBF726FA42
:1051900071740120B0740020024618A9189000F024
:1051A00025F8002802D0212802D005E0189901E056
:1051B0000121090322689182C0B2212803D000286E
:1051C00001D02A20B7E7084A002023684100CB1805
:1051D0008033DA822368401CC918CA824028F4DB75
:1051E0000020A8E7008AFF1FFFFF0000F7B5012499
:1051F00084B000200E4627460190A7E0687CC019C5
:10520000FAF710FFC8B2FF2C02D9FF3CA4B29BE012
:10521000049A002A00D12974000301250390019803
:10522000002803D000200190281906E0012C05D9A0
:105230002819811EFF2918DA401E85B2039829011A
:10524000081802904A480422006801680298081869
:10525000694600F08FF8049800280ED0012824D069
:10526000022837D0062007B0F0BDFF200230401BD7
:10527000201A84B20120019066E000998803800F13
:1052800004D0022802D0032859D109E0080D0903EF
:10529000890F801C012947D10C214AE001214CE0F3
:1052A00002980005000D30605BE000998A03900FC2
:1052B00004D0022805D0032841D156E0900F0228DF
:1052C000E4D1328888B292B29042DFD10699029836
:1052D000086046E000988103890F04D002291FD09E
:1052E00003292CD13DE00103890F012903D0306847
:1052F00001240C300DE0000D0C21801CFAF792FE09
:10530000002900D00121401884B20C20316860438C
:1053100008183060069806990068401C08600EE086
:105320000103890F012901D0012408E0000D0C219F
:10533000801CFAF777FE0029B0D1401884B26D1CAA
:10534000ADB2FF2D00D86AE77F1CFFB208480568A0
:105350002979B94200D951E70498002803D00128DF
:1053600003D000207FE721207DE725207BE7000098
:10537000008AFF1F10B5FBF737F910BD10B5FBF71A
:1053800039F9C0B210BD0022002913D0002811D075
:10539000012806D04A799206920E4A71032805D058
:1053A00007E04879C0221043487102E040200243E0
:1053B0004A7101221046704770B5124800250078E6
:1053C000052108421BD02020FBF748F80E4C00288E
:1053D000A06013D020220021FAF7A4FF2020FBF7C1
:1053E0003DF8E060002804D020220021FAF79AFF5F
:1053F00005E0A068FBF73EF80020A06013252846D2
:1054000070BD0000ED8AFF1F608BFF1F10B50D4AB5
:1054100003460B4C12201268A14209D1002A04D085
:105420001078984202D1FBF7EBF810BD032010BDB5
:10543000034B5B1C9942FAD1002AF4D110BD000045
:10544000FEFF0000548BFF1F0246094B10B50120E0
:10545000D21807D0012A01D0002010BD8A68127826
:10546000002AFAD08868007800F06CFE10BD0000B9
:10547000F5DFFFFF002909D0012807D14979890903
:105480008901C02902D0402901D0022070470320A1
:105490007047FFB500200E4608701AE01C5C401CE7
:1054A000C5B2002C17D02819904214D85F5D6D1C2E
:1054B000EDB2384600F09BFE002806D0641EE0B234
:1054C000307000998F4202D1581904B0F0BD4019D4
:1054D000C0B29042E2D30020F7E7000010B5044CC0
:1054E0002068002803D0FAF7C5FF0020206010BD17
:1054F0004C8BFF1F70B5104D8400E86800590028E0
:1055000019D0006A002801D0FAF7B4FFE868005902
:10551000406A002801D0FAF7ADFFE8680059806AB8
:10552000002801D0FAF7A6FFE8680059FAF7A2FFB1
:10553000E9680020085170BD508BFF1F10B5044C66
:105540006068002803D0FAF795FF0020606010BD66
:10555000508BFF1F011E044805D10449897800299A
:1055600001D00248801D7047ECDAFF1FEC8AFF1F54
:105570000148807870470000EC8AFF1F01484068AE
:1055800070470000DCDAFF1F0148806870470000A8
:10559000DCDAFF1F0148C06800687047DCDAFF1FD3
:1055A00010B50748C0680168491C016005480078CB
:1055B000FF2803D001218903FAF77CFD10BD00000C
:1055C000DCDAFF1FEC8AFF1F02484068002800D089
:1055D00001207047488BFF1FFFB581B00F460D9E1D
:1055E0000A9D039803F0CEFA040042D001980028E7
:1055F0003FD120791021084320710499490702D531
:105600000221084301E0FD21084020710B99284642
:1056100008430C9908433043207902D00421084301
:1056200001E0FB2108402071002E06D030691022D5
:1056300020623146A018FAF797FD002D01D0002F07
:1056400005D00B98002814D0012F08D011E0606A13
:10565000002801D0FAF70EFF1C21284606E0606AF8
:10566000002801D0FAF706FF1C210B98FAF7CEFFAD
:1056700060620398274C8700E068C059002846D034
:10568000002D11D0006A002807D11C20FAF7E6FE91
:10569000E1680028C959086206D0E0681C22C05998
:1056A0002946006AFAF760FD0C98002813D0E068DC
:1056B000C059406A002807D11620FAF7CFFEE168EA
:1056C0000028C959486206D0E0681622C0590C99D2
:1056D000406AFAF749FD002E13D0E068C059806A8D
:1056E000002807D11420FAF7B9FEE1680028C9594B
:1056F000886206D0E0681422C0593146806AFAF701
:1057000033FD0B9B049A0399019805F039F805B015
:10571000F0BD0000508BFF1FF3B581B0019803F07E
:1057200031FA050029D00E20FAF7CEFE040024D06D
:105730002620FDF753FB060000D12E78D0202070E4
:10574000002767700B20A0700622E91DE01CFAF705
:105750000BFD019860810298C1070120002901D04A
:10576000207300E027730299890701D5607300E078
:105770006773F0B22146FAF783FEFEBD10B581884B
:105780001F4B0124CA1A994237D011DC1D4BCA1A8B
:10579000994219D007DC1C4A8A1810D0022A1ED060
:1057A000032A29D11BE0472A27D0482A24D124E004
:1057B0001300FAF7A9FC0621222222222221806866
:1057C000007800F0A9FC08E0806882784178120235
:1057D000891889B2007800F02BFD04460DE0094AD3
:1057E000921E914201D1012200E0002280680178DE
:1057F000104600F005FD00E00024204610BD00002A
:10580000532000000A200000FADFFFFF70B51A4D98
:105810001A4A0146002628781268194C01290CD032
:10582000002A09D017490978490705D50221FAF756
:105830007DFC6680FFF752FE70BD6188002903D0B1
:10584000114B1B78002B05D0002AF5D01078FDF7FE
:105850009BFA70BD3C2902D33C39618070BD0221A6
:10586000FAF764FC62887D20C00042430221287858
:10587000FAF762FC668070BD7D8BFF1F4C8BFF1FAB
:10588000608BFF1FED8AFF1FEF8AFF1F10B50E4AC6
:105890000124801810D001280BD0062810D00B4A04
:1058A000D04203D1084600F047F900E0002420462A
:1058B00010BD00F06FFCFAE7887800F08DF8F6E78D
:1058C000887800F005F8F2E7F3DFFFFF0E20FFFF16
:1058D00008B5002805D000210B460A46009100F0CB
:1058E0003BFB08BD08B5418900910389C2888188C6
:1058F000C07800F031FB08BDF0B504468088A121D6
:1059000089004843304987B009684018FF30FF30AC
:105910000230A1794167002C54D02C4D68680028D2
:1059200023D006782A480068002804D0416800295E
:1059300001D0002088472146E07908310591FFF722
:1059400099FDE0710246277D638A218AE0890190F2
:1059500002A88AC0A0880090E0783146059B04F038
:1059600087FFE078002802D00DE01A48D9E7E079F7
:10597000E2896B46059907C3A379A18801223046C5
:1059800003F0AEF8E0706868002811D0FFF7D6FD8C
:10599000287800280CD06978FFF710FB002807D082
:1059A000E078A2880346297804F08FFF0020287051
:1059B000A0881721FDF708F8A088FEF7B9F9A0889C
:1059C000FEF7EAF907B0F0BD3409FF1F508BFF1F47
:1059D000808BFF1FEC8AFF1F00B585B0002810D018
:1059E00009490B68002B0CD0002101910291039111
:1059F00004910091DA7819781B1D04F039FFFFF744
:105A00009DFD05B000BD0000548BFF1F70B504461E
:105A10000025808803F0B6F8002803D00578A08818
:105A200003F038F9134E3078002808D0854206D1AB
:105A30007178FFF7C3FA002809D000203070002DDC
:105A400005D0A379A288A078294604F03EFFA0885B
:105A5000F26881005158002901D0FFF74BFDA08862
:105A60001721FCF7B1FFA088FEF762F9A088FEF7C6
:105A700093F970BD508BFF1F70B58288294D0124AA
:105A8000531B2949AA4242D019DC284D531BAA4274
:105A900018D00BDC264BD21826D0254B1033D21849
:105AA0001ED0032A17D0042A39D10BE0012B09D0CC
:105AB000022B07D0032B21D0042B30D11AE0433B1B
:105AC000072B2CD8496800292AD00968002927D03B
:105AD0008847044624E08068007800F0DDF81FE085
