:020000041102E7
:1000000003B40148019001BDFD11000003B4014893
:10001000019001BD7511000003B40148019001BDBC
:100020001130000003B40148019001BD090E000029
:1000300003B40148019001BD53B9000003B4014865
:10004000019001BD29B6000003B40148019001BD33
:100050007582000003B40148019001BDFD5C010000
:1000600003B40148019001BD85C1000003B40148FB
:10007000019001BD61D5000003B40148019001BDAC
:100080001BBA000003B40148019001BD3DBA000055
:1000900003B40148019001BD5944000003B4014874
:1000A000019001BDB95E000003B40148019001BD9B
:1000B000810E000003B40148019001BD0D52010002
:1000C00003B40148019001BDC1EC000003B4014834
:1000D000019001BD75A9000003B40148019001BD64
:1000E000C93E000003B40148019001BD9DA9000074
:1000F00003B40148019001BDB30E000003B40148F0
:10010000019001BD9557FF1F03B40148019001BD47
:100110006189000003B40148019001BD1907010085
:1001200003B40148019001BDA9D8000003B40148FF
:10013000019001BDB352010003B40148019001BD1B
:100140008B52010003B40148019001BDC1A500001C
:1001500003B40148019001BD9D6A000003B4014849
:10016000019001BD116E000003B40148019001BD72
:10017000E94C010003B40148019001BDF97F000082
:1001800003B40148019001BD7912010003B4014894
:10019000019001BD757A000003B40148019001BDD2
:1001A000F143000003B40148019001BDC1430000C8
:1001B00003B40148019001BD6944000003B4014843
:1001C000019001BD8BB9000003B40148019001BD4D
:1001D000D1D4000003B40148019001BD01890000A1
:1001E00003B40148019001BDCD4C010003B40148A6
:1001F000019001BD09B8000003B40148019001BDA0
:100200002DFC000003B40148019001BDEDB80000D1
:1002100003B40148019001BD39B8000003B401489E
:10022000019001BD6DFE000003B40148019001BDC5
:10023000F9FD000003B40148019001BDA1E60000F2
:1002400003B40148019001BD9946000003B4014880
:10025000019001BD1547000003B40148019001BDA4
:10026000814CFF1F03B40148019001BD75F00000EF
:1002700003B40148019001BDF5D5000003B4014865
:10028000019001BDC5F0000003B40148019001BD1B
:1002900001EC000003B40148019001BD6160000061
:1002A00003B40148019001BD63EC000003B40148B0
:1002B000019001BD05FF000003B40148019001BD9C
:1002C0003161000003B40148019001BD59E4000010
:1002D00003B40148019001BDD5E4000003B4014816
:1002E000019001BD01BF000003B40148019001BDB0
:1002F00021F1000003B40148019001BDCDF10000DF
:1003000003B40148019001BDB9C0000003B4014825
:10031000019001BD4DF4000003B40148019001BDFE
:10032000C1E2000003B40148019001BD154D010078
:1003300003B40148019001BD8DE3000003B40148FE
:10034000019001BDA5FD000003B40148019001BD6D
:1003500025E7000003B40148019001BD31480000C9
:1003600003B40148019001BDC53F000003B401483A
:10037000019001BDF1FA000003B40148019001BDF4
:1003800079F4000003B40148019001BD77F1000049
:1003900003B40148019001BD5511010003B40148A7
:1003A000019001BD8D7FFF1F03B40148019001BD85
:1003B000E9F6000003B40148019001BD75F80000A2
:1003C00003B40148019001BD19FA000003B40148CB
:1003D000019001BD7559FF1F03B40148019001BD93
:1003E000BD58FF1F03B40148019001BDA93C0000A6
:1003F00003B40148019001BDE935FF1F03B4014872
:10040000019001BD4D3DFF1F03B40148019001BDA6
:10041000ADAE000003B40148019001BD456B010081
:1004200003B40148019001BD5952010003B40148D1
:10043000019001BDF54E010003B40148019001BDDA
:10044000434D010003B40148019001BD691F000044
:1004500003B40148019001BD5D17000003B40148D9
:10046000019001BD3D4B010003B40148019001BD65
:100470005125000003B40148019001BD014C010069
:1004800003B40148019001BD594F010003B4014874
:10049000019001BD1D4B010003B40148019001BD55
:1004A0004D1F000003B40148019001BD552200001A
:1004B00003B40148019001BDDD52010003B40148BD
:1004C000019001BD1D4D010003B40148019001BD23
:1004D000017F000003B40148019001BDE117000055
:1004E00003B40148019001BD7918000003B401482C
:1004F000019001BDD949010003B40148019001BD3B
:10050000E928000003B40148019001BD55490100EC
:1005100003B40148019001BDDD29FF1F03B4014868
:10052000019001BDE944FF1F03B40148019001BDE2
:10053000593AFF1F03B40148019001BD8D29FF1FE7
:1005400003B40148019001BDE129FF1F03B4014834
:10055000019001BD4551010003B40148019001BD66
:10056000C926000003B40148019001BDE12200004A
:1005700003B40148019001BDED4A010003B40148F4
:10058000019001BDA54F010003B40148019001BDD8
:100590008552010003B40148019001BDED2EFF1FFB
:1005A00003B40148019001BD810E000003B401486D
:1005B000019001BD8D12000003B40148019001BDFE
:1005C0004D32FF1F03B40148019001BD0D3FFF1FD5
:1005D00003B40148019001BD350E000003B4014889
:1005E000019001BDB93FFF1F03B40148019001BD57
:1005F0006940FF1F03B40148019001BD311A00009A
:1006000003B40148019001BDF94C010003B4014855
:10061000019001BD9928000003B40148019001BD7B
:10062000291C000003B40148019001BD19220000FB
:1006300003B40148019001BD851F000003B40148C7
:10064000019001BDA946010003B40148019001BD1C
:100650001147010003B40148019001BDF525FF1FBA
:1006600003B40148019001BD4326FF1F03B40148B4
:10067000019001BDB142FF1F03B40148019001BDCB
:100680005D3EFF1F03B40148019001BD293EFF1FDD
:1006900003B40148019001BD0729FF1F03B40148BD
:1006A000019001BDE128FF1F03B40148019001BD85
:1006B000C94A010003B40148019001BD951BFF1F09
:1006C00003B40148019001BDC51AFF1F03B40148DE
:1006D000019001BDA91AFF1F03B40148019001BD9B
:1006E000B11BFF1F03B40148019001BD0145FF1F6D
:1006F00003B40148019001BDF544FF1F03B4014854
:10070000019001BD6DBC000003B40148019001BD22
:10071000055E000003B40148019001BDC544FF1F00
:1007200003B40148019001BDCD45FF1F03B401484A
:10073000019001BDE548000003B40148019001BDEE
:100740002951010003B40148019001BDD91B0000EB
:1007500003B40148019001BD5147010003B40148B1
:10076000019001BD5542FF1F03B40148019001BD36
:10077000913EFF1F03B40148019001BDD1A50000C7
:10078000FEB508AF70CF6F4670C700F041F8024960
:10079000FFF736FC0020FEBD1320000038B50446EC
:1007A00000F098FA0146684601704470210A817091
:1007B0006A4603210248FFF729FC002038BD0000EB
:1007C0001B20000038B5044600F0AAFA014668462E
:1007D00001704470210A81706A4603210248FFF7C4
:1007E00015FC002038BD00001A20000008B50028C4
:1007F00002D000F09DFC00E01220694608706A46B5
:1008000001210248FFF702FC002008BD052000007E
:10081000FFB50446354F0001C019807981B01546F7
:10082000022802D00C2005B0F0BD314A881F90424A
:100830002ED2062D2CD3501D854229D88D4227D388
:10084000FF220499F432914222D80A990A291FD32F
:1008500081421DD82046FFF7DFFB0028E3D1A1200D
:100860008000444323480068261834468034E07BE7
:10087000002802D0E07A00280CD0207D012809D081
:100880000A98C1000498401C68434000814203D884
:100890001220C8E73A20C6E77878174F01280AD90E
:1008A0006804B988000C884203D3FFF7BBFB00291A
:1008B00009D03B20B7E7BD80F08E10494000097891
:1008C000FFF7B0FBF8600220207600206083308FB5
:1008D0000021C01DE082A5830498E0830A9820844B
:1008E0003046FFF7A5FB00209DE70000300DFF1FFD
:1008F0007B0C00003409FF1F300EFF1F1409FF1F7F
:10090000FFB583B0DB480090DB48129E02780C9D57
:100910000E9B1399012A20D000270770D74804782E
:10092000092C78D00A2C76D00B2C74D00C2C72D0D9
:100930000D2C70D0039AD248121F824246D2049ADC
:10094000121F824242D2049A039882423ED80598EE
:10095000002805D0012839D102E00C2007B0F0BDF5
:10096000284333D00698002805D0012803D0032857
:1009700001D002282AD10D98002805D0012803D0E3
:10098000032801D0022821D1B1421FD3BD49981FAD
:1009900088421BD20F98062818D301461920C0019F
:1009A000814213D8994211D3FF221099F432914217
:1009B0000CD811990A2909D3814207D8CA00109886
:1009C0000F99401C48434000824201D81220C5E7DD
:1009D000AD48AE49027809788A4201D30720BDE7C5
:1009E000A948AB4E407800280CD00F98B18840043D
:1009F000000C884203D3FFF715FB002902D03B20EF
:100A0000ACE708E00621082C01D0072C06D1A1484C
:100A10000278002A01D02120A0E70170FFF70EFB29
:100A2000040058D098484178491C41702046FFF78F
:100A30000BFB20460021FF3081308B001B19FF3358
:100A40000133C26A491CDA660829F6DB00218B00F3
:100A50001B19FF338133C26A491CDA600829F6DBAF
:100A60002079FFF7F7FA002081000919FF310131E1
:100A7000401CCF660828F7DB002081000919FF31F0
:100A80008131401CCF600828F7DB8348217901744D
:100A900003994181049981810599C1737F4900209F
:100AA00023180A5C6033401CC0B25A710528F7D382
:100AB0002146653120460191FFF7D2FA27462037BB
:100AC000F87F02280BD22046FFF7D0FA6E48417813
:100AD000491E41707AE76F48077009203EE7704869
:100AE000002D0BD02978417069788170A978C17088
:100AF000E97801712979417169798171664A0D99A5
:100B000011700D9900297DD0664A634913784B70A6
:100B100053788B709378CB70D3780B7113794B71BA
:100B200052798A71069901700D980099C007400E9C
:100B300008430699C907090E01430291FFF79CFA81
:100B4000E062FFF79FFAA0624F48407801287AD010
:100B5000B088E08630896087F08820874E4E707CB0
:100B600038745148C0688030818DB974008EA08679
:100B7000FFF78EFA0C21FFF755FA20466030491D29
:100B8000009081762520B073012030724748029989
:100B90008180801DFFF782FA002D0DD043492A780D
:100BA000881D0A736978C171A9780172E978417268
:100BB000297981726979C1723C4821461230042238
:100BC0002831FFF771FA39482146163003222C31BB
:100BD000FFF76AFA3549B87C48760846397D817650
:100BE000797DC176014620462230027D0A77427D1A
:100BF0004A773A7E8A777A7ECA771A31027E8A717C
:100C0000407E00E01DE0C8710846083005220199C9
:100C1000FFF74AFA0098397C807E4901C006C00E71
:100C200008432249213188711448007800281DD0DA
:100C30001F48012189030078FFF73CFA00208DE668
:100C400001E01C4A61E70F98E086119961871099CD
:100C50002187B080208FF080608F3081E08E0B493B
:100C600040000978FFF7DEF9F06077E72079FFF7B9
:100C700027FAE3E7052200001909FF1F1C09FF1FDF
:100C8000FD3F00007B0C0000300DFF1F1409FF1F0B
:100C9000300EFF1F2309FF1FD40BFF1F6009FF1F2A
:100CA0007809FF1F6B09FF1F548AFF1F6C11FF1F7C
:100CB0001B09FF1F6509FF1F70B50C460546FFF7AE
:100CC00005FA21462846FFF707FA0446FFF70AFA15
:100CD000204670BD10B5114AA12189001268414318
:100CE0008C189D2189000959012901D00C2010BDC3
:100CF000FFF792F90028FAD1E01DF93002790621B8
:100D0000012A06D041710D212046FFF791F90020FC
:100D100010BDFF20213001550221F5E73409FF1FE6
:100D200070B50D46134AA1218900126841438C1801
:100D30009D2189000959012901D00C2070BD002D89
:100D400016D0FFF769F90028F8D110210B1A2A5C98
:100D50001B19E033401CC0B29A711028F6D3012150
:100D6000F820015505212046FFF762F9002070BDEB
:100D7000122070BD3409FF1FFEB5089D099C17465F
:100D8000002874D0002972D0002C02D0012C02D08F
:100D900003E02A2201E0FF220732921D0192354A28
:100DA0000E461770344A106034480370344805709A
:100DB00034480470002446E0A120800025464543C5
:100DC0002D48A121006889002818FFF791F92A48C9
:100DD0002D49006862002818FF308130C6620198F2
:100DE000361800208854511848702649097800297F
:100DF0003BD0FF211131009121461C204143224864
:100E0000002220300D182A764254E0B20099FFF7F4
:100E100075F9686000202872E0B201220099FFF79E
:100E20006DF9E86000202874E0B202220099FFF713
:100E300065F968616968002919D0E968002916D048
:100E4000002814D0641CBC42B6DB00200F4D104AB1
:100E5000014683009C186580401CD154C0B261706B
:100E60001028F6D30020FEBD01E03421C3E7122094
:100E7000F9E700001409FF1F3409FF1F1509FF1FC0
:100E80001609FF1F1709FF1FB4E0FF1FFFFF000037
:100E900094E2FF1FF8B5714D0028AA7916D0012AF7
:100EA00001D0032A12D16E490B78FF2B0ED14B785B
:100EB000FF2B0BD18B78FF2B08D1CB78FF2B05D1E3
:100EC0000B79FF2B02D14979FF2930D065490B7886
:100ED000012B1DD00026644C0E702178092931D0D9
:100EE0000A292FD00B292DD00C292BD00D2929D040
:100EF000052927D0062925D0A97B00290AD0012958
:100F000008D0032906D0022904D004290FD101E01A
:100F10000C20F8BD002A05D0012A03D0022A01D0F6
:100F2000032A04D1514F002875D0012801D0122086
:100F3000F8BDA888012805D0FFF7C8F82078002858
:100F400002D01AE02120F8BDA87B0300FFF7DCF8EF
:100F5000050408100C082400012020701F200AE05E
:100F600002202070202006E004202070222002E0D1
:100F7000032020702120FFF7CDF8207828210128B8
:100F80000DD002280BD0042809D0032807D0072849
:100F90000ED008280CD01BE026701E20EBE734484A
:100FA00006602975FFF7BCF8002820D0AE800FE05E
:100FB0003048C068808D80060AD52F480278002A04
:100FC00006D1AA7B032A06D0022A04D0002A02D026
:100FD000FFF788F8B6E7022202702975140321464C
:100FE0003878FFF7A3F821463878FFF763F8012037
:100FF000A88022480078002809D0214801210288D1
:101000007D20C0004243C9033878FFF795F8FFF709
:1010100069F820E0FFE7FFF759F8AE80207807284D
:1010200008D0082806D026701648FFF78BF81E2037
:10103000FFF770F810480178002905D006700121EB
:1010400049033878FFF772F8FFF74CF80121C9031C
:101050003878FFF76BF80020F8BD0000A60BFF1FE3
:101060006B09FF1F1A09FF1F1C09FF1F1B09FF1F28
:101070004809FF1F548AFF1F2309FF1F2109FF1F73
:101080002C09FF1F00100040FFB585B016460D4625
:101090000446119FFFF71AF8154829460078049076
:1010A0002046202C00D22020202900D220210EAA68
:1010B0002CCA009201AAA8C23246089BFFF748F842
:1010C00005460C480A49448004980870012E01D056
:1010D000042E08D1084880230078C101074882887F
:1010E0009A4311438180FEF7FDFF284609B0F0BD09
:1010F0001C09FF1FA60BFF1F7809FF1F6C11FF1FA4
:1011000010B5FB2908D8084B9A4205D81B2903D3F0
:10111000FF2349339A4201D2302010BD034B19827C
:101120005A82FFF71BF810BD480800008410FF1F0B
:10113000F8B53249097801292AD0022928D0032993
:1011400026D0042924D0052922D0062920D02C49D4
:10115000097802291CD004291AD0012918D00329A2
:1011600016D0062914D0072912D00178254C8C46B8
:101170002170467866708378A370C278E270017936
:1011800021714079204D6071AF79012F02D008E0C4
:101190000C20F8BD6746EF712E726B72AA72E9726D
:1011A00028730622E91D1948FEF7DEFF0622E91D15
:1011B0001748FEF7D9FF1748017801290BD121788C
:1011C000417061788170A178C170E17801712179F5
:1011D0004171617981711048017801290BD1217821
:1011E000417061788170A178C170E17801712179D5
:1011F0004171617981710020F8BD00001C09FF1F59
:101200002309FF1F6B09FF1FA60BFF1F7211FF1F92
:101210008A13FF1FBC0BFF1FD40BFF1FF8B58446BA
:1012200057480F460178012914D00026554D067005
:101230002878092838D00A2836D00B2834D00C2832
:1012400032D00D2830D0504C607A002804D00128CC
:101250004BD101E00C20F8BD2078002805D00128F2
:1012600003D0022801D003283FD162894748111FCB
:1012700081423AD2A1890B1F834236D2914234D89F
:10128000002F01D0012F30D1604600284FD0012817
:101290002BD1207A012807D0FEF718FF20780128EB
:1012A00004D0032802D014E02120F8BD384801788A
:1012B000FF290ED14178FF290BD18178FF2908D170
:1012C000C178FF2905D10179FF2902D14079FF2892
:1012D00009D0287825210126002808D007280ED01B
:1012E00008280CD014E0FEF7FDFE1220F8BDE671D0
:1012F000E773A17405202870FEF73CFF13E0254832
:10130000C068808D400603D523480278002A02D0A9
:10131000FEF7E8FEC8E7A174067020480121090322
:101320000078FEF7C7FE2672FEF7DCFE25E0FEF72A
:10133000CDFE2878052804D007280AD0082808D030
:101340000FE02E701648FEF7FDFE1E20FEF7E2FEAF
:1013500007E0114801210670104809030078FEF7E4
:10136000E5FE26725820FEF70BFF0A480670FEF7CE
:10137000B9FE0C4801680129FCD00020F8BD00002E
:101380001909FF1F1C09FF1FBC0BFF1FFD3F0000B9
:101390006B09FF1F548AFF1F2309FF1F1B09FF1F33
:1013A000001000409809FF1F38B51C46049B0093AD
:1013B0002346FEF7EBFE002812D10B49002C0C70DF
:1013C0000FD0022C0DD0094A13784B7053788B70D4
:1013D0009378CB70D3780B7113794B7152798A71F2
:1013E00038BD034AF0E70000BC0BFF1F6B09FF1F6D
:1013F0006509FF1FFFB581B0044602981F461646D7
:10140000002814D0002E12D0002F10D02046FEF756
:1014100003FE00280CD1A120800044432C48006822
:101420002418E51DF935287B002803D00EE0122092
:1014300005B0F0BD2749002023180A18FF330133F7
:10144000401C5278C0B25A730828F5D3687BC00795
:1014500038D0002002992218095CC032401CC0B26A
:1014600011700828F6D320463178C03001727178A7
:101470004172002010210B1A3A5C1B19E033401C0A
:10148000C0B29A711028F6D32046B830FEF784FE19
:101490002046AC30FEF786FE0C210F48FEF788FE92
:1014A00000207B2108552146E031C8750876A62129
:1014B000095D012908D0287103212046FEF7B8FDF7
:1014C0000020B5E71120B3E7012028710A21F4E7D5
:1014D0003409FF1F480EFF1F3811FF1FFFB50D46CF
:1014E000A12189004843234981B009681E46441858
:1014F000002D09D0FF20D930015B0398814203D32E
:10150000002E04D0012E02D0122005B0F0BDE078EC
:1015100000280AD00520C00127181748F97800785C
:10152000801C814203D30720EFE70220EDE7FEF79E
:10153000CDFDF878A91E401CF87003980870002EA5
:1015400010D00120487020467C30091FFEF736FE7F
:10155000FEF7C8FD09480078082805D0072803D001
:101560000020D2E70220EDE700212046FEF72CFE06
:10157000F6E700003409FF1F1509FF1F1C09FF1FB4
:10158000F8B50F4E307A002818D10E4CE0690E4F96
:10159000C005C50F02D1E0693843E06104210B4862
:1015A00000F016F809480421103000F011F8002D61
:1015B00002D1E069B843E06101203072F8BD00005B
:1015C000548AFF1F00F0004000010000D4E2FF1F1A
:1015D000F3B50746104881B0C169104A1140FF3188
:1015E0000931C161002613E000252C461120FEF7C9
:1015F000F1FD0948406A8007800F61008840284358
:10160000641CE4B20546102CF0D301C7761CF6B278
:1016100002988642E8D3FEBD40F0004000FEFEFF87
:1016200070B50446FF30FF300230406F0D46012890
:1016300012D1282D10D1A420005BE188401A1D4949
:1016400080B2884208D321466A3105220E46481FDF
:10165000FEF7C6FD002818D0174900208200521856
:101660005278002A16D0401CC0B21028F6D3134876
:10167000012189020078FEF71DFD20790101104843
:101680000918897902290DD00FE031462046FEF76E
:10169000E7FC70BD80002379421853800D5401206F
:1016A0005070E4E74178491E41702046FEF79EFDE8
:1016B00070BD0000FF7F000094E2FF1F1B09FF1FA9
:1016C000300DFF1FF0B505468DB0A0300B902846B9
:1016D000FF300E300390092080012F18E81DFF30E5
:1016E000FA300890E0380790C030EE1DF9362C46ED
:1016F00080340990F0E0E07A0B2870D009DC030018
:10170000FEF702FD0B37551C6EEAEABFF0EFEED68E
:10171000EA0016286FD008DC0C286DD011286CD098
:1017200014286BD01528E5D166E1182867D01A284F
:101730007CD01B287BD0FE28DCD119E2A07A0128BE
:1017400003D02846FEF758FD19E0FA4880780028B3
:1017500004D02846FEF756FD162106E0608A401E9A
:101760000004000C60827CD00CE22846FEF750FD9D
:10177000F6E1A07A012804D02846FEF74FFDA072BA
:1017800000E2EC48807800280ED0207E40002076D1
:10179000608B40006083A08B4000A083208C000100
:1017A00020840120207510E02889E18A13E0A07AC6
:1017B000012803D02846FEF737FDE0E7DD488078B2
:1017C000002806D00B99012088702846FEF71AFDE4
:1017D00082E02889A18C8842C6D12821C5E784E00F
:1017E000A07A01280CD02846FEF724FDA072002024
:1017F0007072B072C6E111E1C3E055E1E9E027E1A2
:10180000CC48C078002801D000202071707A0128CF
:101810000ED0B07A012813D0F07F0128D5D0608A8D
:10182000401E0004000C60826CD0ABE167E189E1EE
:101830000020E06730600B9901208871062148E0A4
:101840002846FEF7DFFC0B990020887101207B21E0
:101850004855207170790628287906D000221A216F
:1018600000E03BE1FEF7ECFC36E000220621F7E762
:101870002221FEF7EBFC31E100222221FEF7E0FC01
:101880002CE1A07A012806D02846FEF7E5FCA072DC
:101890000020B07176E1B0790128C0D12846FEF76A
:1018A000B1FC00203072F0717072B071B07213E050
:1018B000A07A012806D02846FEF7D4FCA0720020AA
:1018C000F0715FE1F0790128A9D10B9900208871AE
:1018D0000B212846FEF7CCFCE07B002803D00AE76A
:1018E00040E014E03EE10DB0F0BDA07A012803D045
:1018F0002846FEF7C3FC42E78E48C07800288ED009
:101900000321E6E7307901282879B5D1B0E7A07A3C
:10191000012811D0884900202B180A18FF33013301
:101920005278401C5A730828F6DB2846FEF7ACFCB8
:10193000A0720020307325E1307B012806D0608A38
:10194000401E0004000C608206D01BE129790020B3
:10195000039AFEF79FFC38E729792220039AFEF7C5
:1019600099FCBBE0A07A012803D02846FEF798FC3A
:1019700005E77048C078002800D1EFE601203073F9
:1019800023E7A07A012805D00120F0752846FEF74C
:101990008DFCF4E6707D012806D0608A401E0004AC
:1019A000000C60820CD0EDE0B07D0128D3D1B08B6B
:1019B0000090738B327E29790020FEF77DFC04E7CE
:1019C000B08B0090738B327E29792220FEF774FC55
:1019D00084E0A07A012807D02846FEF773FCA072A5
:1019E000099900204874CDE05248C0780028C4D03E
:1019F000099901204874E8E6A07A012803D0284616
:101A0000FEF766FCBBE64B48C0780028B5D00999C4
:101A1000002008742879FEF761FCD6E6A07A012838
:101A200007D02846FEF760FCA072089900200872D3
:101A3000A8E04048C07800289FD00899012008728B
:101A40003E484079012886D1089900200872BCE6FA
:101A5000A07A012803D02846FEF74CFC8FE63548D3
:101A6000807800281DD00798007B002803D10798B4
:101A7000407B002808D007990120087408990020AD
:101A800008720899C871A0E60998417E0798017309
:101A90000998817E0798417300212846FEF730FCA3
:101AA000ECE72889718E96E6A07A01280ED0089876
:101AB000007A012814D00B988078012812D0207D5C
:101AC00001280FD0387E012811D05BE01948C0787A
:101AD00000288CD007990120887276E6222144E6FE
:101AE000232100E02A212846FEF710FC47E6797EF4
:101AF0002846FEF70BFCA0720020787642E0A07A20
:101B0000012806D02846FEF707FCA072012038768F
:101B100038E00848C078002899D1608A401E000447
:101B2000000C60822ED10648042200212818FEF7FE
:101B3000F9FBD3E7E010FF1F480EFF1F548AFF1F79
:101B400056020000A07A012803D02846FEF7F0FBD9
:101B500015E60F48C078002802D00020F87534E65A
:101B60000120C0E62846FEF7E9FB01288BD009E0FA
:101B700007990120C875FF214931485304488078EE
:101B8000012801D00020AEE607980178EDE50000BD
:101B9000E010FF1FF0B5054687B0E03004902846FE
:101BA000A030039040380590092080012E46281867
:101BB000FF36E136029030462030EF1DF9372C46D3
:101BC000803401909FE1E07A801E0300FEF79CFACA
:101BD0001A0E3822396BF638C13892D1A938383804
:101BE000383838F5F4F3F23838F1F038A07A0128B3
:101BF00003D02846FEF700FB12E0C5488078002895
:101C000001D0162130E1608A401E0004000C608281
:101C10006FD076E1A07A012804D02846FEF794FB25
:101C2000A0726EE1BA48C0780028ECD02846FEF7D2
:101C3000E9FA2A4629462879C832C031FEF78AFBDC
:101C400061E1A07A012813D00498C07D012821D039
:101C50000498007E00287BD02A4629462846D732A1
:101C6000B031E730FEF77CFB04990120C8754AE1EA
:101C7000A748C078002805D003990120887100206A
:101C8000E0673860B8790128BDD106212846FEF703
:101C9000EFFA38E12846FEF769FB0128B9D10020A8
:101CA000B8710120BCE7A07A012803D02846FEF7CE
:101CB000D3FAB5E79648C0780028A4D0E88C6884A9
:101CC0002846FEF79FFA05990120C87620713879D9
:101CD0000128287909D001220021FEF7B1FA00205D
:101CE00038713872F871B8710DE10021FEF7AEFA63
:101CF000F5E7B8E0A07A012805D02846FEF7BEFA3D
:101D0000012807D0FDE0F8790128BDD12846FEF76B
:101D100079FAF8E00020F871039988710120A07227
:101D2000F1E0A07A012804D079792846FEF724FB57
:101D300076E77748C178002906D0039A002191718F
:101D4000059A0121D176217180780028DED15AE7E9
:101D50008EE0A07A012803D02846FEF7A1FA5FE7BB
:101D60006B48C0780028F2D001203873E88C688472
:101D7000CCE7A07A012805D00120F8752846FEF7A7
:101D800095FA4DE7787D012806D0608A401E000450
:101D9000000C608213D0B4E0B87D0128B6D1B88BB6
:101DA00000907B8B3A7E29790020FEF785FAADE71B
:101DB0008FE072E03BE02DE01BE009E09CE0B88B97
:101DC00000907B8B3A7E29792220FEF775FA4AE053
:101DD000A07A012806D02846FEF774FAA0720020E7
:101DE00070748EE04A48C0780028B0D0012070742A
:101DF0008CE7A07A012803D02846FEF769FA0FE79E
:101E00004348C0780028A2D0002030742879FEF71B
:101E100065FA7BE7A07A012803D02846FEF764FA2A
:101E200036E03B48C078002891D0012018E0A07A25
:101E3000012807D0707FB17F08401BD041071DD516
:101E4000042020E03248C07800288CD0019900207E
:101E5000C871019A012111722E490979012987D18E
:101E60000199087252E722212846FEF7D1F9012094
:101E700007B0F0BD707E7075B07E05E0800701D5BB
:101E8000022000E001207075B0752846FEF77AFA4E
:101E9000A07201990020087233E0A07A012807D0CF
:101EA0002846FEF739FAA07202990120087628E048
:101EB0001748C07800289BD1608A401E0004000C9F
:101EC00060821ED11448042200212818FEF72AFA45
:101ED000C9E7A07A012803D02846FEF729FA9FE631
:101EE0000B48C07800280ED002990020087602998D
:101EF000C875FEF74DFA09E72846FEF71FFA0128D4
:101F000087D00020B4E7E07B002800D05BE6AFE795
:101F1000E010FF1F548AFF1F5602000070B51F48D3
:101F2000012201781E4D002915D01E48A12180787C
:101F3000890048431C491D4C0968227046182078C6
:101F4000FEF72CFAA87B00281AD003281BD0022801
:101F50001CD0002070BDA97B002904D0032904D027
:101F6000022904D005E0027003E0042100E003210F
:101F70000170FEF7D5F80E4900200870012070BDF1
:101F8000FEF712FA04E0FEF715FA01E0FEF718FA80
:101F9000FF36FF360236317B217070BD1C09FF1FF2
:101FA000A60BFF1F300DFF1F3409FF1F490AFF1F3B
:101FB0002309FF1F1449134888631348134940300D
:101FC00041611349016113490F4A01621249803A84
:101FD0001163124901601349114A0A60124A8A606A
:101FE0001249104A41621249403A516111498160D7
:101FF0001149816111494160124A114991601249A8
:10200000C16170478947FF1F8001FF1FA91302119B
:102010001D120211F5130211592AFF1FC5160211D4
:10202000A15AFF1F8002FF1FC963FF1F854BFF1FBF
:102030004577FF1F5D79FF1F01090211E948FF1F66
:10204000211602118000FF1FD920021110B5FEF7E2
:10205000BDF9FEF7C1F910BD03480249C16003494B
:10206000816170470D70FF1F8002FF1F8165FF1F98
:102070000E480D4901600E4981600C490D4A4031FE
:102080004A610E4B0C4A5A610D4AC2620D4A826384
:102090000D4A8A600D4A4263084A0D48403A106270
:1020A0000C48886170470000891002114000FF1F32
:1020B000950E0211A579FF1F4577FF1F4002FF1FF4
:1020C000514BFF1F6549FF1F21160211951B02117D
:1020D000E14EFF1FCD2FFF1F70B5FDF7F7FF904CAE
:1020E000002025682060FEF77DF906462560FDF793
:1020F000F9FF304670BD8B49C968FF318131886571
:102100007047F8B5FEF774F9864D874A6872117802
:10211000022903D9002801D1012010708349002031
:102120000446E9608300401CCC50FF28FADDE868D3
:102130007F49882319507F49C1627F490978002966
:1021400002D07C491131C1620A2101651178816395
:102150007A49C161FEF752F9E96879484861192066
:1021600080018861084637228030C2600823362209
:102170000B64CA631E224A64362242603222026025
:102180003B220364C263282242644122C264392292
:102190008264322243650265282282650222026639
:1021A0004222C2651E22836642662822C26620221F
:1021B0004267422202675A22436102613C228261E5
:1021C000192292010A605F4A0A63FF222D328A6057
:1021D000CA60FF22F5320A615B4A8A647D22D2001E
:1021E0005A4EC267CE644A62594A8A623222CA652E
:1021F00006224A658A65CA1DF932022513604D66BA
:102200004B25ED008D660925CD66524D0D678C6717
:102210004B67AB10CB67504FFF313E604A4E866232
:102220007D26F6008667642646620526C66202267B
:102230000663C826466384633820506047481064AC
:102240004B2080019061B000D061581010627D2059
:1022500000015062D466956513665364D5651467B2
:1022600053671E2090663E4890673E485B00813170
:10227000D0670B608B604860FF20F530C860086154
:102280004B20C00010630E6538483749274A8160EB
:102290003749803A11613549364A80318A62364A77
:1022A000CA62364A8261364AC262364A02632F4A9D
:1022B0003548403A50633548D0633548C8613548A1
:1022C00090632A49344840318861354933488860F1
:1022D00026483449803841603349244A41633349B0
:1022E000C03AD1603349324B204CCB63324B403C37
:1022F0002363324B9362324AC263324AC260324A2B
:102300004A63324AE260324A8A63324A0A63324995
:102310008163FEF779F80120FEF77CF8F8BD000034
:102320009809FF1F548AFF1F4A0AFF1F0004FF1F5E
:10233000A8EBFF1F6E040000DC86FF1F3A070000B9
:1023400080C3C9019A02000050C30000280A00009F
:102350006A180000204E0000F009FF1F0040001125
:10236000DC05000040420F006953FF1F0001FF1F02
:10237000312DFF1FB97CFF1F8D7FFF1F3D2AFF1FDF
:10238000D12BFF1F592AFF1F7D3CFF1F6D3AFF1FF6
:102390007984FF1F6582FF1F6129FF1F0111021150
:1023A0000002FF1FDD49FF1FED50FF1F852FFF1F9C
:1023B000B90C02110000FF1FC17AFF1FC14CFF1FA3
:1023C000B956FF1FF94CFF1F6D2FFF1F314AFF1F2A
:1023D000DD140211192FFF1FE572FF1F0A7802702A
:1023E0008A7842704A88120A82700979C170042082
:1023F00070470A7802700988090A41700220704704
:10240000097801700120704710B500220EE093009A
:102410005B189C7804705C88521C240A44701C79F8
:1024200084709B88D2B21B0AC370001D0B78934244
:10243000EDD81806800D10BDF8B50D460646497852
:10244000012031700024761C16E06978012917D02C
:102450001221614349198A7832704A88871C120A0E
:102460007270B61C10223046091DFDF77DFE103734
:10247000B8B21036641CE4B22978A142E5D8F8BDA0
:10248000A10049198A7832704A88871C120A727032
:10249000B61C02223046091DFDF766FEBF1CB8B20D
:1024A000B61CE7E710B50C46097801702188090AC7
:1024B00041706288211D801CFDF756FE6088801CDB
:1024C00080B210BD10B50C46097801702188090A48
:1024D0004170A17881706188090AC170A288A11D2C
:1024E000001DFDF741FEA088001D80B210BD10B593
:1024F0000C460A88891CFDF737FE208810BD10B5F0
:102500000B788A7802705343DCB22246401C091DC6
:10251000FDF72AFE601C10BD10B50B788A7802709A
:102520005343DCB22246401C091DFDF71DFE601C12
:1025300010BD10B50C460A88891CFDF715FE2088D1
:1025400010BD10B50C460A88891CFDF70DFE2088C9
:1025500010BD10B50C46097801702188090A417038
:102560006288211D801CFDF7FFFD6088801C80B201
:1025700010BD7FB515460446022901D0102903D1AC
:10258000022B04D0102B02D0002004B070BD994261
:1025900002D10A46294607E01029694607D000F013
:1025A0000DF8102269462846FDF71AFEEDE71046A1
:1025B00000F004F8102269462046F5E770B50C4695
:1025C00005000CD0002C0AD0102206492046FDF749
:1025D000CBFD2878207368786073012070BD0020DF
:1025E00070BD000090DA021110B50B4601220249BD
:1025F00002F05CFB10BD0000DD23021170B5064641
:1026000008880C46172812D30B4603220949304686
:1026100002F04CFB050008D1074920880988884250
:1026200000D20146304600F0C9F9284670BD0220AC
:1026300070BD0000F3230211CC8AFF1F10B50B46BA
:102640001822024902F032FB10BD000001240211E1
:1026500010B500231922194602F028FB10BD000016
:1026600010B50A78002A05D00B460722024902F06D
:102670001DFB10BD022010BD0924021110B54A78BF
:10268000012A01D0022A08D10A78002A05D00B4677
:102690000522034902F00AFB10BD022010BD000014
:1026A00039240211024940008968085A7047000025
:1026B000C08AFF1F10B50B461D22024902F0F6FA30
:1026C00010BD0000A524021110B50B461B220249C3
:1026D00002F0ECFA10BD0000A524021110B5064965
:1026E000002089681723054A02E044000B53401C70
:1026F0001478A042F9DB10BDC08AFF1FA08BFF1F1A
:102700000098022B01D004207047117852781202F1
:1027100089180180002070470098012B01D0042007
:102720007047117801700020704770B5049C1E46F8
:102730001546062B1BD3697828780902401820809B
:10274000E978A87809024018608002222271291DC8
:10275000601DFDF709FDB61FB2B22281F02A06D82E
:102760002046A91D0A30FDF7FFFC002070BD0420A3
:1027700070BD0098042B01D0042070475378117865
:102780001B02C91801809178D27812028918418001
:1027900000207047F8B584890D460646002C26D0E7
:1027A000B2681778380620D50C2C20D90C3CA4B27E
:1027B0001019009001217088234602F0BAF9002810
:1027C00011D0022028707806C00F6870B806800EFD
:1027D000A870641E2004000CA88001D0B068401CC2
:1027E000A8600020F8BD0120ECE70020EAE7012006
:1027F000F8BD10B502981146042B14D34C780A7812
:10280000240212190280CC788A782402121942809C
:102810001B1F9AB28280F22A05D8801D091DFDF780
:10282000A3FC002010BD042010BD0098042B01D093
:1028300004207047537811781B02C91801809178E1
:10284000D2781202891841800020704710B5029892
:102850001146062B03D0142B03D0042010BD0222F6
:1028600000E0102202714B780A781B02D218028015
:10287000CB788A781B02D21842800279401D091D4C
:10288000FDF772FC002010BD30B5039CD80718D1AD
:10289000D805010E022914D30B488088814210D834
:1028A000F6200155002008E0557813782D025B19B9
:1028B0004500401C6353C0B2921C8842F4D30020F0
:1028C00030BD042030BD0000C08AFF1F0098022BDD
:1028D00001D00420704711785278120289180180C3
:1028E0000020704770B5144602460498022B18D396
:1028F000667825783602AD1905800546E0352A76DA
:102900006976002A0BD0E8219B1E9AB242808A4247
:1029100007D8A11C001DFDF727FC002070BDF42185
:10292000F2E7042070BD002901D004207047002088
:102930007047000010B50B461722024902F0B6F9A5
:1029400010BD0000C524021110B50B460D2202492E
:1029500002F0ACF910BD0000EF24021110B50A78A6
:10296000002A05D00B461122024902F09FF910BD42
:10297000022010BDFF24021110B50A78002A05D0EC
:102980000B460922024902F091F910BD022010BD48
:102990001925021110B50B460F22024902F086F9E3
:1029A00010BD00003325021110B50B460B22024961
:1029B00002F07CF910BD000043250211034A138880
:1029C000994202D89268400011527047C08AFF1F96
:1029D00070B50B46E0331C7E1222012C0AD10A4D41
:1029E00042002D684C88AA5A0F3A944201DD022019
:1029F00070BD92225B7E012B01D140231A430B460E
:102A0000024902F053F970BDC88AFF1F5325021115
:102A100010B500231322194602F048F910BD00003A
:102A200070B5024603200002161A22480C460146E1
:102A3000002520313300FDF767FB150C0E12191C21
:102A4000323232322932322C2E32323021232527B3
:102A5000320000781BE01022411C204603E015499B
:102A6000102211312046FDF77FFB20E0406A2060F4
:102A70001DE01049062228312046F4E7C08D13E0FE
:102A8000008E11E0408E0FE0808E0DE0087E2070F9
:102A90000DE0487EFBE7887EF9E7C87EF7E7272A46
:102AA00004D2104600F08AF9208000E00225284672
:102AB00070BD0000C8D6FF1F10B5084CA07006F00E
:102AC0006FFF3C2200210648FDF72CFCFF22F53267
:102AD0000421A078FDF7A4FC10BD0000FC88FF1FB6
:102AE000C8D6FF1F70B50C46080415D51748807866
:102AF000FDF79CFC05000CD00078A22806D0B02879
:102B000004D0D02802D1284601F0F0FD2846FDF778
:102B100093FC0120C00315E0E00703D006F0F6FEA9
:102B200001200FE0A00702D50220484070BD6007D9
:102B30000AD5FF20F53006F0E1FF06F04BFF06F066
:102B400065FF0420604070BD002070BDFC88FF1F41
:102B5000F8B51546024603200002171A344E002429
:102B6000304620303B00FDF7CFFA150C11172055E9
:102B700055555555395555404755554E252A2F34ED
:102B80005500012941D12878307048E010293CD106
:102B900010222946701C05E0102936D12448102245
:102BA00029461130FDF7E0FA39E004292DD12868D3
:102BB000706234E0022928D12888F0852FE00229AC
:102BC00023D1288830862AE002291ED128887086E1
:102BD00025E0022919D12888B08620E0012914D1E6
:102BE0002978042911D8017619E001290DD1297815
:102BF00007290AD8417612E0012906D1297803294C
:102C000003D881760BE0012901D0182407E0297848
:102C1000C17604E0272A01D2022902D002242046EC
:102C2000F8BD2988104600F015FA0446F7E70000C1
:102C3000C8D6FF1F1CB50D4C002800D0606020785E
:102C400008700B4901910846133803460090113B68
:102C500019780022A0785B1C00F038F8024605497C
:102C600005A002F09DF800201CBD0000FC88FF1F9D
:102C7000ECD6FF1F8FD9021125732C7265742025A5
:102C8000640A000010B505480078000701D5044823
:102C900000E0002002F07CFF10BD0000E18AFF1F71
:102CA000D88AFF1F10B5FFF726FA06480A210078D8
:102CB000084204D0044802F065FF002010BD012046
:102CC00010BD0000E18AFF1FD08AFF1FFFB51E461E
:102CD00081B017460D4602240B00FDF715FA0D21B1
:102CE0000B0B0B0B210B210B0B21210821000EA03C
:102CF00002F056F82946019800F0DCF804000FD1E4
:102D000030460B9A0A9900F085F93846FFF7CAFF5A
:102D1000FFF7B8FF01F09EFE00F0E8F801F0CEFEEC
:102D2000204605B0F0BD00004741505F446576691C
:102D30006365496E69743A204741505F50524F466F
:102D4000494C455F43454E5452414C207C204741FD
:102D5000505F50524F46494C455F5045524950488C
:102D60004552414C200A000070B5104C21680029E2
:102D700004D00978814203D0032070BD122070BDB9
:102D80000B4D02212878FDF7D1F90A48002646802C
:102D900004212878FDF7CAF9074806802168032036
:102DA00048700020FDF74EFB70BD0000408BFF1FF8
:102DB000718BFF1F548BFF1FE48AFF1F272803D24C
:102DC00002494000085A704701487047EC8AFF1FCB
:102DD000FFFF000010B5044C6070FDF739FB0521C2
:102DE000607800F073FF10BD708BFF1F70B5284E28
:102DF000054630680C46002801D0112070BD2548DA
:102E000001780520014216D023488068002805D0AB
:102E10000078002802D0C80706D101E0102070BD5C
:102E200000F044F8002808D02078032805D00228B4
:102E300003D0002801D0122070BD0C20FDF70EFB3E
:102E40003060002820D00570002141700A22214600
:102E5000801CFDF789F902F0F1FF040002D002F0B6
:102E600013FA12E00D48007803280ED11D20FFF759
:102E7000A5FF0B490028088007D00B48094A042108
:102E80000078FDF7CDFA00E01324204670BD000065
:102E9000408BFF1FE18AFF1F548BFF1FE28AFF1F39
:102EA000E48AFF1F60EA0000718BFF1F10B505F078
:102EB0008DFA10BD70B50C4605461C22002109484C
:102EC000FDF730FA084805704470FDF7CDFA054962
:102ED000002803D000200870122070BD01220A7063
:102EE00070BD000004E3FF1FE08AFF1F70B50F4CA8
:102EF0000025A068002802D0FDF7BCFAA560E068B4
:102F0000002802D0FDF7B6FAE560094805210078EF
:102F1000084206D00548103002F040FE02F022F9C7
:102F200070BD002002F03AFE002070BD548BFF1FE0
:102F3000E18AFF1FFEB5344D0C46080419D56878A8
:102F4000FDF774FA0121C9034C40064600280ED053
:102F500002F00EFD002807D12878FF2804D0314662
:102F6000FDF78EFA002802D03046FDF765FA2046BC
:102F7000FEBDE007012700280AD0A868002804D079
:102F80004168002901D00020884720467840FEBDD6
:102F9000A00709D56868002804D04168002901D03D
:102FA0000120884702202AE060072AD5174E308882
:102FB00000281FD0401E0004000C30801ED102F0FB
:102FC000D9F9002809D0124807706868002804D091
:102FD0004168002901D00120884702F0A5F969461F
:102FE00001F0B6FC684602F0ADFC1D20FFF7E6FEDE
:102FF000308003E004216878FDF798F804206040F1
:10300000FEBD0020FEBD0000708BFF1FE48AFF1F85
:10301000E38AFF1F70B50E4C0B46261D07C60546FA
:10302000102200211846FDF731FA012803D11021A2
:10303000A06808F039FD102200212846FDF726FA85
:10304000012803D11021606808F02EFD70BD00003A
:1030500004E3FF1F272807D2044A914204D0044A00
:10306000400011520020704702207047FFFF00000F
:10307000EC8AFF1FF8B50E46014619481546007840
:1030800005221F46104028D0304326D01548012E77
:103090001BD0C468002C20D01F2D18D8002D01D0C3
:1030A000002F14D001701F220021601CFDF73AF997
:1030B0002A463946601CFDF757F828462570002E31
:1030C00007D0611CFDF7E8F9F8BD8468E2E702204B
:1030D000F8BD611CFDF7E6F9F8BD1220F8BD00004F
:1030E000E18AFF1F548BFF1F014610B50020C9075E
:1030F00004D0034A0421034800F002FA10BD000086
:1031000048D90211AC87FF1F10B5002309E01C014C
:103110002418E468944202D11901081810BD5B1C00
:103120009BB28B42F3D3002010BD000070B50E4D52
:103130000F4CA8700D49204600F020F800210D48E2
:103140000B46CA0084521218491CC9B253600429A4
:10315000F7D3012003F0EAFDA87800F09DFB0648B4
:1031600005F04AF970BD00009C87FF1F20D0FF1FAB
:10317000FFFF000030CAFF1F7165021170B50A4CD5
:103180000025A04209D1002082008C525218401C18
:10319000C0B295700528F7D370BD03F0B8F90028C8
:1031A000FAD00480857070BDFFFF0000F8B50E46B0
:1031B0000746069900240798002902D00B242046D0
:1031C000F8BD022B01D00D24F9E7117852781202D4
:1031D00089188DB22946814301D08024EFE7384613
:1031E000F16800F085F9A842E9D02A463846F1682E
:1031F00000F0F2F90400E2D171892A46384600F065
:10320000ADF9DCE7FFB51F460446C1B022881E4B6E
:1032100000254A989A4233D0A278002A30D00A4634
:1032200001463846FFF770FF060029D0174A20886C
:1032300012684100515C0023C91EC9B203AA0232C0
:103240000193029100927A8904AB314600F03CF878
:10325000002815D1708969468881A078C00705D0FB
:10326000208803A9439A00F0E5FA0546A078800774
:1032700006D5208803A94B9B439A00F07DFA0543AD
:10328000284645B0F0BD0000FFFF0000C88AFF1FC0
:1032900070B50C46080412D50A488078FDF7C6F8C8
:1032A000050008D02878B02802D1284603F04EFA4D
:1032B0002846FDF7C1F80120C003604070BD002022
:1032C00070BD00009C87FF1FFFB583B0087A002502
:1032D0000C9E1C460F46C0060DD5059803F010F94C
:1032E000030006D00A22394603989847050035D1D5
:1032F00001E00E2532E0387802281DD178682922B5
:103300000178407812020002081881B2881A9142AE
:103310007ED009DC7348081A23D0012821D0022866
:103320004FD0032808D125E0012872D0022871D09F
:1033300003286DD004286ED0059803F009F9002801
:103340006AD00568002DD4D00E990D980191009097
:103350003346224639460398A8470546284607B013
:10336000F0BD0D98002872D1F8680178318002789C
:10337000416896E00D98002869D101203080F868F6
:103380000021007820707889401C80B200F052F94A
:1033900000280DD0318802788918891C3180817A03
:1033A00061704189090AA17002784168E01C79E0E6
:1033B00030880422001D30800021601CFCF7B2FF21
:1033C000CCE70D98002875D1F86802A90088009014
:1033D00004203080009820700098000A60700098E7
:1033E00000F028F9070029D0F868009068460289A3
:1033F00001AB3D49384600F075F9002810D13B7803
:1034000002213A487A68FFF7B4F8002808D104E0AE
:1034100026E030E01CE04AE062E0401E6946888019
:103420000098007802280CD1009802224168201DE3
:10343000FCF79AFE3088801C308002E069460098D4
:10344000888068468088A070000AE07086E731E0D6
:103450000D9800282ED1F968039800F049F804E08F
:103460000D98002826D1F86800880221318020704C
:10347000000A607072E7F868FDF71AF80D99C0B29B
:10348000814212D8814201D1002206E00E9A8918A9
:10349000814202D30D99401AC2B23280F9680D9868
:1034A00009182046FCF760FE58E7072556E70D98F7
:1034B000002801D00B2551E70721F86831800178F9
:1034C0002170417861708178A1704188090AE170AA
:1034D0000179217181796171C088000AA0713DE78D
:1034E00000252FE700280000FFFF000006DB021187
:1034F00010B503F00CF8002800D0807810BD000053
:103500007CB51546040019D068460194018000F08E
:10351000C9F903001DD1002D1BD06489002C0DD0EA
:103520000C20FCF79BFF00280AD000230360848056
:10353000094A85609168002904D006E0022308E06A
:10354000132306E0906004E011460A68002AFBD1CC
:10355000086018467CBD00009C87FF1FF8B50C4C26
:103560000746207815460E46FF280FD00A20FCF7A4
:10357000A5FF01000AD0B120087000204870087132
:103580004F80CE800D812078FCF77AFFF8BD0000D7
:103590009C87FF1FFFB583B008461F4601A90C9EFC
:1035A00000F048F8050014D06846808802F0D0FF8B
:1035B00000280AD04468002C09D000963B462946D2
:1035C000059A0398A04707B0F0BD0024F3E70E204A
:1035D000F9E70120F7E7000070B514460E460546EE
:1035E00002F095FF002806D13146054802F08FFF12
:1035F000002803D005808470002070BD112070BDAC
:10360000FFFF000010B50178B0290BD141780029E7
:1036100008D10179122906D01B2903D14088012144
:1036200000F0D0FA10BDFF210231095C0129F5D06C
:1036300010BD0000F0B58C4610494B6819E09F683A
:103640007C89A04214D39E883119814210D900226E
:103650000CE011017D186989814205D1604600287E
:1036600000D004802846F0BD521C92B29642F0D899
:103670001B68002BE3D10020F0BD0000848BFF1FEE
:10368000FFB5174881B00A9F446824E000251EE07A
:10369000A0682901461870890199884215D30299BA
:1036A000884212D80498002807D031787068049BAB
:1036B000039AFEF75EFF002807D0002F02D0A06813
:1036C00040893880304605B0F0BD6D1CADB2A08891
:1036D000A842DDD82468002CD8D10020F3E70000F0
:1036E000848BFF1FFEB5174600256A469580044669
:1036F00040891D4A1E46904208D001AA0092401CF3
:10370000237880B26268FFF7BBFF05462378022169
:1037100016486268FEF72DFF002807D123780221A2
:1037200013486268FEF725FF002801D060890EE08B
:10373000237802210F486268FEF71BFF00280DD096
:10374000002D03D068468088B84203D0384603F085
:1037500001FC04E06889401E80B200E06089002E10
:1037600000D030802846FEBDFFFF000004DB0211C0
:1037700006DB02110ADB0211FFB581B00F461E46BF
:1037800014466946019802F0E7FC050018D1002CA8
:1037900006D001221021019804F096FD05000FD1FA
:1037A00039460198FEF786FF050009D1009CFF2EDF
:1037B00006D021461E22A31C034803F0D7FBE67067
:1037C000284605B0F0BD0000596E021110B505493C
:1037D0000870042100F07AFA00F006F8FEF77EFF88
:1037E00010BD0000908BFF1FF8B50F4D0D4B002052
:1037F0006E1C1C78FF2209E09F688100C91900280F
:103800000ED00E80CA70401C8A70C0B2A042F3D3A2
:10381000064802F045FE064804F0EEFD0020F8BD23
:103820000D80EFE7848BFF1FFEFF0000856E021105
:10383000D96D0211F8B50D4614460646694602F0E8
:103840008BFC17280CD0002C06D00122102130460A
:1038500004F03AFD002803D129463046FEF734FF34
:10386000F8BD000070B50C46080411D50948007871
:10387000FCF7DCFD050007D00178A02901D102F09A
:10388000B3FD2846FCF7D8FD0120C003604070BDA1
:10389000002070BD908BFF1F0149487070470000E9
:1038A000848BFF1F70B50546008800281DD068680E
:1038B0000221037842682248FEF75BFE002808D107
:1038C00068680221037842681E48FEF752FE00280D
:1038D0000BD01D4C6088002805D0012229881204D5
:1038E000101A814203D9012070BD022070BD0C2046
:1038F000FCF7B4FD060001D000200BE0132070BDE2
:1039000001016B6862880A315A526188491C401C67
:10391000618080B229888142F2D80020306008227C
:103920002946301DFCF720FC6068002802D1666043
:1039300004E0084601680029FBD10660002070BD44
:1039400004DB021106DB0211848BFF1F0649496864
:1039500006E08A685289824201D1888870470968E6
:103960000029F6D100207047848BFF1F10B5142268
:10397000114201D0012202E04A0604D500221021A2
:1039800004F0A2FC10BDC80701D0002010BD022029
:1039900010BD10B514468A0604D50122102104F08A
:1039A00093FC10BD882211420ED008220A4010213B
:1039B00004F08AFC00280BD0E034617E0029F0D0AE
:1039C000217E0129EDD103E0880701D4032010BD39
:1039D000002010BD10B503F0FDFA10BD014610B572
:1039E0000020C90704D0034A07210348FFF788FDD8
:1039F00010BD000034D902112887FF1F70B50D4695
:103A0000164600241D490300FCF77EFB080512340E
:103A1000341934222934152D23D8162200211848B0
:103A2000FCF780FC2A4631461548FCF79DFB22E056
:103A3000022D16D111491088103908801BE0082D7D
:103A40000FD10E48082231460838FCF72DFB12E052
:103A5000012D06D1CA6909493078283107E0012DC6
:103A600001D0182407E0CA6B04493078483103F0CC
:103A700084FB00E00224204670BD00002887FF1F61
:103A800018CAFF1FF0B5069F099E002833D01028E2
:103A900031D800292FD0002A2DD0002B2BD0002F79
:103AA00029D0079C002C26D0089C002C23D0002E67
:103AB00021D00A9C002C1ED0104C851D20706570F2
:103AC000A26061600E490F4A0B60059911600E49B2
:103AD0000E4A0F60079911600D4A089911600D494F
:103AE000401C08700C490E600C4908700C490A987B
:103AF00008600020F0BD1820F0BD0000A08BFF1F63
:103B0000E88BFF1FC88AFF1F508BFF1FD48BFF1F3E
:103B1000D88BFF1F7C8BFF1F808BFF1F848BFF1FA9
:103B20008C8BFF1F0B7803700B8802221B0A4370DB
:103B30000B88801C012B02D0022B07D011E08A7861
:103B400002704988090A417004220AE08A780270EA
:103B50004A88120A42700A7982708988090AC170FB
:103B60000622104670470A7802700988090A4170D7
:103B70000220704708B5044B009313460A46012102
:103B800004F0F2FA08BD0000253B02111CB5032326
:103B9000019200930A46024B122104F015FB1CBD52
:103BA000417A021108B5044B009313460A461321CB
:103BB00004F0DAFA08BD0000673B021110B5FCF70B
:103BC00083FC10BD13B504480078012803D101AA75
:103BD0006946FCF77FFC1CBD9C8BFF1F70B510492C
:103BE000104A087000210B468C00491CC9B21353BF
:103BF0000429F9D30B4C00211034FF260A460A256C
:103C00006A4315196B80491CA354C9B26E7203290B
:103C1000F4D3FCF765FC04F05DFA04F0B1FB70BD71
:103C20009D8BFF1F20E3FF1F082A01D00120704752
:103C30004B780A781B02D2180280CB788A781B0254
:103C4000D21842804B790A791B02D21882808A7975
:103C5000C97909025118C1800020704770B50C461F
:103C6000080411D509480078FCF7E0FB050007D0EF
:103C70000178902901D104F08FF92846FCF7DCFB8C
:103C80000120C003604070BD002070BD9D8BFF1FF0
:103C900070B50C490978884213D20B4C0601606854
:103CA00000258553301885816068301885806068EC
:103CB00030188068002804D0FCF718FC60683018C1
:103CC000856070BDA08BFF1FD08BFF1F072907D019
:103CD000052905D0042903D0062901D00220704708
:103CE000044A8B009A181346403B1986203A907478
:103CF0000020704720E3FF1F70B5174909788842FC
:103D000028D25C21154C4843A1680546401800267E
:103D100040300674A068281840304674A0682818FF
:103D200040300676A0682818406D002804D0FCF7C3
:103D3000DDFBA068281846650026A068F100281859
:103D400040184068002801D0FCF7D0FB761CF6B282
:103D50000A2EF2D370BD0000A08BFF1FD08BFF1F77
:103D600070B50A880C460546072A07D0052A05D0F3
:103D7000042A03D0062A01D0022070BD012104F0DC
:103D80006DFB002804D02146284603F06FFE70BD6D
:103D9000142070BD10B5001D80B2FCF7ADFB0028EB
:103DA00003D00321C943FCF7ADFB10BD70B508205B
:103DB00003F044FC1B4B01251C46143C00280DD08D
:103DC0006078FF26F53600281ED00020607018713C
:103DD0000A220121E079FCF7AFF91CE061780120AB
:103DE000002901D001290AD0607018710A2201212E
:103DF000E079FCF7A1F90421E079FCF797F9207844
:103E0000002800D1257070BD20780028FBD106A0C5
:103E100000F0C6FF257032460421E079FCF78CF9EA
:103E200070BD0000388AFF1F6B6579206572720AC9
:103E300000000000F8B56A4D0C46E87909040DD57C
:103E4000FCF7F4FA050004D0FCF762FB2846FCF707
:103E5000F3FA01212046C9034840F8BDE1070026D6
:103E600000297DD0FCF75AFB0127384328615C48C4
:103E70001430007900281AD0E878002824D0594955
:103E8000A868FCF751FB002819D05548143046713A
:103E90002879002800D12F715349A868FCF744FB0A
:103EA00000280CD0A879002809D1AF7107E0287943
:103EB00001281FD12E716F714CA000F071FF48488E
:103EC00014300079002815D0A878002826D11421B4
:103ED000E868FCF729FB002820D0AF702869A860AB
:103EE0003F4814300179E9706879002816D16F7164
:103EF00043A011E0A878002810D01421A868FCF78E
:103F000013FB00280AD02869E860AE7068790128A0
:103F100004D16E71E9783EA000F042FF30481430C1
:103F20004079002814D02E491431086800280FD099
:103F3000FF215F31FCF7F8FA002809D02848143037
:103F4000417937A000F02CFF2548143006604671F7
:103F5000E878002816D0224814300079002800E0C4
:103F600020E017D13221A868FCF7DEFA002809D03A
:103F70001B482969143001604179EA782EA000F0CD
:103F80000FFFEE70164814300179002902D14079F4
:103F9000002804D014220121E879FCF7CDF820464E
:103FA0007840F8BDA10707D528220221FCF7C4F804
:103FB000FFF7FCFE02200FE060070FD525A000F000
:103FC000EFFE2E70274A0021082003F0EBFB0221B0
:103FD000E879FCF7ABF804206040F8BD0020F8BD9C
:103FE000248AFF1FB80B0000881300004B65795F1F
:103FF0004C6F6E675F52656C656173653A0A0000CD
:104000006B65792070726573732025640A00000067
:104010006B65792072656C656173652025640A00A3
:104020004B657920746F74616C204B69636B206EF3
:10403000756D3A2025640A006B65792074696D6599
:10404000206E756D3A2025642C206B65792069738C
:1040500025640A0073746F70207363616E66200AB2
:10406000000000006128FF1F0149C871704700006F
:10407000248AFF1F70B51048C06DC5B20002040C41
:104080002A4621460DA000F08BFEE12080008442EC
:1040900010D11248417800290CD101214170FF2232
:1040A0002D320821C078FCF747F82A46214603A0A4
:1040B00000F076FE70BD000068DDFF1F69722061B0
:1040C0006E616C79736973206B6579203078253067
:1040D0003878203078253038780A0000408AFF1F71
:1040E00070B51C4C00252378012B10D0A6781A4AF5
:1040F000002E12D0012E0FD101290DD11146C96D0C
:104100000646093E4900082E10D8491C11E0002936
:1041100002D1B42800D3257070BD0029FCD15F28DE
:10412000FAD30120A070D565656070BD801E062899
:1041300001D8D16501E06560A5706068401C6060D1
:104140001828F2D36560A570002BEED1FFF792FF1F
:1041500070BD0000408AFF1F68DDFF1F70B50D4D68
:10416000002428786978884213D0401CC0B2C82146
:10417000FBF758FF07482970801C0A5C480040196B
:10418000C03080891146FFF7ABFF641CE4B2322CCB
:10419000E7D970BD68DBFF1F70B5164D0C460804EB
:1041A0000CD5E878FCF742F9050004D0FCF7B0F92B
:1041B0002846FCF741F90120C0030DE0E00701D0DB
:1041C000012013E0600709D5FFF7C8FF3222042160
:1041D000E878FBF7B1FF0420604070BD200707D5E9
:1041E0006878012801D1002068700820484070BD1F
:1041F000002070BD408AFF1F10B5064CE070FCF730
:1042000099F9FCF79DF964220421E078FBF794FF0B
:1042100010BD0000408AFF1F38B50C4B01250FCBA5
:10422000094C009503F074FB2146FF3160222831D0
:10423000012003F0AFFBFF22883200212046FCF76B
:1042400071F8002038BD0000CCDDFF1F80DA0211BC
:10425000F8B50D462F4809040CD50078FCF7E6F8B0
:10426000040004D0FCF754F92046FCF7E5F80120DF
:10427000C0034AE0690703D500F060F8042044E079
:10428000E9070026022700292ED0234C6178224618
:104290009278002920D0002A1ED0012900D1677011
:1042A000A178E2780546891A41701CA000F078FDDB
:1042B000E078271DC019697805F028FCE0786A7855
:1042C000C1191948FBF750FF08212878FBF7F2FEC7
:1042D0006670E670A6701AE014A000F061FD6670CA
:1042E000E670A670012010E0A90704D500F076F86A
:1042F00028467840F8BD290709D5044642780021B0
:104300000948FCF70FF8667008206840F8BD0020E7
:10431000F8BD00004C8AFF1FCCDDFF1F7561727471
:1043200020646174613A0A0053DFFF1F5532422056
:10433000733D3A25782C25780000000070B5114CAB
:104340002546A178C035201D0818AA79E91DFBF77C
:104350000BFFE078002801D0512070BDA078A9792A
:104360004018A0700020A8716078002801D00720B4
:1043700070BD01220448627011460078FBF7DCFE34
:10438000002070BDCCDDFF1F4C8AFF1F10B50C490B
:104390000C4660346279002A0CD02079002809D0BC
:1043A0000120663103F0E6FA0020607102202071DE
:1043B000002010BD03A000F0F3FC072010BD00009A
:1043C000CCDDFF1F756172742073656E64206572A9
:1043D000722073746174650A0000000010B505480E
:1043E0004179002902D0FFF7D1FF01E000210171DE
:1043F000002010BD2CDEFF1F10B504490870FFF728
:104400000BFF03A000F0CCFC10BD00004C8AFF1F86
:1044100075617274207461736B20696E69740A002F
:1044200010B506490648FEF7A9FE064803F0E4FF6A
:10443000054A08210548FFF763F810BD12D9FF1F90
:10444000FFFF0000858C021140DA02110C89FF1F6A
:1044500070B500241546022904D0032907D0022490
:10446000204670BDFEF71EF9C21E054904E0FEF7A6
:1044700019F90349C21EF7312846FBF775FEEFE72D
:1044800024D7FF1FFFB500261B4D83B0032902D0A0
:10449000022007B0F0BD194F0024A100795A8142D3
:1044A00006D1A100C919FFF723F80646254603E007
:1044B000641CE4B2042CF0D32A46314610A000F06C
:1044C0006FFCF00716D00D48059AF7380699FBF7F0
:1044D0004BFE124905980870FF21082001910090B9
:1044E0000E4B0649A800C01908330022F739FEF721
:1044F00089FECEE71020CCE7FFFF000012D9FF1F96
:10450000474343203A2030782530345820206861D2
:104510006E646C652025640A000000000489FF1F9A
:10452000002803D0024948600020704711207047DE
:104530000489FF1F10B504460246064906A000F094
:104540002FFC0A494978012902D1204600F0E4F9FC
:1045500010BD0000E2D90211257320636F6E6E5FFB
:1045600068616E646C652025640A0000FC88FF1F8A
:10457000F0B50646024687B0244925A000F010FC9D
:104580000520FEF71BFC074606A92648FEF748FA59
:10459000244804A9401CFEF743FA224805A9801CC0
:1045A000FEF73EFAC52003A98000FEF739FA6946F6
:1045B000088B8880088AC880888A08818889488111
:1045C000304604F049FB04460146324616A000F08E
:1045D000E7FB1B4801A982783046FFF7D7FA18207D
:1045E000FBF73CFFA400174D002828510BD00023F7
:1045F0003A461549009605F0D9F929590020486135
:10460000285905F03DFA07B0F0BD0000BED90211EF
:10461000257320636F6E6E5F68616E646C65202524
:10462000640A0000110300006964782025642C638B
:104630006F6E6E48616E646C652025640A00000030
:10464000FC88FF1F14D7FF1F3545021138B541788C
:104650000546002903D011A000F0A2FB38BD184880
:104660000468688900902B89EA88A98815A000F061
:1046700097FB0FE0002C0CD1284604F0D1FA042857
:1046800007D28100184840580028E7D005F01EFAEC
:1046900038BD2469002CEDD138BD00005061726135
:1046A0006D557064617465496E666F206572726FD6
:1046B00072207374617475732025640A0000000011
:1046C000CC89FF1F68616E646C652025642C496E7F
:1046D00074762025642C6C6174656E637920256482
:1046E0002C544F2025640A0014D7FF1FF0B585789D
:1046F00085B02B00FBF708FD0805BA2228282B8778
:10470000B8BA41780446002903D05AA000F048FB0B
:10471000ACE061A000F044FB64A000F041FBE01CB1
:1047200000F00EFB00F03CFB5AA000F039FB618961
:1047300064A000F035FB217B67A0E7E7C2784178F1
:10474000284604F0D5F991E041780022F8E7417855
:104750000446002940D12146284604F0DFF80190A4
:10476000684685882806000F36D1002768460772FC
:10477000312002A90001FEF753F96846007A0028AB
:104780002AD06846878103A91F20FEF749F96846A9
:1047900080880005060F314655A000F001FB182067
:1047A000FBF75CFEB100594E0028705014D02A0768
:1047B000120F00926A4692897D23DB005A430D4610
:1047C0000023534905F0F2F87059476171590120EF
:1047D0000860705905F054F94E4840680568002D8E
:1047E00044D0201D00906846808801050B0F01060B
:1047F000090F032905D000220107090F6078A84797
:1048000034E00322F8E741780446002919D1214613
:10481000284604F083F80090684600880106090FD6
:104820000FD10005000F850038484059002801D0FD
:1048300005F04CF9354810304059002801D005F0FA
:1048400045F9344840684568002D0FD06846008817
:10485000A37901050A0F0106090F032900D00021E1
:104860000007000FA84701E0FFF7F0FE012005B0A8
:10487000F0BD000044657669636520496E69742067
:10488000446F6E65204552525F436F6465203078F7
:10489000253032580A000000446576696365204976
:1048A0006E697420446F6E65200A0000424C4520FA
:1048B0004D756C74692D526F6C652041646472652E
:1048C00073733A004843495F4C4520504B54204C89
:1048D000454E2025640A00004843495F4C45204E60
:1048E000554D20544F54414C2025640A00000000CF
:1048F0006D756C746974696D65725F696E69742039
:104900007065724964782025640A000004D7FF1F8F
:1049100019490211FC88FF1F10B5044602460549DB
:1049200005A000F03DFA0949E0B24978FFF720FE02
:1049300010BD0000A2D90211257320636F6E6E5F57
:1049400068616E646C652025640A0000FC88FF1FA6
:1049500038B50C46050014D0002C12D0032168464F
:1049600007F0A2F86946887840218006800E084347
:10497000694688702246284607F0D2FE050002D01C
:1049800006E0022038BD03226946E01CFBF7ECFB81
:10499000284638BDF7B58EB00E9815460E4600284D
:1049A0002DD0002D2BD0301DC0B20190FBF756FD4D
:1049B000040039D000F0C4FC07463246201D0E9991
:1049C000FBF7C4FDF8B20890E0703804000E0B90BD
:1049D000A0703802000E0A9060703F0E277000F041
:1049E000A9FC0146102202A8FBF7B0FD06AB214648
:1049F00002A8019A07F0EAFD060003D010E00220A9
:104A000011B0F0BD089828700B9868700A98A870CB
:104A1000EF70082206A9281DFBF798FD00F096FC10
:104A20002046FBF727FD00E013263046E8E70000AC
:104A300010B5064C2070FBF78FFD06212078FFF79C
:104A400045F9034803F0D8FC10BD0000C48BFF1FDC
:104A5000BDBC021110B505480078000701D5044817
:104A600000E0002007F0D8FA002010BDE18AFF1F07
:104A7000AC8BFF1F70B50C46080419D50D480078A3
:104A8000FBF7D4FC05000FD007F03EFA002808D150
:104A900009480078FF2804D02946FBF7F1FC0028DC
:104AA00002D02846FBF7C8FC0120C003604070BD5F
:104AB000002070BDC48BFF1F708BFF1F10B5054811
:104AC0000078400701D5044800E0002007F0AAFA6A
:104AD000002010BDE18AFF1FB88BFF1FF0B587B023
:104AE0000C9E1C460D00074614D068460276110A3B
:104AF000417610220021FBF715FC32462946684614
:104B0000FBF732FB002C08D00822214604A8FBF753
:104B10002BFB07E0022007B0F0BD0822002104A80B
:104B2000FBF700FC6B4606AA04A93846FBF71AFD02
:104B3000F1E7FFB58DB00F98169C0E46002815D0F2
:104B4000002C13D00D9803F0E5FB050011D061781F
:104B5000207809024018A178E27809041206891821
:104B60004718286AB84206D3401C04D0022011B06E
:104B7000F0BD1420FBE7002E04D02879800701D473
:104B80000120F4E70822002106A8FBF7CBFB1098D0
:104B9000001DC0B20190FBF761FC060017D0301D6C
:104BA000109A0F99FBF7D2FC042221463046FBF7FE
:104BB000CDFC1022A91802A8FBF7C8FC06AB3146B1
:104BC00002A8019A07F002FD050002D013E01320AD
:104BD000CDE7082206A908A8FBF7B8FC0822211D8A
:104BE00008A8FBF7FDFA012801D0012503E03946AA
:104BF0000D9801F0A9F93046FBF73CFC2846B6E7D2
:104C0000002809DBC106C90E01208840034908605D
:104C1000BFF34F8FBFF36F8F7047000080E100E05C
:104C2000002805DBC106C90E012088400149086043
:104C30007047000000E100E08307FF22DB0E9A408E
:104C40008907090E9940002808DB830809489B0062
:104C50001818036893430B43036070470007000F65
:104C60000838830804489B001818C36993430B4312
:104C7000C361704700E400E000ED00E00A4610B5B3
:104C80000146002002F076FE10BD000010B5064976
:104C900000200860FBF76CFC0120FBF76FFCFBF7C2
:104CA00073FC002010BD00006008FF1FFFB583B03B
:104CB00016460F461B2A01D0522E04D10398FBF74B
:104CC00069FC00281BD01D49039889684000085AD8
:104CD000FFF760F804002DD00125601C2670002F1E
:104CE00003D00699B847401C85B2300613D5102171
:104CF000039803F0B3FB002804D0192616E0132014
:104D000007B0F0BD6219E9B22046FFF743FE060086
:104D10000CD10C35ADB204216846018001940581A7
:104D200069460398FFF71CF8060004D02046FBF7FD
:104D3000DDFB00E013263046E2E70000C08AFF1FDB
:104D400010B586B0044614220FA16846FBF728FC74
:104D5000124930200870782048700620891C6A4665
:104D6000A41D641E2378401E1B09D35C0B7023789E
:104D700000061B071B0FD35C4B70891C000EF0D183
:104D80000870064806B010BD30313233343536373E
:104D9000383941424344454600000000B8D6FF1F61
:104DA0000FB410B503AA0448029903F069FB10BCC4
:104DB00008BC04B0184700007D4C021138B5034B05
:104DC00000240FCB009402F0A3FD38BD1CD90211C2
:104DD00010B50C4603F0B6FA002804D040882146EE
:104DE000FBF7E4FB10BD122010BD000010B5044815
:104DF0000068C07C002801D0FBF7DEFB10BD00007E
:104E0000048AFF1F70B505460024064E04E0200307
:104E10004019FBF7D7FB641C30680079A042F6DC30
:104E200070BD0000048AFF1FF0B5594E99B030687C
:104E3000FF21017241728171102141710121C17103
:104E4000002425460922FF210A30FBF76BFA4E2287
:104E5000002104A8FBF766FA04AF31E030682103B3
:104E600040181022694600F05BF94948009A016831
:104E70000868824216D1684600790A79904211D1B9
:104E8000684640794B7998420CD168468079521E29
:104E9000904225DAA04201D1022500E003253855D1
:104EA00088710BE00098401C1AD168460079FF28F1
:104EB00016D168464079FF2812D13855641CE4B2F7
:104EC000334806683179A142C8D8042D08D0044679
:104ED00020688079FF2806D0012D04D0002025E02D
:104EE000202019B0F0BD00250CE08D7108682A0360
:104EF0008018102200F018F9002801D01F20F0E7D8
:104F00006D1CEDB221680879401EA842EDDC00203E
:104F100008740879401E4874102088820120887423
:104F200027E03A5C002A03D0401CC0B28142F8D886
:104F300081421ED9401E0818FBF74AFB71740120FC
:104F4000B0740020024618A9189000F025F8002837
:104F500002D0212802D005E0189901E001210903BF
:104F600022689182C0B2212803D0002801D02A20D3
:104F7000B7E7084A002023684100CB188033DA8263
:104F80002368401CC918CA824028F4DB0020A8E727
:104F9000048AFF1FFFFF0000F7B5012484B0002042
:104FA0000E4627460190A7E0687CC019FBF73AF847
:104FB000C8B2FF2C02D9FF3CA4B29BE0049A002A9D
:104FC00000D129740003012503900198002803D023
:104FD00000200190281906E0012C05D92819811E0E
:104FE000FF2918DA401E85B203982901081802909B
:104FF0004A4804220068016802980818694600F0CF
:105000008FF8049800280ED0012824D0022837D029
:10501000062007B0F0BDFF200230401B201A84B2EA
:105020000120019066E000998803800F04D00228D7
:1050300002D0032859D109E0080D0903890F801C0B
:10504000012947D10C214AE001214CE002980005DA
:10505000000D30605BE000998A03900F04D00228B5
:1050600005D0032841D156E0900F0228E4D13288C0
:1050700088B292B29042DFD106990298086046E069
:1050800000988103890F04D002291FD003292CD155
:105090003DE00103890F012903D0306801240C3061
:1050A0000DE0000D0C21801CFAF7BCFF002900D098
:1050B0000121401884B20C20316860430818306028
:1050C000069806990068401C08600EE00103890FED
:1050D000012901D0012408E0000D0C21801CFAF701
:1050E000A1FF0029B0D1401884B26D1CADB2FF2DD4
:1050F00000D86AE77F1CFFB2084805682979B942E1
:1051000000D951E70498002803D0012803D00020DB
:105110007FE721207DE725207BE70000048AFF1F31
:1051200010B5FBF75BFA10BD10B5FBF75DFAC0B226
:1051300010BD0022002913D0002811D0012806D06C
:105140004A799206920E4A71032805D007E0487901
:10515000C0221043487102E0402002434A710122FC
:105160001046704770B512480025007805210842A6
:105170001BD02020FBF772F90E4C0028A06013D042
:1051800020220021FBF7CEF82020FBF767F9E06032
:10519000002804D020220021FBF7C4F805E0A06815
:1051A000FBF768F90020A0601325284670BD0000B9
:1051B000E18AFF1F548BFF1F10B50D4A03460B4CAD
:1051C00012201268A14209D1002A04D01078984216
:1051D00002D1FBF70FFA10BD032010BD034B5B1C7F
:1051E0009942FAD1002AF4D110BD0000FEFF000060
:1051F000488BFF1F0246094B10B50120D21807D07B
:10520000012A01D0002010BD8A681278002AFAD045
:105210008868007800F06CFE10BD0000F5DFFFFF2D
:10522000002909D0012807D1497989098901C029B4
:1052300002D0402901D00220704703207047FFB5FB
:1052400000200E4608701AE01C5C401CC5B2002C01
:1052500017D02819904214D85F5D6D1CEDB2384606
:1052600000F09BFE002806D0641EE0B2307000996A
:105270008F4202D1581904B0F0BD4019C0B290421B
:10528000E2D30020F7E7000010B5044C20680028A6
:1052900003D0FBF7EFF80020206010BD408BFF1F0C
:1052A00070B5104D8400E8680059002819D0006AD4
:1052B000002801D0FBF7DEF8E8680059406A0028B2
:1052C00001D0FBF7D7F8E8680059806A002801D0C0
:1052D000FBF7D0F8E8680059FBF7CCF8E968002044
:1052E000085170BD448BFF1F10B5044C6068002846
:1052F00003D0FBF7BFF80020606010BD448BFF1F98
:10530000011E044805D104498978002901D00248CA
:10531000801D704714E3FF1FE08AFF1F014880785B
:1053200070470000E08AFF1F014840687047000096
:1053300004E3FF1F014880687047000004E3FF1F7B
:105340000148C0680068704704E3FF1F10B50748B4
:10535000C0680168491C016005480078FF2803D037
:1053600001218903FAF7A6FE10BD000004E3FF1F28
:10537000E08AFF1F02484068002800D001207047E3
:105380003C8BFF1FFFB581B00F460D9E0A9D039811
:1053900002F0C0FF040042D0019800283FD12079DC
:1053A0001021084320710499490702D502210843BE
:1053B00001E0FD21084020710B99284608430C9913
:1053C00008433043207902D00421084301E0FB2147
:1053D00008402071002E06D030691022206231462C
:1053E000A018FAF7C1FE002D01D0002F05D00B98B0
:1053F000002814D0012F08D011E0606A002801D0E5
:10540000FBF738F81C21284606E0606A002801D026
:10541000FBF730F81C210B98FBF7F2F86062039859
:10542000274C8700E068C059002846D0002D11D0D5
:10543000006A002807D11C20FBF710F8E16800285B
:10544000C959086206D0E0681C22C0592946006A82
:10545000FAF78AFE0C98002813D0E068C059406A19
:10546000002807D11620FAF7F9FFE1680028C9598A
:10547000486206D0E0681622C0590C99406AFAF7D3
:1054800073FE002E13D0E068C059806A002807D14F
:105490001420FAF7E3FFE1680028C959886206D0B2
:1054A000E0681422C0593146806AFAF75DFE0B9B12
:1054B000049A0399019806F045F905B0F0BD000083
:1054C000448BFF1FF3B581B0019802F023FF050064
:1054D00029D00E20FAF7F2FF040024D02620FDF791
:1054E0006DFC060000D12E78D02020700027677058
:1054F0000B20A0700622E91DE01CFAF735FE01988A
:1055000060810298C1070120002901D0207300E0CA
:1055100027730299890701D5607300E06773F0B2C1
:105520002146FAF7ADFFFEBD10B581881F4B01245F
:10553000CA1A994237D011DC1D4BCA1A994219D0A8
:1055400007DC1C4A8A1810D0022A1ED0032A29D14F
:105550001BE0472A27D0482A24D124E01300FAF779
:10556000D3FD06212222222222218068007800F029
:10557000A9FC08E08068827841781202891889B213
:10558000007800F02BFD04460DE0094A921E91427E
:1055900001D1012200E0002280680178104600F06D
:1055A00005FD00E00024204610BD0000532000004F
:1055B0000A200000FADFFFFF70B51A4D1A4A0146B3
:1055C000002628781268194C01290CD0002A09D02D
:1055D00017490978490705D50221FAF7A7FD668022
:1055E000FFF752FE70BD6188002903D0114B1B7874
:1055F000002B05D0002AF5D01078FDF7B5FB70BD63
:105600003C2902D33C39618070BD0221FAF78EFD3E
:1056100062887D20C000424302212878FAF78CFD81
:10562000668070BD718BFF1F408BFF1F548BFF1F67
:10563000E18AFF1FE38AFF1F10B50E4A012480187C
:1056400010D001280BD0062810D00B4AD04203D12D
:10565000084600F047F900E00024204610BD00F0A5
:105660006FFCFAE7887800F08DF8F6E7887800F0AC
:1056700005F8F2E7F3DFFFFF0E20FFFF08B5002873
:1056800005D000210B460A46009100F03BFB08BD07
:1056900008B5418900910389C2888188C07800F0EB
:1056A00031FB08BDF0B504468088A121890048433C
:1056B000304987B009684018FF30FF300230A179C7
:1056C0004167002C54D02C4D6868002823D0067800
:1056D0002A480068002804D04168002901D0002031
:1056E00088472146E07908310591FFF799FDE0717F
:1056F0000246277D638A218AE089019002A88AC038
:10570000A0880090E0783146059B06F093F8E07899
:10571000002802D00DE01A48D9E7E079E2896B460B
:10572000059907C3A379A1880122304602F0A0FDA4
:10573000E0706868002811D0FFF7D6FD28780028AF
:105740000CD06978FFF744FB002807D0E078A288E6
:105750000346297806F09BF800202870A0881721BE
:10576000FDF72CF9A088FEF793FAA088FEF7C4FA9B
:1057700007B0F0BD3409FF1F448BFF1F748BFF1F60
:10578000E08AFF1F00B585B0002810D009490B68DA
:10579000002B0CD000210191029103910491009102
:1057A000DA7819781B1D06F045F8FFF79DFD05B066
:1057B00000BD0000488BFF1F70B50446002580889F
:1057C00002F0A8FD002803D00578A08802F02AFE88
:1057D000134E3078002808D0854206D17178FFF743
:1057E000F7FA002809D000203070002D05D0A379E9
:1057F000A288A078294606F04AF8A088F2688100BD
:105800005158002901D0FFF74BFDA0881721FDF763
:10581000D5F8A088FEF73CFAA088FEF76DFA70BDB7
:10582000448BFF1F70B58288294D0124531B2949E1
:10583000AA4242D019DC284D531BAA4218D00BDCD7
:10584000264BD21826D0254B1033D2181ED0032A4F
:1058500017D0042A39D10BE0012B09D0022B07D035
:10586000032B21D0042B30D11AE0433B072B2CD83B
:10587000496800292AD00968002927D088470446AA
:1058800024E08068007800F0DDF81FE0806800F018
:105890005BF9F4E78068411C007800F033F9EEE72B
:1058A00083681B78002B11D0896800290ED00B6803
:1058B00008E0014610469847E1E7094909680029D0
:1058C00004D04B68002BF4D100E00024204670BDCA
:1058D0000E200000708BFF1F08200000F7EFFFFF75
:1058E0004C8BFF1F7FB505464079122825D12C46E9
:1058F0000834EB89AA8969892889FAF787FE002686
:10590000002804D02520FDF759FA002816D00120E0
:10591000694688812979688803AAFEF743F96846B1
:105920008089002809D1E088019602960090A3881A
:10593000628821886888FAF723FF7FBD68468681E0
:10594000E8E7000010B5094CA17800290CD0014609
:105950000622A01DFAF708FCA11DA078FFF7E9FBBD
:10596000A01DFAF743FF10BD002010BDE08AFF1F05
:105970001CB52F49037801240A68912B02D0A22B71
:105980002ED13EE04178052909D00E2904D00F29F7
:1059900008D03E2924D115E0FFF744FF10E0FFF7BF
:1059A0000BFF3AE001468088224B0124C31801D046
:1059B000062B15D1002A30D05268002A2DD09047EE
:1059C00004462AE081780124032917D004DC012948
:1059D00011D0022904D105E015291ED016291CD0AA
:1059E00000241AE014498968002916D04968002962
:1059F00013D0884711E0FFF755FE0EE0FFF748FE91
:105A00000BE00E490978042909D0002A05D0526814
:105A1000002A02D001460A48904720461CBD0021BA
:105A20006A46118001794088FEF7A4F8F5E7000086
:105A30004C8BFF1FF3DFFFFF708BFF1FE18AFF1FFF
:105A4000FFFF0000F8B5164F0646BD1F2878FF2857
:105A500014D00A20FAF732FD04000FD0D0202070B5
:105A600066700820A070A878E07006223946201DD4
:105A7000FAF77AFB21462878FAF702FDE878012840
:105A80000DD108480068002803D08068002800D0A5
:105A900080470648044A04210078FAF7C1FCF8BDA3
:105AA000E68AFF1F748BFF1F60EA0000718BFF1FE7
:105AB000F8B505000BD0E878002812D06C68002CEF
:105AC0000FD02420FDF77AF947B2002614E00C48E5
:105AD0000068002805D0002000F088F8002000F0C1
