:020000041102E7
:1000000003B40148019001BDFD11000003B4014893
:10001000019001BD7511000003B40148019001BDBC
:100020001130000003B40148019001BD090E000029
:1000300003B40148019001BD53B9000003B4014865
:10004000019001BD29B6000003B40148019001BD33
:100050007582000003B40148019001BDFD5C010000
:1000600003B40148019001BD85C1000003B40148FB
:10007000019001BD61D5000003B40148019001BDAC
:100080001BBA000003B40148019001BD3DBA000055
:1000900003B40148019001BD5944000003B4014874
:1000A000019001BDB95E000003B40148019001BD9B
:1000B000810E000003B40148019001BD0D52010002
:1000C00003B40148019001BDC1EC000003B4014834
:1000D000019001BD75A9000003B40148019001BD64
:1000E000C93E000003B40148019001BD9DA9000074
:1000F00003B40148019001BDB30E000003B40148F0
:10010000019001BD9157FF1F03B40148019001BD4B
:100110006189000003B40148019001BD1907010085
:1001200003B40148019001BDA9D8000003B40148FF
:10013000019001BDB352010003B40148019001BD1B
:100140008B52010003B40148019001BDC1A500001C
:1001500003B40148019001BD9D6A000003B4014849
:10016000019001BD116E000003B40148019001BD72
:10017000E94C010003B40148019001BDF97F000082
:1001800003B40148019001BD7912010003B4014894
:10019000019001BD757A000003B40148019001BDD2
:1001A000F143000003B40148019001BDC1430000C8
:1001B00003B40148019001BD6944000003B4014843
:1001C000019001BD8BB9000003B40148019001BD4D
:1001D000D1D4000003B40148019001BD01890000A1
:1001E00003B40148019001BDCD4C010003B40148A6
:1001F000019001BD09B8000003B40148019001BDA0
:100200002DFC000003B40148019001BDEDB80000D1
:1002100003B40148019001BD39B8000003B401489E
:10022000019001BD6DFE000003B40148019001BDC5
:10023000F9FD000003B40148019001BDA1E60000F2
:1002400003B40148019001BD9946000003B4014880
:10025000019001BD1547000003B40148019001BDA4
:100260007D4CFF1F03B40148019001BD75F00000F3
:1002700003B40148019001BDF5D5000003B4014865
:10028000019001BDC5F0000003B40148019001BD1B
:1002900001EC000003B40148019001BD6160000061
:1002A00003B40148019001BD63EC000003B40148B0
:1002B000019001BD05FF000003B40148019001BD9C
:1002C0003161000003B40148019001BD59E4000010
:1002D00003B40148019001BDD5E4000003B4014816
:1002E000019001BD01BF000003B40148019001BDB0
:1002F00021F1000003B40148019001BDCDF10000DF
:1003000003B40148019001BDB9C0000003B4014825
:10031000019001BD4DF4000003B40148019001BDFE
:10032000C1E2000003B40148019001BD154D010078
:1003300003B40148019001BD8DE3000003B40148FE
:10034000019001BDA5FD000003B40148019001BD6D
:1003500025E7000003B40148019001BD31480000C9
:1003600003B40148019001BDC53F000003B401483A
:10037000019001BDF1FA000003B40148019001BDF4
:1003800079F4000003B40148019001BD77F1000049
:1003900003B40148019001BD5511010003B40148A7
:1003A000019001BD817FFF1F03B40148019001BD91
:1003B000E9F6000003B40148019001BD75F80000A2
:1003C00003B40148019001BD19FA000003B40148CB
:1003D000019001BD7159FF1F03B40148019001BD97
:1003E000B958FF1F03B40148019001BDA93C0000AA
:1003F00003B40148019001BDDD35FF1F03B401487E
:10040000019001BD7D3DFF1F03B40148019001BD76
:10041000ADAE000003B40148019001BD456B010081
:1004200003B40148019001BD5952010003B40148D1
:10043000019001BDF54E010003B40148019001BDDA
:10044000434D010003B40148019001BD691F000044
:1004500003B40148019001BD5D17000003B40148D9
:10046000019001BD3D4B010003B40148019001BD65
:100470005125000003B40148019001BD014C010069
:1004800003B40148019001BD594F010003B4014874
:10049000019001BD1D4B010003B40148019001BD55
:1004A0008D12000003B40148019001BD4D1F0000F2
:1004B00003B40148019001BD5522000003B4014876
:1004C000019001BDDD52010003B40148019001BD5E
:1004D0001D4D010003B40148019001BD017F0000E2
:1004E00003B40148019001BDE117000003B40148C5
:1004F000019001BD7918000003B40148019001BDCD
:10050000D949010003B40148019001BDE928000068
:1005100003B40148019001BD5549010003B40148ED
:10052000019001BDED29FF1F03B40148019001BDF9
:10053000F544FF1F03B40148019001BD4D3AFF1F70
:1005400003B40148019001BD8529FF1F03B4014890
:10055000019001BDF129FF1F03B40148019001BDC5
:100560004551010003B40148019001BDC9260000B6
:1005700003B40148019001BDE122000003B4014829
:10058000019001BDED4A010003B40148019001BD95
:10059000A54F010003B40148019001BD855201003F
:1005A00003B40148019001BD112FFF1F03B401489E
:1005B000019001BD810E000003B40148019001BD0E
:1005C0004132FF1F03B40148019001BD3D3FFF1FB1
:1005D00003B40148019001BD350E000003B4014889
:1005E000019001BDE93FFF1F03B40148019001BD27
:1005F0009940FF1F03B40148019001BD311A00006A
:1006000003B40148019001BDF94C010003B4014855
:10061000019001BD9928000003B40148019001BD7B
:10062000291C000003B40148019001BD19220000FB
:1006300003B40148019001BD851F000003B40148C7
:10064000019001BDA946010003B40148019001BD1C
:100650001147010003B40148019001BDE925FF1FC6
:1006600003B40148019001BD3726FF1F03B40148C0
:10067000019001BD153BFF1F03B40148019001BD6E
:10068000E142FF1F03B40148019001BD8D3EFF1FF1
:1006900003B40148019001BD593EFF1F03B4014856
:1006A000019001BDFF28FF1F03B40148019001BD67
:1006B000D928FF1F03B40148019001BDC94A0100B8
:1006C00003B40148019001BD951BFF1F03B401480D
:1006D000019001BDC51AFF1F03B40148019001BD7F
:1006E000A91AFF1F03B40148019001BDB11BFF1FF0
:1006F00003B40148019001BD0D45FF1F03B401483B
:10070000019001BD0145FF1F03B40148019001BDE7
:100710006DBC000003B40148019001BD156B0100E0
:1007200003B40148019001BDE548000003B401484D
:10073000019001BD2951010003B40148019001BDA0
:10074000D91B000003B40148019001BD51470100CD
:1007500003B40148019001BD8542FF1F03B4014865
:10076000019001BDC13EFF1F03B40148019001BDCE
:10077000D1A50000FEB508AF70CF6F4670C700F07E
:1007800041F80249FFF73CFC0020FEBD13200000A9
:1007900038B5044600F098FA014668460170447086
:1007A000210A81706A4603210248FFF72FFC0020CE
:1007B00038BD00001B20000038B5044600F0AAFA3E
:1007C0000146684601704470210A81706A4603211F
:1007D0000248FFF71BFC002038BD00001A20000073
:1007E00008B5002802D000F09DFC00E01220694608
:1007F00008706A4601210248FFF708FC002008BD86
:1008000005200000FFB50446354F0001C01980796E
:1008100081B01546022802D00C2005B0F0BD314A47
:10082000881F90422ED2062D2CD3501D854229D8E8
:100830008D4227D3FF220499F432914222D80A999B
:100840000A291FD381421DD82046FFF7E5FB002867
:10085000E3D1A12080004443234800682618344691
:100860008034E07B002802D0E07A00280CD0207D84
:10087000012809D00A98C1000498401C6843400030
:10088000814203D81220C8E73A20C6E77878174F8C
:1008900001280AD96804B988000C884203D3FFF7FD
:1008A000C1FB002909D03B20B7E7BD80F08E10497D
:1008B00040000978FFF7B6FBF860022020760020A0
:1008C0006083308F0021C01DE082A5830498E083FF
:1008D0000A9820843046FFF7ABFB00209DE700001C
:1008E000300DFF1F7B0C00003409FF1F300EFF1F6F
:1008F0001409FF1FFFB583B0DB480090DB48129E50
:1009000002780C9D0E9B1399012A20D000270770B6
:10091000D7480478092C78D00A2C76D00B2C74D0C8
:100920000C2C72D00D2C70D0039AD248121F824228
:1009300046D2049A121F824242D2049A03988242FB
:100940003ED80598002805D0012839D102E00C20B6
:1009500007B0F0BD284333D00698002805D0012801
:1009600003D0032801D002282AD10D98002805D0F1
:10097000012803D0032801D0022821D1B1421FD37E
:10098000BD49981F88421BD20F98062818D30146EC
:100990001920C001814213D8994211D3FF22109926
:1009A000F43291420CD811990A2909D3814207D80F
:1009B000CA0010980F99401C48434000824201D859
:1009C0001220C5E7AD48AE49027809788A4201D3C2
:1009D0000720BDE7A948AB4E407800280CD00F98FF
:1009E000B1884004000C884203D3FFF71BFB0029A9
:1009F00002D03B20ACE708E00621082C01D0072CF0
:100A000006D1A1480278002A01D02120A0E7017078
:100A1000FFF714FB040058D098484178491C4170F6
:100A20002046FFF711FB20460021FF3081308B006C
:100A30001B19FF330133C26A491CDA660829F6DB49
:100A400000218B001B19FF338133C26A491CDA6015
:100A50000829F6DB2079FFF7FDFA0020810009194B
:100A6000FF310131401CCF660828F7DB00208100F0
:100A70000919FF318131401CCF600828F7DB83481A
:100A80002179017403994181049981810599C17388
:100A90007F49002023180A5C6033401CC0B25A71A1
:100AA0000528F7D32146653120460191FFF7D8FA92
:100AB00027462037F87F02280BD22046FFF7D6FAC8
:100AC0006E484178491E41707AE76F4807700920E7
:100AD0003EE77048002D0BD029784170697881700D
:100AE000A978C170E97801712979417169798171B9
:100AF000664A0D9911700D9900297DD0664A6349A7
:100B000013784B7053788B709378CB70D3780B71CC
:100B100013794B7152798A71069901700D98009979
:100B2000C007400E08430699C907090E0143029108
:100B3000FFF7A2FAE062FFF7A5FAA0624F484078FB
:100B400001287AD0B088E08630896087F0882087D5
:100B50004E4E707C38745148C0688030818DB974B5
:100B6000008EA086FFF794FA0C21FFF75BFA20466F
:100B70006030491D009081762520B07301203072CD
:100B8000474802998180801DFFF788FA002D0DD01B
:100B900043492A78881D0A736978C171A97801725E
:100BA000E9784172297981726979C1723C4821469C
:100BB000123004222831FFF777FA394821461630DF
:100BC00003222C31FFF770FA3549B87C4876084685
:100BD000397D8176797DC176014620462230027DBD
:100BE0000A77427D4A773A7E8A777A7ECA771A31C7
:100BF000027E8A71407E00E01DE0C8710846083020
:100C000005220199FFF750FA0098397C807E49014E
:100C1000C006C00E0843224921318871144800786B
:100C200000281DD01F48012189030078FFF742FAF0
:100C300000208DE601E01C4A61E70F98E0861199DB
:100C4000618710992187B080208FF080608F30817C
:100C5000E08E0B4940000978FFF7E4F9F06077E790
:100C60002079FFF72DFAE3E7052200001909FF1F9D
:100C70001C09FF1FFD3F00007B0C0000300DFF1F13
:100C80001409FF1F300EFF1F2309FF1FD40BFF1F86
:100C90006009FF1F7809FF1F6B09FF1FF088FF1F06
:100CA0006C11FF1F1B09FF1F6509FF1F70B50C4664
:100CB0000546FFF70BFA21462846FFF70DFA0446D2
:100CC000FFF710FA204670BD10B5114AA121890026
:100CD000126841438C189D2189000959012901D0CE
:100CE0000C2010BDFFF798F90028FAD1E01DF9306B
:100CF00002790621012A06D041710D212046FFF715
:100D000097F9002010BDFF20213001550221F5E7A1
:100D10003409FF1F70B50D46134AA12189001268DE
:100D200041438C189D2189000959012901D00C20CB
:100D300070BD002D16D0FFF76FF90028F8D11021F3
:100D40000B1A2A5C1B19E033401CC0B29A711028A0
:100D5000F6D30121F820015505212046FFF768F957
:100D6000002070BD122070BD3409FF1FFEB5089D24
:100D7000099C1746002874D0002972D0002C02D09C
:100D8000012C02D003E02A2201E0FF220732921D4B
:100D90000192354A0E461770344A10603448037089
:100DA0003448057034480470002446E0A1208000D7
:100DB000254645432D48A121006889002818FFF7E2
:100DC00097F92A482D49006862002818FF308130C1
:100DD000C662019836180020885451184870264978
:100DE000097800293BD0FF211131009121461C20B8
:100DF00041432248002220300D182A764254E0B2A6
:100E00000099FFF77BF9686000202872E0B20122A8
:100E10000099FFF773F9E86000202874E0B202221D
:100E20000099FFF76BF968616968002919D0E968D2
:100E3000002916D0002814D0641CBC42B6DB002068
:100E40000F4D104A014683009C186580401CD15408
:100E5000C0B261701028F6D30020FEBD01E034213D
:100E6000C3E71220F9E700001409FF1F3409FF1F30
:100E70001509FF1F1609FF1F1709FF1F1CD7FF1FAA
:100E8000FFFF0000FCD8FF1FF8B5714D0028AA79BC
:100E900016D0012A01D0032A12D16E490B78FF2BFC
:100EA0000ED14B78FF2B0BD18B78FF2B08D1CB7851
:100EB000FF2B05D10B79FF2B02D14979FF2930D0C7
:100EC00065490B78012B1DD00026644C0E702178EB
:100ED000092931D00A292FD00B292DD00C292BD04C
:100EE0000D2929D0052927D0062925D0A97B00293D
:100EF0000AD0012908D0032906D0022904D00429E8
:100F00000FD101E00C20F8BD002A05D0012A03D042
:100F1000022A01D0032A04D1514F002875D001289C
:100F200001D01220F8BDA888012805D0FFF7CEF81F
:100F30002078002802D01AE02120F8BDA87B030009
:100F4000FFF7E2F8050408100C08240001202070C7
:100F50001F200AE002202070202006E004202070DC
:100F6000222002E0032020702120FFF7D3F8207810
:100F7000282101280DD002280BD0042809D00328ED
:100F800007D007280ED008280CD01BE026701E20A2
:100F9000EBE7344806602975FFF7C2F8002820D037
:100FA000AE800FE03048C068808D80060AD52F489B
:100FB0000278002A06D1AA7B032A06D0022A04D08E
:100FC000002A02D0FFF78EF8B6E7022202702975D8
:100FD000140321463878FFF7A9F821463878FFF73F
:100FE00069F80120A88022480078002809D021480B
:100FF000012102887D20C0004243C9033878FFF7F1
:101000009BF8FFF76FF820E0FFE7FFF75FF8AE808F
:101010002078072808D0082806D026701648FFF741
:1010200091F81E20FFF776F810480178002905D0C6
:101030000670012149033878FFF778F8FFF752F876
:101040000121C9033878FFF771F80020F8BD0000CE
:10105000A60BFF1F6B09FF1F1A09FF1F1C09FF1FAB
:101060001B09FF1F4809FF1FF088FF1F2309FF1FEF
:101070002109FF1F2C09FF1F00100040FFB585B09C
:1010800016460D460446119FFFF720F815482946DD
:10109000007804902046202C00D22020202900D265
:1010A00020210EAA2CCA009201AAA8C23246089B8F
:1010B000FFF74EF805460C480A494480049808702A
:1010C000012E01D0042E08D1084880230078C101E8
:1010D000074882889A4311438180FFF703F8284626
:1010E00009B0F0BD1C09FF1FA60BFF1F7809FF1FE9
:1010F0006C11FF1F10B5FB2908D8084B9A4205D880
:101100001B2903D3FF2349339A4201D2302010BD5B
:10111000034B19825A82FFF721F810BD48080000DE
:101120008410FF1FF8B53249097801292AD0022915
:1011300028D0032926D0042924D0052922D0062925
:1011400020D02C49097802291CD004291AD0012961
:1011500018D0032916D0062914D0072912D00178F7
:10116000254C8C462170467866708378A370C278CF
:10117000E270017921714079204D6071AF79012FC2
:1011800002D008E00C20F8BD6746EF712E726B723A
:10119000AA72E97228730622E91D1948FEF7E4FFD6
:1011A0000622E91D1748FEF7DFFF174801780129DD
:1011B0000BD12178417061788170A178C170E1789C
:1011C000017121794171617981711048017801299A
:1011D0000BD12178417061788170A178C170E1787C
:1011E000017121794171617981710020F8BD0000A0
:1011F0001C09FF1F2309FF1F6B09FF1FA60BFF1F01
:101200007211FF1F8A13FF1FBC0BFF1FD40BFF1FA0
:10121000F8B5844657480F460178012914D00026B6
:10122000554D06702878092838D00A2836D00B2862
:1012300034D00C2832D00D2830D0504C607A0028A1
:1012400004D001284BD101E00C20F8BD2078002803
:1012500005D0012803D0022801D003283FD162899C
:101260004748111F81423AD2A1890B1F834236D2CF
:10127000914234D8002F01D0012F30D16046002890
:101280004FD001282BD1207A012807D0FEF71EFF6E
:101290002078012804D0032802D014E02120F8BDD2
:1012A00038480178FF290ED14178FF290BD1817888
:1012B000FF2908D1C178FF2905D10179FF2902D181
:1012C0004079FF2809D0287825210126002808D058
:1012D00007280ED008280CD014E0FEF703FF1220D8
:1012E000F8BDE671E773A17405202870FEF742FF90
:1012F00013E02548C068808D400603D52348027856
:10130000002A02D0FEF7EEFEC8E7A174067020485E
:10131000012109030078FEF7CDFE2672FEF7E2FEFA
:1013200025E0FEF7D3FE2878052804D007280AD048
:10133000082808D00FE02E701648FEF703FF1E2085
:10134000FEF7E8FE07E01148012106701048090386
:101350000078FEF7EBFE26725820FEF711FF0A48D0
:101360000670FEF7BFFE0C4801680129FCD0002082
:10137000F8BD00001909FF1F1C09FF1FBC0BFF1F50
:10138000FD3F00006B09FF1FF088FF1F2309FF1FAF
:101390001B09FF1F001000409809FF1F38B51C46AD
:1013A000049B00932346FEF7F1FE002812D10B495F
:1013B000002C0C700FD0022C0DD0094A13784B7002
:1013C00053788B709378CB70D3780B7113794B7102
:1013D00052798A7138BD034AF0E70000BC0BFF1F49
:1013E0006B09FF1F6509FF1FFFB581B00446029816
:1013F0001F461646002814D0002E12D0002F10D001
:101400002046FEF709FE00280CD1A12080004443AD
:101410002C4800682418E51DF935287B002803D0E6
:101420000EE0122005B0F0BD2749002023180A184D
:10143000FF330133401C5278C0B25A730828F5D3E9
:10144000687BC00738D0002002992218095CC0329E
:10145000401CC0B211700828F6D320463178C03045
:10146000017271784172002010210B1A3A5C1B192D
:10147000E033401CC0B29A711028F6D32046B83031
:10148000FEF78AFE2046AC30FEF78CFE0C210F489A
:10149000FEF78EFE00207B2108552146E031C875FD
:1014A0000876A621095D012908D02871032120466C
:1014B000FEF7BEFD0020B5E71120B3E7012028713B
:1014C0000A21F4E73409FF1F480EFF1F3811FF1FE0
:1014D000FFB50D46A12189004843234981B0096821
:1014E0001E464418002D09D0FF20D930015B039817
:1014F000814203D3002E04D0012E02D0122005B069
:10150000F0BDE07800280AD00520C0012718174850
:10151000F9780078801C814203D30720EFE702208E
:10152000EDE7FEF7D3FDF878A91E401CF87003988C
:101530000870002E10D00120487020467C30091F12
:10154000FEF73CFEFEF7CEFD09480078082805D0DE
:10155000072803D00020D2E70220EDE70021204633
:10156000FEF732FEF6E700003409FF1F1509FF1FE2
:101570001C09FF1FF8B50F4E307A002818D10E4C09
:10158000E0690E4FC005C50F02D1E0693843E06144
:1015900004210B4800F016F809480421103000F02F
:1015A00011F8002D02D1E069B843E06101203072EA
:1015B000F8BD0000F088FF1F00F0004000010000AF
:1015C0003CD9FF1FF3B50746104881B0C169104AE6
:1015D0001140FF310931C161002613E000252C467E
:1015E0001120FEF7F7FD0948406A8007800F61006F
:1015F00088402843641CE4B20546102CF0D301C790
:10160000761CF6B202988642E8D3FEBD40F0004058
:1016100000FEFEFF70B50446FF30FF300230406F21
:101620000D46012812D1282D10D1A420005BE1889D
:10163000401A1D4980B2884208D321466A310522EA
:101640000E46481FFEF7CCFD002818D01749002091
:10165000820052185278002A16D0401CC0B21028BE
:10166000F6D31348012189020078FEF723FD207983
:10167000010110480918897902290DD00FE031467F
:101680002046FEF7EDFC70BD8000237942185380A0
:101690000D5401205070E4E74178491E4170204606
:1016A000FEF7A4FD70BD0000FF7F0000FCD8FF1F07
:1016B0001B09FF1F300DFF1FF0B505468DB0A03090
:1016C0000B902846FF300E300390092080012F1820
:1016D000E81DFF30FA300890E0380790C030EE1D6A
:1016E000F9362C4680340990F0E0E07A0B2870D06F
:1016F00009DC0300FEF708FD0B37551C6EEAEABF54
:10170000F0EFEED6EA0016286FD008DC0C286DD07A
:1017100011286CD014286BD01528E5D166E1182863
:1017200067D01A287CD01B287BD0FE28DCD119E298
:10173000A07A012803D02846FEF75EFD19E0FA489A
:101740008078002804D02846FEF75CFD162106E0CC
:10175000608A401E0004000C60827CD00CE22846A7
:10176000FEF756FDF6E1A07A012804D02846FEF7E0
:1017700055FDA07200E2EC48807800280ED0207E53
:1017800040002076608B40006083A08B4000A083E7
:10179000208C000120840120207510E02889E18A36
:1017A00013E0A07A012803D02846FEF73DFDE0E7CC
:1017B000DD488078002806D00B99012088702846E3
:1017C000FEF720FD82E02889A18C8842C6D128211D
:1017D000C5E784E0A07A01280CD02846FEF72AFD50
:1017E000A07200207072B072C6E111E1C3E055E151
:1017F000E9E027E1CC48C078002801D00020207122
:10180000707A01280ED0B07A012813D0F07F012819
:10181000D5D0608A401E0004000C60826CD0ABE121
:1018200067E189E10020E06730600B990120887151
:10183000062148E02846FEF7E5FC0B990020887158
:1018400001207B214855207170790628287906D01F
:1018500000221A2100E03BE1FEF7F2FC36E0002214
:101860000621F7E72221FEF7F1FC31E100222221D7
:10187000FEF7E6FC2CE1A07A012806D02846FEF708
:10188000EBFCA0720020B07176E1B0790128C0D1E4
:101890002846FEF7B7FC00203072F0717072B0710C
:1018A000B07213E0A07A012806D02846FEF7DAFCD1
:1018B000A0720020F0715FE1F0790128A9D10B99A5
:1018C000002088710B212846FEF7D2FCE07B00281F
:1018D00003D00AE740E014E03EE10DB0F0BDA07A8D
:1018E000012803D02846FEF7C9FC42E78E48C0789D
:1018F00000288ED00321E6E7307901282879B5D178
:10190000B0E7A07A012811D0884900202B180A18C6
:10191000FF3301335278401C5A730828F6DB2846FF
:10192000FEF7B2FCA0720020307325E1307B012865
:1019300006D0608A401E0004000C608206D01BE1C5
:1019400029790020039AFEF7A5FC38E7297922209F
:10195000039AFEF79FFCBBE0A07A012803D028463B
:10196000FEF79EFC05E77048C078002800D1EFE63E
:101970000120307323E7A07A012805D00120F075FB
:101980002846FEF793FCF4E6707D012806D0608AB5
:10199000401E0004000C60820CD0EDE0B07D0128F8
:1019A000D3D1B08B0090738B327E29790020FEF763
:1019B00083FC04E7B08B0090738B327E2979222060
:1019C000FEF77AFC84E0A07A012807D02846FEF7CB
:1019D00079FCA072099900204874CDE05248C07883
:1019E0000028C4D0099901204874E8E6A07A0128AB
:1019F00003D02846FEF76CFCBBE64B48C0780028B5
:101A0000B5D00999002008742879FEF767FCD6E65E
:101A1000A07A012807D02846FEF766FCA072089934
:101A200000200872A8E04048C07800289FD008999C
:101A3000012008723E484079012886D1089900208B
:101A40000872BCE6A07A012803D02846FEF752FCB3
:101A50008FE63548807800281DD00798007B002845
:101A600003D10798407B002808D00799012008740B
:101A70000899002008720899C871A0E60998417E6B
:101A8000079801730998817E0798417300212846C1
:101A9000FEF736FCECE72889718E96E6A07A0128DD
:101AA0000ED00898007A012814D00B98807801286D
:101AB00012D0207D01280FD0387E012811D05BE0A4
:101AC0001948C07800288CD007990120887276E6E2
:101AD000222144E6232100E02A212846FEF716FCB5
:101AE00047E6797E2846FEF711FCA0720020787642
:101AF00042E0A07A012806D02846FEF70DFCA0722D
:101B00000120387638E00848C078002899D1608AEA
:101B1000401E0004000C60822ED1064804220021E1
:101B20002818FEF7FFFBD3E7E010FF1F480EFF1F4A
:101B3000F088FF1F56020000A07A012803D0284633
:101B4000FEF7F6FB15E60F48C078002802D000200B
:101B5000F87534E60120C0E62846FEF7EFFB0128C1
:101B60008BD009E007990120C875FF2149314853FE
:101B700004488078012801D00020AEE6079801785B
:101B8000EDE50000E010FF1FF0B5054687B0E0303E
:101B900004902846A0300390403805900920800129
:101BA0002E462818FF36E136029030462030EF1DD1
:101BB000F9372C46803401909FE1E07A801E0300C3
:101BC000FEF7A2FA1A0E3822396BF638C13892D1D4
:101BD000A9383838383838F5F4F3F23838F1F038B5
:101BE000A07A012803D02846FEF706FB12E0C5487C
:101BF0008078002801D0162130E1608A401E000460
:101C0000000C60826FD076E1A07A012804D02846CB
:101C1000FEF79AFBA0726EE1BA48C0780028ECD0BB
:101C20002846FEF7EFFA2A4629462879C832C031FD
:101C3000FEF790FB61E1A07A012813D00498C07DE3
:101C4000012821D00498007E00287BD02A4629460E
:101C50002846D732B031E730FEF782FB04990120E5
:101C6000C8754AE1A748C078002805D0039901202B
:101C700088710020E0673860B8790128BDD106215D
:101C80002846FEF7F5FA38E12846FEF76FFB0128F3
:101C9000B9D10020B8710120BCE7A07A012803D097
:101CA0002846FEF7D9FAB5E79648C0780028A4D0B0
:101CB000E88C68842846FEF7A5FA05990120C876C5
:101CC000207138790128287909D001220021FEF7F6
:101CD000B7FA002038713872F871B8710DE100213F
:101CE000FEF7B4FAF5E7B8E0A07A012805D0284657
:101CF000FEF7C4FA012807D0FDE0F8790128BDD12C
:101D00002846FEF77FFAF8E00020F8710399887101
:101D10000120A072F1E0A07A012804D07979284648
:101D2000FEF72AFB76E77748C178002906D0039AA8
:101D300000219171059A0121D176217180780028C6
:101D4000DED15AE78EE0A07A012803D02846FEF7BC
:101D5000A7FA5FE76B48C0780028F2D001203873FB
:101D6000E88C6884CCE7A07A012805D00120F875BA
:101D70002846FEF79BFA4DE7787D012806D0608A59
:101D8000401E0004000C608213D0B4E0B87D01282E
:101D9000B6D1B88B00907B8B3A7E29790020FEF774
:101DA0008BFAADE78FE072E03BE02DE01BE009E04D
:101DB0009CE0B88B00907B8B3A7E29792220FEF73D
:101DC0007BFA4AE0A07A012806D02846FEF77AFA84
:101DD000A072002070748EE04A48C0780028B0D00D
:101DE000012070748CE7A07A012803D02846FEF702
:101DF0006FFA0FE74348C0780028A2D00020307463
:101E00002879FEF76BFA7BE7A07A012803D02846F1
:101E1000FEF76AFA36E03B48C078002891D00120EE
:101E200018E0A07A012807D0707FB17F08401BD04E
:101E300041071DD5042020E03248C07800288CD00E
:101E400001990020C871019A012111722E49097966
:101E5000012987D10199087252E722212846FEF70D
:101E6000D7F9012007B0F0BD707E7075B07E05E037
:101E7000800701D5022000E001207075B07528466A
:101E8000FEF780FAA07201990020087233E0A07A70
:101E9000012807D02846FEF73FFAA07202990120D8
:101EA000087628E01748C07800289BD1608A401E39
:101EB0000004000C60821ED114480422002128185E
:101EC000FEF730FAC9E7A07A012803D02846FEF7CA
:101ED0002FFA9FE60B48C07800280ED00299002008
:101EE00008760299C875FEF753FA09E72846FEF707
:101EF00025FA012887D00020B4E7E07B002800D035
:101F00005BE6AFE7E010FF1FF088FF1F56020000FE
:101F100070B51F48012201781E4D002915D01E48BA
:101F2000A1218078890048431C491D4C0968227012
:101F300046182078FEF732FAA87B00281AD003282A
:101F40001BD002281CD0002070BDA97B002904D022
:101F5000032904D0022904D005E0027003E0042123
:101F600000E003210170FEF7DBF80E490020087045
:101F7000012070BDFEF718FA04E0FEF71BFA01E03D
:101F8000FEF71EFAFF36FF360236317B217070BD38
:101F90001C09FF1FA60BFF1F300DFF1F3409FF1F79
:101FA000490AFF1F2309FF1F144913488863134878
:101FB0001349403041611349016113490F4A0162DD
:101FC0001249803A1163124901601349114A0A60AB
:101FD000124A8A601249104A41621249403A5161DC
:101FE000114981601149816111494160124A1149C9
:101FF00091601249C16170478547FF1F8001FF1F33
:102000009D13021111120211E91302117D2AFF1F03
:10201000B91602119D5AFF1F8002FF1FC563FF1FE3
:10202000814BFF1F4177FF1F5979FF1FF5080211F0
:10203000E548FF1F151602118000FF1FCD20021179
:1020400010B5FEF7C3F9FEF7C7F910BD0348024902
:10205000C1600349816170470970FF1F8002FF1F43
:102060007D65FF1F0E480D4901600E4981600C49D6
:102070000D4A40314A610E4B0C4A5A610D4AC26208
:102080000D4A82630D4A8A600D4A4263084A0D4830
:10209000403A10620C488861704700007D100211C0
:1020A0004000FF1F890E0211A179FF1F4177FF1F1A
:1020B0004002FF1F4D4BFF1F6149FF1F1516021104
:1020C000891B0211DD4EFF1FF12FFF1F70B5FDF7B9
:1020D000FDFF904C002025682060FEF783F906463E
:1020E0002560FDF7FFFF304670BD8B49C968FF31A1
:1020F000813188657047F8B5FEF77AF9864D874AD1
:1021000068721178022903D9002801D101201070CA
:10211000834900200446E9608300401CCC50FF281E
:10212000FADDE8687F49882319507F49C1627F49F9
:102130000978002902D07C491131C1620A21016568
:10214000117881637A49C161FEF758F9E9687948E5
:102150004861192080018861084637228030C260BA
:10216000082336220B64CA631E224A643622426068
:10217000322202603B220364C2632822426441226D
:10218000C264392282643222436502652822826554
:10219000022202664222C2651E228366426628220D
:1021A000C26620224267422202675A2243610261CC
:1021B0003C228261192292010A605F4A0A63FF226F
:1021C0002D328A60CA60FF22F5320A615B4A8A6456
:1021D0007D22D2005A4EC267CE644A62594A8A6250
:1021E0003222CA6506224A658A65CA1DF93202256D
:1021F00013604D664B25ED008D660925CD66524D69
:102200000D678C674B67AB10CB67504FFF313E605B
:102210004A4E86627D26F60086676426466205265B
:10222000C66202260663C82646638463382050606F
:10223000474810644B2080019061B000D061581075
:1022400010627D2000015062D46695651366536468
:10225000D565146753671E2090663E4890673E48D8
:102260005B008131D0670B608B604860FF20F530E8
:10227000C86008614B20C00010630E6538483749BC
:10228000274A81603749803A11613549364A8031A1
:102290008A62364ACA62364A8261364AC262364A1F
:1022A00002632F4A3548403A50633548D063354879
:1022B000C861354890632A493448403188613549BE
:1022C0003348886026483449803841603349244A7D
:1022D00041633349C03AD1603349324B204CCB6320
:1022E000324B403C2363324B9362324AC263324AE0
:1022F000C260324A4A63324AE260324A8A63324AF0
:102300000A6332498163FEF77FF80120FEF782F805
:10231000F8BD00009809FF1FF088FF1F4A0AFF1F41
:102320000004FF1F10E2FF1F6E040000B486FF1FB1
:102330003A07000080C3C9019A02000050C30000A0
:10234000280A00006A180000204E0000F009FF1F54
:1023500000400011DC05000040420F006553FF1FE4
:102360000001FF1F552DFF1FAD7CFF1F817FFF1F49
:10237000612AFF1FF52BFF1F7D2AFF1FAD3CFF1FAA
:10238000613AFF1F5584FF1F4182FF1F5929FF1F1C
:10239000F51002110002FF1FD949FF1FE950FF1F6E
:1023A000A92FFF1FAD0C02110000FF1FB57AFF1F00
:1023B000BD4CFF1FB556FF1FF54CFF1F912FFF1F90
:1023C0002D4AFF1FD11402113D2FFF1FE172FF1F85
:1023D0000A7802708A7842704A88120A82700979F3
:1023E000C170042070470A7802700988090A417098
:1023F00002207047097801700120704710B5002253
:102400000EE093005B189C7804705C88521C240AD0
:1024100044701C7984709B88D2B21B0AC370001D63
:102420000B789342EDD81806800D10BDF8B50D4617
:1024300006464978012031700024761C16E0697840
:10244000012917D01221614349198A7832704A88CC
:10245000871C120A7270B61C10223046091DFDF747
:1024600083FE1037B8B21036641CE4B22978A1425A
:10247000E5D8F8BDA10049198A7832704A88871CCE
:10248000120A7270B61C02223046091DFDF76CFE5E
:10249000BF1CB8B2B61CE7E710B50C46097801704E
:1024A0002188090A41706288211D801CFDF75CFEAD
:1024B0006088801C80B210BD10B50C460978017090
:1024C0002188090A4170A17881706188090AC17068
:1024D000A288A11D001DFDF747FEA088001D80B247
:1024E00010BD10B50C460A88891CFDF73DFE2088FA
:1024F00010BD10B50B788A7802705343DCB22246C7
:10250000401C091DFDF730FE601C10BD10B50B7896
:102510008A7802705343DCB22246401C091DFDF745
:1025200023FE601C10BD10B50C460A88891CFDF7FF
:102530001BFE208810BD10B50C460A88891CFDF7CB
:1025400013FE208810BD10B50C4609780170218853
:10255000090A41706288211D801CFDF705FE608814
:10256000801C80B210BD7FB515460446022901D0FB
:10257000102903D1022B04D0102B02D0002004B06C
:1025800070BD994202D10A46294607E010296946E2
:1025900007D000F00DF8102269462846FDF720FE0E
:1025A000EDE7104600F004F8102269462046F5E7F2
:1025B00070B50C4605000CD0002C0AD0102206493C
:1025C0002046FDF7D1FD28782073687860730120DC
:1025D00070BD002070BD000074C8021110B50B461C
:1025E0000122024902F0A0FB10BD0000D12302111C
:1025F00070B5064608880C46172812D30B460322EE
:102600000949304602F090FB050008D107492088AF
:102610000988884200D20146304600F0C9F92846B0
:1026200070BD022070BD0000E72302116889FF1F02
:1026300010B50B461822024902F076FB10BD0000CF
:10264000F523021110B500231922194602F06CFB84
:1026500010BD000010B50A78002A05D00B460722ED
:10266000024902F061FB10BD022010BDFD230211E2
:1026700010B54A78012A01D0022A08D10A78002A26
:1026800005D00B460522034902F04EFB10BD022087
:1026900010BD00002D240211024940008968085A2B
:1026A000704700005C89FF1F10B50B461D220249D0
:1026B00002F03AFB10BD00009924021110B50B4640
:1026C0001B22024902F030FB10BD000099240211C8
:1026D00010B50649002089681723054A02E0440026
:1026E0000B53401C1478A042F9DB10BD5C89FF1F1E
:1026F0003C8AFF1F0098022B01D0042070471178FC
:102700005278120289180180002070470098012B2E
:1027100001D004207047117801700020704770B517
:10272000049C1E461546062B1BD36978287809029F
:1027300040182080E978A8780902401860800222B9
:102740002271291D601DFDF70FFDB61FB2B2228157
:10275000F02A06D82046A91D0A30FDF705FD002005
:1027600070BD042070BD0098042B01D00420704778
:10277000537811781B02C91801809178D27812021F
:102780008918418000207047F8B584890D460646B7
:10279000002C26D0B2681778380620D50C2C20D90A
:1027A0000C3CA4B21019009001217088234602F05D
:1027B00004FA002811D0022028707806C00F687033
:1027C000B806800EA870641E2004000CA88001D0FA
:1027D000B068401CA8600020F8BD0120ECE7002094
:1027E000EAE70120F8BD10B502981146042B14D376
:1027F0004C780A78240212190280CC788A78240254
:10280000121942801B1F9AB28280F22A05D8801DBD
:10281000091DFDF7A9FC002010BD042010BD009883
:10282000042B01D004207047537811781B02C9187B
:1028300001809178D2781202891841800020704777
:1028400010B502981146062B03D0142B03D0042098
:1028500010BD022200E0102202714B780A781B02A0
:10286000D2180280CB788A781B02D2184280027973
:10287000401D091DFDF778FC002010BD30B5039CFC
:10288000D80718D1D805010E022914D30B48808827
:10289000814210D8F6200155002008E055781378C1
:1028A0002D025B194500401C6353C0B2921C884244
:1028B000F4D3002030BD042030BD00005C89FF1F30
:1028C0000098022B01D00420704711785278120230
:1028D000891801800020704770B51446024604989C
:1028E000022B18D3667825783602AD190580054687
:1028F000E0352A766976002A0BD0E8219B1E9AB231
:1029000042808A4207D8A11C001DFDF72DFC002043
:1029100070BDF421F2E7042070BD002901D004202D
:10292000704700207047000010B50B46172202497F
:1029300002F0FAF910BD0000B924021110B50B46DF
:102940000D22024902F0F0F910BD0000E32402114B
:1029500010B50A78002A05D00B461122024902F070
:10296000E3F910BD022010BDF324021110B50A785E
:10297000002A05D00B460922024902F0D5F910BD04
:10298000022010BD0D25021110B50B460F22024981
:1029900002F0CAF910BD00002725021110B50B4640
:1029A0000B22024902F0C0F910BD000037250211C8
:1029B000034A1388994202D8926840001152704726
:1029C0005C89FF1F70B50B46E0331C7E1222012C80
:1029D0000AD10A4D42002D684C88AA5A0F3A9442F7
:1029E00001DD022070BD92225B7E012B01D14023CC
:1029F0001A430B46024902F097F970BD6489FF1F24
:102A00004725021110B500231322194602F08CF954
:102A100010BD000070B5024603200002161A2248BD
:102A20000C460146002520313300FDF76DFB150CE7
:102A30000E12191C323232322932322C2E323230FE
:102A400021232527320000781BE01022411C20465C
:102A500003E01549102211312046FDF785FB20E0E7
:102A6000406A20601DE01049062228312046F4E724
:102A7000C08D13E0008E11E0408E0FE0808E0DE0DF
:102A8000087E20700DE0487EFBE7887EF9E7C87E6F
:102A9000F7E7272A04D2104600F094F9208000E0DE
:102AA0000225284670BD0000E0CEFF1F10B5084C7F
:102AB000A07007F025FB3C2200210648FDF732FC00
:102AC000FF22F5320421A078FDF7AAFC10BD00001A
:102AD000C887FF1FE0CEFF1F70B50C46080415D550
:102AE00017488078FDF7A2FC05000CD00078A228DA
:102AF00006D0B02804D0D02802D1284601F01EFE0E
:102B00002846FDF799FC0120C00315E0E00703D03B
:102B100007F0ACFA01200FE0A00702D502204840E0
:102B200070BD60070AD5FF20F53007F097FB07F06E
:102B300001FB07F01BFB0420604070BD002070BD4E
:102B4000C887FF1FF8B51546024603200002171A72
:102B5000344E0024304620303B00FDF7D5FA150CEA
:102B60001117205555555555395555404755554E12
:102B7000252A2F345500012941D12878307048E0AA
:102B800010293CD110222946701C05E0102936D1AD
:102B90002448102229461130FDF7E6FA39E00429CD
:102BA0002DD12868706234E0022928D12888F08568
:102BB0002FE0022923D1288830862AE002291ED15D
:102BC0002888708625E0022919D12888B08620E05F
:102BD000012914D12978042911D8017619E0012995
:102BE0000DD1297807290AD8417612E0012906D1AA
:102BF0002978032903D881760BE0012901D0182414
:102C000007E02978C17604E0272A01D2022902D000
:102C100002242046F8BD2988104600F01FFA044619
:102C2000F7E70000E0CEFF1F1CB50D4C002800D0D8
:102C30006060207808700B490191084613380346FC
:102C40000090113B19780022A0785B1C00F042F83C
:102C50000246054905A002F0F1F800201CBD000065
:102C6000C887FF1F04CFFF1F4CC7021125732C72AA
:102C700065742025640A0000014610B5024813223D
:102C8000807800F0FBF910BDC887FF1F10B505481C
:102C90000078000701D5044800E0002002F0FAFFA8
:102CA00010BD00007D89FF1F7489FF1F10B5FFF75D
:102CB0001CFA06480A210078084204D0044802F0B1
:102CC000E3FF002010BD012010BD00007D89FF1F23
:102CD0006C89FF1FFFB51E4681B017460D460224C2
:102CE0000B00FDF711FA0D210B0B0B0B210B210B28
:102CF0000B21210821000EA002F0A0F8294601981E
:102D000000F0DCF804000FD130460B9A0A9900F06D
:102D100085F93846FFF7CAFFFFF7B8FF01F0DEFE7E
:102D200000F0E8F801F00EFF204605B0F0BD00000D
:102D30004741505F446576696365496E69743A201E
:102D40004741505F50524F46494C455F43454E54B2
:102D500052414C207C204741505F50524F46494CD5
:102D6000455F5045524950484552414C200A0000A9
:102D700070B5104C2168002904D00978814203D035
:102D8000032070BD122070BD0B4D02212878FDF785
:102D9000CDF90A480026468004212878FDF7C6F9B7
:102DA000074806802168032048700020FDF74AFB91
:102DB00070BD0000DC89FF1F0D8AFF1FF089FF1F17
:102DC0008089FF1F272803D202494000085A704714
:102DD000014870478889FF1FFFFF000010B5044CB1
:102DE0006070FDF735FB0521607800F0B3FF10BD82
:102DF0000C8AFF1F70B5284E054630680C46002827
:102E000001D0112070BD254801780520014216D05F
:102E100023488068002805D00078002802D0C80721
:102E200006D101E0102070BD00F044F8002808D061
:102E30002078032805D0022803D0002801D01220D2
:102E400070BD0C20FDF70AFB3060002820D0057013
:102E5000002141700A222146801CFDF785F903F00C
:102E60006FF8040002D002F091FA12E00D480078E9
:102E700003280ED11D20FFF7A5FF0B49002808806D
:102E800007D00B48094A04210078FDF7C9FA00E091
:102E90001324204670BD0000DC89FF1F7D89FF1FC1
:102EA000F089FF1F7E89FF1F8089FF1F60EA0000F5
:102EB0000D8AFF1F10B505F003FE10BD70B50C465E
:102EC00005461C2200210948FDF72CFA0848057028
:102ED0004470FDF7C9FA0549002803D000200870A6
:102EE000122070BD01220A7070BD00006CD9FF1F56
:102EF0007C89FF1F70B50F4C0025A068002802D008
:102F0000FDF7B8FAA560E068002802D0FDF7B2FA34
:102F1000E560094805210078084206D005481030D0
:102F200002F0BEFE02F0A0F970BD002002F0B8FE73
:102F3000002070BDF089FF1F7D89FF1FFEB5344D55
:102F40000C46080419D56878FDF770FA0121C90309
:102F50004C40064600280ED002F08CFD002807D118
:102F60002878FF2804D03146FDF78AFA002802D0DD
:102F70003046FDF761FA2046FEBDE0070127002834
:102F80000AD0A868002804D04168002901D0002098
:102F9000884720467840FEBDA00709D5686800280C
:102FA00004D04168002901D00120884702202AE08E
:102FB00060072AD5174E308800281FD0401E000415
:102FC000000C30801ED102F057FA002809D01248B8
:102FD00007706868002804D04168002901D00120EA
:102FE000884702F023FA694601F0F6FC684602F0D1
:102FF0002BFD1D20FFF7E6FE308003E004216878FA
:10300000FDF794F804206040FEBD0020FEBD0000E6
:103010000C8AFF1F8089FF1F7F89FF1F70B50E4C30
:103020000B46261D07C60546102200211846FDF74F
:103030002DFA012803D11021A06807F031FC1022DD
:1030400000212846FDF722FA012803D110216068EB
:1030500007F026FC70BD00006CD9FF1F272807D29F
:10306000044A914204D0044A4000115200207047A3
:1030700002207047FFFF00008889FF1FF8B50D464A
:1030800017461D4906461B4A12248868954208D1F6
:1030900000282DD00268002A2AD0294630469047C1
:1030A00023E0144A521C954213D1002807D002682D
:1030B000002A04D0294630469047040005D03946FE
:1030C000304601F0D3FE040012D10B480670477061
:1030D0000EE0284605F098FC002809D00078B042A0
:1030E00005D139462846FDF7D7F9044600E0032408
:1030F0002046F8BDFEFF0000E089FF1FF8B50E4630
:10310000014619481546007805221F46104028D070
:10311000304326D01548012E1BD0C468002C20D087
:103120001F2D18D8002D01D0002F14D001701F22A0
:103130000021601CFDF7F6F82A463946601CFDF7B1
:1031400013F828462570002E07D0611CFDF7AAF958
:10315000F8BD8468E2E70220F8BD611CFDF7A8F91C
:10316000F8BD1220F8BD00007D89FF1FF089FF1F08
:10317000014610B50020C90704D0034A04210348C2
:1031800000F002FA10BD000040C702118487FF1F43
:1031900010B5002309E01C012418E468944202D110
:1031A0001901081810BD5B1C9BB28B42F3D30020A1
:1031B00010BD000070B50E4D0F4CA8700D49204693
:1031C00000F020F800210D480B46CA008452121866
:1031D000491CC9B253600429F7D3012003F028FE2B
:1031E000A87800F09DFB064805F080FC70BD00004B
:1031F0007487FF1FBCCEFF1FFFFF0000CCC8FF1F5E
:103200007566021170B50A4C0025A04209D1002054
:1032100082008C525218401CC0B295700528F7D31A
:1032200070BD03F0F6F90028FAD00480857070BDF7
:10323000FFFF0000F8B50E460746069900240798E0
:10324000002902D00B242046F8BD022B01D00D240A
:10325000F9E711785278120289188DB22946814314
:1032600001D08024EFE73846F16800F085F9A842E4
:10327000E9D02A463846F16800F0F2F90400E2D1BC
:1032800071892A46384600F0ADF9DCE7FFB51F46E4
:103290000446C1B022881E4B00254A989A4233D07A
:1032A000A278002A30D00A4601463846FFF770FF60
:1032B000060029D0174A208812684100515C00237B
:1032C000C91EC9B203AA02320193029100927A89FF
:1032D00004AB314600F03CF8002815D170896946EE
:1032E0008881A078C00705D0208803A9439A00F000
:1032F000E5FA0546A078800706D5208803A94B9BF0
:10330000439A00F07DFA0543284645B0F0BD000021
:10331000FFFF00006489FF1F70B50C46080412D53A
:103320000A488078FDF782F8050008D02878B02890
:1033300002D1284603F08CFA2846FDF77DF80120DB
:10334000C003604070BD002070BD00007487FF1F87
:10335000FFB583B0087A00250C9E1C460F46C006B8
:103360000DD5059803F04EF9030006D00A22394620
:1033700003989847050035D101E00E2532E03878F2
:1033800002281DD1786829220178407812020002B3
:10339000081881B2881A91427ED009DC7348081A55
:1033A00023D0012821D002284FD0032808D125E0BE
:1033B000012872D0022871D003286DD004286ED065
:1033C000059803F047F900286AD00568002DD4D08D
:1033D0000E990D9801910090334622463946039884
:1033E000A8470546284607B0F0BD0D98002872D1C1
:1033F000F868017831800278416896E00D980028DD
:1034000069D101203080F868002100782070788927
:10341000401C80B200F052F900280DD031880278AB
:103420008918891C3180817A61704189090AA170EB
:1034300002784168E01C79E030880422001D308069
:103440000021601CFCF76EFFCCE70D98002875D1B9
:10345000F86802A90088009004203080009820704D
:103460000098000A6070009800F028F9070029D041
:10347000F86800906846028901AB3D49384600F083
:1034800075F9002810D13B7802213A487A68FFF795
:103490006AF8002808D104E026E030E01CE04AE0A9
:1034A00062E0401E694688800098007802280CD1AE
:1034B000009802224168201DFCF756FE3088801CCF
:1034C000308002E069460098888068468088A07055
:1034D000000AE07086E731E00D9800282ED1F968E7
:1034E000039800F049F804E00D98002826D1F86808
:1034F0000088022131802070000A607072E7F8684D
:10350000FCF7DCFF0D99C0B2814212D8814201D193
:10351000002206E00E9A8918814202D30D99401AC2
:10352000C2B23280F9680D9809182046FCF71CFEDB
:1035300058E7072556E70D98002801D00B2551E7DD
:103540000721F868318001782170417861708178B5
:10355000A1704188090AE170017921718179617155
:10356000C088000AA0713DE700252FE70028000071
:10357000FFFF0000EAC8021110B503F04AF8002866
:1035800000D0807810BD00007CB51546040019D02D
:1035900068460194018000F0C9F903001DD1002D97
:1035A0001BD06489002C0DD00C20FCF757FF00289D
:1035B0000AD0002303608480094A8560916800294D
:1035C00004D006E0022308E0132306E0906004E044
:1035D00011460A68002AFBD1086018467CBD00002D
:1035E0007487FF1FF8B50C4C0746207815460E4629
:1035F000FF280FD00A20FCF767FF01000AD0B12096
:1036000008700020487008714F80CE800D812078AE
:10361000FCF736FFF8BD00007487FF1FFFB583B0CD
:1036200008461F4601A90C9E00F048F8050014D07A
:103630006846808803F00EF800280AD04468002C01
:1036400009D000963B462946059A0398A04707B043
:10365000F0BD0024F3E70E20F9E70120F7E70000B2
:1036600070B514460E46054602F0D3FF002806D179
:103670003146054802F0CDFF002803D00580847054
:10368000002070BD112070BDFFFF000010B5017853
:10369000B0290BD14178002908D10179122906D02F
:1036A0001B2903D14088012100F0D0FA10BDFF2171
:1036B0000231095C0129F5D010BD0000F0B58C463F
:1036C00010494B6819E09F687C89A04214D39E88FA
:1036D0003119814210D900220CE011017D1869894D
:1036E000814205D16046002800D004802846F0BD04
:1036F000521C92B29642F0D81B68002BE3D10020F6
:10370000F0BD0000208AFF1FFFB5174881B00A9F57
:10371000446824E000251EE0A0682901461870894D
:103720000199884215D30299884212D8049800283A
:1037300007D031787068049B039AFEF714FF0028C5
:1037400007D0002F02D0A06840893880304605B0ED
:10375000F0BD6D1CADB2A088A842DDD82468002C55
:10376000D8D10020F3E70000208AFF1FFEB51746DE
:1037700000256A469580044640891D4A1E469042AF
:1037800008D001AA0092401C237880B26268FFF73B
:10379000BBFF05462378022116486268FEF7E3FE68
:1037A000002807D12378022113486268FEF7DBFE68
:1037B000002801D060890EE0237802210F4862685A
:1037C000FEF7D1FE00280DD0002D03D0684680887A
:1037D000B84203D0384603F03FFC04E06889401E3D
:1037E00080B200E06089002E00D030802846FEBD07
:1037F000FFFF0000E8C80211EAC80211EEC802117A
:10380000FFB581B00F461E4614466946019802F086
:1038100025FD050018D1002C06D0012210210198A9
:1038200005F0CCF805000FD139460198FEF73CFFB2
:10383000050009D1009CFF2E06D021461E22A31CA4
:10384000034803F015FCE670284605B0F0BD000003
:103850005D6F021110B505490870042100F07AFA75
:1038600000F006F8FEF734FF10BD00002C8AFF1FA1
:10387000F8B50F4D0D4B00206E1C1C78FF2209E09F
:103880009F688100C91900280ED00E80CA70401CA4
:103890008A70C0B2A042F3D3064802F083FE064805
:1038A00005F024F90020F8BD0D80EFE7208AFF1F06
:1038B000FEFF0000896F0211DD6E0211F8B50D46A2
:1038C00014460646694602F0C9FC17280CD0002CA5
:1038D00006D001221021304605F070F8002803D1EF
:1038E00029463046FEF7EAFEF8BD000070B50C46EA
:1038F000080411D509480078FCF798FD050007D0A9
:103900000178A02901D102F0F1FD2846FCF794FDD1
:103910000120C003604070BD002070BD2C8AFF1FD5
:103920000149487070470000208AFF1F70B50546A6
:10393000008800281DD06868022103784268224868
:10394000FEF711FE002808D168680221037842685A
:103950001E48FEF708FE00280BD01D4C608800288A
:1039600005D0012229881204101A814203D90120AE
:1039700070BD022070BD0C20FCF770FD060001D068
:1039800000200BE0132070BD01016B6862880A31D2
:103990005A526188491C401C618080B2298881424A
:1039A000F2D80020306008222946301DFCF7DCFBED
:1039B0006068002802D1666004E0084601680029BA
:1039C000FBD10660002070BDE8C80211EAC80211F0
:1039D000208AFF1F0649496806E08A6852898242A8
:1039E00001D18888704709680029F6D10020704706
:1039F000208AFF1F10B51422114201D0012202E0DB
:103A00004A0604D50022102104F0D8FF10BDC807D3
:103A100001D0002010BD022010BD10B514468A064A
:103A200004D50122102104F0C9FF10BD88221142E3
:103A30000ED008220A40102104F0C0FF00280BD04D
:103A4000E034617E0029F0D0217E0129EDD103E030
:103A5000880701D4032010BD002010BD10B503F06D
:103A60003BFB10BD014610B50020C90704D0034A36
:103A700007210348FFF788FD10BD00002CC7021185
:103A80000087FF1F70B50D46164600241D49030030
:103A9000FCF73AFB08051234341934222934152D69
:103AA00023D8162200211848FCF73CFC2A46314650
:103AB0001548FCF759FB22E0022D16D11149108858
:103AC000103908801BE0082D0FD10E48082231461E
:103AD0000838FCF7E9FA12E0012D06D1CA69094954
:103AE0003078283107E0012D01D0182407E0CA6B97
:103AF00004493078483103F0C2FB00E0022420463C
:103B000070BD00000087FF1FB4C8FF1FF0B5069FFF
:103B1000099E002833D0102831D800292FD0002A40
:103B20002DD0002B2BD0002F29D0079C002C26D085
:103B3000089C002C23D0002E21D00A9C002C1ED0E3
:103B4000104C851D20706570A26061600E490F4A9F
:103B50000B60059911600E490E4A0F6007991160BC
:103B60000D4A089911600D49401C08700C490E60FF
:103B70000C4908700C490A9808600020F0BD182014
:103B8000F0BD00003C8AFF1F848AFF1F6489FF1F6D
:103B9000EC89FF1F708AFF1F748AFF1F188AFF1F9E
:103BA0001C8AFF1F208AFF1F288AFF1F0B780370C3
:103BB0000B8802221B0A43700B88801C012B02D049
:103BC000022B07D011E08A7802704988090A4170F7
:103BD00004220AE08A7802704A88120A42700A793E
:103BE00082708988090AC1700622104670470A78D7
:103BF00002700988090A41700220704708B5044B19
:103C0000009313460A46012104F028FE08BD000077
:103C1000AD3B02111CB50323019200930A46024BEF
:103C2000122104F04BFE1CBD3581021108B5044B76
:103C3000009313460A46132104F010FE08BD00004D
:103C4000EF3B021110B5FCF745FC10BD13B504485D
:103C50000078012803D101AA6946FCF741FC1CBD8C
:103C6000388AFF1F70B51049104A087000210B46B2
:103C70008C00491CC9B213530429F9D30B4C002101
:103C80001034FF260A460A256A4315196B80491C21
:103C9000A354C9B26E720329F4D3FCF727FC04F0D5
:103CA00093FD04F0E7FE70BD398AFF1F88D9FF1F1E
:103CB000082A01D0012070474B780A781B02D218DD
:103CC0000280CB788A781B02D21842804B790A791D
:103CD0001B02D21882808A79C97909025118C180E1
:103CE0000020704770B50C46080411D509480078CB
:103CF000FCF79CFB050007D00178902901D104F066
:103D0000C5FC2846FCF798FB0120C003604070BD4D
:103D1000002070BD398AFF1F70B50C4909788842B0
:103D200013D20B4C0601606800258553301885813D
:103D3000606830188580606830188068002804D07A
:103D4000FCF7DAFB60683018856070BD3C8AFF1FA5
:103D50006C8AFF1F072907D0052905D0042903D045
:103D6000062901D002207047044A8B009A18134696
:103D7000403B1986203A90740020704788D9FF1F75
:103D800070B517490978884228D25C21154C484300
:103D9000A16805464018002640300674A06828181F
:103DA00040304674A068281840300676A06828186D
:103DB000406D002804D0FCF79FFBA06828184665DA
:103DC0000026A068F100281840184068002801D09B
:103DD000FCF792FB761CF6B20A2EF2D370BD0000FF
:103DE0003C8AFF1F6C8AFF1F70B50A880C46054687
:103DF000072A07D0052A05D0042A03D0062A01D0B5
:103E0000022070BD012104F0A3FE002804D0214649
:103E1000284604F0A5F970BD142070BD10B5001D32
:103E200080B2FCF76FFB002803D00321C943FCF7E5
:103E30006FFB10BD70B5082003F07AFF1B4B012506
:103E40001C46143C00280DD06078FF26F53600286B
:103E50001ED00020607018710A2201212079FCF721
:103E60006BF91CE061780120002901D001290AD0FA
:103E7000607018710A2201212079FCF75DF9042194
:103E80002079FCF753F92078002800D1257070BD07
:103E900020780028FBD106A000F0D0FF2570324624
:103EA00004212079FCF748F970BD0000CC88FF1F81
:103EB0006B6579206572720A00000000FEB5504FF4
:103EC0000C46387909040BD5FCF7B0FA050004D08C
:103ED000FCF724FB2846FCF7AFFA0120C0038AE078
:103EE000E107002600296CD0FCF71EFB0121444DA0
:103EF00008431435386128790028B8780ED0002896
:103F000017D11421F868FCF715FB002811D0012007
:103F1000B8703869B8602879F8700AE0002808D0CD
:103F20001421B868FCF706FB002802D03869F86055
:103F3000BE70687900280ED0286800280BD0FF21B9
:103F40005F31FCF7F7FA002805D069792DA000F061
:103F500075FF2E606E71F878002825D0287900282A
:103F600028D13221B868FCF7E5FA00281CD068791E
:103F7000401CC1B2697138692860FA7827A000F046
:103F80005DFF687905280ED12BA003C80191009030
:103F900000A906222A480231FCF7E6F86A46082101
:103FA000A02006F057FAFE702879002802D168791F
:103FB000002804D0142201213879FCF7BDF8012033
:103FC00019E0A10707D528220221FCF7B5F8FFF771
:103FD00031FF02200FE060070FD51AA000F02EFF7E
:103FE0003E701C4A0021082003F056FF0221387958
:103FF000FCF79CF804206040FEBD0020FEBD0000E0
:10400000B888FF1F4B657920746F74616C204B6911
:10401000636B206E756D3A2025640A006B6579200C
:1040200074696D65206E756D3A2025642C206B6572
:104030007920697325640A00999831323334353612
:10404000A688FF1F73746F70207363616E66200A09
:10405000000000005728FF1F014908717047000049
:10406000B888FF1F70B5124C12A0E16D00F0E6FE9B
:10407000154DA878401CC0B2A87003280BD3A968BE
:10408000002909D0E26D12098A4208D1062802D916
:104090000EA000F0D3FE70BDE06D000906E005281B
:1040A000F9D90EA000F0CAFE0020A870A86070BD6B
:1040B000B8D3FF1F5246203433334D20434D4420A4
:1040C00030782538780A0000D488FF1F6C6561724B
:1040D0006E2066696E6973680A0000006C65617223
:1040E0006E20616761696E0A0000000070B51C4CAB
:1040F00000252378012B10D0E6781A4A002E12D022
:10410000012E0FD101290DD11146C96D0646093E78
:104110004900082E10D8491C11E0002902D1B4280A
:1041200000D3257070BD0029FCD15F28FAD301208F
:10413000E070D565E56070BD801E062801D8D165A8
:1041400001E0E560E570E068401CE0601828F2D30B
:10415000E560E570002BEED1FFF784FF70BD000035
:10416000D488FF1FB8D3FF1F70B50D4D00242878E9
:104170006978884213D0401CC0B2C821FBF752FFB7
:1041800007482970801C0A5C48004019C0308089AB
:104190001146FFF7ABFF641CE4B2322CE7D970BDC7
:1041A000B8D1FF1F10B50C460A4601460648FBF77A
:1041B000DBFF05480221801F44710171034800782C
:1041C000FBF778FF10BD0000ADD4FF1FE888FF1F8C
:1041D0007CB5254D0C4608040CD52879FCF726F94A
:1041E000050004D0FCF79AF92846FCF725F90120D0
:1041F000C0032BE0E0070126002802D008467040EB
:104200007CBDA00718D5194D687C022812D118482A
:10421000062203C80090019100A8A91D0230FBF7F7
:10422000A3FF6A460821A02006F014F96E74114815
:10423000FEF722FD022009E0600709D5FFF794FF91
:10424000322204212879FBF777FF042060407CBDEF
:10425000200707D56878012801D100206870082060
:1042600048407CBD00207CBDD488FF1FA088FF1F74
:104270005CC80211FFFF000010B503490871FCF78C
:104280005FF900F08DFB10BDD488FF1F38B50C4BD3
:1042900001250FCB094C009503F0B4FE2146FF31F8
:1042A00060222831012003F0EFFEFF228832002136
:1042B0002046FCF737F8002038BD000047D4FF1F28
:1042C00064C80211F8B50D46284809040CD50078D9
:1042D000FCF7ACF8040004D0FCF720F92046FCF70A
:1042E000ABF80120C00336E0690703D500F052F8AF
:1042F000042030E0E907022600292ED01C4C0027BC
:1043000061782246927800291ED0002A1CD001290B
:1043100000D16670A178E2780646891A417015A02E
:1043200000F08CFDE178251D4819717805F09EFF9D
:10433000E0787278431912480321807A00F0CAF8B5
:104340006770E770A7700FE00EA000F077FD677050
:10435000E770A77001206840F8BDA80704D500F0F9
:1043600069F828467040F8BD0020F8BDE888FF1FB6
:1043700047D4FF1F7561727420646174613A0A004A
:104380003CD4FF1F55324220733D3A25782C2578C6
:104390000000000070B5114C2546A178C035201DE5
:1043A0000818AA79E91DFBF7DFFEE078002801D0A4
:1043B000512070BDA078A9794018A0700020A87184
:1043C0006078002801D0072070BD01220448627087
:1043D00011460078FBF7B0FE002070BD47D4FF1FE8
:1043E000E888FF1F10B50C490C4660346279002A3A
:1043F0000CD02079002809D00120663103F034FE6A
:104400000020607102202071002010BD03A000F088
:1044100015FD072010BD000047D4FF1F75617274A1
:104420002073656E64206572722073746174650A0E
:104430000000000010B505484179002902D0FFF7BF
:10444000D1FF01E000210171002010BDA7D4FF1FA2
:1044500010B504490870FFF719FF03A000F0EEFC47
:1044600010BD0000E888FF1F7561727420746173CD
:104470006B20696E69740A0010B506490648FEF79C
:10448000C1FE064804F032FB054A08210548FFF743
:104490007BF810BD64CFFF1FFFFF0000799302116E
:1044A000FCC70211D887FF1F10B50024104602294F
:1044B00004D0032905D00224204610BD142204494B
:1044C00002E0034914221431FBF74EFEF4E700002A
:1044D0003CCFFF1FFFB500261B4D83B0032902D040
:1044E000022007B0F0BD194F0024A100795A814283
:1044F00006D1A100C919FFF73FF80646254603E09B
:10450000641CE4B2042CF0D32A46314610A000F01B
:1045100095FCF00716D00D48059A14380699FBF75C
:1045200023FE124905980870FF2108200191009090
:104530000E4B0649A800C019083300221439FEF7B3
:10454000A5FECEE71020CCE7FFFF000064CFFF1FE1
:10455000474343203A203078253034582020686182
:104560006E646C652025640A00000000D087FF1F80
:10457000002803D00249486000207047112070478E
:10458000D087FF1F10B504460246064906A000F07A
:1045900055FC0A494978012902D1204600F0E4F986
:1045A00010BD00009FC70211257320636F6E6E5F00
:1045B00068616E646C652025640A0000C887FF1F6F
:1045C000F0B50646024687B0244925A000F036FC27
:1045D0000520FEF7F7FB074606A92648FEF71AFA5C
:1045E000244804A9401CFEF715FA224805A9801C9E
:1045F000FEF710FAC52003A98000FEF70BFA694602
:10460000088B8880088AC880888A088188894881C0
:10461000304604F09BFE04460146324616A000F0E8
:104620000DFC1B4801A982783046FFF7F3FA1820E9
:10463000FBF714FFA400174D002828510BD00023CE
:104640003A461549009605F061FD29590020486158
:10465000285905F0C5FD07B0F0BD00007BC7021169
:10466000257320636F6E6E5F68616E646C652025D4
:10467000640A0000110300006964782025642C633B
:104680006F6E6E48616E646C652025640A000000E0
:10469000C887FF1F2CCFFF1F8545021138B5417811
:1046A0000546002903D011A000F0C8FB38BD18480A
:1046B0000468688900902B89EA88A98815A000F011
:1046C000BDFB0FE0002C0CD1284604F023FE04288B
:1046D00007D28100184840580028E7D005F0A6FD11
:1046E00038BD2469002CEDD138BD000050617261E5
:1046F0006D557064617465496E666F206572726F86
:1047000072207374617475732025640A00000000C0
:104710009888FF1F68616E646C652025642C496E63
:1047200074762025642C6C6174656E637920256431
:104730002C544F2025640A002CCFFF1FF0B585783C
:1047400085B02B00FBF7E0FC0805BA2228282B8750
:10475000B8BA41780446002903D05AA000F06EFB95
:10476000ACE061A000F06AFB64A000F067FBE01C15
:1047700000F024FB00F062FB5AA000F05FFB6189AF
:1047800064A000F05BFB217B67A0E7E7C27841787B
:10479000284604F027FD91E041780022F8E74178AF
:1047A0000446002940D12146284604F031FC0190FE
:1047B000684685882806000F36D1002768460772AC
:1047C000312002A90001FEF725F96846007A002889
:1047D0002AD06846878103A91F20FEF71BF9684687
:1047E00080880005060F314655A000F027FB1820F1
:1047F000FBF734FEB100594E0028705014D02A0740
:10480000120F00926A4692897D23DB005A430D46BF
:104810000023534905F07AFC705947617159012012
:104820000860705905F0DCFC4E4840680568002DB2
:1048300044D0201D00906846808801050B0F0106BA
:10484000090F032905D000220107090F6078A84746
:1048500034E00322F8E741780446002919D12146C3
:10486000284604F0D5FB0090684600880106090F31
:104870000FD10005000F850038484059002801D0AD
:1048800005F0D4FC354810304059002801D005F01F
:10489000CDFC344840684568002D0FD0684600883C
:1048A000A37901050A0F0106090F032900D0002191
:1048B0000007000FA84701E0FFF7F0FE012005B058
:1048C000F0BD000044657669636520496E69742017
:1048D000446F6E65204552525F436F6465203078A7
:1048E000253032580A000000446576696365204926
:1048F0006E697420446F6E65200A0000424C4520AA
:104900004D756C74692D526F6C65204164647265DD
:1049100073733A004843495F4C4520504B54204C38
:10492000454E2025640A00004843495F4C45204E0F
:10493000554D20544F54414C2025640A000000007E
:104940006D756C746974696D65725F696E697420E8
:104950007065724964782025640A00001CCFFF1F2F
:1049600069490211C887FF1F10B504460246054970
:1049700005A000F063FA0949E0B24978FFF720FE8C
:1049800010BD00005FC70211257320636F6E6E5F5C
:1049900068616E646C652025640A0000C887FF1F8B
:1049A00010B50021042003F05FF90121042003F079
:1049B00095F9074A0420114603F06EFA0120FBF72F
:1049C000C5FD0448642204210079FBF7B5FB10BD46
:1049D0007728FF1FD488FF1F38B50C46050014D078
:1049E000002C12D00321684605F05AFF69468878EA
:1049F00040218006800E084369468870224628467A
:104A000006F08AFD050002D006E0022038BD032230
:104A10006946E01CFBF7A8FB284638BDF7B58EB009
:104A20000E9815460E4600282DD0002D2BD0301D97
:104A3000C0B20190FBF712FD040039D000F002FD76
:104A400007463246201D0E99FBF786FDF8B2089006
:104A5000E0703804000E0B90A0703802000E0A902F
:104A600060703F0E277000F0E7FC0146102202A89C
:104A7000FBF772FD06AB214602A8019A06F0A2FCE4
:104A8000060003D010E0022011B0F0BD0898287095
:104A90000B9868700A98A870EF70082206A9281D64
:104AA000FBF75AFD00F0D4FC2046FBF7E3FC00E0E6
:104AB00013263046E8E7000010B5064C2070FBF7DF
:104AC00051FD06212078FFF745F9034804F00EF860
:104AD00010BD0000608AFF1FB5AA021110B505487D
:104AE0000078000701D5044800E0002006F090F9A6
:104AF000002010BD7D89FF1F488AFF1F70B50C463E
:104B0000080419D50D480078FBF790FC05000FD07C
:104B100006F0F6F8002808D109480078FF2804D0EC
:104B20002946FBF7ADFC002802D02846FBF784FCA1
:104B30000120C003604070BD002070BD608AFF1F6F
:104B40000C8AFF1F10B505480078400701D50448BE
:104B500000E0002006F062F9002010BD7D89FF1FF3
:104B6000548AFF1FF0B587B00C9E1C460D00074607
:104B700014D068460276110A417610220021FBF714
:104B8000D1FB324629466846FBF7EEFA002C08D0E6
:104B90000822214604A8FBF7E7FA07E0022007B045
:104BA000F0BD0822002104A8FBF7BCFB6B4606AA57
:104BB00004A93846FBF7DCFCF1E7FFB58DB00F9890
:104BC000169C0E46002815D0002C13D00D9803F02B
:104BD0001BFF050011D06178207809024018A178E8
:104BE000E2780904120689184718286AB84206D3E1
:104BF000401C04D0022011B0F0BD1420FBE7002EB1
:104C000004D02879800701D40120F4E7082200218C
:104C100006A8FBF787FB1098001DC0B20190FBF7B8
:104C20001DFC060017D0301D109A0F99FBF794FC5D
:104C3000042221463046FBF78FFC1022A91802A857
:104C4000FBF78AFC06AB314602A8019A06F0BAFBD4
:104C5000050002D013E01320CDE7082206A908A81A
:104C6000FBF77AFC0822211D08A8FBF7B9FA0128F6
:104C700001D0012503E039460D9801F0E7F93046EF
:104C8000FBF7F8FB2846B6E7002809DBC106C90E8A
:104C90000120884003490860BFF34F8FBFF36F8F37
:104CA0007047000080E100E0002805DBC106C90E66
:104CB00001208840014908607047000000E100E0E1
:104CC0008307FF22DB0E9A408907090E99400028CE
:104CD00008DB830809489B001818036893430B43BB
:104CE000036070470007000F0838830804489B00E2
:104CF0001818C36993430B43C361704700E400E095
:104D000000ED00E00A4610B50146002003F0ACF9C2
:104D100010BD10B5FBF732FC0120FBF735FCFBF7AB
:104D200039FC002010BD0000FFB583B016460F46C9
:104D30001B2A01D0522E04D10398FBF731FC002826
:104D40001BD01D49039889684000085AFFF766F890
:104D500004002DD00125601C2670002F03D0069979
:104D6000B847401C85B2300613D51021039803F0D4
:104D7000EFFE002804D0192616E0132007B0F0BD7E
:104D80006219E9B22046FFF749FE06000CD10C3546
:104D9000ADB20421684601800194058169460398FB
:104DA000FFF722F8060004D02046FBF7A5FB00E041
:104DB00013263046E2E700005C89FF1F10B586B07D
:104DC000044614220FA16846FBF7F0FB124930207D
:104DD0000870782048700620891C6A46A41D641E4D
:104DE0002378401E1B09D35C0B70237800061B0739
:104DF0001B0FD35C4B70891C000EF0D10870064865
:104E000006B010BD3031323334353637383941428F
:104E10004344454600000000D0CEFF1F01680A054C
:104E200009D11031044A01601268127912039142CB
:104E300001D3891A016070479C88FF1F0FB410B519
:104E400003AA0448029903F095FE10BC08BC04B004
:104E500018470000054D021138B5034B00240FCB55
:104E6000009403F0CFF838BD14C7021110B50C46FA
:104E700003F0E2FD002804D040882146FBF70CFB3C
:104E800010BD122010BD0000F0B5174FB84201D17F
:104E90002F20F0BD154E002233688DB25400E41867
:104EA000E48A84420AD15000C2188032D582B942C5
:104EB00002D131684018C7820020F0BD521C402A40
:104EC000ECDB00214A00D218D28ABA4207D149004D
:104ED000CA18D082306808188030C582ECE7491CB7
:104EE0004029EFDB3020F0BDFFFF00009C88FF1F52
:104EF00010B504480068C07C002801D0FBF75CFBBB
:104F000010BD00009C88FF1F70B505460024064EAA
:104F100004E020034019FBF755FB641C306800795E
:104F2000A042F6DC70BD00009C88FF1FF0B5594E12
:104F300099B03068FF210172417281711021417175
:104F40000121C171002425460922FF210A30FBF707
:104F5000E9F94E22002104A8FBF7E4F904AF31E09F
:104F60003068210340181022694600F05BF9494877
:104F7000009A01680868824216D1684600790A7969
:104F8000904211D1684640794B7998420CD16846DD
:104F90008079521E904225DAA04201D1022500E01C
:104FA0000325385588710BE00098401C1AD16846DB
:104FB0000079FF2816D168464079FF2812D138556C
:104FC000641CE4B2334806683179A142C8D8042D84
:104FD00008D0044620688079FF2806D0012D04D02F
:104FE000002025E0202019B0F0BD00250CE08D71D7
:104FF00008682A038018102200F018F9002801D050
:105000001F20F0E76D1CEDB221680879401EA84210
:10501000EDDC002008740879401E48741020888256
:105020000120887427E03A5C002A03D0401CC0B2FB
:105030008142F8D881421ED9401E0818FBF7C8FAF1
:1050400071740120B0740020024618A9189000F075
:1050500025F8002802D0212802D005E0189901E0A7
:105060000121090322689182C0B2212803D00028BF
:1050700001D02A20B7E7084A002023684100CB1856
:105080008033DA822368401CC918CA824028F4DBC6
:105090000020A8E79C88FF1FFFFF0000F7B5012450
:1050A00084B000200E4627460190A7E0687CC01916
:1050B000FAF7B8FFC8B2FF2C02D9FF3CA4B29BE0BC
:1050C000049A002A00D12974000301250390019855
:1050D000002803D000200190281906E0012C05D9F2
:1050E0002819811EFF2918DA401E85B2039829016C
:1050F000081802904A4804220068016802980818BB
:10510000694600F08FF8049800280ED0012824D0BA
:10511000022837D0062007B0F0BDFF200230401B28
:10512000201A84B20120019066E000998803800F64
:1051300004D0022802D0032859D109E0080D090340
:10514000890F801C012947D10C214AE001214CE044
:1051500002980005000D30605BE000998A03900F13
:1051600004D0022805D0032841D156E0900F022830
:10517000E4D1328888B292B29042DFD10699029887
:10518000086046E000988103890F04D002291FD0EF
:1051900003292CD13DE00103890F012903D0306898
:1051A00001240C300DE0000D0C21801CFAF73AFFB1
:1051B000002900D00121401884B20C2031686043DE
:1051C00008183060069806990068401C08600EE0D8
:1051D0000103890F012901D0012408E0000D0C21F1
:1051E000801CFAF71FFF0029B0D1401884B26D1C53
:1051F000ADB2FF2D00D86AE77F1CFFB208480568F2
:105200002979B94200D951E70498002803D0012830
:1052100003D000207FE721207DE725207BE70000E9
:105220009C88FF1F10B5FBF7D9F910BD10B5FBF72F
:10523000DBF9C0B210BD0022002913D0002811D024
:10524000012806D04A799206920E4A71032805D0A9
:1052500007E04879C0221043487102E04020024331
:105260004A7101221046704770B512480025007837
:10527000052108421BD02020FBF7F0F80E4C002837
:10528000A06013D020220021FBF74CF82020FBF770
:10529000E5F8E060002804D020220021FBF742F866
:1052A00005E0A068FBF7E6F80020A060132528467B
:1052B00070BD00007D89FF1FF089FF1F10B50D4AEA
:1052C00003460B4C12201268A14209D1002A04D0D7
:1052D0001078984202D1FBF78DF910BD032010BD64
:1052E000034B5B1C9942FAD1002AF4D110BD000097
:1052F000FEFF0000E489FF1F0246094B10B50120A4
:10530000D21807D0012A01D0002010BD8A68127877
:10531000002AFAD08868007800F06CFE10BD00000A
:10532000F5DFFFFF002909D0012807D14979890954
:105330008901C02902D0402901D0022070470320F2
:105340007047FFB500200E4608701AE01C5C401C38
:10535000C5B2002C17D02819904214D85F5D6D1C7F
:10536000EDB2384600F09BFE002806D0641EE0B285
:10537000307000998F4202D1581904B0F0BD401925
:10538000C0B29042E2D30020F7E7000010B5044C11
:105390002068002803D0FBF76DF80020206010BDC6
:1053A000DC89FF1F70B5104D8400E86800590028A3
:1053B00019D0006A002801D0FBF75CF8E8680059B2
:1053C000406A002801D0FBF755F8E8680059806A68
:1053D000002801D0FBF74EF8E8680059FBF74AF8BF
:1053E000E9680020085170BDE089FF1F10B5044C2A
:1053F0006068002803D0FBF73DF80020606010BD16
:10540000E089FF1F011E044805D10449897800295D
:1054100001D00248801D70477CD9FF1F7C89FF1F87
:1054200001488078704700007C89FF1F0148406870
:10543000704700006CD9FF1F01488068704700006A
:105440006CD9FF1F0148C068006870476CD9FF1F06
:1054500010B50748C0680168491C0160054800781C
:10546000FF2803D001218903FAF724FE10BD0000B4
:105470006CD9FF1F7C89FF1F02484068002800D0BC
:1054800001207047D889FF1FFFB581B00F460D9EE0
:105490000A9D039803F0B8FA040042D0019800284E
:1054A0003FD120791021084320710499490702D582
:1054B0000221084301E0FD21084020710B99284694
:1054C00008430C9908433043207902D00421084353
:1054D00001E0FB2108402071002E06D03069102227
:1054E00020623146A018FAF73FFE002D01D0002FB0
:1054F00005D00B98002814D0012F08D011E0606A65
:10550000002801D0FAF7B6FF1C21284606E0606AA1
:10551000002801D0FAF7AEFF1C210B98FBF770F8BA
:1055200060620398274C8700E068C059002846D085
:10553000002D11D0006A002807D11C20FAF78EFF39
:10554000E1680028C959086206D0E0681C22C059E9
:105550002946006AFAF708FE0C98002813D0E06884
:10556000C059406A002807D11620FAF777FFE16892
:105570000028C959486206D0E0681622C0590C9923
:10558000406AFAF7F1FD002E13D0E068C059806A36
:10559000002807D11420FAF761FFE1680028C959F3
:1055A000886206D0E0681422C0593146806AFAF752
:1055B000DBFD0B9B049A0399019804F0BFFF05B033
:1055C000F0BD0000E089FF1FF3B581B0019803F042
:1055D0001BFA050029D00E20FAF776FF040024D02C
:1055E0002620FDF7EFFB060000D12E78D02020709A
:1055F000002767700B20A0700622E91DE01CFAF757
:10560000B3FD019860810298C1070120002901D0F3
:10561000207300E027730299890701D5607300E0C9
:105620006773F0B22146FAF72BFFFEBD10B58188F3
:105630001F4B0124CA1A994237D011DC1D4BCA1ADC
:10564000994219D007DC1C4A8A1810D0022A1ED0B1
:10565000032A29D11BE0472A27D0482A24D124E055
:105660001300FAF751FD062122222222222180680E
:10567000007800F0A9FC08E0806882784178120286
:10568000891889B2007800F02BFD04460DE0094A24
:10569000921E914201D1012200E00022806801782F
:1056A000104600F005FD00E00024204610BD00007B
:1056B000532000000A200000FADFFFFF70B51A4DEA
:1056C0001A4A0146002628781268194C01290CD084
:1056D000002A09D017490978490705D50221FAF7A8
:1056E00025FD6680FFF752FE70BD6188002903D05A
:1056F000114B1B78002B05D0002AF5D01078FDF750
:1057000037FB70BD3C2902D33C39618070BD02215A
:10571000FAF70CFD62887D20C00042430221287800
:10572000FAF70AFD668070BD0D8AFF1FDC89FF1F36
:10573000F089FF1F7D89FF1F7F89FF1F10B50E4A6B
:105740000124801810D001280BD0062810D00B4A55
:10575000D04203D1084600F047F900E0002420467B
:1057600010BD00F06FFCFAE7887800F08DF8F6E7DE
:10577000887800F005F8F2E7F3DFFFFF0E20FFFF67
:1057800008B5002805D000210B460A46009100F01C
:105790003BFB08BD08B5418900910389C288818817
:1057A000C07800F031FB08BDF0B504468088A12127
:1057B00089004843304987B009684018FF30FF30FE
:1057C0000230A1794167002C54D02C4D6868002824
:1057D00023D006782A480068002804D041680029B0
:1057E00001D0002088472146E07908310591FFF774
:1057F00099FDE0710246277D638A218AE089019044
:1058000002A88AC0A0880090E0783146059B04F089
:105810000DFFE078002802D00DE01A48D9E7E079C2
:10582000E2896B46059907C3A379A1880122304616
:1058300003F098F8E0706868002811D0FFF7D6FDF3
:10584000287800280CD06978FFF710FB002807D0D3
:10585000E078A2880346297804F015FF002028701C
:10586000A0881721FDF7A4F8A088FEF755FAA088B4
:10587000FEF786FA07B0F0BD3409FF1FE089FF1F6D
:10588000108AFF1F7C89FF1F00B585B0002810D04B
:1058900009490B68002B0CD0002101910291039162
:1058A00004910091DA7819781B1D04F0BFFEFFF710
:1058B0009DFD05B000BD0000E489FF1F70B50446E2
:1058C0000025808803F0A0F8002803D00578A08880
:1058D00003F022F9134E3078002808D0854206D113
:1058E0007178FFF7C3FA002809D000203070002D2E
:1058F00005D0A379A288A078294604F0C4FEA08828
:10590000F26881005158002901D0FFF74BFDA088B3
:105910001721FDF74DF8A088FEF7FEF9A088FEF7E5
:105920002FFA70BDE089FF1F70B58288294D0124D0
:10593000531B2949AA4242D019DC284D531BAA42C5
:1059400018D00BDC264BD21826D0254B1033D2189A
:105950001ED0032A17D0042A39D10BE0012B09D01D
:10596000022B07D0032B21D0042B30D11AE0433B6C
:10597000072B2CD8496800292AD00968002927D08C
:105980008847044624E08068007800F0DDF81FE0D6
:10599000806800F05BF9F4E78068411C007800F053
:1059A00033F9EEE783681B78002B11D08968002952
:1059B0000ED00B6808E0014610469847E1E7094918
:1059C0000968002904D04B68002BF4D100E00024C2
:1059D000204670BD0E2000000C8AFF1F082000002A
:1059E000F7EFFFFFE889FF1F7FB5054640791228D2
:1059F00025D12C460834EB89AA8969892889FAF7C8
:105A000005FE0026002804D02520FDF7DBF900283C
:105A100016D00120694688812979688803AAFEF793
:105A200005F968468089002809D1E0880196029628
:105A30000090A388628821886888FAF79BFE7FBD62
:105A400068468681E8E7000010B5094CA178002976
:105A50000CD001460622A01DFAF786FBA11DA078F6
:105A6000FFF7E9FBA01DFAF7BBFE10BD002010BD3B
:105A70007C89FF1F1CB52F49037801240A68912BEC
:105A800002D0A22B2ED13EE04178052909D00E2963
:105A900004D00F2908D03E2924D115E0FFF744FF98
:105AA00010E0FFF70BFF3AE001468088224B01240B
:105AB000C31801D0062B15D1002A30D05268002A15
:105AC0002DD0904704462AE081780124032917D07D
:105AD00004DC012911D0022904D105E015291ED0CA
